:080000006FA0D04000000000D9
:100008001305000E9705FEFF9385C5DF17B6FEFFA3
:100018001306069263FAC5008322050023A0550043
:1000280011059105E3EAC5FE17B5F4DF130545A3ED
:1000380097B5FEFF9385C58F17B6FEFF1306468F4B
:1000480063FAC5008322050023A055001105910518
:10005800E3EAC5FE17B5F4DF130585A09705000090
:100068009385450A1386419663FAC50083220500E5
:1000780023A0550011059105E3EAC5FE1385819675
:10008800979501009385854A6377B500232005007D
:100098001105E36DB5FEB73237129382023E7390B5
:1000A80002BC9D42739012BCB94273904280A16217
:1000B80093828288739002309702FEFF938282D4E3
:1000C80093E23200739052309732FEFF9382224EB1
:0800D800739012347300203014
:1000E000000000000000000056370A2072370A2086
:1000F000000000003C390A20000000000000000061
:100100003C390A203C390A200000000000000000B1
:100110003C390A2034470A2000030A20000000006E
:100120003C390A203C390A203C390A203C390A2053
:1001300000000000000000000000000000000000BF
:1001400000000000000000000000000000000000AF
:100150003C390A2000000000000000000000000000
:100160003C390A203C390A203C390A203C390A2013
:100170003C390A203C390A203C390A203C390A2003
:100180003C390A203C390A203C390A203C390A20F3
:100190003C390A2002330A203C390A203C390A2023
:1001A0003C390A203C390A203C390A203C390A20D3
:1001B0003C390A203C390A203C390A203C390A20C3
:1001C0003C390A203C390A203C390A203C390A20B3
:1001D0003C390A203C390A203C390A203C390A20A3
:1001E0003C390A203C390A203C390A203C390A2093
:1001F0003C390A203C390A203C390A203C390A2083
:100200003C390A203C390A203C390A203C390A2072
:100210003C390A203C390A203C390A203C390A2062
:100220003C390A203C390A203C390A203C390A2052
:10023000F6330A20DA340A203C390A203C390A20F5
:100240003C390A203C390A203C390A203C390A2032
:100250003C390A203C390A203C390A203C390A2022
:100260003C390A203C390A203C390A203C390A2012
:100270003C390A203C390A203C390A203C390A2002
:100280003C390A203C390A203C390A203C390A20F2
:100290003C390A203C390A203C390A203C390A20E2
:1002A0003C390A203C390A203C390A203C390A20D2
:1002B0003C390A203C390A203C390A203C390A20C2
:1002C0003C390A203C390A203C390A203C390A20B2
:1002D0003C390A203C390A20000000003C390A2041
:1002E0003C390A2000000000000000003C390A20D0
:1002F00000000000000000003C390A203C390A20C0
:100300003C390A203C390A203C390A203C390A2071
:100310003C390A203C390A203C390A203C390A2061
:100320003C390A203C390A203C390A203C390A2051
:100330003C390A200000000000000000000000001E
:1003400000000000000000000000000000000000AD
:10035000000000000000000000000000000000009D
:10036000000000000000000000000000000000008D
:10037000000000000000000000000000000000007D
:10038000000000000000000000000000000000006D
:10039000000000000000000000000000000000005D
:1003A000000000000000000000000000000000004D
:1003B000000000000000000000000000000000003D
:1003C000000000000000000000000000000000002D
:1003D000000000000000000000000000000000001D
:1003E000130181F806C216C41AC61EC822CA26CC3A
:1003F0002ACE2ED032D236D43AD63ED842DA46DC95
:100400004ADECEC0D2C2D6C4DAC6DEC8E2CAE6CC64
:10041000EACEEED0F2D2F6D4FAD6FED8F3220030ED
:1004200096DA83A2C1A123A02200F32510342EC0A6
:100430009305000273A0458003A1C195EF40504091
:1004400003A3C1A103210300824273901234D65248
:10045000739002309240A2423243C2435244E2447B
:10046000724582551256A2563257C2575258E25818
:1004700072598649164AA64A364BC64B564CE64C2C
:10048000764D865D165EA65E365FC65F13018107F8
:100490007300203013000000130000001300000060
:1004A0001300000013000000130000001300000000
:1004B00013000000130000001300000013000000F0
:1004C00013000000130000001300000013000000E0
:1004D00013000000130000001300000013000000D0
:1004E00083A2C195938202E07390023403A1C1A15B
:1004F000024182403243C2435244E2447245825533
:100500001256A2563257C2575258E258725986496B
:10051000164AA64A364BC64B564CE64C764D865D7F
:10052000165EA65E365FC65FD652A1027390023099
:10053000A242130181078280130000001300000013
:10054000130000001300000013000000130000005F
:10055000130000001300000013000000130000004F
:10056000130000001300000013000000130000003F
:10057000130000001300000013000000130000002F
:10058000130000001300000013000000130000001F
:10059000130000001300000013000000130000000F
:1005A00013000000130000001300000013000000FF
:1005B00013000000130000001300000013000000EF
:1005C00013000000130000001300000013000000DF
:1005D00013000000130000001300000013000000CF
:1005E000F322003093F272FF130380781203B3E218
:1005F0006200711523205500130585FA10C12115DD
:100600002320050081426387020071152320050025
:10061000FD12D5BF71150CC18280000000000000E2
:1006200000000000000000000000000000000000CA
:1006300000000000000000000000000000000000BA
:1006400000000000000000000000000000000000AA
:10065000000000000000000000000000000000009A
:10066000000000000000000000000000000000008A
:10067000000000000000000000000000000000007A
:10068000000000000000000000000000000000006A
:10069000000000000000000000000000000000005A
:1006A000000000000000000000000000000000004A
:1006B000000000000000000000000000000000003A
:1006C000000000000000397101436EC619A03971A5
:1006D00041536AC866CA62CC5ECE19A03971015313
:1006E0005AD056D252D44ED64AD826DA22DC06DE6A
:1006F00033016140828241114AC026C222C406C62B
:100700008282B24D4101024D924C224CB24B4101CA
:10071000024B924A224AB249410102499244224480
:10072000B240410182802A8309CA838305002300E5
:1007300073007D16050385056DFA82802A8311C634
:100740002300B3007D16050365FE8280EFF21FF9DA
:100750002A84AE84EF20601D8329440F0347540C84
:100760008326C40B639599008327840FADEF232A5A
:10077000940E232CA40E2320D4102322D41023055E
:10078000E410A14763E4970CB7A70A209387472397
:10079000B3C7F4209C43828723140410230504105C
:1007A00003C99196EF2060181379F90F0327C4103D
:1007B0001209938781A4CA9788C3D8C30357C40872
:1007C0009AA70347841023853701A4B7D8A7034706
:1007D0000409D8B703473409F8A783C7919685075A
:1007E000BD8BA384F1962DB785472304F4104DDB10
:1007F000232ED40EA304F41065B705462304C410B9
:100800008347941005C389E7232ED40EA304C41094
:1008100083A581840325C40FEF70207D2322A410BB
:10082000854739A0B5DFEDB785472304F4102DDBEC
:100830002305F410B5B70347941085472304F4103B
:1008400025D30327C40F2322E410DDB785472304F3
:10085000F410B9B7EFF2BFE7B7970D209387877110
:100860001307700698C3D843411113678700D8C394
:10087000EF4020462AC613052003012B2A89EF20CA
:10088000306383AB418503AC018583ACC184B7AAD7
:100890000A202A84014A938A8A25EF408043AA8944
:1008A0002285EF00C07D8327440F05468326C410B0
:1008B0009385D7FF6374B6041D466385C702B5CA26
:1008C00095472384F19683478410814589CBED9A1F
:1008D000A14591E68347540CA14591C39D452285CE
:1008E000B53505A889EE2384019603478410630279
:1008F00007140347040939E38545D5B7B9C683C74B
:1009000081961146850793F7F70F2384F196E369E3
:10091000F6FA2285EF00007A134A1A005285EF108A
:10092000B071CE850D454921CA856800EF4000634E
:10093000ADB7238401960347841045FF2147E36D3B
:10094000F7FAB3C757219C43828723840196034754
:1009500084106DD70347040945D38356C408130791
:100960006040E36DD7FC49BF83473409230404107A
:10097000CDD383472409D1FF83470409D9DB03572B
:10098000C40893076040E3E6E7F88347440CD1D3FB
:100990008324040B930500002685EF70B055635443
:1009A00005009394F469E6852685EF70B054E34220
:1009B000A0F68324440B930500002685EF70905326
:1009C000635405009394F46983A5C1842685EF7070
:1009D0007052E340A0F48347540C89459DDB01B776
:1009E00083470409E38A07F0834734099DD30357FB
:1009F000C40893071067E3FEE7F08347540C8D4566
:100A0000E38907F0E9BD8347540CE38407F083478B
:100A1000A410E38007F003254410E285EF80600313
:100A2000AA850325C40BEF7090439145E35905EA6D
:100A3000CDB5EF10906F0347540CAA8711E7834799
:100A40000409E39807EC4DBD0347941039C703250B
:100A5000C40F0327840F998F1307703EE37BF7EAD7
:100A6000DE85EF708058AA850325C40BEF7090488F
:100A7000E341A0EA8324040C930500002685EF706F
:100A80007047635405009394F46983A58185268596
:100A9000EF705046E34FA0E685B50325441055BFDF
:100AA000EFF2FFC2B7970D20938787711307600697
:100AB00098C3D8434111B704E80313674700D8C36C
:100AC000EF4020212AC61305401FC1242A89EF20A8
:100AD000303E83AAC185370A00012A84930B05039F
:100AE0009384843E130A0AF037AC0A20EF40601E5C
:100AF000A285AA89D6861305040B5E86EF00005DE9
:100B0000D6852285EF00C07121C08347340999CF73
:100B100083270409B3F7470191EB8347040999C779
:100B20000357C4089307604063E0E702930700009F
:100B30002324F40E2326940E2328940E232AF40C47
:100B4000232CF40C232EF40C1305C40EEF20C0004C
:100B5000EF10B05D83A7C19613073006B307F540C9
:100B60006370F7020357240F8356040F0356E40EF5
:100B70008355C40E23A6A1961305CC27EF80E05C15
:100B8000CE8509451524CA856800EF40203DB9BFD0
:100B9000EFF27FB6130785A39307800213040000CA
:100BA00063FBE702130545A2EF80E02C83A5818655
:100BB000EF70207983A401862A84A685EF70903394
:100BC000634A050083A441862285A685EF703029FB
:100BD0006353A0002684228589B6EFF2DFAEB79773
:100BE0000D20938787711307900698C3D84301118E
:100BF00013672700D8C3EF40C00D2ACE130520038A
:100C000069222AC4EF20D02A03ABC18683AB0187B7
:100C100003AC018683AC41862A84EF40800B834A73
:100C200034092AC6032D040763800A148347240964
:100C3000639C071203554407A13F2A8A0355A40762
:100C4000813F035764089307F063AA89035564073B
:100C500063F3E70883C7019789E79307000023221E
:100C6000F40A930785A81307800C6372F70613072D
:100C70000064635AA7021305059CEF80C01F83A57B
:100C80004187EF70006C93050000AA84EF709026F6
:100C9000634F0502E6852685EF70701C6344A00A49
:100CA0001309000035A83E85EF80E01C83A541872D
:100CB000EF702069E285AA84EF70D02363460508AF
:100CC000930500002685EF709019E35BA0FC930468
:100CD0000000268931A06D3D2A89814A93040000D5
:100CE0002388519783A58187232AA4095285EF7011
:100CF000F02983A58187232CA4084A85EF70102949
:100D000083A5C187232EA4084E85EF70302883A5C4
:100D100001882320A40A2324940A2685EF70102733
:100D20008325440AEF70602CDA85AA84EF70901C4A
:100D3000634E0500DE852685EF7070126359A000B2
:100D4000DE8431A0E684A9BFE28499BFDA848547B6
:100D50002322940A2306F40AB2450545B120A24590
:100D60006808EF40A01F55BD93070000232AA4097F
:100D7000232CF408232EF4082320F40A2322F40A57
:100D80002324F40A2306040AC1BFAA8719C913073A
:100D900080C105456369F7001385773E3355F50239
:100DA00082801305803E8280914763E2A70AEFF2BA
:100DB0009F942A84AE84EF30D071B3059540B794E8
:100DC0000D2093864463130784003347D7205C4784
:100DD0009384446385075CC7130704013347D72016
:100DE00008C3130744013347D720544363F3B600C5
:100DF0004CC393F7F70795EF8D476304F4049147CD
:100E00006304F40485476308F40289476308F40225
:100E100003A5419819C5EF40A033610433449420E1
:100E200008C4EF30101323A8A408EF30F01223AA4F
:100E3000A4086FF09F8E03A50198E9BF03A5C19791
:100E4000D1BF03A58197F9B703A54197E1B7828088
:100E5000EFF27F8A37940D20EF30B00F9304446394
:100E600088C09147FCDC51479387040898C38946A2
:100E7000D4C398C713074006D8C7B7A50A203715AB
:100E80000A209387419821478146130600409385A5
:100E9000C528130525F2EF30F03D88CCEF30700BFC
:100EA000C8C0984C854713044463630AF70037A50C
:100EB0000A209305000613054529EF209010B7A5D9
:100EC0000A2037150A20938701981D47814613068B
:100ED00000309385052B1305A5AFEF30B03948CC12
:100EE000EF30300708C4584C8547630AF70037A530
:100EF0000A209305400613054529EF20900CB7A55D
:100F00000A2037150A209387C19725478146130683
:100F100000409385C52B1305059CEF30B03508D0F4
:100F2000EF30300348C418508547630AF70037A5EF
:100F30000A209305800613054529EF209008B7A5E0
:100F40000A2037050A20938781971947814613069F
:100F500000309385452C13054577EF30B03148D0EC
:100F6000EF30207F08C858508547630AF70037A53F
:100F70000A209305C00613054529EF209004B7A564
:100F80000A2037150A20938741970D47814613069B
:100F900000309385052D130525EEEF30B02D08D4D4
:100FA000EF30207B48C818548547630AF70037A5FF
:100FB0000A209305000713054529EF2090006FF0E4
:100FC000CFF5EFF24FF3B7970D2093878771130793
:100FD000800698C3D843411113670701D8C3EF3087
:100FE000504F2AC6294555332A84EF20606CEF30D4
:100FF000504EAA8511454D3BA2856800EF30107612
:10100000FDB7EFF2AFEDB7970D2093878771130708
:10101000500698C3D843011113671700D8C3EF30A7
:10102000504B2ACE1305A00F8D33AA84EF204068C1
:101030002A84130A0403EF20400C93098404EF1060
:10104000905C13090407EF30D0482AC6EF20401106
:10105000EF1070732285EF00907C5285EF002072B4
:101060004E85EF00B0204A85EF10204AB245014579
:10107000253BA6856808EF30706EF1B782800DC9F8
:101080008347C5020347450493C7170019E393E755
:1010900027000347350909CB03270509B7060001D7
:1010A000938606F0758F19C393E747002326F51042
:1010B00082808280828011C9930700001CC15CC1BC
:1010C0001CC55CC51CC9231A050082804DC5C5C559
:1010D000EFF2CFE0B28441CA83C9C5022A843689BF
:1010E0006386090031469105EFF0EFE3DC28230A1F
:1010F0003401A5CF83A904015C38032AC400232648
:10110000340193040000A9CFA6854A85EF702055CD
:101110006358A004D2854E85EF70B013CA85EF7076
:10112000402203A94188AA84CA85EF70A05C634A63
:10113000050003A981882685CA85EF704052635354
:10114000A000CA84032904012685CA85EF707010A7
:1011500083A5C188EF708063CA85EF601069AA8497
:10116000854704C85CB86FF0AFDA930700001CC86D
:10117000A30A0400CDBF8280EFF2EFD7138581B4BC
:10118000EF00A053238A01986FF02FD9EFF2AFD66A
:10119000138541BBEF006052138501B9EF00E051A8
:1011A0001385C1B6EF0060516FF02FD7EFF2AFD4C7
:1011B00083A5418983A7C18703A7018983A6C18528
:1011C00013060000138541BBEF00804D83A7C18744
:1011D00003A7018983A6C18583A541891306000061
:1011E000138501B9752983A7818903A7C18983A5BF
:1011F00081849306000036861385C1B6552183A7E6
:10120000018A03A7418A03A6418583A5818A9306A3
:101210000000138581B4692185376D2E6FF0EFCF03
:1012200063070536EFF2AFCA0327450F83A78198FE
:101230002A842E8A6307F70081378327440F23A46B
:10124000F1988349C40A930A840C6389090A834785
:10125000440CD9CF8325040B03258409EF70607FEC
:1012600083A5018CEF70805283ABC18AAA84DE858E
:10127000EF704048634A050083AB018B2685DE850D
:10128000EF70E03D6353A000DE848325440B03250B
:10129000C4092324940CEF70C07B83A5018CEF70EC
:1012A000E04E03A9C18AAA84CA85EF70A044634AAC
:1012B000050003A9018B2685CA85EF70403A635368
:1012C000A000CA8403A901892326940C8324040A5C
:1012D000CA852685EF700042634A050003A9C187CD
:1012E0002685CA85EF70A0376351A002CA8431A851
:1012F000930700002324F40CBE84E9B79307000091
:101300002324F40C2326F40CBE849307000023242A
:10131000F40E232AF40C232CF40C232EF40C834714
:1013200084102328940C89EB9535B9351306C40E27
:10133000814556854D2425A08327440F0947639294
:10134000E702A935153D930700002324F40EB707E3
:101350001A049387A7412326F40E2328F40E6FF076
:101360008FBA0347540C0329C40B3DEB3135832757
:10137000C40B2320F40E930700002322F40E9304E1
:1013800000000C480325840C2324940E8329840137
:10139000EF70206CAA855286138541BB44482526F0
:1013A0002A890325C40CA685EF70A06AAA855286F7
:1013B000138501B9092EAA840325040DCE85EF708B
:1013C0004069AA8552861385C1B6F52C232EA40C3C
:1013D000232A240D232C940C1306C40E854591BF9B
:1013E0001147638CE70E1D476389E7140D47639F20
:1013F000E7148347A41099E3413351B703294410FC
:1014000083A481848325C40B4A85EF70806483ABF9
:10141000418BAA89DE85EF70E02D634A050083AB1E
:1014200041864E85DE85EF7080236353A000DE8900
:10143000CE852685EF60703B83A4418BAA89A68563
:10144000EF70402B634A050083A441864E85A68534
:10145000EF70E0206353A000A6898325040C4E851D
:10146000EF70205FAA855286138581B4A92C83A5CD
:101470008184EF6090378347440CAA8485CF03258D
:10148000040BEF30506C2A8B0325440BEF30B06B0C
:10149000AA855A85EF70802F83ABC18B2A8BDE859E
:1014A000EF704025635305005E8B2685DA85EF607B
:1014B0005069AA842320240F2322340F93050000AF
:1014C0002685EF702023E34C05EA83A54186268517
:1014D000EF70E018E357A0EA71A8638B090483C694
:1014E00041990325440A81EA854623A8219923A628
:1014F000A198238AD19883A5C198EF70805583A5C0
:101500000199EF60902E8324840A83A9418B2A8954
:101510002685CE85EF70001E634A050083A94186AB
:101520002685CE85EF70A013E35EA0ECCE84D9BDF6
:10153000EFF09FC493040000F1B58347A410E38D3E
:1015400007EA0329441083A4818B6DBDEFF0DFC24D
:101550008327C40B0355C4082320F40E930700000F
:101560002322F40E9307803EE3FBA7E09307F07C71
:1015700063F5A70083A4418629B5130585C1EF70E3
:10158000901B83A5418CEF60D05BAA84DDBB828079
:10159000EFF26F96930500002A84EF70A015634C5C
:1015A000050083A441862285A685EF70400B635613
:1015B000A000268419A01304000083A5418C228575
:1015C000EF70C01CEF7050061305853E33450508CB
:1015D0006FF0AF9482806304060CEFF22F90328498
:1015E00099C1AA8409E99307803E1EA03EA05EA08F
:1015F0007EA06FF0EF91032A050283A5818C4845F8
:10160000EF70C0182A8983A5818C8848EF70001874
:1016100083A5C18CAA89C848EF704017AA84CE85DB
:101620005285EF60901CCA85AA8AEF60101CA685BF
:10163000EF702042B13F0AA0CA855685EF70604125
:10164000A685EF60901AA937CE852AA05285EF7043
:101650004040CA85AA89EF70C03FA685EF70603F01
:10166000053F4AA0CA854E85EF603018A685EF6019
:10167000D017393F6AA0930500005285EF60307E95
:10168000E359A0F6130784009306C0491E200904FD
:10169000B3F7D70A231FF4FEE31AE4FE99BF828052
:1016A00001CD14C5930600000CC150C154C514C926
:1016B00058C91CCD58CD1CD1828009C593070000A4
:1016C0005CC51CC98280EFF26F819304000055C194
:1016D0002A842E89328593050000B289EF7080013B
:1016E000930400006357A0084C404A85EF70000A3D
:1016F000CE85EF70A0094C44EF60300F4448832A38
:1017000084012A8AA685EF60F07E634A0500D685AB
:101710005285EF60D074D6846343A000D2840C4815
:1017200044C44A85EF70E032CE85EF6090410C40B2
:10173000AA89232824014A85EF704005A685EF6019
:10174000D00A0C44AA844E85EF704004AA852685F1
:10175000EF60B009444C2A89A685EF60B079634AEE
:10176000050004504A85A685EF60706F6343A000B2
:10177000CA8426856FE0DFF98280054582806F008C
:10178000F0509377F50F138507FD1375F50F254777
:101790006365A7001315456082801387F7FB1377F5
:1017A000F70F954663E7E600938797FC139547602C
:1017B00082801387F7F91377F70F7D55E3EAE6FE8A
:1017C000938797FAE5B7630D050EEFE2DFEFAA8A7C
:1017D0004111AE890145BDC103A4818283A4C182A8
:1017E00083A7018303A841833289014C014B814BBC
:1017F000814D014A3EC042C2A28C268D33878A01A8
:10180000030707001376F70F930656FDF59AB3E624
:10181000860193F6F60F95E6130737FD133B170085
:10182000050C1377FC0FE36B37FD09C963040B004C
:10183000939DFD69232079012322B90141016FE0C5
:101840005FEC9307E0026316F700631D0A06054A82
:10185000C1BF130606FD1376F60FA54763E4C7065E
:10186000130507FD13154560EF60006C63080A025D
:101870002286A686EF5090232A86AE865E85EE8568
:10188000EF40F043AA8BAE8D2285A6856686EA8658
:10189000EF50D0212A84AE84528559B70246924631
:1018A0002EC62AC4EE855E85EF505020A2483247EE
:1018B0004686BA86EF40B040AA8BAE8D05458DB7FF
:1018C0000145828001459DBFEFE27FE0411111E6B5
:1018D0000144228541016FE01FE38547E39AF6FE4C
:1018E000328A3000BA84C5352A847DD12249B24972
:1018F000014681464A85CE85EF50900FE34A05FCAC
:1019000003A6818383A6C1834A85CE85EF50802BB1
:10191000EF60205C33450508EF60006803A6818313
:1019200083A6C1832A8CAE8BEF5050182A86AE86D0
:101930004A85CE85EF501068014681462A8BAE8AD3
:10194000EF50100BE34605F803A9018483A94184F5
:101950005A854A86CE86D685EF50A07DE35A05F695
:101960004A86CE865A85D685EF50C025DE866286A9
:10197000EF40F03488C0CCC083070A00130730055D
:1019800093F6B7FF6396E6009395F569CCC091B7DF
:101990001307E004E38FE7F29387B7FB13B4170054
:1019A0000DBFAA860145A9C2B1C10147814725489B
:1019B000A9481303F00F3385E6000305050013055E
:1019C00005FD137EF50F6362C803B3871703AA975B
:1019D000B3C70708636BF30005071375F70FE36CD4
:1019E000B5FC1CA205458280828001458280038768
:1019F00081BD930740022A88631BF702938791BD3C
:101A00000147938691BD9308C0021303A00203858A
:101A1000070063001503630A65001DE1631AE8000F
:101A200094C1958F1CA205458280E30BE8FE014519
:101A30008280E307E8FE05071377F70F9386170008
:101A40008507F1B7EFE23FCB13068002814513858E
:101A500081C5EFE0BFCE23AC0198A38B0198238B07
:101A60000198A38A019805456FE03FCBEFE2BFC51F
:101A70005D7137940D202AC4EF00306B13070448C2
:101A80001C43AA8485071CC3014913040448930B13
:101A90004002138B81BD854C054C1305D101EF101D
:101AA00060760DC58346D101639B76071C442300F5
:101AB0007B01238B819985071CC4A38A8199230C00
:101AC0009403050993070010E319F9FC5C400145F4
:101AD000CA975CC0A247A9C383C77199138981C5FE
:101AE0009DC38347190285C383A781991307007D8E
:101AF000B387F4406379F7001C5823209900A300B2
:101B0000090285071CD8224513068002938581C5EA
:101B1000EFE07FC10345190261616FE09FBE83C79B
:101B20005199C5D3B547E38EF6F8294783C7619924
:101B30006399E62C938681BDBE96238006005444AB
:101B4000A38A0198138D81BD850654C4230CF40229
:101B500044D881471306F005B306FD0083860600CE
:101B600095EE93F7F70F038781BDA297A38C070229
:101B700093074002631AF700938D91BD8149930644
:101B8000A00203870D0005E35C4885075CC815BF0C
:101B9000B305F400A38CD50285077DBFE39AC7FE89
:101BA0009307F005C9B76307D728B3C7E90093F9CE
:101BB000F70F850DF9B723AC9198854DA38BB1999B
:101BC0001257938781C584C3830607001307100447
:101BD000138D81C56388E600A38007025C548507E6
:101BE0005CD4C5B510102C100D45EFF05FE001E599
:101BF000A3000D026DAC130611026C101145EFF03D
:101C00001FDF7DD5130621020C181545EFF03FDECE
:101C100065D1130631024C181945EFF05FDD69D923
:101C20008346110232568345010222553818EFF0DF
:101C3000BFC95DDD834631025256834521024255BC
:101C40009800EFF07FC84DD5F25762571306F101A7
:101C50002326FD0096472324ED000647232AFD0096
:101C60001C544C101D4585072328ED00A300BD031F
:101C70001CD4EFF0DFD7E30605E48345F10191E5DD
:101C800093070000232EFD002DBD1255B000EFF08C
:101C90009FB3E30805E2B6452645EF70403483A5BF
:101CA000018DEF60B02E232EAD0021BD130770040F
:101CB0006397E70803074D006313F70803075D0008
:101CC00093071004631DF70603076D009307C00216
:101CD0006317F7061C501306E1014C1085071945E0
:101CE0001CD0EFF0DFD06304051C8345E1011255E1
:101CF00013063102EFF0FFCA630B051A23AC91986B
:101D000005471306E1014C101D4523AC91C4A38B7C
:101D1000E198EFF0DFCD138D81C501CD8345E10161
:101D20001255B000EFF0FFC709C5834781042300B7
:101D3000FD028347310281EBA3000D0245B51C4C27
:101D400085071CCCBDBB1306F1012C100945EFF033
:101D50001FCAE30F05E810106C100D45EFF03FC9E6
:101D6000E30805E8130611020C181145EFF03FC80F
:101D7000E30005E8130621024C181545EFF03FC7B4
:101D8000E30805E68346010232568345F1012255F8
:101D90003818EFF07FB3E30D05E483462102525675
:101DA0008345110242559800EFF01FB2E30205E4AB
:101DB000F25762571306E1012326FD0096472324BC
:101DC000ED000647232AFD008547A300FD021C54B1
:101DD0004C10254585072328ED001CD4EFF03FC1AA
:101DE000E30105CE8345E1011255B000EFF0BF9D40
:101DF000E30905CC2645B645EF70601E232CAD00E7
:101E0000C9B11307E007637CF7001C48238B0198D6
:101E1000A38A019885071CC8230C04025DB11387AF
:101E200017001377F70FDA97238BE19894A3230C0D
:101E3000E40241B903851D00EFF0BF942A87E34512
:101E400005D403852D003AC6EFF0BF93E34E05D2CB
:101E50003247939749601207598D13154560E31572
:101E6000F5D283073D0013072005E391E7E403075C
:101E70004D009307D004E314F7EC03075D009307CC
:101E80003004E31EF7EA03076D009307C002E3186E
:101E9000F7EA5C4C1306F1014C10850709455CCC50
:101EA000EFF0FFB409C58347F101E39607D05C501A
:101EB00085075CD039B108418280EFE2DF83896712
:101EC00041119387E7377C849D475C859C21C885B9
:101ED000A30701005C869C3101479946DC86814757
:101EE00030003A9610220507B29793F7F70FE319DF
:101EF000D7FE28009D455C87EF10A04C41016FE0A4
:101F0000DF81EFE24FFF03C701D0411149EBAA8700
:101F1000138401D02E8581E958409306301F338702
:101F2000E74063FFE606130680039384C1CB814537
:101F30001385C1CB5CC0EFE07F8083A7418D6C002F
:101F4000130500069CDC83A7818DDCDCBCC099678F
:101F5000938747F67C86EFF05FF60945EF30C02C9B
:101F6000A5476C00130510065C86EFF01FF50945C8
:101F7000EF30802B85446C00130500086486EFF079
:101F8000DFF3F16537A50A20130640069385052087
:101F90001305852D04A023260400EF70001B0545C2
:101FA00041016FE08FF7EFE28FF2938701D037A9FD
:101FB0000A20B7A90A2023A0070023A2070023A410
:101FC000070023A607008544138A01D08D4A130910
:101FD00049309389C93737AB0A20994BEF00F01489
:101FE00001468545EFF0FFF12A841DE58327CA00ED
:101FF000CA8663E5FA00B3C737219443A685154620
:102000001305CB308504EF7040146387740113050A
:102010004006EF306021D9B722856FE0CFEEEFE2C6
:102020008FEA0111AA848149EF0030106383041EF6
:1020300083C701D0AA8C138A01D089E70546814560
:10204000EFF03FEC37940D201307842D1C4337AB82
:102050000A2085071CC393070B33A30F0100814996
:102060001304842D3EC6138901C81305F101EF1036
:10207000C02A1DC983C7F19985091147B3C9090849
:10208000636EF71A3247B3C7E72098438347F101DD
:102090000287130730026392E7188947A38FF198EC
:1020A00093070008E393F9FC5C40BE999387C1CB8A
:1020B000882323223401CC431389C1CBFD5719C196
:1020C000B387BC40834919001CDC03268900FD57F7
:1020D00063840900B387CC40834A29005CDC032772
:1020E000C900FD5763840A00B387EC4003480A0027
:1020F0003CC0854723060407A306A406230734072C
:10210000A307540719C5B387BC4093B7F71593C706
:10211000170093F7F70FA308F406854763880900B3
:10212000B387CC4093B7F71593C7170093F7F70F12
:102130002309F406854663880A003387EC40133789
:1021400097259346170093F6F60FA309D406834705
:10215000140799C783C7219A81E73C5085073CD073
:102160008347240799C783C7119A81E77C50850765
:102170007CD08347340799C783C7019A81E73C54D1
:1021800085073CD483471407B337F0002381F19AC5
:1021900083472407B337F000A380F19A83473407BD
:1021A000B337F0002380F19A6309082C6307052CEC
:1021B0006385092C3387BC409306E01563EFE62A5C
:1021C000B387CC4063EBF62A232494038547230886
:1021D000F40631469305890223A094011385440037
:1021E000EFE06FD431469305C90113850401EFE098
:1021F0008FD33146930509011385C401EFE0AFD2B7
:102200009307000063840A00832789039CD42386F4
:1022100034034E8505616FE0CFCE938727F893B7DF
:102220001700ADBD238FF198ED1793F7F70F130744
:10223000B0036378F7001C4485071CC4A38F019882
:1022400085B58D47A1BDA38EF198238E0198914746
:10225000B1B583C5C19903CDE19993861500138665
:1022600001C81307CDFF93F6F60F2E961377F70FDD
:10227000238ED1981CA2E3E5E6E203CCD199014676
:10228000B3078D01938717FA6D1D93F7F70F137D31
:10229000FD0F9375F60F63EAA5034A970347F7FF0F
:1022A0006319F71CEF006068930760022A8B6304D0
:1022B000FC1463E487030546630ACC189147630363
:1022C000FC085C4885075CC895BFB305C9008C2134
:1022D0000506AE9793F7F70F6DBF93072003E31240
:1022E000FCFEBD4763F3A707138501C8138DC1CB5F
:1022F000EFF07FBC232AAD02138541C8EFF0BFBBCE
:10230000232CAD02138581C8EFF0FFBA232EAD0256
:102310001385C1C8EFF03FBA85472301FD005C5823
:1023200014502320AD0423266D01850614D081CBE3
:10233000B307FB407CC4344C63F3F6003CCC232A47
:102340006403EDBDAD4763E6A7011C4885071CC8C3
:10235000F5B5039501C8EF60103283A5C18D138DCB
:10236000C1CBEF60A0422328AD0003152900EF6028
:10237000903083A5C18DEF606041232AAD00031525
:102380004900EF60502F83A5C18DEF602040232CC2
:10239000AD0003156900EF60102E83A5018EEF607C
:1023A000E03E232EAD0003158900EF60D02C83A5FD
:1023B000018EEF60A03D2320AD020315A900EF6060
:1023C000902B83A5018EEF60603C5C54144C054655
:1023D0002322AD02850623226D012300CD0014CCFB
:1023E00081CBB307FB407CC0344863F3F6003CC8A4
:1023F00023266403A1B5AD47E3F9A7F5138501C80A
:10240000EFF07FAB138DC1CB2324AD02138541C800
:10241000EFF07FAA2326AD02138581C8EFF0BFA994
:102420008547A300FD001C58544C2328AD022324EB
:102430006D01850654CC81CBB307FB403CC4744886
:1024400063F3F6007CC823286403CDBB8947E3FE11
:10245000A7EF83C701C8A300FA008347190023012F
:10246000FA0083472900A301FA005C5085075CD07D
:10247000F1B35C4485075CC4D1B3232494032308DF
:1024800004067C4C814985077CCCA1B3EFE2AFA662
:102490002A84612939C8AA8603C501D09387C1CB94
:1024A000BC231387C1CB1DCD89EF14C083A7818DB9
:1024B00001455CC01CC483A7418D5CC49307000028
:1024C00031A85C4714C0B387F64013B597255C5F0D
:1024D0005CC03C431CC41C5F5CC45C5B1CC848A85B
:1024E0006FE0AFA314C0F9D3DDB70145D5BFEFE26C
:1024F0008FA0130680048145138501D1EFE00FA45E
:10250000EF00102205456FE04FA1EFE24F9C011153
:102510002A8921296300090C37940D201307C43E32
:102520001C43416A8507AA891CC3814B1304C43E1E
:10253000938401D1054C7D4B930C00027D1A130549
:10254000F101EF0090551DCD8347F101A30AF4027C
:10255000034794037D8B2297230DF70203479403CF
:1025600005071377F70FA30CE40203C7040225EB5A
:10257000638997095C5085075CD0850B9307000839
:10258000E39FFBFA5C40DE975CC063950B005C54F4
:1025900085075CD403CA44049307490063120A14F4
:1025A00058489306C05D050758C823203901130712
:1025B000890196A38907E31EF7FEB707DC05138799
:1025C000C75D9387873E232EF900C167232CE9005E
:1025D0002320F902014A528505616FE0CF92631E04
:1025E0008703130700046383E7021848050718C828
:1025F000639797072380940123808403230A84032D
:10260000ADBF2380840323809401CDBF094723807D
:10261000E4029CB0230AE4028DB79306170093F6F8
:10262000F60F26972380D4021CA3230AD402E37654
:10263000DBF49830FC3C83C601D1230BE402A30BEE
:10264000F402230C04026396960193060004630DC2
:10265000D7005C5085075CD01C4885071CC82380C8
:102660000402230A040211BF814652877946B385CA
:10267000D4008C2185060D8F33470708E399C6FEE9
:10268000F42CA207D58F6386E7001C5485071CD461
:10269000E1B7268781461308007D1305803EB945C2
:1026A0003C3330230907A207D18F33D6070B33768B
:1026B000A60A12B3138686023326862085063EA616
:1026C000E390B6FE23830404A3820404B92C854757
:1026D0002382F4041C44A8C085071CC408D841B751
:1026E0003EC6A124B8409306A00FB247198DE3E976
:1026F000A6EA2320E900A68601472945AE32130643
:102700008703332686208EA36EA6050789068907D0
:10271000E316A7FE83274900232CF90083278900AD
:10272000232EF9008357090193B7076493C7170055
:102730002300F90283C76404A300F90283C7540489
:102740002301F90281C7A301090269B58547A301E5
:10275000F9021C5085071CD0BDBDEFD2DFF979719D
:10276000130600028145080802C202C402C6EFD067
:10277000FFFC854513054020EF1070010145EF1067
:1027800050068D451145EF104064371501408D47C7
:102790004C0013050580372401407C8202C6EF10EF
:1027A000403513050440EF108027B7070E001305CE
:1027B00004403ECE0C0885472302F10202C802CA3B
:1027C00002CC02D002D402D6EF10602913050440D7
:1027D0008545EF10202E13050440E164EF10802E94
:1027E0009384146A130404402285EF10402E11C90B
:1027F000FD14FDF8B7970D209387873D9843050793
:1028000098C3B7240140138504406164EF10A02CE5
:102810001304146A938404402685EF10002D11C917
:102820007D147DF8B7970D209387873D9843050762
:1028300098C345616FD07FEEEFD2FFEB894509C9A0
:1028400037150140130505C0EF1020396FD0FFEC9C
:1028500037150140130505C0EF106038C5BFEFD232
:10286000FFE737940D204111130484718949F16405
:1028700002C202C402C623203401EF108004EF20FC
:10288000901813850420EF20D01C0D498545214563
:1028900023202401EF10A06F371501404C00C147E1
:1028A000130505C03EC6231231014AC4EF1060244F
:1028B0000145EFF07FF8992A13850420EF00607638
:1028C0000965A947130505581CC04121138504203B
:1028D000EF004059EFF07FE837A60A20B7A50A209D
:1028E00037A50A201306C638938545391305C53A1E
:1028F000EF60B00583A5C19B37A60A2037A50A2043
:102900001306863B1305053DEF60300437A50A200A
:10291000130620039305803E1305053FEF60F00288
:10292000CD471CC041016FD0BFDE03A5419A828014
:1029300083A7419A850723A2F19AB7970D20938721
:1029400087719847050798C78280EFD2DFDA3794FE
:102950000D208D461304C43463EDA6029307007D59
:102960002E87B3D7F50A1306803EB3F5C70AB327FF
:102970008520DAA3CEA78947630CF5046301D50649
:1029800085476300F50437350140130505C0EF1096
:10299000B018B737014003D747C3938707C0334701
:1029A00007085AA89A3F334707087AA8DA3F3347FF
:1029B00007081AAC83D70704B3C707083EAC6FD02B
:1029C000DFD537350140130505C0EF103015D1B7FD
:1029D00037350140130505C0EF1090145DBF373542
:1029E0000140130505C0EF10F01365B7EFD2BFD05B
:1029F000AA840144114922850504A6851374F40FA5
:102A0000EFF0BFF4E31924FF6FD03FD1EFD21FCD19
:102A100005657971854513055584B719014002CACA
:102A200002CC02CE02D002D202D402D602C402C626
:102A300023180100EF10A055138509800546A14514
:102A4000EF10201A37240140130504800546AD45D8
:102A5000EF102019130504800546B545EF106018E6
:102A6000054613050480B945EF10A0179307001021
:102A700061498D444C0813850980FC824ACE26CCDE
:102A8000EF1020079D67938707804C08130504808B
:102A9000FC824ACE26CCEF10C00583A7C19B3747E6
:102AA0000F0013070724B3D7E702373401402C0087
:102AB000130504C023150100FD177C8495679387D7
:102AC000F7E13EC6EF104053C167938707063ED03B
:102AD0000C109307803E130504C02313F102231446
:102AE0000102EF1020590C10130504C0EF10A05F75
:102AF0000C10130504C0EF10A0680C10130504C0DF
:102B0000EF108071130504C0A145EF10607C130520
:102B100004C0A145EF10A07C130504C0A145EF102F
:102B2000607D130504C0A145EF10A07D130504C00E
:102B30008545EF104078130504C08545EF104076B9
:102B40008545130504C0EF1020741305803EEFF097
:102B5000FFE945616FD0DFBBEFD2FFB9B7970D201A
:102B60009387C7349843AA840144050798C3114941
:102B7000B32794208E231375F40F0504EFF0FFDCC8
:102B8000E31824FF6FD07FB9EFD2FFB64111B147F0
:102B900002C42EC08A852A847C8502C202C6EF1038
:102BA000C07885452285EF10500341016FD0FFB6F4
:102BB000EFD27FB4B7440040130410409384044024
:102BC000930500022685EF10B00709C57D14334434
:102BD00004081DE037440040A14513050440EF10F0
:102BE000300619CD37450040835705401305054091
:102BF000EF1090046FD07FB22685EF10F003C9B7B5
:102C0000914513050440EF10B00369FD8945130594
:102C10000440EF10F00279F5854513050440EF10EC
:102C2000300269F1C1BFEFD21FADB75400401304A9
:102C3000101093840480930500022685EF10500045
:102C400009C57D14334404081DE037540040A145F4
:102C500013050480EF10C07E19CD3755004083570F
:102C6000058013050580EF10207D6FD01FAB2685F2
:102C7000EF10807CC9B7914513050480EF10407CAC
:102C800069FD894513050480EF10807B79F5854542
:102C900013050480EF10C07A69F1C1BFEFD2BFA560
:102CA000B754004013041020938404C0930500021D
:102CB0002685EF10E07809C57D14334404081DE033
:102CC00037540040A145130504C0EF10607719CDBB
:102CD00037550040835705C0130505C0EF10C07578
:102CE0006FD0BFA32685EF102075C9B79145130596
:102CF00004C0EF10E07469FD8945130504C0EF10AE
:102D0000207479F58545130504C0EF10607369F1EF
:102D1000C1BFEFD25F9E6164AA841304146A930555
:102D200000082685EF10C07119C1054529A87D143A
:102D30007DF4B7970D209387C75103A7471101452D
:102D4000050723AAE7106FD05F9DEFD2DF9A239C7F
:102D5000019A4111AA84239B019A854537050200F7
:102D6000238A019A02C202C402C6EF1000248545DC
:102D700013051002EF10A021371401401305044081
:102D80001D469545EF00F0651D4613050440994525
:102D9000EF003065930700027C82E1473EC64C009D
:102DA0008D47130504403EC4EF00B0549307000460
:102DB0007C824C0093078004130504403EC63744D0
:102DC0000040EF001053A68513050440EFF0DFDB51
:102DD000B7E700E00547A386E7624157A386E742CD
:102DE000096723A2E7180F100000014623A2E72875
:102DF0009305505213050440EF10605FEFF05FDB66
:102E000041016FD09F91EFD21F8FB7970D2093870D
:102E1000C751D8570507D8D783C7419B85E73745A2
:102E2000004001469305505213050540EF10205C09
:102E3000EFF01FD8B7E700E0096723A2E72885472E
:102E4000238AF19A374500400546930550521305F1
:102E50000540EF10C059B7E700E0096723A2E7106B
:102E60006FD0BF8BEFD23F892399019A4111AA8479
:102E70002398019A8545370504002387019A02C2E9
:102E800002C402C6EF10601285452545EF102010E0
:102E900037140140130504C01D46A945EF007054C6
:102EA0001D46130504C0AD45EF00B0539307004025
:102EB0007C82E1473EC64C008D47130504C03EC4EA
:102EC000EF0030439317B0287C824C0093078004B6
:102ED000130504C03EC637540040EF009041A6855C
:102EE00013050480EFF05FCAB7E700E00547238AC7
:102EF000E7644157238AE7443707100023A4E71803
:102F00000F100000014623A4E72893055052130533
:102F10000480EF10C04DEFF01FD141016FD0EFFFE3
:102F2000EFD26FFDB7970D209387C75103A74708CE
:102F3000050723A2E70883C7E19A8DE737550040CC
:102F400001469305505213050580EF10404AEFF0FB
:102F50009FCDB7E700E03707100023A4E728854797
:102F60002387F19A375500400546930550521305C3
:102F70000580EF10C047B7E700E03707100023A433
:102F8000E7106FD08FF9EFD20FF737150140130517
:102F900005C0EF001044B7970D209387C751239EBB
:102FA000A70803D7C709B706014093870708135737
:102FB000B748F8AF984A31833D8BF8BF9842B7566F
:102FC000004098D31387068083D60680B3C60608D0
:102FD00094C75627B3C60608D4C7162BB3C606082F
:102FE00094CB562BB3C60608D4CB1A273347070811
:102FF00098CF37E700E0144793D64649D4D3145707
:1030000093D6464994D79306073094461307077022
:1030100093D64649D4D718471357474998DB6FD002
:10302000CFEFEFD2AFEB2396019A4111AA842395FB
:10303000019A8545370508002384019A02C202C41B
:1030400002C6EF009076854513051008EF00307436
:1030500037240140130504C0C145EF001038414931
:103060008D494C00130504C0231221014AC64EC4E9
:10307000EF0030281D46130504C09145EF0070365F
:10308000E1474C00130504C03EC6231221014EC483
:10309000EF0030261D46130504C08D45EF00703447
:1030A000A1477C824C0093078004130504C03EC6F0
:1030B00037540040EF00F023A685130504C0EFF05D
:1030C000BFACB7E700E00547A38AE7644157A38A8E
:1030D000E7443707200023A4E7180F10000001463B
:1030E00023A4E72893055052130504C0EF102030A5
:1030F000EFF0DFBA41016FD0AFE1EFD2CFDFB7978A
:103100000D209387C75103A7470E050723A2E70E9B
:1031100083C7819A8DE73755004001469305505289
:10312000130505C0EF10A02CEFF05FB7B7E700E084
:103130003707200023A4E72885472384F19A3755D1
:103140000040054693055052130505C0EF10202A94
:10315000B7E700E03707200023A4E7106FD0EFDBCC
:10316000EFD26FD937250140130505C0EF00702657
:10317000B7970D209387C751239EA70E03D7C70F7C
:10318000B70601403756004013573748238FE70EE4
:10319000D85631833D8BA38FE70E944213870710D7
:1031A0009387070814C3930606C0035606C0334628
:1031B0000608B0D7D22633460608F0D7922A3346FF
:1031C0000608B0DBD22A33460608F0DB9626B3C6E3
:1031D0000608B4DFB7E700E0944793D6564954C3D6
:1031E000945793D6564914C79386073094469387CD
:1031F000077093D6564954C79C4793D757491CCB61
:103200006FD0AFD139C537E600E0032846008965A5
:103210002322B6183378B8000F10000003D3619B47
:1032200083D6819BB7970D209387C7516315D3022F
:10323000D4478506D4C703D7619B33470708BABB79
:1032400003D7819B33470708DABB630408002322B6
:10325000B6100145828003D3619B938681059A96BF
:10326000942214A183D6619B850693F6F63F239B97
:10327000D19A9447850694C703D7619B33470708C3
:10328000BABB03D7819B33470708DABB6314080036
:10329000054582802322B610E5BF0DCD37E700E05B
:1032A0001047B70610002324D718758E01CE0F10D3
:1032B000000003D8019B03D6219B631FC80223246F
:1032C000D71009A80F10000083D6019B03D7219BBC
:1032D0006394E6000145828083D6019B138781F5C4
:1032E0003697182318A103D7019B05071377F70F0B
:1032F0002398E19A0545828083D5019B138681F549
:103300002E96102210A103D6019B05061376F60F08
:103310002398C19A2324D710F1BF2DC5B7E600E04A
:103320009C463706200023A4C618F18FA1C70F10B2
:10333000000003D8A19A83D7C19A6307F804854790
:1033400003D6A19A938681D5B296942214A183D6EE
:10335000A19A850693F6F61F2395D19A37970D20EB
:103360001307C7518326C70B8506232ED70A85E38B
:10337000054582800F10000003D6A19A83D6C19A1A
:10338000E310D6FC0145828023A4C610E5BFB7E751
:1033900000E03707200023A4E710D9BFEFD2AFB574
:1033A0004111375400402AC6130504C0EFF07F9640
:1033B00011C5B245130504C0EF10800741016FD05D
:1033C000CFB519CDEFD22FB32A84B304B50063145F
:1033D00094006FD08FB408200504EFF03FFCC5BF08
:1033E000828001113EC4B74700403AC603D7074068
:1033F000B7970D2036C89386C75132CA90422ACE5D
:103400002ECC42C2050690C23347070898DE1376D9
:10341000F70090D6937687009387C75181C6D44B27
:103420008506D4CB9376270081C6944F850694CF2A
:103430009376470081C6D44F8506D4CF9376170084
:1034400081C69453850694D39376F70291EED853B0
:103450000507D8D37245E2455246C2463247A247D5
:103460001248056173002030B74600401377070209
:103470009386064039CFCE2203D7819B83D6619BAA
:103480003348070805071377F73F93F5F50F639C5B
:10349000E600944B850694CB83D6619B850693F614
:1034A000F63F239BD19AD4438506D4C393868105E6
:1034B0002388B702C2968CA2239CE19A03D7619B12
:1034C00033470708BABB03D7819B33470708DABBEA
:1034D00051B7DE2241B701113EC4B75700403AC68A
:1034E00003D70780B7970D2036C89386C75132CAD5
:1034F000F04E2ACE2ECC42C20506F0CE1386060828
:103500003347070818C61376F700F0DE9376870076
:103510009387C75181C6B4578506B4D793762700E1
:1035200081C6F4578506F4D79376470081C6B45B0D
:103530008506B4DB9376170081C6F45B8506F4DB61
:103540009376F70291EEB85F0507B8DF7245E24562
:103550005246C2463247A2471248056173002030E6
:10356000B7560040137707029386068029C7D622F4
:1035700003D7219BB05393F6F60F3348070805068F
:10358000B0D32380D70883D5019B05071377F70FA6
:10359000639CE500EC538505ECD383D7019B85073D
:1035A00093F7F70F2398F19A938781F5C29794A325
:1035B0002399E19A61BFDE2251BF01113EC4B75782
:1035C00000403AC603D707C0B7970D2036C8938688
:1035D000C7519386060832CAD05A2ACE2ECC050689
:1035E000D0DA33470708B8D61376F700F0CE9376D3
:1035F00087009387C75191C683A6870C850623A4AD
:10360000D70C9376270091C683A6C70C850623A600
:10361000D70C9376470091C683A6070D850623A88D
:10362000D70C9376170091C683A6470D850623AA6B
:10363000D70C9376F70299EE03A7870D050723AC05
:10364000E70C7245E2455246C2463247A247056141
:1036500073002030B7560040938606C0D6221377F9
:10366000070293F6F60F2380D70E61DF03D7C19AC6
:1036700083A6870B33450708850623ACD70A83D674
:10368000A19A05071377F71F6399E60083D6A19ADD
:10369000850693F6F61F2395D19A83C6070E938766
:1036A00081D593F6F60FAA9794A32396E19A51BF7A
:1036B000138581458280EFD20F8437940D20130645
:1036C0000011814513048471F94793848145138562
:1036D00081451CC0EFD08F86B707E8039387873EEC
:1036E00023A6F40E23A8F40EFD471CC0EFE0BF8B09
:1036F000930700021CC0EFE04F88930710021CC024
:10370000EFE04FB4930720021CC0EFE05FDE9307A9
:103710008002138581501CC0EFD0FF99EFD01FA904
:10372000EFD0DF95EFD0FF98EFE00F851305803ED7
:10373000EFF0CFAB930720031CC0EFD06FF1EF1079
:1037400040019307C00348C41CC0EF10804F93078B
:10375000800C1CC001A0EFC21FFA37940D20B707E0
:103760005EA589071304846E1CC0EF00907E08CC10
:10377000EF00907E48CC1305803EEFF02FA78967BD
:10378000938707807390073001A0EFC2DFF637946C
:103790000D20B7075EA51304846E8D071CC048C0BA
:1037A0000CC4EF00107B08CCEF00107B48CC130555
:1037B000803EEFF0AFA3896793870780739007304F
:1037C00001A0EFC2BFF186892E8AAA8AEF10B01C31
:1037D000B7940D20B7075EA51384846E85071CC0BF
:1037E00023265401232844015C482A899384846E4B
:1037F00085075CC8EF00F07508CCEF00F07548CC89
:10380000232034032322240385476302F902EF10A7
:10381000404C88D4EF10D017C8D41305803EEFF089
:10382000EF9C8967938707807390073001A023A4DA
:1038300004020145D5B7B7970D209387C76C98430D
:10384000050798C39307800873B007800F10000026
:1038500001A0B7970D209387C76CD8430507D8C33D
:103860007327203498C773271034D8C77327303490
:1038700098CB73270030D8CB0A8798CF930780085E
:1038800073B007800F10000001A0EFC2DFE6B7E7BA
:1038900000E03707200023A4E7180F10000037943A
:1038A0000D2023A4E7281304847185471CC0EFE092
:1038B0001FFBD1471CC0EFF01FE09307A00F1CC0F7
:1038C00001A0B7170240D44398472146B18A6394B8
:1038D000C602B7060070758F37060050630BC7121B
:1038E0006360E6021DC7B7479C1CB706004093877C
:1038F00007806307D706B7877D01938707848DA06C
:10390000370600606308C70EB7677307938707948D
:10391000CDB79047944798479305000A93F6060E53
:1039200021831377F7037D8A0507639AB606B76785
:10393000CD1D9387075033D7E702B7070C20938735
:103940000732B2979C239146B387E7026309D600FA
:10395000856693860654B3D6C600858A91C2858350
:1039600023A0F19C37160240544237070C2013075E
:1039700007319182BD8A36971823B7060C209386AB
:10398000063EB3D7E700584241830D8B3697182384
:1039900033D7E70023A2E19C23AEF19A82809305FE
:1039A000000E6392B602D45BB7070C2093870730F2
:1039B000C182B6979C23B7867D0193860684B38720
:1039C000D70285838DBF930700086397F600B7473A
:1039D0009C1C9387078085B79307000C6397F600BC
:1039E000B767730793870794B9B7B7877D01938744
:1039F000078491B7D85BB7070C20938707304183C2
:103A0000BA979C2337877D0113070784B387E702A2
:103A1000B9B7B767CD1D9387075099B701A0EFC21B
:103A20009FCDB727014093870740631CF50085456C
:103A300013050020492B81451305002069236FC021
:103A4000DFCDB737014093870780E31AF5FE854540
:103A5000130500408D2B814513050040C5B7584123
:103A6000B707F1E09387F7EF944D7D8F9C41D58F99
:103A7000D44DD58FD441A206D58FD98F5CC11845BE
:103A8000B7F7F1FF9387D77FD4457D8F9C49D58FBA
:103A900094458606D58FD98F1CC55855B70710FF9A
:103AA000FD177D8FDC29FD1793F7F70FD207D98F0C
:103AB0005CD582801C4589C593E717001CC58280B0
:103AC000F99BEDBF1C4593E787001CC58280084524
:103AD0001355354882805C4537070038D98F5CC55F
:103AE0001C4593E747001CC58280084513552548AF
:103AF00082809C4503D8050013F7070193F8F7006F
:103B00001DCB584D93E8180081468D4E414E33161B
:103B1000D0283373C800631C6600139316003396D5
:103B20006E003377C740D04133166600518F85064B
:103B3000E39FC6FD58CD1377F80F1DCF184181467E
:103B4000130380023D4E930E8004A1453316D02806
:103B5000337FC800631EE6016395670650C913965C
:103B60002600331FCE003396C8003377E741518FCC
:103B70008506E39DB6FC18C11307F00F63720705B5
:103B800054410146130E8002930E80042143130713
:103B900086003317E028B375E800631FB70063960B
:103BA000C70358C913172600BD45B395E5003397E1
:103BB000E800B3F6B640D98E0506E31A66FC54C198
:103BC0008280E39ED7F910C959BFE39DD7FD18C97C
:103BD000D1BF08453345050882800CC982804CC995
:103BE0008280371701409D479306078063F8B7022C
:103BF000938785FF93F7F70F631AD506B706014041
:103C00008C468A073D473317F70033F7E54098C6DF
:103C10009846B317F600D98F9CC682806308D502F8
:103C2000930707C0630AF508631CE51637070140D0
:103C3000544B8A05BD47B397B700B3F7F6405CCB4A
:103C40005C4BB315B600DD8D4CCB8280370701404D
:103C500054438A05BD47B397B700B3F7F6405CC33A
:103C60005C43B315B600DD8D4CC38280930607C05C
:103C70006304D5026312E510B70601408C4E8A0733
:103C80003D473317F70033F7E54098CE984EB3170A
:103C9000F600D98F9CCE8280B70601408C4A8A07F5
:103CA0003D473317F70033F7E54098CA984AB317F2
:103CB000F600D98F9CCA82803707014054478A0595
:103CC000BD47B397B700B3F7F6405CC75C47B31581
:103CD000B600DD8D4CC7828037270140130707806F
:103CE000AE876318E5043707014054538A05BD4782
:103CF000B397B700B3F7F6405CD35C53B315B60087
:103D0000DD8D4CD382803727014013070780631273
:103D1000E502B70601408C568A073D473317F70086
:103D200033F7E54098D69856B317F600D98F9CD64E
:103D3000828037270140130707C06317E5088A0709
:103D40003D473317F7003316F6009D471347F7FF3B
:103D500063FBB700B7070140945B758F98DB985BF6
:103D6000518F98DB8280B7070140D457758FD8D721
:103D7000D857518FD8D7828013070740E315E5F84D
:103D8000B70601408C528A073D473317F70033F7D7
:103D9000E54098D29852B317F600D98F9CD2828012
:103DA00013070740E31AE5F237070140544F8A052D
:103DB000BD47B397B700B3F7F6405CCF5C4FB31580
:103DC000B600DD8D4CCF82808280B7160240DC4287
:103DD00041771307F77FBA05F98FDD8D2E054D8DDD
:103DE000C8C28280B7170240D44398472146B18A9F
:103DF0006394C602B7060070758F37060050630ED5
:103E0000C7146360E6021DC7B7479C1CB706004095
:103E1000938707806307D706B7877D019387078459
:103E20008DA037060060630BC710B76773079387D1
:103E30000794CDB79047944798479305000A93F6A7
:103E4000060E21831377F7037D8A0507639DB60865
:103E5000B767CD1D9387075033D7E702B7070C200C
:103E600093870736B2979C239146B387E70263098D
:103E7000D600856693860654B3D6C600858A91C25D
:103E800085831CC137160240544237070C201307A4
:103E900007359182BD8A3697182393860181B3D75F
:103EA000E7005842416641830D8B36971823B7F6D9
:103EB00000E033D7E70058C183A606D1F18E91E226
:103EC000BA871CC5371602405C4263DD07085C42B6
:103ED00037479C1C13070780AD83FD8B950733572D
:103EE000F70258C582809305000E6392B602D45B38
:103EF000B7070C2093870734C182B6979C23B786F7
:103F00007D0193860684B387D7028583B1B7930773
:103F100000086397F600B7479C1C938707802DBF66
:103F20009307000C6397F600B767730793870794AE
:103F300025B7B7877D019387078439BFD85BB7075B
:103F40000C20938707344183BA979C2337877D01E0
:103F500013070784B387E70225B7B767CD1D93879B
:103F6000075005B75442B7070C209387873EAD82B0
:103F70009D8AB6978C235C42B7060C209386463EFA
:103F8000B9838D8BB6979C233357B70089BF99C5EA
:103F9000371702405C4FC98F5CCF8280B717024051
:103FA000D84F3375A740C8CF828099C537170240D4
:103FB0001C53C98F1CD38280B717024098533375A6
:103FC000A74088D3828099C5371702401C4BC98F00
:103FD0001CCB8280B7170240984B3375A74088CB23
:103FE0008280B7170240D8437E051317F749D8C31C
:103FF000D843598DC8C38280B7370140138607C0A4
:10400000D6219A21630DC502938707406309F50203
:10401000B70700406305F502938707406301F50287
:10402000B717004013860780630BC500938707C04E
:104030006307F50056B51AB585475EA982801E2133
:10404000B221B3C7070893F7F7F8D18FF22193F79E
:10405000F7CFD18F1EA156B5B73701401AB51387D8
:1040600007C06306E50093870740E317F5FC9C252E
:104070001EB9D9B71E31922103D82500B3C707084E
:10408000F99BB3C707081EB11E3156211A2DB3C7BD
:104090000708F59B334707081377C7F8518F922518
:1040A000B3C6060833660601D18F373601401308C0
:1040B00006C063060501130606406310C502B2255B
:1040C000DD9B03D8E500D18FD221ED9B93F6F6CF8F
:1040D000D18FD22533660601D18E56A11AADFA21B1
:1040E0005AB91EB182801E31E5769386F6CFB3C7EA
:1040F0000708BD9BB3C707081EB11E3152211A2DF8
:1041000003D88500B3C70708758F962193F7F7FD8D
:1041100033460608A206558FB62133470708B3E693
:1041200006019206D58FB7360140138806C0B3C783
:1041300007086306050193860640631DD502B62570
:1041400093F7F7F703D8C5009206D58FD621B3C7EA
:10415000070893F7F7FB9206D58FFD769386F63F17
:10416000F18EF225B3C70708336606010A06D18E21
:1041700033C6060852A11AADFA211ABD1EB18280BB
:104180001E31962103D88500B3C7070893F7F7EFD0
:10419000B3C707081EB11E3152215A2DB3C70708F5
:1041A00093F7F7DF334707081377C7F8558FB62122
:1041B00033460608B3E60601A206D58FB73601409E
:1041C000138806C0B3C70708630605019386064037
:1041D000631ED502FD769386F67FF58FB62503D84C
:1041E000C500A206D58FD621B3C7070893F7F7BF3E
:1041F000A206D58FF576FD16F18EF225B3C7070816
:10420000336606011206D18E33C6060852A15AAD96
:10421000FA215ABD1EB182801E317D777D17F98F3C
:104220001EB11A315E21562D65761306F6CFF18E3A
:10423000922103D88500B3C707082206D18E79766C
:104240007D16718FB221B3C60608336606013206A9
:10425000518F37360140130806C0334707086306FD
:10426000050113060640631AC50071767D16F18FAD
:10427000D2251A06D18FB3C707085EA1FE2156AD1D
:104280002310F5041AB182801E2189C593E7170017
:104290001EA18280B3C70708F99BB3C70708CDBF2B
:1042A0008357450491C59397F7282312F50482801C
:1042B000C607C583DDBF1E2189C593E707081EA178
:1042C0008280B3C7070893F7F7F7B3C70708C5BFDE
:1042D0001E2DB3C70708DD9BCD8F1EAD82801E2D1E
:1042E0007D771307F77FF98FA205CD8FB3C7070836
:1042F0001EAD82805E2DB3C70708DD9BCD8F5EADFE
:1043000082805E2D7D771307F77FF98FA205CD8F11
:10431000B3C707085EAD82804EB982800EBD828031
:104320004EBD82802310B5048280EFC2CFBC9E2593
:104330007D77BD667D8F41112A84AE84631BD700D3
:104340005A2DB18B334707084D9BD98F5EAD23940F
:1043500005001A28F577FD177D8FFE200A85D98F75
:104360001EA85A248D679387379F7D8FDE20D98FB3
:104370009A24D98FBA24D98F5EA45E28DA24B3C7D1
:10438000070893F7F7CFD98F5EA8EFF0BFA5924744
:1043900065459040B335F50281460A063305F502BE
:1043A000EF10505893064006B357D5021306F0633A
:1043B00013974700B377D502920793872703637A51
:1043C000F60093070701B3C707081EA441016FC099
:1043D000CFB4B3D7D702D98FFDB75E2589C59397E0
:1043E000D7285EA5828079777D17F98FDDBF93F797
:1043F000F50F95830547B315B0286398E70031059D
:104400001C411DC2CD8F1CC1828009476394E70007
:104410004105FDB70D476394E7005105D5B7114736
:10442000E390E7FE7105E9BFB3F5B7400CC18280A8
:1044300093F5F51F4EA182804A211375F51F8280E6
:104440000A216D8D3335A0008280EFC24FA813077B
:10445000F5FFB95763F9E700EF00F00683A7819DE8
:1044600099EF814491A09377F5009304050185E3CA
:10447000EF00700583A7819D85CB63DD0406EF0007
:10448000101CEFF04FAD814A56856FC0CFA7138740
:10449000F7FEE36397FC13050502B304F540EF0054
:1044A000900283A7819DA9E737170C201307871473
:1044B0009376F700E16799C69306F700C19ABA9719
:1044C000958F3687BA979386C19DC117C19B23A24A
:1044D000060098C223A2070023A00700B386E74086
:1044E00023ACF19C1CC323A8D19C54C323AAD19C08
:1044F000E35790F883A7419DE3E397F89387C19D25
:104500008043371A0C20130A8A141389C19D6368EB
:104510004401B7970D209387771463FA870037A576
:104520000A209305600F13054541EFF08FA9B79B53
:104530000D2037AC0A20938B7B145C4063F6970008
:10454000832A0400639A0A0C83A7819DE38987F27A
:10455000832A0900C10A63E84A01B7970D209387AF
:10456000771463FA570137A50A20930560101305E5
:104570004541EFF00FA51C402320F9005C4063FA91
:10458000970037A50A209305E01013054541EFF089
:104590004FA35C4013070002858F637AF702B309CB
:1045A000940093F7F90089CB37A50A209305701181
:1045B00013054541EFF0EFA05C40858F23A2F90081
:1045C0008327090044C023A0F9002320390183A7D1
:1045D000419D584003A6019D998F23AAF19C63F445
:1045E000C70023A8F19C1317F72958C083A7C19CC3
:1045F00023200400850723A6F19CEF00500493F7C5
:10460000FA00E38307E837A50A209305D0151305C0
:104610004541EFF00F9B8DBD63E44A0163F85B01F8
:104620009305C00F13054C41EFF0AF9922895684D2
:1046300029B7630F0510EFC26F8AB7190C20130951
:1046400005FF938989142A8463683901B7970D207F
:104650009387771463FA270137A50A20930500177B
:1046600013054541EFF0EF95832744FF63CA070028
:1046700037A50A209305101713054541EFF06F94F5
:10468000832704FF89CB37A50A209305201713053C
:104690004541EFF00F93832744FF63D6070A0327B2
:1046A00004FF55E39397F749232AF4FEEF00A06136
:1046B00083A6419D832744FFB69723AAF19C1387C5
:1046C000C19D9387C19DBA841843E36E27FF63821F
:1046D000F40263E83401B7970D209387771463FAE7
:1046E000970037A50A209305602013054541EFF098
:1046F0004F8DD440032744FF9C403386D400631A77
:10470000C9003697D8C0B386E4006397D7022689DC
:1047100029A0B306E900639AD70283A6819D638727
:10472000F600D4439C4336972322E9002320F90066
:104730006384240123A0240183A7819C850723A4EB
:10474000F19CEF00C06F6FB0BFFC2328F4FECDB723
:10475000828003A5419D828003A5019D8280B7E7E9
:1047600000E041572387E740A386E740B7F700E022
:104770009387070823A0070023A2070023A40700AC
:1047800003A7C19B8566938606FA3357D70298CB59
:104790003D4798C337970D20130787361443850686
:1047A00014C3944B14CB9C435CC78280EFB2BFF41C
:1047B000411102C6F32750303EC6B2470D478D8BDC
:1047C000638AE70037A50A209305C00C1305C5438B
:1047D000EFE03FFFB707102093870700BD8B89CB21
:1047E00037A50A209305000D1305C543EFE07FFDB3
:1047F000EFF0FFF6B7E700E0116723A0E7100967C5
:1048000023A0E71023AA0180EFB09FCD014541010D
:104810006FB0BFF05D7186C696C49AC29EC022DE9C
:104820002ADC2EDA32D836D63AD43ED242D046CE20
:1048300072CC76CA7AC87EC67311013489679387B1
:1048400007807390073037940D20130784365C433C
:1048500085075CC3B7F700E093870708D44354CBC0
:10486000944714CF23A2070085299307843609C9EA
:1048700098479166050798C737E700E02320D720BF
:10488000731101349847D8CF89679387078873904D
:1048900007307254B640A642164386436255D2553D
:1048A0004256B256225792570258F248624ED24EA2
:1048B000424FB24F61617300203089679387078050
:1048C0007390073083A74181850723AAF1808280F6
:1048D000EFB27FE283A7418189EB37A50A209305D8
:1048E00060121305C543EFE0DFED83A74181FD179B
:1048F00023AAF18091E789679387878873900730AF
:104900006FB0BFE1930785007D575CC118C55CC5DA
:104910001CC9232005008280232805008280944141
:10492000FD5713078500639DF6001C49D843D8C185
:104930000CC79CC5CCC31C4188C985071CC182809B
:10494000BA8758431043E3FDC6FECDB7544118451E
:104950001C4998C654C3D4436393A600D8C32328E4
:10496000050088437D1588C38280EFB23FD783A9B5
:1049700081A003AA81A183AA41A1AA8483A7C1A17E
:1049800003A5C1A12E89A38807041105EFF01FFC20
:10499000FD576390F404630E0902B7970D209387C7
:1049A0008714D84383A6C1A1104798C683A6C1A186
:1049B000D0C683A6C1A1910654C283A6C1A1910607
:1049C00014C703A7C1A15CCB9843050798C36FB078
:1049D0003FD483A7C1A183A5C1A1CE94C4C391052F
:1049E00063F634015685EFF09FF3D5B75285EFF0AB
:1049F0001FF303A7C19EE3FCE4FC23A6919EC1BF65
:104A000083A781A1944389E67D5723A6E19E8280F6
:104A100003A781A158471843CDBFEFB23FCCB7944D
:104A20000D209384C41583A701A199E36FB05FCED5
:104A3000EFF0BFE8DC4403A9C70013054900EFF01D
:104A4000FFF083A7C1A0FD1723A6F1A083A701A1B2
:104A5000FD1723A8F1A0EFF0BFE703250903EFF04E
:104A60005FBD4A85EFF0FFBC7DBFEFB2DFC8EFF05E
:104A7000DFFAF5BFEFB2BFC5131926002A8B4A85AE
:104A8000AE8AB68BBA843E8AEFF03F9C01E57D5535
:104A90006FB07FC7AA8913054005EFF01F9B2A84DA
:104AA000630B0516130640058145EFB03FC94A86E2
:104AB000232834039305500A4E85EFB03FC81C5895
:104AC00071193E99137909FF63820A028147C14631
:104AD0003387FA00030707003306F400230AE602CF
:104AE00001C78507E396D7FEA3010404B94763FB1A
:104AF000970037A50A209305D07813054546EFE0C7
:104B00005FCCB944930A4400568544D464C0EFF0A6
:104B1000BFE013058401EFF03FE0BD47858F00C87B
:104B20001CCC40D05E86DA854A85EFB07FAB08C0EA
:104B300063040A0023208A00EFF03FD803A7C1A036
:104B400037990D20050723A6E1A003A7C1A193046F
:104B5000C91A6316070C23AE81A003A7C1A085471D
:104B60006312F7061309C91A138AC4124A85510938
:104B7000EFF05FD9E31C2AFF379A0D2013058A193D
:104B8000EFF05FD837990D2013054918EFF09FD744
:104B900037950D2013050517EFF0DFD637950D205B
:104BA0001305C515EFF01FD637950D201305851495
:104BB000EFF05FD5130A8A1923AC41A113094918F4
:104BC00023AA21A183A7019F850723A8F19E5C54F6
:104BD00083A641A063F4F60023A2F1A05147B38756
:104BE000E702A697D843144718C454C423A2560119
:104BF0002324570198435CC8050798C3EFF05FCDA5
:104C000083A701A099C783A7C1A1D8575C54636447
:104C1000F7020545B5BD4E85EFF0BFA18DBD03A7D9
:104C200001A05C5445F303A7C1A15857E3ECE7F892
:104C300023AE81A041BFB7E700E0116723A0E720C2
:104C4000C9BFEFB25FAB4111B7A70A200A8702C004
:104C500002C202C402C693878747BA8583860700CB
:104C600005078507A30FD7FEF5FA37550A20938766
:104C7000819E0147130600101305A598EFF09FDFF2
:104C80008547630FF500FD57631AF502856537A563
:104C90000A20938565ED13054546EFE09FB239A8DC
:104CA000896793870780739007307D5723A6E19E1D
:104CB00023A0A1A023A401A0EFF05FAF83A781816F
:104CC00041016FB09FA583A7419E850723A2F19E56
:104CD000828003A581A08280EFB2FFA183A7419EBD
:104CE00041116393071403A481A0050423A481A0A8
:104CF0000DEC83A781A19C4391CB856537A50A2044
:104D00009385552A13054546EFE0BFAB03A781A164
:104D100083A641A123ACD1A023AAE1A083A7419FF0
:104D2000850723AAF19EEFF0BFCD83A7C19E3797D9
:104D30000D201307C71A0145637BF40283A7C1A1A5
:104D4000D146DC57B387D7023E971843854763F3B4
:104D5000E700054583A7C19F89E72AC6EFD05FBD5D
:104D6000324583A7819FF1EB41016FB01F9BD14F6B
:104D700065A083A781A1DC47DC47D4436375D400D9
:104D800023A6D19E65BF03A88700D047D44B938844
:104D900047002324C8002322060103A8460063130A
:104DA0001801D0C2904223AA07007D1690C29457E2
:104DB00085C603A8C701905303AF46002324C8004B
:104DC000232206011388870163130F01D0C290428A
:104DD00023A407027D1690C2D05783A641A063F496
:104DE000C60023A2C1A0B306F603BA9603A84600E4
:104DF000032F880023A4070123A6E70123221F0114
:104E000023241801D4CB9C4285079CC283A7C1A14F
:104E1000DC5763F3C700054583A781A19C43B1FB21
:104E2000FD5723A6F19E19BF83A7C19F850723AE17
:104E3000F19EEFD0FFAF014505BF054535B7EFB295
:104E4000FF894111EFF07FA783A7419E91EB856514
:104E500037A50A20938545FD13054546EFE07F966B
:104E600083A7419EFD1723A2F19E83A7419E89CB74
:104E700001452AC6EFF0DFA5324541016FB05F89D9
:104E800083A7C1A0F5D7B7960D20B7950D20814710
:104E9000938606179385C51A5143054F49A0DC46F2
:104EA000DC479857C84F90530328470010C548C2A5
:104EB000138587016313A80050C3104323A407027E
:104EC0007D1610C38847D047D84B1388470010C5BC
:104ED00048C248436313050150C310437D1610C3F5
:104EE000D05703A741A06374C70023A2C1A0330712
:104EF00066022E9748438328850088C723A617019A
:104F000023A20801232405010843D8CB050508C3C3
:104F100003A7C1A158576374C70023ACE19F98420F
:104F20003DFF99C3EFF0DFAD03A4C19F19C88549C8
:104F3000EFF09FDA19C123AC319F7D1475F823AED1
:104F4000019E83A7819FE38507F283A7C1A1116713
:104F5000B7E700E023A0E720054521BFEFB2AFF996
:104F6000AA842E8411E9856537A50A209385959535
:104F700013054546EFE0FF8411E8856537A50A2053
:104F80009385A59513054546EFE0BF83EFF0BFD3AA
:104F900003A981A003A7419E8547630BF7008565A0
:104FA00037A50A209385259613054546EFE07F81B6
:104FB000984033058700B336E5006372E90299C271
:104FC0006360A90288C00144EFF07FE711E5B7E70D
:104FD00000E0116723A0E72022856FB00FF4EDD227
:104FE00088C0814533052541EFF03F980544E9BF6E
:104FF00019E5B7E700E0116723A0E7208280EFB250
:105000008FEF2A84EFF03FCC03A7419E8547630BC7
:10501000F700856537A50A209385859B13054546CE
:10502000EFE02FFA81452285EFF03F94EFF03FE16A
:1050300011E5B7E700E0116723A0E7206FB0EFEDBF
:10504000EFB2CFE903A9419E63070900054723ACEE
:10505000E19E6FB0EFEB23AC019E83A7C1A183A6B5
:10506000C1A103A7C1A19C5B9442185B6372D702E4
:10507000904337A7A5A51307575A631BE600D443EF
:105080006398C60098476315D700DC47638AE7003A
:1050900083A5C1A103A5C1A193854503EFE0EFEE70
:1050A000B7970D2013878736145393878736850665
:1050B00014D383A641A054D383A6419E54D783A67C
:1050C000C1A174D783A6C1A17D5781C603A7C1A181
:1050D0005857B7940D2098D73D461387C41A938428
:1050E000C41A0C439306C900B3C6F62005098CC246
:1050F0005107E318C9FE03A941A0056AD14A130A62
:105100003A4437AB0A20B30759033387F4001443FA
:105110009DC65443A107A697D44254C36394F60096
:105120005C475CC3D147B307F902BE94DC40DC475F
:1051300023AEF1A023A221A183A7C1A119BF6317A8
:105140000900D28513054B46EFE0AFE77D1965BF37
:10515000EFB26FDA2A8419ED03A4C1A101EC8965CD
:1051600037A50A209385A59313054546EFE06FE523
:105170001C580290145801459307500A3387A60023
:1051800018236305F70009816FB02FD90505FDB716
:1051900003A5C1A1828083A701A0054591C703A5EE
:1051A000419E13351500060582809307054013576D
:1051B00035003E97B7F700E093870708D443F59A88
:1051C000D4C323A4070088CB914694C3944393E6A9
:1051D000160094C3B7F600E093870608DC43898B7A
:1051E00089EB9307F7FF11EF938701A29843050717
:1051F00098C3B7F700E0938707089843799B98C353
:1052000082803E87D1BF83A7419C37470F00130799
:105210000724B3D7E7022396F1A21307803EB38792
:10522000E70223A4F1A28280EFB2EFCC03A481A213
:10523000AA84EFF05FF685476307F5002685EFF057
:105240003FDB6FB08FCD3305940265DDEFF0FFF5E6
:10525000CDBFEFB24FCA01112A848545254502C250
:1052600002C402C602C802CA02CC02CEEFE03FD29C
:10527000854513050010EFE05FD3B71401402D46BC
:10528000138504C09145EFE0DF95C1477C828D47CF
:105290003EC44C00E147138504C03EC6EFE07F8565
:1052A000B70708000C08372500403ECC22C802CAC8
:1052B000231E0100EFF06F87854537250040EFF092
:1052C000CF9105616FB06FC5EFB24FC12E893284A7
:1052D0008144374A0F0063D0840493091A2493054C
:1052E000000837250040EFF0AF9509CDB3079900CE
:1052F00083850700372500408504B3C50508EFF016
:105300002F93D1BFFD19E39C09FC938701A2D843D9
:1053100026840507D8C322856FB08FBFAA8703A54F
:10532000C18137970D2013078772AA9763EBE700B7
:1053300037F70F20130707006365F70023AEF180EE
:1053400082807D558280B717493F938787FD131769
:10535000F54963E5E700930500006DAE011106CE47
:10536000B707807F6368F700AA85EF30806EF24050
:10537000056182802C001528937735000547B245DA
:1053800022456388E7000947638BE70099EB5926BC
:10539000F9BF0546EF00302E1315F569C9BF9D2EE4
:1053A000E5BF0546EF00302DD9B73971B717493F32
:1053B00022DC4AD85AD006DE26DA4ED652D456D24D
:1053C0005ECE62CC938787FD2A8B2E841319F54914
:1053D00063E8270108C093070000DCC1814485A071
:1053E000B7D71640938737BEB70900802A8C63E190
:1053F0002711938409FFE98C97B5010083A5C51A8D
:105400006353A008EF30E064B717C93F938707FDE7
:105410002A896383F40497B5010083A52519EF3029
:105420004063AA85AA844A85EF30A06297B501003F
:1054300083A5C517EF30E06148C004C08544F25031
:1054400062544259B259225A925A025BF24B624C50
:105450002685D2542161828097B5010083A5451528
:10546000EF30205F97B5010083A5C5142A89EF307E
:10547000405EAA85AA844A85EF30A05D97B50100F9
:1054800083A5451345BFEF205036B717C93F938713
:1054900007FD2A896387F40297B5010083A50511EA
:1054A000EF20B034AA85AA844A85EF30805A97B598
:1054B000010083A5A50FEF20503348C004C0FD5460
:1054C000BDBF97B5010083A5A50EEF20103297B59B
:1054D000010083A5250E2A89EF203031AA85AA84F0
:1054E0004A85EF30005797B5010083A5A50CE1B7B9
:1054F000B7174943938707F863E72717EF00302969
:1055000097B5010083A5450B2A8AEF30202897B56F
:10551000010083A5A5FFEF20502DEF30100BAA84CA
:10552000EF30701597B5010083A50508AA8BEF3001
:10553000E025AA855285EF30C051AA8A97B50100AF
:1055400083A5C5065E85EF306024FD472A8AAA85BB
:10555000568563C39702975700009387A700B3C788
:10556000F42083A7C7FF938909F0B3F96901638524
:10557000F900EF30004E31A8EF30A04D9357750180
:105580001359794193F7F70FB307F9402147634463
:10559000F70008C085A097B5010083A565015E8569
:1055A000EF30C01E2A8AAA855685EF30804AAA8528
:1055B000AA895685EF30E049D285EF3080492A8AA2
:1055C00097B5010083A505FF5E85EF30201CD285CD
:1055D000EF302048AA852A8A4E85EF3080479357BE
:1055E000750193F7F70F3309F940E54763CA2703BD
:1055F00008C0CE8A032904005685CA85EF3060456D
:10560000D285EF30004548C0E35B0CE21319F9691D
:105610001315F5692320240148C0B304904005B553
:1056200097B5010083A585F95E85EF3020162A899C
:10563000AA854E85EF30E041AA85AA8A4E85EF30D3
:105640004041CA85EF30E0402A8997B5010083A523
:1056500025F75E85EF308013CA85EF30803F2A8AB8
:10566000AA85568539B7B707807F6368F900AA8590
:10567000EF30203E48C008C095B3935979419389D3
:10568000A9F7939779013309F9404A85EF30E07320
:10569000EF30607EAA852AC24A85EF30803B97B5FD
:1056A000010083A525F2EF30600E2A89EF30E0710A
:1056B000EF30607CAA852AC4AA844A85EF3060391D
:1056C00097B5010083A505F0EF30400C930500006D
:1056D0002AC6EF20F0728D4609E993050000268561
:1056E000EF201072B336A00085069757000093870D
:1056F00067EF09474E86A2854800912AAA84E350A5
:105700000CD41C409397F7691CC05C409397F769D1
:105710005CC021B7797126D24AD052CC06D622D4A9
:105720004ECEB70700322A892E8A9314F54963F6C4
:10573000F400EF30806963070510CA854A85EF30B1
:10574000E00497B5010083A565DC2A84EF300004EE
:1057500097B5010083A585E7AA892285EF3000036C
:1057600097B5010083A5C5E6EF203008A285EF308C
:10577000E00197B5010083A5E5E5EF30802DA28516
:10578000EF30C00097B5010083A505E5EF20F005D7
:10579000A285EF20B07F97B5010083A525E4EF3007
:1057A000402BA285EF20907E97B5010083A545E3AD
:1057B000EF20B003A285EF20707DA285EF20107D41
:1057C0002A84D2854A85EF20707CAA852285EF3015
:1057D0004028B7A7993E938797992A8463E5970253
:1057E000AA854E85EF30E026AA8517B5010003256E
:1057F000A5D3EF300026B250225492540259F249F8
:10580000624A45618280B707483F63E89702B7075D
:1058100000FFB385F40017B501000325E5D02EC6BF
:10582000EF302023B245AA844E85EF308022A28536
:10583000EF302022AA8526856DBF97B5010083A58C
:10584000A5D8D1BF17B50100032505CE6DB761718D
:105850003ECA975700009387270DB347F7202324AC
:10586000811A232C41192328611923267119232415
:10587000811983AB070023229119232EB117232608
:10588000111A2322911A2320211B232E3119232A96
:1058900051192320A1192AC8F1572E8A328CB68CAF
:1058A0003A8B938DF6FF01446347F6001304D6FF4D
:1058B000A1473344F402130D140093173D00B30ABB
:1058C000B4413EC63309FC40338DBB019309010846
:1058D000D684B3875441635FFD00E68A1812B3870C
:1058E0009A4163CFFB041C0193040000814933CD2E
:1058F000FA2081A01305000063C80400D247B3C793
:10590000F4208843EF30205723A0A9008504910993
:10591000C9B7C24783250D003ACCB3C6F9208842E7
:105920008509EF20B066AA852685EF20006C6247C6
:10593000AA84711DE3DF3DFD04C3850A110745B745
:105940001C18B3C7FB203ED2931724003ED0A147BA
:10595000B38727415E843ECE931724003ECC9C1A29
:10596000B347F42083A907FB130D0103EA84A28A3D
:1059700063415015CA854E85EF00A06C97B70100B2
:10598000938787C68C43AA84EF205060EF00806025
:1059900097B70100938787C58C43EF20305FAA85B6
:1059A0002685EF30000BAA84EF302042AA8AEF3020
:1059B000804CAA852685EF30C009AA89635120153D
:1059C000981A9307F4FFB3C7E720724783A407EC44
:1059D000B3D6E440B69AB396E600958C23A097EC34
:1059E0009D47B3872741B3D4F440635E9004850A92
:1059F000814601469305F00F1305001063C6861219
:105A0000635820018547630AF91489476303F9162F
:105A10008947639AF40297B701009387E7B08843F8
:105A2000CE8532D4EF30E0022256AA8909CECA854B
:105A300017B50100032545AFEF00A060AA854E858C
:105A4000EF302001AA89930500004E85EF20503BDE
:105A50006312051C9307F4FF0147BE8663D57713D5
:105A60006300071836841C18B347F4209C4361195F
:105A70006380071ACA8517B501000325E5AAEF0060
:105A8000405C2A89A28917BC0100032CACB563D6FF
:105A900009202289634109261C12975D0000938D1D
:105AA000EDE593090000814C330C2441334DF9207E
:105AB00005AC97B701009387E7B28C434E85FD1A7A
:105AC000EF20D04CEF306030EF30E03A97B7010074
:105AD000938747AF8C432AD4EF20504BAA854E853D
