:080000006FA090340000000025
:100008001305000E9705FEFF9385C5DF17B6FEFFA3
:100018001306C68563FAC5008322050023A0550090
:1000280011059105E3EAC5FE17B5F4DF1305059739
:1000380097B5FEFF9385858317B6FEFF13060683E3
:1000480063FAC5008322050023A055001105910518
:10005800E3EAC5FE17B5F4DF1305459497050000DC
:100068009385450A1386419663FAC50083220500E5
:1000780023A0550011059105E3EAC5FE1385819675
:10008800979501009385053A6377B500232005000D
:100098001105E36DB5FEB73237129382023E7390B5
:1000A80002BC9D42739012BCB94273904280A16217
:1000B80093828288739002309702FEFF938282D4E3
:1000C80093E23200739052309732FEFF93820243DC
:0800D800739012347300203014
:1000E0000000000000000000A4360A20C0360A20EC
:1000F000000000008A380A20000000000000000014
:100100008A380A208A380A20000000000000000017
:100110008A380A2082460A2000030A2000000000D4
:100120008A380A208A380A208A380A208A380A201F
:1001300000000000000000000000000000000000BF
:1001400000000000000000000000000000000000AF
:100150008A380A20000000000000000000000000B3
:100160008A380A208A380A208A380A208A380A20DF
:100170008A380A208A380A208A380A208A380A20CF
:100180008A380A208A380A208A380A208A380A20BF
:100190008A380A2050320A208A380A208A380A20EF
:1001A0008A380A208A380A208A380A208A380A209F
:1001B0008A380A208A380A208A380A208A380A208F
:1001C0008A380A208A380A208A380A208A380A207F
:1001D0008A380A208A380A208A380A208A380A206F
:1001E0008A380A208A380A208A380A208A380A205F
:1001F0008A380A208A380A208A380A208A380A204F
:100200008A380A208A380A208A380A208A380A203E
:100210008A380A208A380A208A380A208A380A202E
:100220008A380A208A380A208A380A208A380A201E
:1002300044330A2028340A208A380A208A380A20BF
:100240008A380A208A380A208A380A208A380A20FE
:100250008A380A208A380A208A380A208A380A20EE
:100260008A380A208A380A208A380A208A380A20DE
:100270008A380A208A380A208A380A208A380A20CE
:100280008A380A208A380A208A380A208A380A20BE
:100290008A380A208A380A208A380A208A380A20AE
:1002A0008A380A208A380A208A380A208A380A209E
:1002B0008A380A208A380A208A380A208A380A208E
:1002C0008A380A208A380A208A380A208A380A207E
:1002D0008A380A208A380A20000000008A380A205A
:1002E0008A380A2000000000000000008A380A2036
:1002F00000000000000000008A380A208A380A2026
:100300008A380A208A380A208A380A208A380A203D
:100310008A380A208A380A208A380A208A380A202D
:100320008A380A208A380A208A380A208A380A201D
:100330008A380A20000000000000000000000000D1
:1003400000000000000000000000000000000000AD
:10035000000000000000000000000000000000009D
:10036000000000000000000000000000000000008D
:10037000000000000000000000000000000000007D
:10038000000000000000000000000000000000006D
:10039000000000000000000000000000000000005D
:1003A000000000000000000000000000000000004D
:1003B000000000000000000000000000000000003D
:1003C000000000000000000000000000000000002D
:1003D000000000000000000000000000000000001D
:1003E000130181F806C216C41AC61EC822CA26CC3A
:1003F0002ACE2ED032D236D43AD63ED842DA46DC95
:100400004ADECEC0D2C2D6C4DAC6DEC8E2CAE6CC64
:10041000EACEEED0F2D2F6D4FAD6FED8F3220030ED
:1004200096DA83A241A123A02200F32510342EC026
:100430009305000273A0458003A1C195EF403035BC
:1004400003A341A103210300824273901234D652C8
:10045000739002309240A2423243C2435244E2447B
:10046000724582551256A2563257C2575258E25818
:1004700072598649164AA64A364BC64B564CE64C2C
:10048000764D865D165EA65E365FC65F13018107F8
:100490007300203013000000130000001300000060
:1004A0001300000013000000130000001300000000
:1004B00013000000130000001300000013000000F0
:1004C00013000000130000001300000013000000E0
:1004D00013000000130000001300000013000000D0
:1004E00083A2C195938202E07390023403A141A1DB
:1004F000024182403243C2435244E2447245825533
:100500001256A2563257C2575258E258725986496B
:10051000164AA64A364BC64B564CE64C764D865D7F
:10052000165EA65E365FC65FD652A1027390023099
:10053000A242130181078280130000001300000013
:10054000130000001300000013000000130000005F
:10055000130000001300000013000000130000004F
:10056000130000001300000013000000130000003F
:10057000130000001300000013000000130000002F
:10058000130000001300000013000000130000001F
:10059000130000001300000013000000130000000F
:1005A00013000000130000001300000013000000FF
:1005B00013000000130000001300000013000000EF
:1005C00013000000130000001300000013000000DF
:1005D00013000000130000001300000013000000CF
:1005E000F322003093F272FF130380781203B3E218
:1005F0006200711523205500130585FA10C12115DD
:100600002320050081426387020071152320050025
:10061000FD12D5BF71150CC18280000000000000E2
:1006200000000000000000000000000000000000CA
:1006300000000000000000000000000000000000BA
:1006400000000000000000000000000000000000AA
:10065000000000000000000000000000000000009A
:10066000000000000000000000000000000000008A
:10067000000000000000000000000000000000007A
:10068000000000000000000000000000000000006A
:10069000000000000000000000000000000000005A
:1006A000000000000000000000000000000000004A
:1006B000000000000000000000000000000000003A
:1006C000000000000000397101436EC619A03971A5
:1006D00041536AC866CA62CC5ECE19A03971015313
:1006E0005AD056D252D44ED64AD826DA22DC06DE6A
:1006F00033016140828241114AC026C222C406C62B
:100700008282B24D4101024D924C224CB24B4101CA
:10071000024B924A224AB249410102499244224480
:10072000B240410182802A8309CA838305002300E5
:1007300073007D16050385056DFA82802A8311C634
:100740002300B3007D16050365FE8280EFF2BFFA39
:100750002A84AE84EF2040128326440F8347540C32
:100760000327C40B639596008326840FB1E2232AE6
:10077000940E232CA40E2320E4102322E41023053E
:10078000F410A14663EB9608B7A60A2093860618D4
:10079000B3C4D4209440828623140410230504108B
:1007A000EF20800D83C781968507BD8B2384F1964A
:1007B000ADB785462304D410E5D7232EE40EA30459
:1007C000D410F9BF05462304C4108346941085C392
:1007D00089E6232EE40EA304C41083A58184032597
:1007E000C40FEF7060752322A410854725A0CDDAD1
:1007F000EDB705472304E410C5D72305E4104DB732
:100800000347941085472304F41059DB0327C40FD2
:100810002322E4102305F41061B785472304F41064
:1008200041B7EFF2DFEAB7970D209387076113070F
:10083000700698C3D843411113678700D8C3EF40AF
:10084000203E2AC61305200349292A89EF20305B60
:1008500003AB418583AB818503AC018583ACC18447
:100860002A84014AEF40C03BAA892285EF00207606
:100870008327C4100347841091CF6301071AED9BAF
:10088000A14591E78347540CA14591C39D4522851D
:10089000753D5DA815C38347040989CF8327440F9D
:1008A0000547F517636AF7000357C40893076040CC
:1008B00063E4E7008545E1BF8327440F2147E36BED
:1008C000F7FE37A70A201307471AB3C7E7209C4350
:1008D00082878347340923040410BDC78347240952
:1008E000A5E783470409ADC30357C40893076040D5
:1008F00063ECE7048347440CA1CB8324040B9305EA
:1009000000002685EF70F053635405009394F4695A
:10091000E6852685EF70F0526348A0028324440BDD
:10092000930500002685EF70D05163540500939421
:10093000F46983A5C1842685EF70B0506346A0009A
:100940008347540C8945A1F72285EF00A06B134A19
:100950001A005285EF103063CE850D45712ECA8581
:100960006800EF408054FDBD83470409A1D7834749
:100970003409F9DB0357C40893071067E3F6E7FC73
:100980008347540C8D45E9D319B78347540CCDDF09
:100990008347A410D5DB03254410E285EF80400097
:1009A000AA850325C40BEF7070409145E35105EE15
:1009B00061BFEF10706C0347540CAA8709E78347A7
:1009C0000409D9F3C5BD0347941031C70325C40FEB
:1009D0000327840F998F1307703EE377F7F6DA85C4
:1009E000EF708055AA850325C40BEF709045E34D49
:1009F000A0F48324040C930500002685EF70704456
:100A0000635405009394F469DE852685EF70704386
:100A1000E34CA0F245B5032544105DBF814585BD7B
:100A2000EFF2FFCAB7970D2093870761130760069F
:100A300098C3D8434111B704E80313674700D8C3EC
:100A4000EF40001E2AC61305401F412C2A89EF20C3
:100A5000103B83AAC185370A00012A84930B050342
:100A6000130C050B9384843E130A0AF0130BC50E76
:100A7000EF40001BA285AA89D68662855E86EF00BC
:100A8000E059D6852285EF00A06E21C08347340946
:100A900099CF83270409B3F7470191EB83470409F2
:100AA00099C70357C4089307604063E0E7029307C0
:100AB00000002324F40E2326940E2328940E232AC8
:100AC000F40C232CF40C232EF40C5A85EF10B07D7B
:100AD000CE8509451524CA856800EF40003D49BF11
:100AE000EFF27FC1130785A3930780021304000070
:100AF00063FBE702130545A2EF80C02C83A5818626
:100B0000EF70007983A401862A84A685EF70703384
:100B1000634A050083A441862285A685EF701029CB
:100B20006353A00026842285CDBEEFF2DFB9B797CC
:100B30000D20938707611307900698C3D8430111CE
:100B400013672700D8C3EF40A00D2ACE130520035A
:100B500069222AC4EF20B02A03ABC18683AB018788
:100B600003AC018683AC41862A84EF40600B834A44
:100B700034092AC6032D040763800A148347240915
:100B8000639C071203554407A13F2A8A0355A40713
:100B9000813F035764089307F063AA8903556407EC
:100BA00063F3E70883C7919689E793070000232240
:100BB000F40A930785A81307800C6372F7061307DE
:100BC0000064635AA7021305059CEF80A01F83A54C
:100BD0004187EF70E06B93050000AA84EF707026E8
:100BE000634F0502E6852685EF70501C6344A00A1A
:100BF0001309000035A83E85EF80C01C83A54187FE
:100C0000EF700069E285AA84EF70B023634605089F
:100C1000930500002685EF707019E35BA0FC930438
:100C20000000268931A06D3D2A89814A9304000085
:100C3000A384519783A58187232AA4095285EF7045
:100C4000D02983A58187232CA4084A85EF70F0283A
:100C500083A5C187232EA4084E85EF70102883A595
:100C600001882320A40A2324940A2685EF70F02605
:100C70008325440AEF70402CDA85AA84EF70701C3B
:100C8000634E0500DE852685EF7050126359A00083
:100C9000DE8431A0E684A9BFE28499BFDA84854767
:100CA0002322940A2306F40AB2450545B120A24541
:100CB0006808EF40801F55BD93070000232AA40950
:100CC000232CF408232EF4082320F40A2322F40A08
:100CD0002324F40A2306040AC1BFAA8719C91307EB
:100CE00080C105456369F7001385773E3355F502EA
:100CF00082801305803E8280914763E2A70AEFF26B
:100D00009F9F2A84AE84EF30B071B3059540B794AD
:100D10000D209386C452130784003347D7205C47C5
:100D20009384C45285075CC7130704013347D72057
:100D300008C3130744013347D720544363F3B60075
:100D40004CC393F7F70795EF8D476304F40491477D
:100D50006304F40485476308F40289476308F402D6
:100D600003A5C19719C5EF40803361043344942033
:100D700008C4EF30F01223A8A408EF30D01223AA41
:100D8000A4086FF09F9903A58197E9BF03A5419738
:100D9000D1BF03A50197F9B703A5C196E1B782803A
:100DA000EFF27F9537940D20EF30900F9304C452EB
:100DB00088C09147FCDC51479387040898C3894653
:100DC000D4C398C713074006D8C7B7A50A2037155C
:100DD0000A209387C19721478146130600409385D7
:100DE000851C130525E7EF30D03D88CCEF30500B44
:100DF000C8C0984C85471304C452630AF70037A54E
:100E00000A20930500061305051DEF207010B7A5F5
:100E10000A2037150A20938781971D4781461306BC
:100E200000309385C51E1305A5A4EF30903948CC3A
:100E3000EF30100708C4584C8547630AF70037A500
:100E40000A20930540061305051DEF20700CB7A579
:100E50000A2037150A2093874197254781461306B4
:100E600000409385851F13050594EF30903508D019
:100E7000EF30100348C418508547630AF70037A5C0
:100E80000A20930580061305051DEF207008B7A5FD
:100E90000A2037050A2093870197194781461306D0
:100EA00000309385052013052574EF30903148D02C
:100EB000EF30007F08C858508547630AF70037A510
:100EC0000A209305C0061305051DEF207004B7A581
:100ED0000A2037150A209387C1960D4781461306CD
:100EE00000309385C520130525E3EF30902D08D4FD
:100EF000EF30007B48C818548547630AF70037A5D0
:100F00000A20930500071305051DEF2070006FF000
:100F1000DF80EFF24FFEB7970D209387076113072D
:100F2000800698C3D843411113670701D8C3EF3037
:100F3000304F2AC6294555332A84EF20406CEF30C4
:100F4000304EAA8511454D3BA2856800EF30F07503
:100F5000FDB7EFF2AFF8B7970D209387076113073E
:100F6000500698C3D843011113671700D8C3EF3058
:100F7000304B2ACE1305A00F8D33AA84EF202068B2
:100F80002A84130A0403EF20200C93098404EF1031
:100F9000705C13090407EF30B0482AC6EF20201117
:100FA000EF1050732285EF00707C5285EF000072C5
:100FB0004E85EF0090204A85EF10004AB24501456A
:100FC000253BA6856808EF30506EF1B782800DC9C9
:100FD0008347C5020347450493C7170019E393E706
:100FE00027000347350909CB03270509B706000188
:100FF000938606F0758F19C393E747002326F510F3
:1010000082808280828011C9930700001CC15CC16C
:101010001CC55CC51CC9231A050082804DC5C5C509
:10102000EFF2CFEBB28441CA83C9C5022A84368964
:101030006386090031469105EFF0EFEEDC28230AC4
:101040003401A5CF83A904015C38032AC4002326F8
:10105000340193040000A9CFA6854A85EF7000559E
:101060006358A004D2854E85EF709013CA85EF7047
:10107000202203A94188AA84CA85EF70805C634A54
:10108000050003A981882685CA85EF702052635325
:10109000A000CA84032904012685CA85EF70501078
:1010A00083A5C188EF706063CA85EF60F068AA8489
:1010B000854704C85CB86FF0AFE5930700001CC813
:1010C000A30A0400CDBF8280EFF2EFE2138501A4F2
:1010D000EF008053238601986FF02FE4EFF2AFE129
:1010E0001385C1AAEF004052138581A8EF00C051BB
:1010F000138541A6EF0040516FF02FE2EFF2AFDF12
:1011000083A5418983A7C18703A7018983A6C185D8
:10111000130600001385C1AAEF00604D83A7C187A5
:1011200003A7018983A6C18583A541891306000011
:10113000138581A86D2983A7818903A7C18983A508
:101140008184930600003686138541A64D2183A72E
:10115000018A03A7418A03A6418583A5818A930654
:101160000000138501A461218537652E6FF0EFDA49
:1011700063060536EFF2AFD50327450F83A7019825
:101180002A842E8A6307F70081378327440F23A020
:10119000F1988349C40A930A840C6389090A834736
:1011A000440CD9CF8325040B03258409EF70407FBD
:1011B00083A5018CEF70605283ABC18AAA84DE855F
:1011C000EF702048634A050083AB018B2685DE85DE
:1011D000EF70C03D6353A000DE848325440B0325DC
:1011E000C4092324940CEF70A07B83A5018CEF70BD
:1011F000C04E03A9C18AAA84CA85EF708044634A9D
:10120000050003A9018B2685CA85EF70203A635338
:10121000A000CA8403A901892326940C8324040A0C
:10122000CA852685EF70E041634A050003A9C1879E
:101230002685CA85EF7080376351A002CA8431A821
:10124000930700002324F40CBE84E9B79307000041
:101250002324F40C2326F40CBE84930700002324DB
:10126000F40E232AF40C232CF40C232EF40C8347C5
:1012700084102328940C89EB9535B9351306C40ED8
:1012800081455685452425A08327440F094763924D
:10129000E702A935153D930700002324F40EB70794
:1012A0001A049387A7412326F40E2328F40E6FF027
:1012B0008FC50347540C0329C40B3DEB31358327FD
:1012C000C40B2320F40E930700002322F40E930492
:1012D00000000C480325840C2324940E83298401E8
:1012E000EF70006CAA8552861385C1AA44481D265A
:1012F0002A890325C40CA685EF70806AAA855286C8
:10130000138581A8012EAA840325040DCE85EF70D4
:101310002069AA855286138541A6ED2C232EA40CA4
:10132000232A240D232C940C1306C40E854591BF4B
:101330001147638CE70E1D476388E7140D47639ED2
:10134000E7148347A41099E3413351B703294410AC
:1013500083A481848325C40B4A85EF70606483ABCA
:10136000418BAA89DE85EF70C02D634A050083ABEF
:1013700041864E85DE85EF7060236353A000DE89D1
:10138000CE852685EF60503B83A4418BAA89A68534
:10139000EF70202B634A050083A441864E85A68505
:1013A000EF70C0206353A000A6898325040C4E85EE
:1013B000EF70005FAA855286138501A4A12C83A536
:1013C0008184EF6070378347440CAA8485CF03255E
:1013D000040BEF30306C2A8B0325440BEF30906BFD
:1013E000AA855A85EF70602F83ABC18B2A8BDE856F
:1013F000EF702025635305005E8B2685DA85EF604C
:101400003069AA842320240F2322340F930500007F
:101410002685EF700023E34C05EA83A541862685E7
:10142000EF70C018E357A0EA69A8638B090483C66C
:10143000C1980325440A81EA854623A4219923A261
:10144000A1982386D19883A54198EF70605583A514
:101450008198EF60702E8324840A83A9418B2A89A6
:101460002685CE85EF70E01D634A050083A941867D
:101470002685CE85EF708013E35EA0ECCE84D9BDC7
:10148000A13193040000F9B58347A410E38E07EA65
:101490000329441083A4818B75BDEFF0FFC283271D
:1014A000C40B0355C4082320F40E93070000232225
:1014B000F40E9307803EE3FCA7E09307F07C63F50E
:1014C000A70083A4418631B5130585C1EF70901B39
:1014D00083A5418CEF60D05BAA84E5BB8280EFF2EC
:1014E0008FA1930500002A84EF70A015634C0500BE
:1014F00083A441862285A685EF70400B6356A00029
:10150000268419A01304000083A5418C2285EF7066
:10151000C01CEF7050061305853E334505086FF07B
:10152000CF9F82806304060CEFF24F9B328499C1F7
:10153000AA8409E99307803E1EA03EA05EA07EA07B
:101540006FF00F9D032A050283A5818C4845EF703B
:10155000C0182A8983A5818C8848EF70001883A55C
:10156000C18CAA89C848EF704017AA84CE855285DD
:10157000EF60901CCA85AA8AEF60101CA685EF70E8
:101580002042B13F0AA0CA855685EF706041A6850A
:10159000EF60901AA937CE852AA05285EF7040409F
:1015A000CA85AA89EF70C03FA685EF70603F053FEE
:1015B0004AA0CA854E85EF603018A685EF60D01727
:1015C000393F6AA0930500005285EF60307EE359F1
:1015D000A0F6130784009306C0491E200904B3F740
:1015E000D70A231FF4FEE31AE4FE99BF828001CDDF
:1015F00014C5930600000CC150C154C514C958C984
:101600001CCD58CD1CD1828009C5930700005CC554
:101610001CC98280EFF28F8C9304000055C12A848C
:101620002E89328593050000B289EF708001930402
:1016300000006357A0084C404A85EF70000ACE8531
:10164000EF70A0094C44EF60300F4448832A8401B6
:101650002A8AA685EF60F07E634A0500D68552850A
:10166000EF60D074D6846343A000D2840C4844C495
:101670004A85EF70E032CE85EF6090410C40AA8938
:10168000232824014A85EF704005A685EF60D00A23
:101690000C44AA844E85EF704004AA852685EF602D
:1016A000B009444C2A89A685EF60B079634A0500E9
:1016B00004504A85A685EF60706F6343A000CA841A
:1016C00026856FF0EF848280054582806F00F050A0
:1016D0009377F50F138507FD1375F50F25476365A0
:1016E000A7001315456082801387F7FB1377F70F68
:1016F000954663E7E600938797FC139547608280E1
:101700001387F7F91377F70F7D55E3EAE6FE938722
:1017100097FAE5B7630D050EEFE2FFFAAA8A4111C9
:10172000AE890145BDC103A4818283A4C18283A780
:10173000018303A841833289014C014B814B814DC8
:10174000014A3EC042C2A28C268D33878A0103071C
:1017500007001376F70F930656FDF59AB3E6860158
:1017600093F6F60F95E6130737FD133B1700050CAC
:101770001377FC0FE36B37FD09C963040B00939DDE
:10178000FD69232079012322B90141016FE07FF730
:101790009307E0026316F700631D0A06054AC1BFFE
:1017A000130606FD1376F60FA54763E4C706130577
:1017B00007FD13154560EF60006C63080A0222867E
:1017C000A686EF5090232A86AE865E85EE85EF4092
:1017D000F043AA8BAE8D2285A6856686EA86EF50F9
:1017E000D0212A84AE84528559B7024692462EC62D
:1017F0002AC4EE855E85EF505020A24832474686C7
:10180000BA86EF40B040AA8BAE8D05458DB7014535
:10181000828001459DBFEFE29FEB411111E601443B
:10182000228541016FE03FEE8547E39AF6FE328A5A
:101830003000BA84C5352A847DD12249B249014697
:1018400081464A85CE85EF50900FE34A05FC03A6FA
:10185000818383A6C1834A85CE85EF50802BEF60BC
:10186000205C33450508EF60006803A6818383A6EA
:10187000C1832A8CAE8BEF5050182A86AE864A85DB
:10188000CE85EF501068014681462A8BAE8AEF5014
:10189000100BE34605F803A9018483A941845A8506
:1018A0004A86CE86D685EF50A07DE35A05F64A8655
:1018B000CE865A85D685EF50C025DE866286EF40FB
:1018C000F03488C0CCC083070A001307300593F6B4
:1018D000B7FF6396E6009395F569CCC091B71307FF
:1018E000E004E38FE7F29387B7FB13B417000DBF53
:1018F000AA860145A9C2B1C1014781472548A94827
:101900001303F00F3385E60003050500130505FDFD
:10191000137EF50F6362C803B3871703AA97B3C793
:101920000708636BF30005071375F70FE36CB5FC4D
:101930001CA205458280828001458280038701AD1B
:10194000930740022A88631BF702938711AD014772
:10195000938611AD9308C0021303A002038507000C
:1019600063001503630A65001DE1631AE80094C172
:10197000958F1CA205458280E30BE8FE014582801D
:10198000E307E8FE05071377F70F9386170085072F
:10199000F1B7EFE25FD6130680028145138501B5EA
:1019A000EFE0DFD923A80198A38701982387019846
:1019B000A386019805456FE05FD6EFE2DFD05D7149
:1019C00037940D202AC4EF00306B130784371C4373
:1019D000AA8485071CC3014913048437930B400272
:1019E000138B01AD854C054C1305D101EF106076CA
:1019F0000DC58346D101639B76071C4423007B0100
:101A00002387819985071CC4A3868199230C94039D
:101A1000050993070010E319F9FC5C400145CA97DA
:101A20005CC0A247A9C383C7F198138901B59DC3C0
:101A30008347190285C383A701991307007DB387E4
:101A4000F4406379F7001C5823209900A300090291
:101A500085071CD8224513068002938501B5EFE067
:101A60009FCC0345190261616FE0BFC983C7D1985C
:101A7000C5D3B547E38EF6F8294783C7E198639944
:101A8000E62C938601ADBE96238006005444A386BF
:101A90000198138D01AD850654C4230CF40244D87B
:101AA00081471306F005B306FD008386060095EE18
:101AB00093F7F70F038701ADA297A38C0702930753
:101AC0004002631AF700938D11AD81499306A0027D
:101AD00003870D0005E35C4885075CC815BFB305A7
:101AE000F400A38CD50285077DBFE39AC7FE930758
:101AF000F005C9B76307D728B3C7E90093F9F70F13
:101B0000850DF9B723A89198854DA387B1991257F0
:101B1000938701B584C38306070013071004138D50
:101B200001B56388E600A38007025C5485075CD496
:101B3000C5B510102C100D45EFF05FE001E5A300D6
:101B40000D026DAC130611026C101145EFF01FDF92
:101B50007DD5130621020C181545EFF03FDE65D147
:101B6000130631024C181945EFF05FDD69D9834641
:101B7000110232568345010222553818EFF0BFC9D1
:101B80005DDD83463102525683452102425598005D
:101B9000EFF07FC84DD5F25762571306F1012326A7
:101BA000FD0096472324ED000647232AFD001C5420
:101BB0004C101D4585072328ED00A300BD031CD450
:101BC000EFF0DFD7E30605E48345F10191E59307E4
:101BD0000000232EFD002DBD1255B000EFF09FB385
:101BE000E30805E2B6452645EF70403483A5018D34
:101BF000EF60B02E232EAD0021BD13077004639754
:101C0000E70803074D006313F70803075D00930718
:101C10001004631DF70603076D009307C0026317E6
:101C2000F7061C501306E1014C10850719451CD01E
:101C3000EFF0DFD06304051C8345E1011255130664
:101C40003102EFF0FFCA630B051A23A891980547EC
:101C50001306E1014C101D4523A891B4A387E19818
:101C6000EFF0DFCD138D01B501CD8345E1011255B4
:101C7000B000EFF0FFC709C5834781042300FD02D0
:101C80008347310281EBA3000D0245B51C4C85074B
:101C90001CCCBDBB1306F1012C100945EFF01FCA87
:101CA000E30F05E810106C100D45EFF03FC9E30895
:101CB00005E8130611020C181145EFF03FC8E300C8
:101CC00005E8130621024C181545EFF03FC7E3085D
:101CD00005E68346010232568345F1012255381844
:101CE000EFF07FB3E30D05E48346210252568345AE
:101CF000110242559800EFF01FB2E30205E4F257DB
:101D000062571306E1012326FD0096472324ED00C8
:101D10000647232AFD008547A300FD021C544C10F2
:101D2000254585072328ED001CD4EFF03FC1E301D2
:101D300005CE8345E1011255B000EFF0BF9DE309E8
:101D400005CC2645B645EF70601E232CAD00C9B109
:101D50001307E007637CF7001C4823870198A386DC
:101D6000019885071CC8230C04025DB11387170076
:101D70001377F70FDA972387E19894A3230CE402F3
:101D800041B903851D00EFF0BF942A87E34505D4D0
:101D900003852D003AC6EFF0BF93E34E05D23247DC
:101DA000939749601207598D13154560E315F5D2D5
:101DB00083073D0013072005E391E7E403074D0087
:101DC0009307D004E314F7EC03075D009307300496
:101DD000E31EF7EA03076D009307C002E318F7EA72
:101DE0005C4C1306F1014C10850709455CCCEFF003
:101DF000FFB409C58347F101E39607D05C5085071E
:101E00005CD039B108418280EFE2FF8E89674111D1
:101E10009387E7377C849D475C859C21C885A30711
:101E200001005C869C3101479946DC868147300081
:101E30003A9610220507B29793F7F70FE319D7FEEA
:101E400028009D455C87EF10A04C41016FE0FF8C9E
:101E5000EFE27F8A03C781BF411149EBAA87138450
:101E600081BF2E8581E958409306301F3387E740B4
:101E700063FFE60613068003938441BB8145138507
:101E800041BB5CC0EFE09F8B83A7418D6C001305C5
:101E900000069CDC83A7818DDCDCBCC0996793873E
:101EA00047F67C86EFF05FF60945EF30C02CA5477A
:101EB0006C00130510065C86EFF01FF50945EF3046
:101EC000802B85446C00130500086486EFF0DFF377
:101ED000F16537A50A2013064006938505201305F2
:101EE000452104A023260400EF70001B0545410195
:101EF0006FE0BF82EFE2AFFD938781BF37A90A2071
:101F0000B7A90A2023A0070023A2070023A40700E3
:101F100023A607008544138A81BF8D4A130909242B
:101F20009389892B37AB0A20994BEF00F0140146B7
:101F30008545EFF0FFF12A841DE58327CA00CA8694
:101F400063E5FA00B3C737219443A6851546130508
:101F50008B248504EF7040146387740113054006D9
:101F6000EF306021D9B722856FE0EFF9EFE2AFF5EE
:101F70000111AA848149EF0030106383041E83C7D6
:101F800081BFAA8C138A81BF89E705468145EFF09E
:101F90003FEC37940D201307041D1C4337AB0A2078
:101FA00085071CC39307CB26A30F010081491304A7
:101FB000041D3EC6138981B71305F101EF10C02A35
:101FC0001DC983C7719985091147B3C90908636E93
:101FD000F71A3247B3C7E72098438347F1010287D6
:101FE000130730026392E7188947A38BF198930790
:101FF0000008E393F9FC5C40BE99938741BB8823BA
:1020000023223401CC43138941BBFD5719C1B38747
:10201000BC40834919001CDC03268900FD576384FA
:102020000900B387CC40834A29005CDC0327C90040
:10203000FD5763840A00B387EC4003480A003CC0A4
:10204000854723060407A306A40623073407A3072E
:10205000540719C5B387BC4093B7F71593C717004A
:1020600093F7F70FA308F406854763880900B38741
:10207000CC4093B7F71593C7170093F7F70F2309D1
:10208000F406854663880A003387EC4013379725AA
:102090009346170093F6F60FA309D4068347140757
:1020A00099C783C7A19981E73C5085073CD08347F6
:1020B000240799C783C7919981E77C5085077CD015
:1020C0008347340799C783C7819981E73C548507C3
:1020D0003CD483471407B337F000238DF19883472E
:1020E0002407B337F000A38CF19883473407B33744
:1020F000F000238CF1986309082C6307052C638595
:10210000092C3387BC409306E01563EFE62AB387BA
:10211000CC4063EBF62A2324940385472308F40676
:1021200031469305890223A0940113854400EFE012
:102130008FDF31469305C90113850401EFE0AFDE5F
:102140003146930509011385C401EFE0CFDD930704
:10215000000063840A00832789039CD42386340308
:102160004E8505616FE0EFD9938727F893B7170085
:10217000ADBD238BF198ED1793F7F70F1307B0035D
:102180006378F7001C4485071CC4A38B019885B5B0
:102190008D47A1BDA38AF198238A01989147B1B5D3
:1021A00083C5419903CD619993861500138681B744
:1021B0001307CDFF93F6F60F2E961377F70F238AAA
:1021C000D1981CA2E3E5E6E203CC51990146B3079E
:1021D0008D01938717FA6D1D93F7F70F137DFD0F90
:1021E0009375F60F63EAA5034A970347F7FF631950
:1021F000F71CEF006068930760022A8B6304FC14ED
:1022000063E487030546630ACC1891476303FC081F
:102210005C4885075CC895BFB305C9008C210506DD
:10222000AE9793F7F70F6DBF93072003E312FCFE01
:10223000BD4763F3A707138581B7138D41BBEFF04B
:102240007FBC232AAD021385C1B7EFF0BFBB232C9F
:10225000AD02138501B8EFF0FFBA232EAD0213854E
:1022600041B8EFF03FBA85472301FD005C58145098
:102270002320AD0423266D01850614D081CBB3073E
:10228000FB407CC4344C63F3F6003CCC232A64034B
:10229000EDBDAD4763E6A7011C4885071CC8F5B531
:1022A000039581B7EF60103283A5C18D138D41BBBB
:1022B000EF60A0422328AD0003152900EF609030A5
:1022C00083A5C18DEF606041232AAD00031549004D
:1022D000EF60502F83A5C18DEF602040232CAD000F
:1022E00003156900EF60102E83A5018EEF60E03EBC
:1022F000232EAD0003158900EF60D02C83A5018E3D
:10230000EF60A03D2320AD020315A900EF60902BE4
:1023100083A5018EEF60603C5C54144C054623227B
:10232000AD02850623226D012300CD0014CC81CBA4
:10233000B307FB407CC0344863F3F6003CC8232657
:102340006403A1B5AD47E3F9A7F5138581B7EFF0B5
:102350007FAB138D41BB2324AD021385C1B7EFF0D2
:102360007FAA2326AD02138501B8EFF0BFA98547E8
:10237000A300FD001C58544C2328AD0223246D01FA
:10238000850654CC81CBB307FB403CC4744863F34F
:10239000F6007CC823286403CDBB8947E3FEA7EF82
:1023A00083C781B7A300FA00834719002301FA000D
:1023B00083472900A301FA005C5085075CD0F1B384
:1023C0005C4485075CC4D1B323249403230804062A
:1023D0007C4C814985077CCCA1B3EFE2CFB12A8444
:1023E000612939C8AA8603C581BF938741BBBC2335
:1023F000138741BB1DCD89EF14C083A7818D014593
:102400005CC01CC483A7418D5CC49307000031A845
:102410005C4714C0B387F64013B597255C5F5CC07A
:102420003C431CC41C5F5CC45C5B1CC848A86FE0D8
:10243000CFAE14C0F9D3DDB70145D5BFEFE2AFABE6
:10244000130680048145138581C0EFE02FAFEF00B4
:10245000102205456FE06FACEFE26FA701112A89EA
:1024600021296300090C37940D201307442E1C43C7
:10247000416A8507AA891CC3814B1304442E9384A7
:1024800081C0054C7D4B930C00027D1A1305F101B0
:10249000EF0090551DCD8347F101A30AF4020347D5
:1024A00094037D8B2297230DF702034794030507BE
:1024B0001377F70FA30CE40203C7040225EB63892B
:1024C00097095C5085075CD0850B93070008E39F54
:1024D000FBFA5C40DE975CC063950B005C5485079B
:1024E0005CD403CA44049307490063120A14584891
:1024F0009306C05D050758C82320390113078901D9
:1025000096A38907E31EF7FEB707DC051387C75DAF
:102510009387873E232EF900C167232CE9002320EF
:10252000F902014A528505616FE0EF9D631E870342
:10253000130700046383E7021848050718C8639768
:1025400097072380940123808403230A8403ADBF6B
:102550002380840323809401CDBF09472380E402B4
:102560009CB0230AE4028DB79306170093F6F60F8A
:1025700026972380D4021CA3230AD402E376DBF43B
:102580009830FC3C83C681C0230BE402A30BF40209
:10259000230C04026396960193060004630DD70092
:1025A0005C5085075CD01C4885071CC8238004024A
:1025B000230A040211BF814652877946B385D400AD
:1025C0008C2185060D8F33470708E399C6FEF42C4E
:1025D000A207D58F6386E7001C5485071CD4E1B79A
:1025E000268781461308007D1305803EB9453C339C
:1025F00030230907A207D18F33D6070B3376A60AFB
:1026000012B3138686023326862085063EA6E39003
:10261000B6FE23830404A3820404B92C85472382D5
:10262000F4041C44A8C085071CC408D841B73EC6A2
:10263000A124B84093064006B247198DE3E9A6EA03
:102640002320E900A68601472945AE3213068703F9
:10265000332686208EA36EA6050789068907E31612
:10266000A7FE83274900232CF90083278900232E06
:10267000F9008357090193B7076493C71700230034
:10268000F90283C76404A300F90283C75404230139
:10269000F90281C7A301090269B58547A301F902BF
:1026A0001C5085071CD0BDBDEFE2EF847971130685
:1026B00000028145080802C202C402C6EFE00F888A
:1026C000854513054020EF1070010145EF105006BD
:1026D0008D451145EF104064371501408D474C0082
:1026E00013050580372401407C8202C6EF10403577
:1026F00013050440EF108027B7070E0013050440B0
:102700003ECE0C0885472302F10202C802CA02CC61
:1027100002D002D402D6EF1060291305044085458B
:10272000EF10202E13050440E164EF10802E9384F7
:10273000146A130404402285EF10402E11C9FD14C1
:10274000FDF8B7970D209387072D9843050798C389
:10275000B7240140138504406164EF10A02C1304DA
:10276000146A938404402685EF10002D11C97D144E
:102770007DF8B7970D209387072D9843050798C3D9
:1027800045616FD09FF9EFD21FF7894509C9371509
:102790000140130505C0EF1020396FD01FF8371521
:1027A0000140130505C0EF106038C5BFEFD21FF31D
:1027B00037940D204111130404618949F16402C268
:1027C00002C402C623203401EF108004EF209018C9
:1027D00013850420EF20D01C0D4985452145232079
:1027E0002401EF10A06F371501404C00C1471305BD
:1027F00005C03EC6231231014AC4EF1060240145D2
:10280000EFF07FF8992A13850420EF0060760965C0
:10281000A947130505581CC0412113850420EF006A
:102820004059EFF07FE837A60A20B7A50A2037A560
:102830000A201306862C9385052D1305852EEF603F
:10284000B00583A5419B37A60A2037A50A201306A9
:10285000462F1305C530EF60300437A50A20130654
:1028600020039305803E1305C532EF60F002CD478B
:102870001CC041016FD0DFE903A5C199828083A705
:10288000C199850723AEF198B7970D20938707610B
:102890009847050798C78280EFD2FFE537940D204F
:1028A0008D461304442463EDA6029307007D2E8712
:1028B000B3D7F50A1306803EB3F5C70AB3278520C0
:1028C000DAA3CEA78947630CF5046301D5068547D3
:1028D0006300F50437350140130505C0EF10B0184B
:1028E000B737014003D747C3938707C0334707086B
:1028F0005AA89A3F334707087AA8DA3F33470708B0
:102900001AAC83D70704B3C707083EAC6FD0FFE00B
:1029100037350140130505C0EF103015D1B73735F5
:102920000140130505C0EF1090145DBF373501401D
:10293000130505C0EF10F01365B7EFD2DFDBAA84F3
:102940000144114922850504A6851374F40FEFF0A4
:10295000BFF4E31924FF6FD05FDCEFD23FD80565E9
:102960007971854513055584B719014002CA02CC17
:1029700002CE02D002D202D402D602C402C623186A
:102980000100EF10A055138509800546A145EF1001
:10299000201A37240140130504800546AD45EF1089
:1029A0002019130504800546B545EF10601805464B
:1029B00013050480B945EF10A01793070010614973
:1029C0008D444C0813850980FC824ACE26CCEF103A
:1029D00020079D67938707804C0813050480FC82BD
:1029E0004ACE26CCEF10C00583A7419B37470F0086
:1029F00013070724B3D7E702373401402C0013052F
:102A000004C023150100FD177C8495679387F7E1C7
:102A10003EC6EF104053C167938707063ED00C10A7
:102A20009307803E130504C02313F102231401020F
:102A3000EF1020590C10130504C0EF10A05F0C100C
:102A4000130504C0EF10A0680C10130504C0EF10AC
:102A50008071130504C0A145EF10607C130504C00C
:102A6000A145EF10A07C130504C0A145EF10607DC7
:102A7000130504C0A145EF10A07D130504C08545D2
:102A8000EF104078130504C08545EF10407685456A
:102A9000130504C0EF1020741305803EEFF0FFE92A
:102AA00045616FD0FFC6EFD21FC5B7970D20938742
:102AB00047249843AA840144050798C31149B327C2
:102AC00094208E231375F40F0504EFF0FFDCE31858
:102AD00024FF6FD09FC4EFD21FC24111B14702C47F
:102AE0002EC08A852A847C8502C202C6EF10C07877
:102AF00085452285EF10500341016FD01FC2EFD2F0
:102B00009FBFB744004013041040938404409305D2
:102B100000022685EF10B00709C57D143344040870
:102B20001DE037440040A14513050440EF10300676
:102B300019CD374500408357054013050540EF1078
:102B400090046FD09FBD2685EF10F003C9B7914563
:102B500013050440EF10B00369FD894513050440D7
:102B6000EF10F00279F5854513050440EF103002AF
:102B700069F1C1BFEFD23FB8B75400401304101041
:102B800093840480930500022685EF10500009C548
:102B90007D14334404081DE037540040A14513055B
:102BA0000480EF10C07E19CD375500408357058053
:102BB00013050580EF10207D6FD03FB62685EF10FE
:102BC000807CC9B7914513050480EF10407C69FDF6
:102BD000894513050480EF10807B79F58545130541
:102BE0000480EF10C07A69F1C1BFEFD2DFB0B754F3
:102BF000004013041020938404C09305000226852E
:102C0000EF10E07809C57D14334404081DE0375403
:102C10000040A145130504C0EF10607719CD37556A
:102C20000040835705C0130505C0EF10C0756FD075
:102C3000DFAE2685EF102075C9B79145130504C096
:102C4000EF10E07469FD8945130504C0EF1020748E
:102C500079F58545130504C0EF10607369F1C1BFB4
:102C6000EFD27FA96164AA841304146A9305000853
:102C70002685EF10C07119C1054529A87D147DF482
:102C8000B7970D209387474103A7471101450507D3
:102C900023AAE7106FD07FA8EFD2FFA52398019A4F
:102CA0004111AA842397019A85453705020023869E
:102CB000019A02C202C402C6EF1000248545130522
:102CC0001002EF10A02137140140130504401D46E7
:102CD0009545EF00F0651D46130504409945EF004A
:102CE0003065930700027C82E1473EC64C008D4769
:102CF000130504403EC4EF00B054930700047C82E7
:102D00004C0093078004130504403EC6374400403E
:102D1000EF001053A68513050440EFF0DFDBB7E7A3
:102D200000E00547A386E7624157A386E7420967AB
:102D300023A2E7180F100000014623A2E7289305FD
:102D4000505213050440EF10605FEFF05FDB41016C
:102D50006FD0BF9CEFD23F9AB7970D209387474122
:102D6000D8570507D8D783C7C19A85E737450040AC
:102D700001469305505213050540EF10205CEFF01B
:102D80001FD8B7E700E0096723A2E7288547238615
:102D9000F19A37450040054693055052130505400A
:102DA000EF10C059B7E700E0096723A2E7106FD022
:102DB000DF96EFD25F942395019A4111AA84239460
:102DC000019A8545370504002383019A02C202C493
:102DD00002C6EF10601285452545EF10201037140C
:102DE0000140130504C01D46A945EF0070541D465F
:102DF000130504C0AD45EF00B053930700407C823B
:102E0000E1473EC64C008D47130504C03EC4EF00A9
:102E100030439317B0287C824C009307800413053D
:102E200004C03EC637540040EF009041A68513050C
:102E30000480EFF05FCAB7E700E00547238AE76444
:102E40004157238AE7443707100023A4E7180F10DF
:102E50000000014623A4E72893055052130504807F
:102E6000EF10C04DEFF01FD141016FD01F8BEFD29B
:102E70009F88B7970D209387474103A74708050709
:102E800023A2E70883C7619A8DE7375500400146C2
:102E90009305505213050580EF10404AEFF09FCD87
:102EA000B7E700E03707100023A4E728854723830E
:102EB000F19A375500400546930550521305058099
:102EC000EF10C047B7E700E03707100023A4E71072
:102ED0006FD0BF84EFD23F8237150140130505C084
:102EE000EF001044B7970D2093874741239EA70812
:102EF00003D7C709B7060140938707081357B74898
:102F0000F8AF984A31833D8BF8BF9842B7560040DE
:102F100098D31387068083D60680B3C6060894C765
:102F20005627B3C60608D4C7162BB3C6060894CBDB
:102F3000562BB3C60608D4CB1A273347070898CFB9
:102F400037E700E0144793D64649D4D3145793D6B5
:102F5000464994D79306073094461307077093D6D3
:102F60004649D4D718471357474998DB6FD0EFFA33
:102F7000EFD2CFF62392019A4111AA842391019AAC
:102F80008545370508002380019A02C202C402C6A3
:102F9000EF009076854513051008EF003074372454
:102FA0000140130504C0C145EF00103841498D4967
:102FB0004C00130504C0231221014AC64EC4EF0081
:102FC00030281D46130504C09145EF007036E147D7
:102FD0004C00130504C03EC6231221014EC4EF006D
:102FE00030261D46130504C08D45EF007034A147FF
:102FF0007C824C0093078004130504C03EC63754FE
:103000000040EF00F023A685130504C0EFF0BFAC2D
:10301000B7E700E00547A38AE7644157A38AE7447E
:103020003707200023A4E7180F100000014623A44F
:10303000E72893055052130504C0EF102030EFF03D
:10304000DFBA41016FD0CFECEFD2EFEAB7970D2096
:103050009387474103A7470E050723A2E70E83C7BF
:10306000019A8DE7375500400146930550521305EC
:1030700005C0EF10A02CEFF05FB7B7E700E037070F
:10308000200023A4E72885472380F19A3755004084
:10309000054693055052130505C0EF10202AB7E7E7
:1030A00000E03707200023A4E7106FD00FE7EFD22E
:1030B0008FE437250140130505C0EF007026B79750
:1030C0000D2093874741239EA70E03D7C70FB7064E
:1030D00001403756004013573748238FE70ED85624
:1030E00031833D8BA38FE70E94421387071093879C
:1030F000070814C3930606C0035606C033460608E5
:10310000B0D7D22633460608F0D7922A33460608AF
:10311000B0DBD22A33460608F0DB9626B3C6060893
:10312000B4DFB7E700E0944793D6564954C39457A9
:1031300093D6564914C793860730944693870770F1
:1031400093D6564954C79C4793D757491CCB6FD049
:10315000CFDC39C537E600E0032846008965232225
:10316000B6183378B8000F10000003D3E19A83D665
:10317000019BB7970D20938747416315D302D4472E
:103180008506D4C703D7E19A33470708BABB03D7EC
:10319000019B33470708DABB630408002322B610FB
:1031A0000145828003D3E19A938601F59A96942291
:1031B00014A183D6E19A850693F6F63F2397D19A18
:1031C0009447850694C703D7E19A33470708BABBEB
:1031D00003D7019B33470708DABB63140800054592
:1031E00082802322B610E5BF0DCD37E700E01047FF
:1031F000B70610002324D718758E01CE0F100000DB
:1032000003D8819A03D6A19A631FC8022324D7103A
:1032100009A80F10000083D6819A03D7A19A63945E
:10322000E6000145828083D6819A138701E53697AF
:10323000182318A103D7819A05071377F70F239452
:10324000E19A0545828083D5819A138601E52E9601
:10325000102210A103D6819A05061376F60F239447
:10326000C19A2324D710F1BF2DC5B7E600E09C46D4
:103270003706200023A4C618F18FA1C70F10000045
:1032800003D8219A83D7419A6307F804854703D668
:10329000219A938601C5B296942214A183D6219ACD
:1032A000850693F6F61F2391D19A37970D201307C1
:1032B00047418326C70B8506232ED70A85E305459C
:1032C00082800F10000003D6219A83D6419AE31022
:1032D000D6FC0145828023A4C610E5BFB7E700E015
:1032E0003707200023A4E710D9BFEFD2CFC0411188
:1032F000375400402AC6130504C0EFF07F9611C56D
:10330000B245130504C0EF10800741016FD0EFC034
:1033100019CDEFD24FBE2A84B304B50063149400D4
:103320006FD0AFBF08200504EFF03FFCC5BF82801F
:1033300001113EC4B74700403AC603D70740B797CC
:103340000D2036C89386474132CA90422ACE2ECCF1
:1033500042C2050690C23347070898DE1376F7008D
:1033600090D6937687009387474181C6D44B8506D4
:10337000D4CB9376270081C6944F850694CF93765D
:10338000470081C6D44F8506D4CF9376170081C6F7
:103390009453850694D39376F70291EED85305079C
:1033A000D8D37245E2455246C2463247A247124838
:1033B000056173002030B7460040137707029386FB
:1033C000064039CFCE2203D7019B83D6E19A3348FA
:1033D000070805071377F73F93F5F50F639CE600A1
:1033E000944B850694CB83D6E19A850693F6F63FF7
:1033F0002397D19AD4438506D4C3938601F52388B5
:10340000B702C2968CA22398E19A03D7E19A334778
:103410000708BABB03D7019B33470708DABB51B78C
:10342000DE2241B701113EC4B75700403AC603D768
:103430000780B7970D2036C89386474132CAF04EB1
:103440002ACE2ECC42C20506F0CE1386060833479C
:10345000070818C61376F700F0DE93768700938787
:10346000474181C6B4578506B4D79376270081C6F5
:10347000F4578506F4D79376470081C6B45B85067A
:10348000B4DB9376170081C6F45B8506F4DB937694
:10349000F70291EEB85F0507B8DF7245E245524684
:1034A000C2463247A2471248056173002030B75622
:1034B0000040137707029386068029C7D62203D7D8
:1034C000A19AB05393F6F60F334807080506B0D318
:1034D0002380D70883D5819A05071377F70F639C5C
:1034E000E500EC538505ECD383D7819A850793F7E4
:1034F000F70F2394F19A938701E5C29794A323953C
:10350000E19A61BFDE2251BF01113EC4B7570040AE
:103510003AC603D707C0B7970D2036C893864741F0
:103520009386060832CAD05A2ACE2ECC0506D0DAA7
:1035300033470708B8D61376F700F0CE93768700A6
:103540009387474191C683A6870C850623A4D70C91
:103550009376270091C683A6C70C850623A6D70CB1
:103560009376470091C683A6070D850623A8D70C3E
:103570009376170091C683A6470D850623AAD70C1C
:103580009376F70299EE03A7870D050723ACE70CA6
:103590007245E2455246C2463247A2470561730072
:1035A0002030B7560040938606C0D6221377070214
:1035B00093F6F60F2380D70E61DF03D7419A83A6D7
:1035C000870B33450708850623ACD70A83D6219A93
:1035D00005071377F71F6399E60083D6219A8506BE
:1035E00093F6F61F2391D19A83C6070E938701C5E0
:1035F00093F6F60FAA9794A32392E19A51BF1385ED
:1036000001358280EFD22F8F37940D2013060011E1
:10361000814513040461F94793840135138501350D
:103620001CC0EFD0AF91B707E8039387873E23A66E
:10363000F40E23A8F40EFD471CC0EFE0BF8B9307E8
:1036400000021CC0EFE04F88930710021CC0EFE09F
:103650004FB4930720021CC0EFE05FDE93078002A7
:10366000138501401CC0EFD01F9AEFD03FA9EFD0C7
:10367000FF95EFD01F99EFE00F851305803EEFF027
:10368000CFAB930720031CC0EFD08FF1EF104001A8
:103690009307C00348C41CC0EF10804F9307800CF1
:1036A0001CC001A0EFD22F8537940D20B7075EA56F
:1036B00089071304045E1CC0EF00907E08CCEF0065
:1036C000907E48CC1305803EEFF02FA78967938743
:1036D00007807390073001A0EFD2EF8137940D205F
:1036E000B7075EA51304045E8D071CC048C00CC458
:1036F000EF00107B08CCEF00107B48CC1305803E18
:10370000EFF0AFA38967938707807390073001A01C
:10371000EFC2DFFC86892E8AAA8AEF10B01CB7940C
:103720000D20B7075EA51384045E85071CC0232601
:103730005401232844015C482A899384045E850748
:103740005CC8EF00F07508CCEF00F07548CC232082
:1037500034032322240385476302F902EF10404C0F
:1037600088D4EF10D017C8D41305803EEFF0EF9C3B
:103770008967938707807390073001A023A4040210
:103780000145D5B7B7970D209387475C9843050748
:1037900098C39307800873B007800F10000001A042
:1037A000B7970D209387475CD8430507D8C3732785
:1037B000203498C773271034D8C77327303498CB78
:1037C00073270030D8CB0A8798CF9307800873B04F
:1037D00007800F10000001A0EFC2FFF1B7E700E083
:1037E0003707200023A4E7180F10000037940D209E
:1037F00023A4E7281304046185471CC0EFE01FFBE6
:10380000D1471CC0EFF01FE09307A00F1CC001A020
:10381000B7170240D44398472146B18A6394C60241
:10382000B7060070758F37060050630BC7126360D0
:10383000E6021DC7B7479C1CB70600409387078068
:103840006307D706B7877D01938707848DA0370666
:1038500000606308C70EB767730793870794CDB7F7
:103860009047944798479305000A93F6060E2183E4
:103870001377F7037D8A0507639AB606B767CD1DF0
:103880009387075033D7E702B7070C209387073297
:10389000B2979C239146B387E7026309D6008566F9
:1038A00093860654B3D6C600858A91C2858323AC1D
:1038B000F19A37160240544237070C20130707319C
:1038C0009182BD8A36971823B7060C209386063E50
:1038D000B3D7E700584241830D8B3697182333D76F
:1038E000E70023AEE19A23AAF19A82809305000EA5
:1038F0006392B602D45BB7070C2093870730C1826E
:10390000B6979C23B7867D0193860684B387D7023A
:1039100085838DBF930700086397F600B7479C1C0B
:103920009387078085B79307000C6397F600B76706
:10393000730793870794B9B7B7877D019387078487
:1039400091B7D85BB7070C20938707304183BA97AC
:103950009C2337877D0113070784B387E702B9B734
:10396000B767CD1D9387075099B701A0EFC2BFD8A5
:10397000B727014093870740631CF5008545130571
:103980000020492B81451305002069236FC0FFD813
:10399000B737014093870780E31AF5FE8545130585
:1039A00000408D2B814513050040C5B75841B7072E
:1039B000F1E09387F7EF944D7D8F9C41D58FD44DE7
:1039C000D58FD441A206D58FD98F5CC11845B7F7E2
:1039D000F1FF9387D77FD4457D8F9C49D58F944540
:1039E0008606D58FD98F1CC55855B70710FFFD1710
:1039F0007D8FDC29FD1793F7F70FD207D98F5CD5A0
:103A000082801C4589C593E717001CC58280F99BFD
:103A1000EDBF1C4593E787001CC582800845135500
:103A2000354882805C4537070038D98F5CC51C4516
:103A300093E747001CC582800845135525488280BE
:103A40009C4503D8050013F7070193F8F7001DCB39
:103A5000584D93E8180081468D4E414E3316D028BC
:103A60003373C800631C66001393160033966E0010
:103A70003377C740D04133166600518F8506E39FE8
:103A8000C6FD58CD1377F80F1DCF1841814613039B
:103A900080023D4E930E8004A1453316D028337F1B
:103AA000C800631EE6016395670650C91396260099
:103AB000331FCE003396C8003377E741518F850618
:103AC000E39DB6FC18C11307F00F6372070554415C
:103AD0000146130E8002930E8004214313078600D3
:103AE0003317E028B375E800631FB7006396C70378
:103AF00058C913172600BD45B395E5003397E80074
:103B0000B3F6B640D98E0506E31A66FC54C182802E
:103B1000E39ED7F910C959BFE39DD7FD18C9D1BF9E
:103B200008453345050882800CC982804CC98280D3
:103B3000371701409D479306078063F8B7029387C4
:103B400085FF93F7F70F631AD506B70601408C4639
:103B50008A073D473317F70033F7E54098C6984684
:103B6000B317F600D98F9CC682806308D5029307ED
:103B700007C0630AF508631CE51637070140544B7C
:103B80008A05BD47B397B700B3F7F6405CCB5C4BF3
:103B9000B315B600DD8D4CCB82803707014054430E
:103BA0008A05BD47B397B700B3F7F6405CC35C43E3
:103BB000B315B600DD8D4CC38280930607C0630445
:103BC000D5026312E510B70601408C4E8A073D47C7
:103BD0003317F70033F7E54098CE984EB317F60049
:103BE000D98F9CCE8280B70601408C4A8A073D4718
:103BF0003317F70033F7E54098CA984AB317F60031
:103C0000D98F9CCA82803707014054478A05BD4737
:103C1000B397B700B3F7F6405CC75C47B315B6007F
:103C2000DD8D4CC782803727014013070780AE87A0
:103C30006318E5043707014054538A05BD47B3971D
:103C4000B700B3F7F6405CD35C53B315B600DD8D17
:103C50004CD3828037270140130707806312E502A7
:103C6000B70601408C568A073D473317F70033F7F4
:103C7000E54098D69856B317F600D98F9CD6828027
:103C800037270140130707C06317E5088A073D4738
:103C90003317F7003316F6009D471347F7FF63FB12
:103CA000B700B7070140945B758F98DB985B518F25
:103CB00098DB8280B7070140D457758FD8D7D85783
:103CC000518FD8D7828013070740E315E5F8B70670
:103CD00001408C528A073D473317F70033F7E54020
:103CE00098D29852B317F600D98F9CD282801307CE
:103CF0000740E31AE5F237070140544F8A05BD47F4
:103D0000B397B700B3F7F6405CCF5C4FB315B6007E
:103D1000DD8D4CCF82808280B7160240DC42417735
:103D20001307F77FBA05F98FDD8D2E054D8DC8C2BB
:103D30008280B7170240D44398472146B18A6394E2
:103D4000C602B7060070758F37060050630EC714A1
:103D50006360E6021DC7B7479C1CB7060040938707
:103D600007806307D706B7877D01938707848DA0F7
:103D700037060060630BC710B76773079387079414
:103D8000CDB79047944798479305000A93F6060EDF
:103D900021831377F7037D8A0507639DB608B7670C
:103DA000CD1D9387075033D7E702B7070C209387C1
:103DB0000736B2979C239146B387E7026309D60082
:103DC000856693860654B3D6C600858A91C28583DC
:103DD0001CC137160240544237070C201307073521
:103DE0009182BD8A3697182393860181B3D7E70065
:103DF0005842416641830D8B36971823B7F600E091
:103E000033D7E70058C183A606D1F18E91E2BA8775
:103E10001CC5371602405C4263DD07085C42374729
:103E20009C1C13070780AD83FD8B95073357F70262
:103E300058C582809305000E6392B602D45BB70723
:103E40000C2093870734C182B6979C23B7867D01E7
:103E500093860684B387D7028583B1B7930700089A
:103E60006397F600B7479C1C938707802DBF930785
:103E7000000C6397F600B76773079387079425B71D
:103E8000B7877D019387078439BFD85BB7070C20BC
:103E9000938707344183BA979C2337877D011307A3
:103EA0000784B387E70225B7B767CD1D938707500F
:103EB00005B75442B7070C209387873EAD829D8A91
:103EC000B6978C235C42B7060C209386463EB98396
:103ED0008D8BB6979C233357B70089BF99C5371789
:103EE00002405C4FC98F5CCF8280B7170240D84F29
:103EF0003375A740C8CF828099C5371702401C533D
:103F0000C98F1CD38280B717024098533375A740DE
:103F100088D3828099C5371702401C4BC98F1CCBB0
:103F20008280B7170240984B3375A74088CB8280B8
:103F3000B7170240D8437E051317F749D8C3D843B3
:103F4000598DC8C38280B7370140138607C0D62178
:103F50009A21630DC502938707406309F502B707ED
:103F600000406305F502938707406301F502B71728
:103F7000004013860780630BC500938707C0630763
:103F8000F50056B51AB585475EA982801E21B2217B
:103F9000B3C7070893F7F7F8D18FF22193F7F7CF5C
:103FA000D18F1EA156B5B73701401AB5138707C088
:103FB0006306E50093870740E317F5FC9C251EB9CF
:103FC000D9B71E31922103D82500B3C70708F99B42
:103FD000B3C707081EB11E3156211A2DB3C70708F3
:103FE000F59B334707081377C7F8518F9225B3C65F
:103FF000060833660601D18F37360140130806C024
:1040000063060501130606406310C502B225DD9B59
:1040100003D8E500D18FD221ED9B93F6F6CFD18F57
:10402000D22533660601D18E56A11AADFA215AB9AE
:104030001EB182801E31E5769386F6CFB3C707089E
:10404000BD9BB3C707081EB11E3152211A2D03D8DC
:104050008500B3C70708758F962193F7F7FD3346A0
:104060000608A206558FB62133470708B3E60601B6
:104070009206D58FB7360140138806C0B3C707082C
:104080006306050193860640631DD502B62593F7A6
:10409000F7F703D8C5009206D58FD621B3C7070816
:1040A00093F7F7FB9206D58FFD769386F63FF18E58
:1040B000F225B3C70708336606010A06D18E33C658
:1040C000060852A11AADFA211ABD1EB182801E3116
:1040D000962103D88500B3C7070893F7F7EFB3C756
:1040E00007081EB11E3152215A2DB3C7070893F796
:1040F000F7DF334707081377C7F8558FB6213346E4
:104100000608B3E60601A206D58FB736014013882C
:1041100006C0B3C707086306050193860640631E01
:10412000D502FD769386F67FF58FB62503D8C500B8
:10413000A206D58FD621B3C7070893F7F7BFA2060B
:10414000D58FF576FD16F18EF225B3C707083366D5
:1041500006011206D18E33C6060852A15AADFA21C5
:104160005ABD1EB182801E317D777D17F98F1EB139
:104170001A315E21562D65761306F6CFF18E922107
:1041800003D88500B3C707082206D18E79767D163D
:10419000718FB221B3C60608336606013206518F0D
:1041A00037360140130806C0334707086306050188
:1041B00013060640631AC50071767D16F18FD2256D
:1041C0001A06D18FB3C707085EA1FE2156AD231092
:1041D000F5041AB182801E2189C593E717001EA13C
:1041E0008280B3C70708F99BB3C70708CDBF8357C1
:1041F000450491C59397F7282312F5048280C607DA
:10420000C583DDBF1E2189C593E707081EA18280F3
:10421000B3C7070893F7F7F7B3C70708C5BF1E2D45
:10422000B3C70708DD9BCD8F1EAD82801E2D7D7725
:104230001307F77FF98FA205CD8FB3C707081EAD0F
:1042400082805E2DB3C70708DD9BCD8F5EAD828077
:104250005E2D7D771307F77FF98FA205CD8FB3C74A
:1042600007085EAD82804EB982800EBD82804EBD51
:1042700082802310B5048280EFC2EFC79E257D7730
:10428000BD667D8F41112A84AE84631BD7005A2DF1
:10429000B18B334707084D9BD98F5EAD2394050042
:1042A0001A28F577FD177D8FFE200A85D98F1EA865
:1042B0005A248D679387379F7D8FDE20D98F9A246C
:1042C000D98FBA24D98F5EA45E28DA24B3C7070831
:1042D00093F7F7CFD98F5EA8EFF0BFA5924765455A
:1042E0009040B335F50281460A063305F502EF101A
:1042F000505893064006B357D5021306F063139740
:104300004700B377D502920793872703637AF600B5
:1043100093070701B3C707081EA441016FC0EFBF91
:10432000B3D7D702D98FFDB75E2589C59397D72814
:104330005EA5828079777D17F98FDDBF93F7F50F42
:1043400095830547B315B0286398E70031051C41F4
:104350001DC2CD8F1CC1828009476394E7004105CF
:10436000FDB70D476394E7005105D5B71147E390BA
:10437000E7FE7105E9BFB3F5B7400CC1828093F544
:10438000F51F4EA182804A211375F51F82800A21F4
:104390006D8D3335A0008280EFC26FB31307F5FF38
:1043A000B95763F9E700EF00F00683A7019D99EF85
:1043B000814491A09377F5009304050185E3EF0014
:1043C000700583A7019D85CB63DD0406EF00101CFB
:1043D000EFF04FAD814A56856FC0EFB21387F7FEFD
:1043E000E36397FC13050502B304F540EF00900268
:1043F00083A7019DA9E737170C20130707049376BD
:10440000F700E16799C69306F700C19ABA97958FAE
:104410003687BA979386419DC117C19B23A2060098
:1044200098C223A2070023A00700B386E74023A871
:10443000F19C1CC323A4D19C54C323A6D19CE35755
:1044400090F883A7C19CE3E397F89387419D80434D
:10445000371A0C20130A0A041389419D636844012A
:10446000B7970D209387F70363FA870037A50A20D3
:104470009305600F13050535EFF08FA9B79B0D204D
:1044800037AC0A20938BFB035C4063F69700832ACA
:104490000400639A0A0C83A7019DE38987F2832AAB
:1044A0000900C10A63E84A01B7970D209387F70313
:1044B00063FA570137A50A209305601013050535E7
:1044C000EFF00FA51C402320F9005C4063FA970031
:1044D00037A50A209305E01013050535EFF04FA32B
:1044E0005C4013070002858F637AF702B3099400DA
:1044F00093F7F90089CB37A50A20930570111305AE
:104500000535EFF0EFA05C40858F23A2F9008327EB
:10451000090044C023A0F9002320390183A7C19CCE
:10452000584003A6819C998F23A6F19C63F4C70091
:1045300023A4F19C1317F72958C083A7419C23207B
:104540000400850723A2F19CEF00500493F7FA00C2
:10455000E38307E837A50A209305D0151305053531
:10456000EFF00F9B8DBD63E44A0163F85B01930597
:10457000C00F13050C35EFF0AF992289568429B787
:10458000630F0510EFC28F95B7190C20130905FFB3
:10459000938909042A8463683901B7970D209387AA
:1045A000F70363FA270137A50A20930500171305BF
:1045B0000535EFF0EF95832744FF63CA070037A561
:1045C0000A209305101713050535EFF06F94832724
:1045D00004FF89CB37A50A2093052017130505355D
:1045E000EFF00F93832744FF63D6070A032704FFE6
:1045F00055E39397F749232AF4FEEF00A06183A6C1
:10460000C19C832744FFB69723A6F19C1387419D45
:104610009387419DBA841843E36E27FF6382F402B7
:1046200063E83401B7970D209387F70363FA970087
:1046300037A50A209305602013050535EFF04F8D4F
:10464000D440032744FF9C403386D400631AC9003A
:104650003697D8C0B386E4006397D702268929A08D
:10466000B306E900639AD70283A6019D6387F6002B
:10467000D4439C4336972322E9002320F900638426
:10468000240123A0240183A7019C850723A0F19C7A
:10469000EF00C06F6FC0CF872328F4FECDB78280B4
:1046A00003A5C19C828003A5819C8280B7E700E0BE
:1046B00041572387E740A386E740B7F700E0938799
:1046C000070823A0070023A2070023A4070003A7CD
:1046D000419B8566938606FA3357D70298CB3D47B0
:1046E00098C337970D20130707261443850614C374
:1046F000944B14CB9C435CC78280EFB2DFFF411127
:1047000002C6F32750303EC6B2470D478D8B638AF1
:10471000E70037A50A209305C00C13058537EFE0A5
:104720003FFFB707102093870700BD8B89CB37A5C4
:104730000A209305000D13058537EFE07FFDEFF0AC
:10474000FFF6B7E700E0116723A0E710096723A091
:10475000E71023AA0180EFB0BFD8014541016FB037
:10476000DFFB5D7186C696C49AC29EC022DE2ADC3B
:104770002EDA32D836D63AD43ED242D046CE72CC99
:1047800076CA7AC87EC67311013489679387078019
:104790007390073037940D20130704265C43850778
:1047A0005CC3B7F700E093870708D44354CB944722
:1047B00014CF23A2070085299307042609C9984727
:1047C0009166050798C737E700E02320D7207311CB
:1047D00001349847D8CF896793870788739007304B
:1047E0007254B640A642164386436255D25542568D
:1047F000B256225792570258F248624ED24E424F5A
:10480000B24F61617300203089679387078073908E
:10481000073083A74181850723AAF1808280EFB208
:104820009FED83A7418189EB37A50A20930560128C
:1048300013058537EFE0DFED83A74181FD1723AA3C
:10484000F18091E7896793878788739007306FB00D
:10485000DFEC930785007D575CC118C55CC51CC99A
:104860002320050082802328050082809441FD5783
:1048700013078500639DF6001C49D843D8C10CC7B7
:104880009CC5CCC31C4188C985071CC18280BA87DE
:1048900058431043E3FDC6FECDB7544118451C49AB
:1048A00098C654C3D4436393A600D8C323280500F5
:1048B00088437D1588C38280EFB25FE283A901A09F
:1048C00003AA01A183AAC1A0AA8483A741A103A529
:1048D00041A12E89A38807041105EFF01FFCFD57A5
:1048E0006390F404630E0902B7970D2093870704C1
:1048F000D84383A641A1104798C683A641A1D0C63C
:1049000083A641A1910654C283A641A1910614C772
:1049100003A741A15CCB9843050798C36FB05FDF45
:1049200083A741A183A541A1CE94C4C3910563F699
:1049300034015685EFF09FF3D5B75285EFF01FF3A2
:1049400003A7419EE3FCE4FC23A2919EC1BF83A781
:1049500001A1944389E67D5723A2E19E828003A7AB
:1049600001A158471843CDBFEFB25FD7B7940D20D0
:104970009384440583A781A099E36FB07FD9EFF0BA
:10498000BFE8DC4403A9C70013054900EFF0FFF0BE
:1049900083A741A0FD1723A2F1A083A781A0FD1743
:1049A00023A4F1A0EFF0BFE703250903EFF05FBDFB
:1049B0004A85EFF0FFBC7DBFEFB2FFD3EFF0DFFA27
:1049C000F5BFEFB2DFD0131926002A8B4A85AE8AD5
:1049D000B68BBA843E8AEFF03F9C01E57D556FB0FF
:1049E0009FD2AA8913054005EFF01F9B2A84630B11
:1049F0000516130640058145EFB05FD44A8623288B
:104A000034039305500A4E85EFB05FD31C587119DB
:104A10003E99137909FF63820A028147C1463387B1
:104A2000FA00030707003306F400230AE60201C771
:104A30008507E396D7FEA3010404B94763FB9700FB
:104A400037A50A209305D0781305053AEFE05FCC2F
:104A5000B944930A4400568544D464C0EFF0BFE0E3
:104A600013058401EFF03FE0BD47858F00C81CCCE3
:104A700040D05E86DA854A85EFB09FB608C06304F1
:104A80000A0023208A00EFF03FD803A741A03799FE
:104A90000D20050723A2E1A003A741A19304490A21
:104AA0006316070C23AA81A003A741A085476312C0
:104AB000F7061309490A138AC4124A855109EFF00F
:104AC0005FD9E31C2AFF379A0D2013050A09EFF07E
:104AD0005FD837990D201305C907EFF09FD7379599
:104AE0000D2013058506EFF0DFD637950D20130551
:104AF0004505EFF01FD637950D2013050504EFF09F
:104B00005FD5130A0A0923A841A11309C90723A6DF
:104B100021A183A7819E850723A4F19E5C5483A6CF
:104B2000C19F63F4F60023AEF19E5147B387E702BD
:104B3000A697D843144718C454C423A2560123246B
:104B4000570198435CC8050798C3EFF05FCD83A772
:104B5000819F99C783A741A1D8575C546364F7022A
:104B60000545B5BD4E85EFF0BFA18DBD03A7819F63
:104B70005C5445F303A741A15857E3ECE7F823AA97
:104B800081A041BFB7E700E0116723A0E720C9BFBC
:104B9000EFB27FB64111B7A70A200A8702C002C24E
:104BA00002C402C69387473BBA8583860700050780
:104BB0008507A30FD7FEF5FA37550A209387019E84
:104BC0000147130600101305858DEFF09FDF854721
:104BD000630FF500FD57631AF502856537A50A20B6
:104BE000938565ED1305053AEFE09FB239A8896713
:104BF00093870780739007307D5723A2E19E23ACF3
:104C0000A19E23A001A0EFF05FAF83A781814101A6
:104C10006FB0BFB083A7C19D850723AEF19C828092
:104C200003A501A08280EFB21FAD83A7C19D4111F2
:104C30006393071403A401A0050423A081A00DEC35
:104C400083A701A19C4391CB856537A50A20938555
:104C5000552A1305053AEFE0BFAB03A701A183A6D0
:104C6000C1A023A8D1A023A6E1A083A7C19E850748
:104C700023A6F19EEFF0BFCD83A7419E37970D206D
:104C80001307470A0145637BF40283A741A1D1467C
:104C9000DC57B387D7023E971843854763F3E70095
:104CA000054583A7419F89E72AC6EFD05FBD3245FE
:104CB00083A7019FF1EB41016FB03FA6D14F65A0E3
:104CC00083A701A1DC47DC47D4436375D40023A24A
:104CD000D19E65BF03A88700D047D44B9388470077
:104CE0002324C8002322060103A8460063131801E9
:104CF000D0C2904223AA07007D1690C2945785C661
:104D000003A8C701905303AF46002324C800232201
:104D100006011388870163130F01D0C2904223A4B8
:104D200007027D1690C2D05783A6C19F63F4C600C8
:104D300023AEC19EB306F603BA9603A84600032F1E
:104D4000880023A4070123A6E70123221F012324AF
:104D50001801D4CB9C4285079CC283A741A1DC5794
:104D600063F3C700054583A701A19C43B1FBFD5731
:104D700023A2F19E19BF83A7419F850723AAF19E15
:104D8000EFD0FFAF014505BF054535B7EFB21F9521
:104D90004111EFF07FA783A7C19D91EB856537A5F2
:104DA0000A20938545FD1305053AEFE07F9683A71A
:104DB000C19DFD1723AEF19C83A7C19D89CB014501
:104DC0002AC6EFF0DFA5324541016FB07F9483A77B
:104DD00041A0F5D7B7960D20B7950D208147938652
:104DE00086069385450A5143054F49A0DC46DC47BA
:104DF0009857C84F90530328470010C548C21385E1
:104E000087016313A80050C3104323A407027D1633
:104E100010C38847D047D84B1388470010C548C2F5
:104E200048436313050150C310437D1610C3D05788
:104E300003A7C19F6374C70023AEC19E33076602F8
:104E40002E9748438328850088C723A6170123A2ED
:104E50000801232405010843D8CB050508C303A78F
:104E600041A158576374C70023A8E19F98423DFFB2
:104E700099C3EFF0DFAD03A4419F19C88549EFF056
:104E80009FDA19C123A8319F7D1475F823AA019ECA
:104E900083A7019FE38507F283A741A11167B7E7C5
:104EA00000E023A0E720054521BFEFB2DF84AA84FC
:104EB0002E8411E9856537A50A20938595951305FC
:104EC000053AEFE0FF8411E8856537A50A20938550
:104ED000A5951305053AEFE0BF83EFF0BFD303A913
:104EE00001A003A7C19D8547630BF700856537A522
:104EF0000A20938525961305053AEFE07F819840B7
:104F000033058700B336E5006372E90299C2636036
:104F1000A90288C00144EFF07FE711E5B7E700E0A0
:104F2000116723A0E72022856FB02FFFEDD288C044
:104F3000814533052541EFF03F980544E9BF19E568
:104F4000B7E700E0116723A0E7208280EFB2AFFA55
:104F50002A84EFF03FCC03A7C19D8547630BF70080
:104F6000856537A50A209385859B1305053AEFE0F3
:104F70002FFA81452285EFF03F94EFF03FE111E5F4
:104F8000B7E700E0116723A0E7206FB00FF9EFB299
:104F9000EFF403A9C19D63070900054723A8E19E1B
:104FA0006FB00FF723A8019E83A741A183A641A15B
:104FB00003A741A19C5B9442185B6372D7029043A4
:104FC00037A7A5A51307575A631BE600D443639878
:104FD000C60098476315D700DC47638AE70083A5BE
:104FE00041A103A541A193854503EFE0EFEEB797FB
:104FF0000D2013870726145393870726850614D39D
:1050000083A6C19F54D383A6C19D54D783A641A133
:1050100074D783A641A17D5781C603A741A15857E4
:10502000B7940D2098D73D461387440A9384440AC9
:105030000C439306C900B3C6F62005098CC251077C
:10504000E318C9FE03A9C19F056AD14A130A3A446D
:1050500037AB0A20B30759033387F40014439DC6C6
:105060005443A107A697D44254C36394F6005C4707
:105070005CC3D147B307F902BE94DC40DC4723AAE6
:10508000F1A023AE219F83A741A119BF6317090097
:10509000D28513050B3AEFE0AFE77D1965BFEFB29C
:1050A0008FE52A8419ED03A441A101EC896537A598
:1050B0000A209385A5931305053AEFE06FE51C5888
:1050C0000290145801459307500A3387A60018230D
:1050D0006305F70009816FB04FE40505FDB703A52F
:1050E00041A1828083A7819F054591C703A5C19DEA
:1050F00013351500060582809307054013573500C8
:105100003E97B7F700E093870708D443F59AD4C3D6
:1051100023A4070088CB914694C3944393E61600DA
:1051200094C3B7F600E093870608DC43898B89EBCC
:105130009307F7FF11EF938781A19843050798C361
:10514000B7F700E0938707089843799B98C382805C
:105150003E87D1BF83A7C19B37470F0013070724A2
:10516000B3D7E7022392F1A21307803EB387E70289
:1051700023A0F1A28280EFB20FD803A401A2AA84D7
:10518000EFF05FF685476307F5002685EFF03FDB1C
:105190006FB0AFD83305940265DDEFF0FFF5CDBFFA
:1051A000EFB26FD501112A848545254502C202C49C
:1051B00002C602C802CA02CC02CEEFE03FD2854549
:1051C00013050010EFE05FD3B71401402D4613859F
:1051D00004C09145EFE0DF95C1477C828D473EC416
:1051E0004C00E147138504C03EC6EFE07F85B7075A
:1051F00008000C08372500403ECC22C802CA231EF6
:105200000100EFF06F87854537250040EFF0CF9123
:1052100005616FB08FD0EFB26FCC2E89328481449C
:10522000374A0F0063D0840493091A2493050008B9
:1052300037250040EFF0AF9509CDB307990083857E
:105240000700372500408504B3C50508EFF02F930C
:10525000D1BFFD19E39C09FC938781A1D843268423
:105260000507D8C322856FB0AFCAAA8703A5C1813D
:1052700037970D2013070762AA9763EBE70037F70C
:105280000F20130707006365F70023AEF1808280CB
:105290007D558280B717493F938787FD1317F549DE
:1052A00063E5E700930500006DAE011106CEB70778
:1052B000807F6368F700AA85EF30806EF240056159
:1052C00082802C001528937735000547B24522458A
:1052D0006388E7000947638BE70099EB5926F9BF1C
:1052E0000546EF00302E1315F569C9BF9D2EE5BFA9
:1052F0000546EF00302DD9B73971B717493F22DC89
:105300004AD85AD006DE26DA4ED652D456D25ECECF
:1053100062CC938787FD2A8B2E841319F54963E8A5
:10532000270108C093070000DCC1814485A0B7D7DE
:105330001640938737BEB70900802A8C63E1271196
:10534000938409FFE98C97B5010083A5E525635394
:10535000A008EF30E064B717C93F938707FD2A899B
:105360006383F40497B5010083A54524EF304063BF
:10537000AA85AA844A85EF30A06297B5010083A56B
:10538000E522EF30E06148C004C08544F250625429
:105390004259B259225A925A025BF24B624C26850C
:1053A000D2542161828097B5010083A56520EF303A
:1053B000205F97B5010083A5E51F2A89EF30405E85
:1053C000AA85AA844A85EF30A05D97B5010083A520
:1053D000651E45BFEF205036B717C93F938707FDBD
:1053E0002A896387F40297B5010083A5251CEF2065
:1053F000B034AA85AA844A85EF30805A97B5010057
:1054000083A5C51AEF20503348C004C0FD54BDBF6A
:1054100097B5010083A5C519EF20103297B501009B
:1054200083A545192A89EF203031AA85AA844A85A7
:10543000EF30005797B5010083A5C517E1B7B7173F
:105440004943938707F863E72717EF00302997B59B
:10545000010083A565162A8AEF30202897B5010040
:1054600083A5C50AEF20502DEF30100BAA84EF3032
:10547000701597B5010083A52513AA8BEF30E025A1
:10548000AA855285EF30C051AA8A97B5010083A53D
:10549000E5115E85EF306024FD472A8AAA8556858E
:1054A00063C3970297570000938787FFB3C7F42021
:1054B00083A7C7FF938909F0B3F969016385F900F0
:1054C000EF30004E31A8EF30A04D935775011359BE
:1054D000794193F7F70FB307F94021476344F70089
:1054E00008C085A097B5010083A5850C5E85EF30C7
:1054F000C01E2A8AAA855685EF30804AAA85AA89C5
:105500005685EF30E049D285EF3080492A8A97B539
:10551000010083A5250A5E85EF30201CD285EF307F
:105520002048AA852A8A4E85EF3080479357750117
:1055300093F7F70F3309F940E54763CA270308C01B
:10554000CE8A032904005685CA85EF306045D2858E
:10555000EF30004548C0E35B0CE21319F9691315FD
:10556000F5692320240148C0B304904005B597B5E0
:10557000010083A5A5045E85EF3020162A89AA853F
:105580004E85EF30E041AA85AA8A4E85EF30404132
:10559000CA85EF30E0402A8997B5010083A545020E
:1055A0005E85EF308013CA85EF30803F2A8AAA8556
:1055B000568539B7B707807F6368F900AA85EF3051
:1055C000203E48C008C095B3935979419389A9F703
:1055D000939779013309F9404A85EF30E073EF3052
:1055E000607EAA852AC24A85EF30803B97B50100CC
:1055F00083A545FDEF30600E2A89EF30E071EF3072
:10560000607CAA852AC4AA844A85EF30603997B5A0
:10561000010083A525FBEF30400C930500002AC64E
:10562000EF20F0728D4609E9930500002685EF20F2
:105630001072B336A000850697570000938747EE97
:1056400009474E86A2854800912AAA84E3500CD4CB
:105650001C409397F7691CC05C409397F7695CC046
:1056600021B7797126D24AD052CC06D622D44ECE5A
:10567000B70700322A892E8A9314F54963F6F4009D
:10568000EF30806963070510CA854A85EF30E00472
:1056900097B5010083A585E72A84EF30000497B50C
:1056A000010083A5A5F2AA892285EF30000397B5F2
:1056B000010083A5E5F1EF203008A285EF30E0017D
:1056C00097B5010083A505F1EF30802DA285EF305D
:1056D000C00097B5010083A525F0EF20F005A28555
:1056E000EF20B07F97B5010083A545EFEF30402B49
:1056F000A285EF20907E97B5010083A565EEEF208F
:10570000B003A285EF20707DA285EF20107D2A8452
:10571000D2854A85EF20707CAA852285EF3040280B
:10572000B7A7993E938797992A8463E59702AA853C
:105730004E85EF30E026AA8517B501000325C5DEAA
:10574000EF300026B250225492540259F249624A74
:1057500045618280B707483F63E89702B70700FFBB
:10576000B385F40017B50100032505DC2EC6EF3024
:105770002023B245AA844E85EF308022A285EF30E7
:105780002022AA8526856DBF97B5010083A5C5E3B4
:10579000D1BF17B50100032525D96DB761713ECA88
:1057A000975700009387070CB347F7202324811AEB
:1057B000232C4119232861192326711923248119C7
:1057C00083AB070023229119232EB1172326111A28
:1057D0002322911A2320211B232E3119232A511908
:1057E0002320A1192AC8F1572E8A328CB68C3A8B05
:1057F000938DF6FF01446347F6001304D6FFA147DB
:105800003344F402130D140093173D00B30AB4415E
:105810003EC63309FC40338DBB0193090108D68491
:10582000B3875441635FFD00E68A1812B3879A413B
:1058300063CFFB041C0193040000814933CDFA209F
:1058400081A01305000063C80400D247B3C7F42049
:105850008843EF30205723A0A90085049109C9B7D8
:10586000C24783250D003ACCB3C6F920884285098A
:10587000EF20B066AA852685EF20006C6247AA84D7
:10588000711DE3DF3DFD04C3850A110745B71C18F0
:10589000B3C7FB203ED2931724003ED0A147B38765
:1058A00027415E843ECE931724003ECC9C1AB3471A
:1058B000F42083A907FB130D0103EA84A28A634144
:1058C0005015CA854E85EF00A06C97B701009387ED
:1058D000A7D18C43AA84EF205060EF00806097B777
:1058E00001009387A7D08C43EF20305FAA852685DF
:1058F000EF30000BAA84EF302042AA8AEF30804CB0
:10590000AA852685EF30C009AA8963512015981A07
:105910009307F4FFB3C7E720724783A407ECB3D61D
:10592000E440B69AB396E600958C23A097EC9D4789
:10593000B3872741B3D4F440635E9004850A81465F
:1059400001469305F00F1305001063C686126358D5
:1059500020018547630AF91489476303F9168947CB
:10596000639AF40297B70100938707BC8843CE85FA
:1059700032D4EF30E0022256AA8909CECA8517B583
:105980000100032565BAEF00A060AA854E85EF30BF
:105990002001AA89930500004E85EF20503B631239
:1059A000051C9307F4FF0147BE8663D57713630098
:1059B000071836841C18B347F4209C436119638090
:1059C000071ACA8517B50100032505B6EF00405C2C
:1059D0002A89A28917BC0100032CCCC063D60920F8
:1059E0002289634109261C12975D0000938DCDE446
:1059F00093090000814C330C2441334DF92005AC50
:105A000097B70100938707BE8C434E85FD1AEF20A0
:105A1000D04CEF306030EF30E03A97B70100938719
:105A200067BA8C432AD4EF20504BAA854E85EF20CD
:105A30003077EF30602E1C1288C0B3C6FA20225592
:105A40008C429104EF20404FAA8995BD631909004B
:105A50009C1AB347F42083A4C7EB9D84F1BD97B78C
:105A600001009387A7AA8C438144EF203034E3439D
:105A700005F28944E1B583270D0001EE85C3B30724
:105A8000F5402320FD008506110D63DD8600832788
:105A90000D00B387F5402320FD0085478506110DD5
:105AA0003E8665B5054665B5981A9307F4FFB3C7FA
:105AB000E72003A707EC1377F70723A0E7EC45B52A
:105AC000981A9307F4FFB3C7E72003A707EC1377EF
:105AD000F703E5B7101833C6C7201042FD17518FE2
