:080000006F60004700000000E2
:100008001305400E9705FEFF9385C5DF1766FEFFB3
:100018001306061863FAC5008322050023A05500BD
:1000280011059105E3EAC5FE1765F4DF1305852977
:100038009765FEFF9385C5151766FEFF13064615DF
:1000480063FAC5008322050023A055001105910518
:10005800E3EAC5FE1765F4DF1305C526970500001A
:100068009385450A1386818763FAC50083220500B4
:1000780023A0550011059105E3EAC5FE1705000008
:100088001305C51D97950100938505986377B500FD
:10009800232005001105E36DB5FEB73237129382B0
:1000A800023E739002BC9D42739012BCB942739099
:1000B8004280A16293828288739002309702FEFF89
:1000C800938242D493E23200739052309722FEFF1B
:0C00D800938242BB7390123473002030FE
:1000E40000000000000000002C1E0A20481E0A2008
:1000F400000000001E200A20000000000000000094
:100104001E200A201E200A2000000000000000001B
:100114001E200A20522E0A2000030A20000000009C
:100124001E200A201E200A201E200A201E200A202B
:1001340000000000000000000000000000000000BB
:1001440000000000000000000000000000000000AB
:100154001E200A2000000000000000000000000033
:100164001E200A201E200A201E200A201E200A20EB
:100174001E200A201E200A201E200A201E200A20DB
:100184001E200A201E200A201E200A201E200A20CB
:100194001E200A201E200A201E200A201E200A20BB
:1001A4001E200A201E200A201E200A201E200A20AB
:1001B4001E200A201E200A201E200A201E200A209B
:1001C4001E200A201E200A201E200A201E200A208B
:1001D4001E200A201E200A201E200A201E200A207B
:1001E4001E200A201E200A201E200A201E200A206B
:1001F4001E200A201E200A201E200A201E200A205B
:100204001E200A201E200A201E200A201E200A204A
:100214001E200A201E200A201E200A201E200A203A
:100224001E200A201E200A201E200A201E200A202A
:100234001E200A20C01B0A201E200A201E200A207D
:100244001E200A201E200A201E200A201E200A200A
:100254001E200A201E200A201E200A201E200A20FA
:100264001E200A201E200A201E200A201E200A20EA
:100274001E200A201E200A201E200A201E200A20DA
:100284001E200A201E200A201E200A201E200A20CA
:100294001E200A201E200A201E200A201E200A20BA
:1002A4001E200A201E200A201E200A201E200A20AA
:1002B4001E200A201E200A201E200A201E200A209A
:1002C4001E200A201E200A201E200A201E200A208A
:1002D4001E200A201E200A20000000001E200A20E2
:1002E4001E200A2000000000000000001E200A203A
:1002F40000000000000000001E200A201E200A202A
:100304001E200A201E200A201E200A201E200A2049
:100314001E200A201E200A201E200A201E200A2039
:100324001E200A201E200A201E200A201E200A2029
:100334001E200A2000000000000000000000000051
:1003440000000000000000000000000000000000A9
:100354000000000000000000000000000000000099
:100364000000000000000000000000000000000089
:100374000000000000000000000000000000000079
:100384000000000000000000000000000000000069
:100394000000000000000000000000000000000059
:1003A4000000000000000000000000000000000049
:1003B4000000000000000000000000000000000039
:1003C4000000000000000000000000000000000029
:1003D4000000000000000000000000000000000019
:1003E400130181F806C216C41AC61EC822CA26CC36
:1003F4002ACE2ED032D236D43AD63ED842DA46DC91
:100404004ADECEC0D2C2D6C4DAC6DEC8E2CAE6CC60
:10041400EACEEED0F2D2F6D4FAD6FED8F3220030E9
:1004240096DA9702020083A2621923A02200F32520
:1004340010342EC09305000273A0458003A10187E8
:10044400EF30A03D170302000323431703210300E9
:10045400824273901234D652739002309240A24278
:100464003243C2435244E244724582551256A25664
:100474003257C2575258E25872598649164AA64A08
:10048400364BC64B564CE64C764D865D165EA65EE4
:10049400365FC65F1301810773002030130000002C
:1004A40013000000130000001300000013000000FC
:1004B40013000000130000001300000013000000EC
:1004C40013000000130000001300000013000000DC
:1004D40013000000130000001300000013000000CC
:1004E40083A20187938202E0739002341701020011
:1004F4000321C10C024182403243C2435244E244CC
:10050400724582551256A2563257C2575258E25873
:1005140072598649164AA64A364BC64B564CE64C87
:10052400764D865D165EA65E365FC65FD652A10224
:1005340073900230A24213018107828013000000ED
:10054400130000001300000013000000130000005B
:10055400130000001300000013000000130000004B
:10056400130000001300000013000000130000003B
:10057400130000001300000013000000130000002B
:10058400130000001300000013000000130000001B
:10059400130000001300000013000000130000000B
:1005A40013000000130000001300000013000000FB
:1005B40013000000130000001300000013000000EB
:1005C40013000000130000001300000013000000DB
:1005D40013000000130000001300000013000000CB
:1005E400F322003093F272FF130380781203B3E214
:1005F4006200711523205500130585FA10C12115D9
:100604002320050081426387020071152320050021
:10061400FD12D5BF71150CC18280000000000000DE
:1006240000000000000000000000000000000000C6
:1006340000000000000000000000000000000000B6
:1006440000000000000000000000000000000000A6
:100654000000000000000000000000000000000096
:100664000000000000000000000000000000000086
:100674000000000000000000000000000000000076
:100684000000000000000000000000000000000066
:100694000000000000000000000000000000000056
:1006A4000000000000000000000000000000000046
:1006B4000000000000000000000000000000000036
:1006C400000000000000397101436EC619A03971A1
:1006D40041536AC866CA62CC5ECE19A0397101530F
:1006E4005AD056D252D44ED64AD826DA22DC06DE66
:1006F40033016140828241114AC026C222C406C627
:100704008282B24D4101024D924C224CB24B4101C6
:10071400024B924A224AB24941010249924422447C
:10072400B240410182802A8309CA838305002300E1
:1007340073007D16050385056DFA82802A8311C630
:100744002300B3007D16050365FE8280EFF2BFFA35
:10075400B7970D20938747BF1307700698C3D843F4
:100764000111014913674700D8C3EF20F04D2ACE89
:10077400130520037928AA84EF10E0602A84EF206F
:10078400B04C2AC62285252E2285BD261349190080
:100794004A85EF00F053B24509455928A6856808F3
:1007A400EF20B078E9BFEFF27FF3B7970D2093877E
:1007B40047BF1307600698C3D84341111367270046
:1007C400D8C3EF2070482AC61305401F9920AA8475
:1007D400EF10605B83A981822A84130B0503930ABB
:1007E4000508130A850AEF203046CE865A862A89E0
:1007F400A2855685152ECE852285CD265285EF00FD
:10080400D079CA8505452D20A6856800EF20F071B2
:10081400D9BFAA8719C9130780C105456369F700C1
:100824001385773E3355F50282801305803E82801E
:100834008D4763E1A70AEFF21FEC2A84AE84EF2010
:10084400B040B3059540B7940D209386C4B2130706
:1008540084003347D7205C439384C4B285075CC3C8
:100864001307C4003347D72048C313070401334791
:10087400D720544363F3B6004CC393F7F7079DEBBB
:100884008947630FF4028D476301F40485476304C9
:10089400F402B7070C2003A5474619C5EF30E00959
:1008A40051043344942048C0EF20C05BE8D8EF20C3
:1008B400005CA8DC9DB5B7070C2003A50746F1BF73
:1008C400B7070C2003A5C745C9BFB7070C2003A56C
:1008D4008745E1B78280EFF21FE237940D20EF20C5
:1008E40060589304C4B288C08947FCD0BCD4D147B3
:1008F400FCD493074006BCD8B7650A20B7070C2080
:1009040037150A209387474621478146130600403E
:10091400938585F01305E596EF20F009C8C8EF200C
:100924006054C8C0D84885471304C4B2630AF700AA
:1009340037650A209305A005130505F1EF10C0558E
:10094400B7070C20B7650A2037050A2093870746A6
:1009540025478146130600409385C5F21305656C4F
:10096400EF20700508CCEF20E04F08C4184C8547F1
:10097400630AF70037650A209305E005130505F1BE
:10098400EF108051B7070C20B7650A2037050A20FD
:100994009387C7451947814613060030938545F36D
:1009A4001305C566EF20300148CCEF20A04B48C4A6
:1009B400584C8547630AF70037650A2093052006DB
:1009C400130505F1EF10404DB7070C20B7650A2059
:1009D40037150A20938787450D4781461306003053
:1009E400938505F41305E592EF20E07C08D0EF2011
:1009F400604708C818508547630AF70037650A201E
:100A040093056006130505F1EF10004939B3EFF2C1
:100A14009FCEB7970D20938747BF1307800698C3CF
:100A2400D843411113678700D8C3EF20F0212AC6A9
:100A34002945C5332A84EF100035EF20F020AA851C
:100A44000D45FD33A2856800EF20304EFDB7EFF26F
:100A5400FFC8B7970D20938747BF1307500698C365
:100A6400D843011113671700D8C3EF20F01D2ACE15
:100A74001305401F793BAA84EF10E0302A84130A3F
:100A84000403EF00907E9309840413090407EF2004
:100A9400B01B2AC6EF10C0032285EF00B0015285B7
:100AA40025214E852D214A85EF003010B2450145A0
:100AB4004133A6856808EF205047D1BF82801DC905
:100AC4008347C5020347450493C7170019E393E717
:100AD40027000347E50701C70347D50719C393E771
:100AE400470093E78700232CF50A9947230A050A50
:100AF4002328F50A8280828001CD0327050B9147C4
:100B04006318F7008347950681E78D472328F50A84
:100B1400828011C9930700001CC15CC11CC55CC55F
:100B24001CC9231A0500828039CDB1CDEFF21FBB59
:100B3400B28439C283C9C5022A843689638509000F
:100B440031469105CD36DC28230A340195CB8448FF
:100B54008329C4009305000044C44A85EF30101A69
:100B6400635DA000CE852685EF309058CA85EF30AE
:100B7400006D854708C85CB861BE13050000D5BF89
:100B8400A30A0400D5BF8280EFF2FFB683A5418398
:100B940083A7C18203A7018383A681821306000071
:100BA4001385C196992483A7C18203A7018383A6D1
:100BB400818283A541831306000013858194352423
:100BC40083A7818303A7C18383A5018493060000BF
:100BD400368613854192112CBD2281B6630205121B
:100BE400EFF2FFAE2A8403554507AE84130545A2F0
:100BF400EF40600C83A58184EF30606483A5C184D9
:100C0400EF30B022232CA4082A8903556407130566
:100C140045A2EF40400A83A58184EF30406283A55A
:100C2400C184EF309020232EA4080355A407130594
:100C340045A2EF40400883A58184EF30406083A53E
:100C4400C182EF30901E835784072320A40A130720
:100C5400803E13050000637EF7001307F07C636297
:100C6400F704138587C1EF40001183A50185EF3098
:100C7400005D8347440B2322A40A130A8409930AC0
:100C8400840A9DE31385C196B52A138581949D2A10
:100C940013854192852A56868145528575206FF0C9
:100CA4009FA603A54184F1B70C484A85832C4401CF
:100CB400EF301044AA8526861385C196032C84013F
:100CC400812AAA890325C409E685EF307042AA85E2
:100CD4002686138581942D2A2A890325040AE28510
:100CE400EF301041AA8526861385419215222320D0
:100CF400A40A232C3409232E24095686854571BF62
:100D04008280EFF25F9F930500002A84EF30700821
:100D1400634C050083A441842285A685EF30007EC0
:100D24006356A000268419A01304000083A54185FE
:100D34002285EF30900FEF3030731305853E334535
:100D440005086FF09F9D828045C2EFF23F9932847F
:100D540099C1AA8409E99307803E1EA03EA05EA023
:100D64007EA06FF0FF9A832AC50083A58185084180
:100D7400EF30B00B2A8983A58185C840EF30F00A93
:100D840083A5C185AA898844EF30300AAA84CE8518
:100D94005685EF304015CA852A8AEF30C014A685DF
:100DA400EF301035B93F0AA0CA855285EF30503470
:100DB400A685EF304013B137CE852AA05685EF3093
:100DC4003033CA85AA89EF30B032A685EF3050326D
:100DD4000D3F4AA0CA854E85EF30E010A685EF305E
:100DE400801005376AA0B5BF828001CD14C5930673
:100DF40000000CC150C154C514C958C91CCD58CDEC
:100E04001CD1828009C5930700005CC51CC982807F
:100E1400EFF2DF8C9304000055C12A842E893285B9
:100E240093050000B289EF30C07693040000635745
:100E3400A0084C404A85EF30407FCE85EF30E07EFD
:100E44004C44EF30400A4448832A84012A8AA68508
:100E5400EF302074634A0500D6855285EF30006A6E
:100E6400D6846343A000D2840C4844C44A85EF303E
:100E74003028CE85EF30A03C0C40AA8923282401D9
:100E84004A85EF30807AA685EF30E0050C44AA84C9
:100E94004E85EF308079AA852685EF30C004444C16
:100EA4002A89A685EF30E06E634A050004504A851E
:100EB400A685EF30A0646343A000CA8426856FF042
:100EC4003F8582800545828041A105458280EFF2FD
:100ED4009F8241112A8493041008FD14B3C40408AA
:100EE40091C41305F100EF00304865F901451DC0B8
:100EF400EF00E06C9307000008C0232404002326BD
:100F0400040023280400232A04001CCC5CCC2310F6
:100F14000402054541016FF05F8008418280EFF2D1
:100F24000FFB4111376A0A20A30701009309000847
:100F3400B7040C20130A8AF4370B0C20B70A0C20D0
:100F4400138401991305F100EF0050481DC583C7B0
:100F5400B44611476364F704B3C7472198439C8799
:100F6400028713073002639DE7008947A385F4468F
:100F7400FD19B3C90908E39709FC41016FF0AFF803
:100F8400938727F893B71700D5B72305FB46ED17CA
:100F940093F7F70F1307B0036375F700A3850446AF
:100FA400C1BF8D47E1B737070C20A304F74623845C
:100FB4000A46914765BF83C58A46834BAB46138671
:100FC4000199938615001387CBFF93F6F60F2E969F
:100FD4001377F70F2384DA461CA2E3EBE6F8B7078E
:100FE4000C2083CC97468146B3879B01938717FADD
:100FF400ED1B93F7F70F93FBFB0F13F6F60F636CE0
:10100400760B22970347F7FFE31AF7F8EF00205B0C
:10101400930760022A8C638BFC0E63E6970B054DE5
:101024006380AC139147E39BFCF6AD47E3F877F795
:1010340003950199EF30304883A50186938BC19CB9
:10104400EF30A05E23A8AB0003152400EF30B046B8
:1010540083A50186EF30605D23AAAB00031544002D
:10106400EF30704583A50186EF30205C23ACAB00E4
:1010740003156400EF30304483A54186EF30E05A15
:1010840023AEAB0003158400EF30F04283A5418604
:10109400EF30A05923A0AB020315A400EF30B041F8
:1010A40083A54186EF30605823A2AB0223A28B01B3
:1010B4002380AB01E5B53306D40010228506B29730
:1010C40093F7F70F1DBF93072003E399FCECBD478B
:1010D400E3F677ED13850199938BC19C3D3D23AADB
:1010E400AB0213854199153D23ACAB02138581995D
:1010F4002D3523AEAB021385C1990535854723A051
:10110400AB0423A68B012381FB0049BDAD47E3F764
:1011140077E913850199938BC19C013523A4AB0214
:1011240013854199DD3B23A6AB0213858199F533E1
:10113400854723A8AB0223A48B01A380FB00B9BD80
:101144008947E3FD77E503C70199938701A198B324
:101154001830B8A33820B8B391B5EFF2CFD9896766
:1011640041119387E7377C849D475C859C21C88522
:10117400A30701005C869C3101479946DC868147C0
:1011840030003A9610220507B29793F7F70FE31948
:10119400D7FE28009D455C87EF00B02E41016FF01B
:1011A400CFD7EFF24FD503C701A1411151E7AA8769
:1011B400138401A12E8581E958409306301F33879B
:1011C400E74063FCE606130680039384C19C8145D3
:1011D4001385C19C5CC0EFF06FD683A781866C0039
:1011E400130500069CDC83A7C186DCDCBCC09967C0
:1011F400938727F37C8695370945EF201003A5478D
:101204006C00130510065C86893F0945EF20F00148
:1012140085446C001305000864868137F1653765E1
:101224000A2013062003938505201305C5F504A0A1
:1012340023260400EF30B03E054541016FF0EFCDA9
:10124400EFF2EFC8938701A137690A20B7690A2032
:1012540023A0070023A2070023A4070023A6070056
:101264008544138A01A18D4A130989F89389C9FE1B
:10127400376B0A20994BA126014685451D372A84E0
:101284001DE58327CA00CA8663E5FA00B3C7372180
:101294009443A685154613050BF98504EF303038C1
:1012A4006387740113054006EF202078E9B722858F
:1012B4006FF06FC5EFF28FC22A8981440926630259
:1012C400090803C701A1AA89138401A101E70546FE
:1012D4008145C13DEFF0BFC41C201384C19C8144EF
:1012E4008DC31C2099CF1C3089CF5C401307401F4D
:1012F400B387F9406367F7000444B384994093B417
:10130400541F3146930584022320390113054900F3
:10131400EFF06FC131469305C40113050901EFF0E5
:101324008FC03146930504011305C901EFF0AFBF27
:1013340038209307000011C31C5C2324F902230600
:10134400990226856FF0CFBCEFF2EFBA2A84852C80
:1013540029C8AA84EFF0BFBC83C701A11387C19C2D
:10136400014581CB3C2391C75C47B387F44013B557
:10137400571F3C2304C081CF5C5F5CC03C431CC44A
:101384001C5F5CC45C5B1CC848A86FF00FB983A7E2
:10139400C1865CC01CC483A781865CC4930700001B
:1013A400DDB70145DDB705458280EFF2CFB44111C9
:1013B4002A8493041008FD14B3C4040891C41305CB
:1013C400F100EF00807D65F901450DC0CD2AB70716
:1013D400DC051387C75D9387873E1CC49307001001
:1013E40008C058C05EA423070400054541016FF0FE
:1013F400CFB2EFF24FB079711306000281450808AD
:1014040002C202C402C6EFF06FB385451305402043
:10141400EF1000260145EF10E02A8D451145EF102D
:10142400E008371501408D474C001305058037242B
:1014340001407C8202C6EF00F05913050440EF001E
:10144400304CB7070E00130504403ECE0C08854708
:101454002302F10202C802CA02CC02D002D402D68C
:10146400EF00104E130504408545EF00D0521305DC
:101474000440E164EF0030539384146A130404407D
:101484002285EF00F05211C9FD14FDF8B7970D2025
:10149400938707AC9843050798C3B7240140138585
:1014A40004406164EF0050511304146A93840440AF
:1014B4002685EF00B05111C97D147DF8B7970D2032
:1014C400938707AC9843050798C345616FF0EFA471
:1014D400EFF26FA2894509C937150140130505C00C
:1014E400EF00D05D6FF06FA337150140130505C001
:1014F400EF00105DC5BFEFF26F9E37940D204111D0
:10150400130444BF8949F16402C202C402C6232001
:101514003401EF007028EF20E04E13850420EF2003
:1015240060530D498545214523202401EF104014C3
:10153400371501404C00C147130505C03EC62312B0
:1015440031014AC4EF00104901455937292A13854E
:1015540004201529A947138504201CC00D2E61659C
:101564001305056A5D26713537660A20B7650A20BA
:1015740037650A201306C6FF938545001305C50188
:10158400EF30F009B7070C2083A5874737660A2098
:1015940037650A201306860213050504EF30300868
:1015A40037650A20130600199305803E13050506C6
:1015B400EF30F006CD471CC041016FF06F95B707BF
:1015C4000C2003A5C746828037070C208327C74613
:1015D40085072326F746B7970D20938747BF98477B
:1015E400050798C78280EFF20F919307007DB3D56A
:1015F400F50A9307803EB3F5F50A89476308F502B7
:1016040063EAA70009ED37350140130505C0EF1063
:10161400C03E21A08D476302F5026FF00F9037356D
:101624000140130505C0EF10803DC5BF37350140AB
:10163400130505C0EF10E03CCDB737350140130565
:1016440005C0EF10403CD1BFEFF2EF8AAA840144F9
:10165400114922850504A6851374F40F6937E31A2A
:1016640024FF6FF08F8BEFF20F89856479711385F6
:10167400148485453724014002CA02CC02CE02D02C
:1016840002D202D402D602C402C623180100EF001B
:10169400307E130504800546A545EF00B0421305CE
:1016A40004800546AD45EF00F0411305048005466E
:1016B400B545EF003041054613050480B945EF00F8
:1016C40070409D67938707A0FC82E1473ECE4C089B
:1016D4008D47130504803ECCEF00D02FB7070C20B4
:1016E40083A7874737470F0013070724B3D7E702B9
:1016F400373401402C00130504C09384349C26C65F
:1017040023150100FD177C84EF00307DC1679387AA
:1017140007063ED00C109307803E130504C0231324
:10172400F10223140102EF1000030C10130504C08E
:10173400EF1080090C10130504C0EF1080120C1078
:10174400130504C0EF10601B130504C0A145EF107E
:101754004026130504C0A145EF108026130504C0DC
:10176400A145EF104027130504C0A145EF108027C1
:10177400130504C08545EF102022130504C08545D8
:10178400EF1020208545130504C0EF10001E13053B
:10179400803E5D3D45616FE05FF8EFE2DFF5AA84CE
:1017A40001441149B32794208E231375F40F0504C3
:1017B400EFF07FE3E31824FF6FE03FF6EFE2BFF3BF
:1017C4004111B14702C42EC08A852A847C8502C295
:1017D40002C6EF10A02385452285EF10202E41017B
:1017E4006FE0BFF3EFE23FF1B75400401304102061
:1017F400938404C0930500022685EF10803209C546
:101804007D14334404081DE037540040A1451305FA
:1018140004C0EF10003119CD37550040835705C07F
:10182400130505C0EF10602F6FE03FEF2685EF1022
:10183400C02EC9B79145130504C0EF10802E69FD71
:101844008945130504C0EF10C02D79F585451305AE
:1018540004C0EF10002D69F1C1BFEFE2DFE961645C
:10186400AA841304146A930500082685EF10602BDC
:1018740019C1054519A87D147DF4B7970D209387E8
:1018840047ADF84B01450507F8CB6FE01FE9EFE2E0
:101894009FE64111AA8485453705020002C202C4AD
:1018A40002C6EF00B05E854513051002EF00505CE0
:1018B40037140140130504401D469545EF00902060
:1018C4001D46130504409945EF00D01F93070002FD
:1018D4007C82E1473EC64C008D47130504403EC45C
:1018E400EF00500F930700047C824C0091471305CE
:1018F40004403EC6EF00100E37450040A685130590
:1019040005406D3D41016FE05FE1EFE2DFDE411133
:10191400AA8485453705040002C202C402C6EF004A
:10192400F05685452545EF00B054371401401305A2
:1019340004C01D46A945EF00F0181D46130504C058
:10194400AD45EF003018930700407C82E1473EC666
:101954004C008D47130504C03EC4EF00B007931735
:10196400B0287C824C009147130504C03EC6EF00AA
:10197400700637550040A68513050580EFF01FE477
:1019840041016FE09FD9EFE27FD5B7070C20239A7E
:101994000746B7070C204111AA84239907468545B9
:1019A400B7070C20370508002388074602C202C483
:1019B40002C6EF00B04D854513051008EF00504BEB
:1019C40037240140130504C0C145EF00300F4149DD
:1019D4008D494C00130504C0231221014AC64EC48C
:1019E400EF00407F1D46130504C09145EF00900DA4
:1019F400E1474C00130504C03EC6231221014EC426
:101A0400EF00407D1D46130504C08D45EF00900B8B
:101A1400A1477C824C0093078004130504C03EC692
:101A240037540040EF00007BA685130504C0EFF097
:101A3400FFD8B7E700E00547A38AE7644157A38AC4
:101A4400E7443707200023A4E7180F1000000146DD
:101A540023A4E72893055052130504C0EF10400750
:101A6400EFF05FD841016FE0BFCAEFE2DFC8B7977C
:101A74000D20938747ADD85337040C200507D8D3DE
:101A8400834704478DE7375500400146930550527C
:101A9400130505C0EF10C003EFF0DFD4B7E700E093
:101AA4003707200023A4E72885472308F446375541
:101AB4000040054693055052130505C0EF10400140
:101AC400B7E700E03707200023A4E7106FE0FFC466
:101AD400EFE27FC237250140130505C0EF00807D8A
:101AE400B7970D20938747ADCABFDA3FB7060140C9
:101AF40013573748238FE702D85631833D8BA38F82
:101B0400E7029842B7560040B8C3138706C083D68D
:101B140006C0B3C6060894D75627B3C60608D4D75A
:101B2400162BB3C6060894DB562BB3C60608D4DBC3
:101B34001A273347070898DF37E700E0144793D69E
:101B44005649F4C3145793D65649B4C7930607307D
:101B540094461307077093D65649F4C7184713578A
:101B64005749B8CB6FE07FBB11E501458280014541
:101B74006FE0BFBAEFE23FB8B74400402A84930550
:101B8400000213850440EF00D07975D11385044019
:101B9400EF00B07808A00545E1BF11E5014582805A
:101BA40001456FE09FB7EFE21FB5B75400402A84A8
:101BB4009305000213850480EF00B07675D1138578
:101BC4000480EF00907508A00545E1BF29C137E7FF
:101BD40000E01047B70620002324D718758EB707F6
:101BE4000C20B7050C2001CE0F10000003D82747A6
:101BF40003D645476311C8042324D71009A80F103E
:101C0400000083D6274703D745476394E600014580
:101C1400828083D6274737070C201307076036973F
:101C2400182318A103D7274705071377F71F23990C
:101C3400E7460545828083D5274737060C201306DF
:101C440006602E96102210A103D6274705061376A8
:101C5400F61F2399C7462324D710E1BFEFE2BFA99B
:101C64004111375400402AC6130504C0EFF0FFBEEB
:101C740011C5B245130504C0EF00B06941016FE01E
:101C8400DFA911CDEFE23FA72A84B304B5006314A2
:101C940094006FE09FA808200504C937CDBF828057
:101CA40001113EC4B75700403AC603D707C0B797DF
:101CB4000D2036C8938647AD32CA90422ACE2ECC28
:101CC400050690C23347070898D61376F700D0CE9E
:101CD40093768700938747AD81C69447850694C75A
:101CE4009376270081C6D4478506D4C793764700E8
:101CF40081C6944B850694CB9376170081C6D44B4A
:101D04008506D4CB9376F70289EE984F050798CFD2
:101D14007245E2455246C2463247A2470561730006
:101D24002030B7560040938606C0D62213770702A8
:101D340093F6F60F2380D70261DFB7050C2003D793
:101D44004547D44337060C20334507088506D4C3DA
:101D54008356264705071377F71F6399E6008356D2
:101D64002647850693F6F61F2319D64683C607022F
:101D7400B7070C209387076093F6F60FAA9794A3EE
:101D8400239AE54671B7138501C28280EFE2BF96BC
:101D940037940D201306000C8145130444BFF94702
:101DA400938401C2138501C21CC0EFE03F99B707B9
:101DB400E8039387873E23A4F40A23A6F40AFD4785
:101DC4001CC0EFF0EFC7930700021CC0EFF08F8F29
:101DD400930710021CC0EFF04F8F930720021CC022
:101DE400EFF06FDC93078002138501CA1CC0EFE09B
:101DF4005FD2EFE07FD9EFE07FCCEFE0DFCFEFF011
:101E04004F8C1305803EEFF03F84930720031CC0E2
:101E1400EFE07FACEF1000059307C00348C41CC07B
:101E2400EF1040589307800C1CC001A0EFE2BF8C58
:101E340037940D20B7075EA58907130444BC1CC062
:101E4400EF10400208CCEF10800248CC1305803E0E
:101E5400EFF08FFF8967938707807390073001A0A5
:101E6400EFE27F8937940D20B7075EA5130444BCC5
:101E74008D071CC048C00CC4EF00D07E08CCEF0016
:101E8400107F48CC1305803EEFF00FFC89679387E1
:101E940007807390073001A0EFE25F8486892E8A61
:101EA400AA8AEF10702EB7940D20B7075EA513848D
:101EB40044BC85071CC023265401232844015C48E4
:101EC4002A89938444BC85075CC8EF00B07908CCA8
:101ED400EF00F07948CC23203403232224038547E0
:101EE4006302F902EF10405688D4EF105029C8D489
:101EF4001305803EEFF04FF5896793870780739051
:101F0400073001A023A404020145D5B7B7970D20DB
:101F1400938787BA9843050798C39307800873B0DB
:101F240007800F10000001A0B7970D20938787BA90
:101F3400D8430507D8C37327203498C773271034B0
:101F4400D8C77327303498CB73270030D8CB0A878F
:101F540098CF9307800873B007800F10000001A08A
:101F6400EFE26FF9B7E700E03707200023A4E71892
:101F74000F10000037940D2023A4E728130444BF56
:101F840085471CC0EFF02FD7D1471CC0EFF01FE0EE
:101F94009307A00F1CC001A0B7170240D443984771
:101FA4002146B18A6394C602B7060070758F37065E
:101FB40000506301C7146360E6021DC7B7479C1C49
:101FC400B7060040938707806307D706B7877D016C
:101FD400938707848DA037060060630EC70EB7672A
:101FE400730793870794CDB7904794479847930511
:101FF400000A93F6060E21831377F7037D8A0507FB
:102004006390B608B767CD1D9387075033D7E702AF
:10201400B7070C2093870732B2979C239146B38766
:10202400E7026309D600856693860654B3D6C600D4
:10203400858A91C2858337070C20232EF7463716ED
:102044000240544237070C20130707319182BD8A9E
:1020540036971823B7060C209386063EB3D7E700BD
:10206400584241830D8B36971823B7060C2033D77B
:10207400E70023A0E64837070C20232CF74682808C
:102084009305000E6392B602D45BB7070C209387C6
:102094000730C182B6979C23B7867D019386068458
:1020A400B387D70285839DB7930700086397F6002B
:1020B400B7479C1C9387078091BF9307000C6397D5
:1020C400F600B76773079387079489B7B7877D01CD
:1020D4009387078425BFD85BB7070C209387073005
:1020E4004183BA979C2337877D0113070784B387FD
:1020F400E70289B7B767CD1D938707502DBF01A0AD
:10210400EFE26FDFB727014093870740631CF500B8
:10211400854513050020492B8145130500206923BB
:102124006FE0AFDFB737014093870780E31AF5FE0E
:102134008545130500408D2B814513050040C5B727
:102144005841B707F1E09387F7EF944D7D8F9C4199
:10215400D58FD44DD58FD441A206D58FD98F5CC1EC
:102164001845B7F7F1FF9387D77FD4457D8F9C49F6
:10217400D58F94458606D58FD98F1CC55855B7077A
:1021840010FFFD177D8FDC29FD1793F7F70FD2079A
:10219400D98F5CD582801C4589C593E717001CC57F
:1021A4008280F99BEDBF1C4593E787001CC58280A4
:1021B40008451355354882805C4537070038D98F68
:1021C4005CC51C4593E747001CC582800845135530
:1021D400254882809C4503D8050013F7070193F82E
:1021E400F7001DCB584D93E8180081468D4E414EA3
:1021F4003316D0283373C800631C6600139316008B
:1022040033966E003377C740D04133166600518F42
:102214008506E39FC6FD58CD1377F80F1DCF1841EF
:102224008146130380023D4E930E8004A14533166C
:10223400D028337FC800631EE6016395670650C942
:1022440013962600331FCE003396C8003377E74138
:10225400518F8506E39DB6FC18C11307F00F637216
:10226400070554410146130E8002930E8004214356
:10227400130786003317E028B375E800631FB7001F
:102284006396C70358C913172600BD45B395E500E7
:102294003397E800B3F6B640D98E0506E31A66FC18
:1022A40054C18280E39ED7F910C959BFE39DD7FD7D
:1022B40018C9D1BF08453345050882800CC98280FE
:1022C4004CC98280371701409D479306078063F805
:1022D400B702938785FF93F7F70F631AD506B706FE
:1022E40001408C468A073D473317F70033F7E54032
:1022F40098C69846B317F600D98F9CC682806308A7
:10230400D502930707C0630AF508631CE51637076F
:102314000140544B8A05BD47B397B700B3F7F64065
:102324005CCB5C4BB315B600DD8D4CCB828037079C
:10233400014054438A05BD47B397B700B3F7F6404D
:102344005CC35C43B315B600DD8D4CC38280930639
:1023540007C06304D5026312E510B70601408C4E32
:102364008A073D473317F70033F7E54098CE984E78
:10237400B317F600D98F9CCE8280B70601408C4AF1
:102384008A073D473317F70033F7E54098CA984A60
:10239400B317F600D98F9CCA82803707014054478F
:1023A4008A05BD47B397B700B3F7F6405CC75C47EF
:1023B400B315B600DD8D4CC7828037270140130763
:1023C4000780AE876318E5043707014054538A0534
:1023D400BD47B397B700B3F7F6405CD35C53B3156E
:1023E400B600DD8D4CD38280372701401307078068
:1023F4006312E502B70601408C568A073D4733173E
:10240400F70033F7E54098D69856B317F600D98FFE
:102414009CD6828037270140130707C06317E5085D
:102424008A073D473317F7003316F6009D471347D5
:10243400F7FF63FBB700B7070140945B758F98DB28
:10244400985B518F98DB8280B7070140D457758F12
:10245400D8D7D857518FD8D7828013070740E315B0
:10246400E5F8B70601408C528A073D473317F70059
:1024740033F7E54098D29852B317F600D98F9CD21F
:10248400828013070740E31AE5F237070140544FEF
:102494008A05BD47B397B700B3F7F6405CCF5C4FEE
:1024A400B315B600DD8D4CCF82808280B716024012
:1024B400DC4241771307F77FBA05F98FDD8D2E05CE
:1024C4004D8DC8C28280B7170240D4439847214635
:1024D400B18A6394C602B7060070758F3706005040
:1024E400630EC7146360E6021DC7B7479C1CB7069A
:1024F4000040938707806307D706B7877D019387DA
:1025040007848DA037060060630BC710B767730795
:1025140093870794CDB79047944798479305000A4B
:1025240093F6060E21831377F7037D8A0507639DCF
:10253400B608B767CD1D9387075033D7E702B707AF
:102544000C2093870736B2979C239146B387E70202
:102554006309D600856693860654B3D6C600858A79
:1025640091C285831CC137160240544237070C20A0
:10257400130707359182BD8A369718239386018104
:10258400B3D7E7005842416641830D8B3697182331
:10259400B7F600E033D7E70058C183A606D1F18E21
:1025A40091E2BA871CC5371602405C4263DD070816
:1025B4005C4237479C1C13070780AD83FD8B95074E
:1025C4003357F70258C582809305000E6392B60212
:1025D400D45BB7070C2093870734C182B6979C233A
:1025E400B7867D0193860684B387D7028583B1B706
:1025F400930700086397F600B7479C1C93870780EE
:102604002DBF9307000C6397F600B7677307938792
:10261400079425B7B7877D019387078439BFD85BB3
:10262400B7070C20938707344183BA979C233787D5
:102634007D0113070784B387E70225B7B767CD1D6C
:102644009387075005B75442B7070C209387873EFA
:10265400AD829D8AB6978C235C42B7060C20938684
:10266400463EB9838D8BB6979C233357B70089BFF9
:1026740099C5371702405C4FC98F5CCF8280B7176A
:102684000240D84F3375A740C8CF828099C5371709
:1026940002401C53C98F1CD38280B7170240985341
:1026A4003375A74088D3828099C5371702401C4BE5
:1026B400C98F1CCB8280B7170240984B3375A74053
:1026C40088CB8280B7170240D8437E051317F74999
:1026D400D8C3D843598DC8C38280B7370140138605
:1026E40007C0D6219A21630DC50293870740630969
:1026F400F502B70700406305F502938707406301BD
:10270400F502B717004013860780630BC500938753
:1027140007C06307F50056B51AB585475EA98280E0
:102724001E21B221B3C7070893F7F7F8D18FF2211E
:1027340093F7F7CFD18F1EA156B5B73701401AB51D
:10274400138707C06306E50093870740E317F5FC8A
:102754009C251EB9D9B71E31922103D82500B3C7D1
:102764000708F99BB3C707081EB11E3156211A2D5D
:10277400B3C70708F59B334707081377C7F8518F8A
:102784009225B3C6060833660601D18F3736014059
:10279400130806C063060501130606406310C5024C
:1027A400B225DD9B03D8E500D18FD221ED9B93F6B2
:1027B400F6CFD18FD22533660601D18E56A11AAD3C
:1027C400FA215AB91EB182801E31E5769386F6CF7E
:1027D400B3C70708BD9BB3C707081EB11E315221FA
:1027E4001A2D03D88500B3C70708758F962193F770
:1027F400F7FD33460608A206558FB621334707086E
:10280400B3E606019206D58FB7360140138806C099
:10281400B3C707086306050193860640631DD50206
:10282400B62593F7F7F703D8C5009206D58FD621BE
:10283400B3C7070893F7F7FB9206D58FFD76938607
:10284400F63FF18EF225B3C70708336606010A0680
:10285400D18E33C6060852A11AADFA211ABD1EB193
:1028640082801E31962103D88500B3C7070893F7E9
:10287400F7EFB3C707081EB11E3152215A2DB3C753
:10288400070893F7F7DF334707081377C7F8558F1F
:10289400B62133460608B3E60601A206D58FB7363D
:1028A4000140138806C0B3C7070863060501938671
:1028B4000640631ED502FD769386F67FF58FB62516
:1028C40003D8C500A206D58FD621B3C7070893F74E
:1028D400F7BFA206D58FF576FD16F18EF225B3C7A4
:1028E4000708336606011206D18E33C6060852A1C4
:1028F4005AADFA215ABD1EB182801E317D777D17F3
:10290400F98F1EB11A315E21562D65761306F6CF66
:10291400F18E922103D88500B3C707082206D18E11
:1029240079767D16718FB221B3C606083366060127
:102934003206518F37360140130806C03347070863
:102944006306050113060640631AC50071767D16F9
:10295400F18FD2251A06D18FB3C707085EA1FE21D5
:1029640056AD2310F5041AB182801E2189C593E760
:1029740017001EA18280B3C70708F99BB3C70708D5
:10298400CDBF8357450491C59397F7282312F504C7
:102994008280C607C583DDBF1E2189C593E707086A
:1029A4001EA18280B3C7070893F7F7F7B3C70708D8
:1029B400C5BF1E2DB3C70708DD9BCD8F1EAD82801A
:1029C4001E2D7D771307F77FF98FA205CD8FB3C72F
:1029D40007081EAD82805E2DB3C70708DD9BCD8F2F
:1029E4005EAD82805E2D7D771307F77FF98FA20598
:1029F400CD8FB3C707085EAD82804EB982800EBD0D
:102A040082804EBD82802310B5048280EFD2BFCE77
:102A14009E257D77BD667D8F41112A84AE84631B1C
:102A2400D7005A2DB18B334707084D9BD98F5EAD24
:102A3400239405001A28F577FD177D8FFE200A855B
:102A4400D98F1EA85A248D679387379F7D8FDE20E8
:102A5400D98F9A24D98FBA24D98F5EA45E28DA2418
:102A6400B3C7070893F7F7CFD98F5EA8EFF0BFA5D8
:102A7400924765459040B335F50281460A06330511
:102A8400F502EF10A00C93064006B357D5021306C7
:102A9400F06313974700B377D50292079387270310
:102AA400637AF60093070701B3C707081EA4410120
:102AB4006FD0BFC6B3D7D702D98FFDB75E2589C5FE
:102AC4009397D7285EA5828079777D17F98FDDBF2C
:102AD40093F7F50F95830547B315B0286398E7007E
:102AE40031051C411DC2CD8F1CC1828009476394EE
:102AF400E7004105FDB70D476394E7005105D5B7DD
:102B04001147E390E7FE7105E9BFB3F5B7400CC187
:102B1400828093F5F51F4EA182804A211375F51F1B
:102B240082800A216D8D3335A0008280EFD23FBAB6
:102B34001307F5FFB957B7090C2063F9E700EF0055
:102B4400B00F83A7494999EF814491A09377F50089
:102B54009304050185E3EF00300E83A7494985CB33
:102B640063D30408EF005028EFF04FAC814A568538
:102B74006FD07FB91387F7FEE36397FC1305050253
:102B8400B304F540EF00500B83A74949B9EB37175D
:102B94000C201307078C9376F700E16799C6930618
:102BA400F700C19ABA97958F3687B7060C20BA9763
:102BB40093868649C117C19B23A2060098C223A20B
:102BC400070023A00700B386E74023AAF9481CC3E3
:102BD400B7070C2023A6D748B7070C2054C323A853
:102BE400D748E35190F8370B0C2083270B49E3EBCC
:102BF40097F637090C20930789498043371A0C202C
:102C0400130A0A8C1309894963684401B7970D2094
:102C14009387F78B63FA870037650A209305600F63
:102C240013054508EFF04FA7B79B0D20376C0A201A
:102C3400938BFB8B5C4063F69700832A0400639EAE
:102C44000A0C83A74949E38F87F0832A0900C10A44
:102C540063E84A01B7970D209387F78B63FA57010E
:102C640037650A209305601013054508EFF0CFA2DD
:102C74001C402320F9005C4063FA970037650A2062
:102C84009305E01013054508EFF00FA15C4013070E
:102C94000002858F637AF702B309940093F7F90071
:102CA40089CB37650A209305701113054508EFF0A9
:102CB400AF9E5C40858F23A2F9008327090044C09E
:102CC40023A0F9002320390183270B495840B70674
:102CD4000C2003A6C648998F2328FB4863F4C70039
:102CE40023A6F6481317F72958C037070C20832763
:102CF40087482320040085072324F748EF00D00EDB
:102D040093F7FA00E38507E637650A209305D015A3
:102D140013054508EFF04F9899BD63E44A0163F841
:102D24005B019305C00F13054C08EFF0EF96228961
:102D3400568409B763070512EFD25F9AB7190C20BE
:102D4400130905FF9389098C2A8463683901B797AD
:102D54000D209387F78B63FA270137650A209305C3
:102D6400001713054508EFF02F93832744FF63CA28
:102D7400070037650A209305101713054508EFF07F
:102D8400AF91832704FF89CB37650A209305201769
:102D940013054508EFF04F90832744FF63DE070ACD
:102DA400032704FF55EB9397F749232AF4FEEF001A
:102DB400A06837070C2083260749832744FFB6976A
:102DC4002328F748B7070C20138787499387874937
:102DD400BA841843E36E27FF6382F40263E8340184
:102DE400B7970D209387F78B63FA970037650A200E
:102DF4009305602013054508EFF00F8AD44003279C
:102E040044FF9C403386D400631AC9003697D8C067
:102E1400B386E4006399D702268929A0B306E900A2
:102E2400639ED702B7060C2083A646496387F60043
:102E3400D4439C4336972322E9002320F90063847A
:102E4400240123A0240137070C2083274748850742
:102E54002322F748EF0040796FD09F8B2328F4FE9C
:102E6400F9BF8280B7070C2003A507498280B70702
:102E74000C2003A5C7488280B7E700E041572387A9
:102E8400E740A386E740B7F700E09387070823A04D
:102E9400070023A2070023A4070037070C200327F9
:102EA40087478566938606FA3357D70298CB3D4702
:102EB40098C337970D20130707A51443850614C339
:102EC400944B14CB9C435CC78280EFD2DF824111C8
:102ED40002C6F32750303EC6B2470D478D8B638A36
:102EE400E70037650A209305C00C1305C50AEFE017
:102EF400BFFAB707102093870700BD8B89CB3765CE
:102F04000A209305000D1305C50AEFE0FFF8EFF062
:102F1400BFF6B7E700E0116723A0E710096723A015
:102F2400E71023AA0180EFD0AFDB014541016FD048
:102F3400CFFE5D7186C696C49AC29EC022DE2ADC8C
:102F44002EDA32D836D63AD43ED242D046CE72CCDD
:102F540076CA7AC87EC6731101348967938707805D
:102F64007390073037940D20130704A55C4385073D
:102F74005CC3B7F700E093870708D44354CB944766
:102F840014CF23A20700F121930704A509C9984788
:102F94009166050798C737E700E02320D72073110F
:102FA40001349847D8CF896793870788739007308F
:102FB4007254B640A642164386436255D2554256D1
:102FC400B256225792570258F248624ED24E424F9E
:102FD400B24F6161730020308967938707807390D3
:102FE400073083A74181850723AAF1808280EFD22D
:102FF4008FF083A7418189EB37650A20930560121E
:103004001305C50AEFE05FE983A74181FD1723AAF1
:10301400F18091E7896793878788739007306FD031
:10302400CFEF930785007D575CC118C55CC51CC9EB
:103034002320050082802328050082809441FD57C7
:1030440013078500639DF6001C49D843D8C10CC7FB
:103054009CC5CCC31C4188C985071CC18280BA8722
:1030640058431043E3FDC6FECDB7544118451C49EF
:1030740098C654C3D4436393A600D8C32328050039
:1030840088437D1588C38280EFD24FE5B7070C20B3
:1030940083A9474CB7070C2003AA474D37040C20DB
:1030A400B7070C2083AA074DAA848327844D0325E0
:1030B400844D2E89A38807041105EFF01FFBFD57EB
:1030C4006390F404630E0902B7970D209387078C6D
:1030D400D8438326844D104798C68326844DD0C692
:1030E4008326844D910654C28326844D910614C7C9
:1030F4000327844D5CCB9843050798C36FD04FE1F9
:103104008327844D8325844DCE94C4C3910563F6EF
:1031140034015685EFF09FF2D5B75285EFF01FF2D8
:10312400B7070C2003A7874AE3FAE4FC23A4974AD1
:10313400F1B737070C208327474D9443B7070C207A
:1031440089E67D5723A4E74A82800327474D5847E1
:103154001843CDBFEFD28FD8B7940D2037040C207D
:103164009384448DB7090C208327C44C99E36FD012
:103174002FDAEFF07FE6DC4403A9C700130549000A
:10318400EFF0BFEE83A7894CFD1723A4F94C8327E6
:10319400C44CFD172326F44CEFF07FE50325090307
:1031A400EFF05FB94A85EFF0FFB87DBFEFD2AFD43F
:1031B400EFF05FFAF5BFEFD28FD1131926002A8BF7
:1031C4004A85AE8AB68BBA843E8AEFF03F9601E513
:1031D4007D556FD04FD3AA8913054005EFF01F9595
:1031E4002A8463090518130640058145EFD00FD5DD
:1031F4004A86232834039305500A4E85EFD00FD412
:103204001C5871193E99137909FF63820A02814798
:10321400C1463387FA00030707003306F400230A84
:10322400E60201C78507E396D7FEA3010404B94764
:1032340063FB970037650A209305D0781305450D85
:10324400EFE09FC5B944930A4400568544D464C052
:10325400EFF07FDE13058401EFF0FFDDBD47858FBE
:1032640000C81CCC40D05E86DA854A85EFD04FB7C3
:1032740008C063040A0023208A00EFF0FFD5B707D3
:103284000C2003A7874CB7090C2037990D2005079C
:1032940023A4E74C03A7894D930449926310070EB6
:1032A40023AC894C03A7874C85476316F70613099B
:1032B4004992138AC4124A855109EFF09FD6E31C40
:1032C4002AFF379A0D2013050A91EFF09FD53799FD
:1032D4000D201305C98FEFF0DFD437950D201305AA
:1032E400858EEFF01FD437950D201305458DEFF033
:1032F4005FD337950D201305058CEFF09FD2B707E8
:103304000C20130A0A9123AA474D1309C98FB70742
:103314000C2023A8274D37070C208327C74A85078D
:103324002326F74A37070C205C548326074C63F4A2
:10333400F6002320F74C5147B387E702A697D843FA
:10334400144718C454C423A2560123245701984394
:103354005CC8050798C3EFF09FC9B7070C2083A783
:10336400C74B99C783A7894DD8575C546366F70246
:10337400054585B54E85EFF0FF9B99BDB7070C2039
:1033840003A7C74B5C5441FB03A7894D5857E3E49B
:10339400E7F823AC894C41B7B7E700E0116723A0F5
:1033A400E720F9B7EFD22FB54111B7670A200A8792
:1033B40002C002C202C402C69387870EBA858386FE
:1033C400070005078507A30FD7FEF5FAB7070C20FA
:1033D40037350A209387474A01471306001013051F
:1033E400C50CEFF05FDD8547630FF500FD576310F3
:1033F400F504856537650A20938565ED1305450D4C
:10340400EFE09FA92DA08967938707807390073009
:10341400B7070C207D5723A4E74AB7070C2023AE37
:10342400A74AB7070C2023A2074CEFF01FAA83A7D3
:10343400818141016FD06FAE37070C208327074A83
:1034440085072320F74A8280B7070C2003A5474C41
:103454008280EFD24FAAB7070C2083A7074A4111F5
:1034640063970716B7070C2003A4474C050423A24F
:10347400874C39E0B7040C2083A7444D9C4391CB7F
:10348400856537650A209385552A1305450DEFE0B8
:10349400BFA0B7070C2003A7444D83A6074D23AA5A
:1034A400D44C23A8E74C37070C208327074B850708
:1034B4002328F74AEFF0FFC7B7050C2083A7854AF6
:1034C40037970D201307479237030C200145637F7C
:1034D400F4028327834DD146DC57B387D7023E9746
:1034E4001843854763F3E7000545B7070C2083A716
:1034F400874B89E72AC6EFE02F8D3245B7070C20AA
:1035040083A7474BE5E341016FD02FA1370E0C2071
:10351400B70E0C20D14F65A083274E4DDC47DC4706
:10352400D4436375D40023A4D54A65B703A88700A0
:10353400D047D44B938847002324C8002322060194
:1035440003A8460063131801D0C2904223AA0700BF
:103554007D1690C2945785C603A8C701905303AF44
:1035640046002324C800232206011388870163131D
:103574000F01D0C2904223A407027D1690C2D057F7
:1035840083A60E4C63F4C60023A0CE4CB306F60308
:10359400BA9603A84600032F880023A4070123A694
:1035A400E70123221F0123241801D4CB9C42850761
:1035B4009CC28327834DDC5763F3C70005458327EB
:1035C4004E4D9C43B1FBFD5723A4F54A19B7370769
:1035D4000C208327874B8507232CF74AEFD0DFFE87
:1035E400014515B7054505B7EFD24F8F4111EFF0EF
:1035F400BF9E37040C208327044A91EB8565376509
:103604000A20938545FD1305450DEFE0FF888327C8
:10361400044AFD172320F44A8327044A89CB014531
:103624002AC6EFF0DF9C324541016FD06F8EB70799
:103634000C2083A7874CE5D7B7960D20B7950D20AE
:1036440081479386868EB70F0C209385459251430C
:10365400370E0C20B70E0C20054F49A0DC46DC4782
:103664009857C84F90530328470010C548C2138584
:1036740087016313A80050C3104323A407027D16D7
:1036840010C38847D047D84B1388470010C548C299
:1036940048436313050150C310437D1610C3D0572C
:1036A40003A70F4C6374C70023A0CF4C33076602F3
:1036B4002E9748438328850088C723A6170123A291
:1036C4000801232405010843D8CB050508C30327B3
:1036D4008E4D58576374C70023AAEE4B98423DFFA2
:1036E40099C3EFF01FA5B7040C2003A4844B09CCA5
:1036F40037090C208549EFF0DFD519C1232A394B4E
:103704007D1475F823AC044AB7070C2083A7474BF4
:10371400E38707F0B7070C2083A7874D1167B7E746
:1037240000E023A0E7200545E5BDEFC2DFFCAA8445
:103734002E8411E9856537650A20938595951305CF
:10374400450DEFE06FF511E8856537650A2093852F
:10375400A5951305450DEFE02FF4EFF0FFCDB70766
:103764000C2003A9474CB7070C2003A7074A854739
:10377400630BF700856537650A2093852596130545
:10378400450DEFE06FF1984033058700B336E5004F
:103794006372E90299C26360A90288C00144EFF030
:1037A400BFE411E5B7E700E0116723A0E720228515
:1037B4006FC0BFF6EDD288C0814533052541EFF0D7
:1037C400BF8C0544E9BF19E5B7E700E0116723A002
:1037D400E7208280EFC23FF22A84EFF0FFC5B707EB
:1037E4000C2003A7074A8547630BF70085653765F7
:1037F4000A209385859B1305450DEFE0EFE981458C
:103804002285EFF07F88EFF03FDE11E5B7E700E0B7
:10381400116723A0E7206FC05FF0EFC23FECB7044D
:103824000C2003A9044AB7070C20630709000547C5
:1038340023AAE74A6FC0DFED23AA074A37040C2006
:103844008327844D8326844D0327844D9C5B9442B7
:10385400185B6372D702904337A7A5A51307575A7D
:10386400631BE600D4436398C60098476315D700EA
:10387400DC47638AE7008325844D0325844D9385C3
:103884004503EFE0EFDDB7970D20138707A5145329
:10389400B7090C20938707A5850614D383A6094C82
:1038A40054D383A6044A54D78326844D74D78326DD
:1038B400844D7D5781C60327844D5857B7940D20F6
:1038C40098D73D4613874492938444920C439306BD
:1038D400C900B3C6F62005098CC25107E318C9FE16
:1038E40003A9094C056AD14A130A3A44376B0A20E2
:1038F400B30759033387F40014439DC65443A10707
:10390400A697D44254C36394F6005C475CC3D14782
:10391400B307F902BE94DC40DC47232CF44C23A00B
:10392400294D8327844D39B763170900D2851305C0
:103934004B0DEFE06FD67D1965BFEFC2DFDB2A8444
:103944000DE1B7070C2003A4874D01EC89653765A9
:103954000A209385A5931305450DEFE0EFD31C587A
:103964000290145801459307500A3387A600182380
:103974006305F70009816FC05FDA0505FDB7B70776
:103984000C2003A5874D8280B7070C2083A7C74B63
:10399400054581CBB7070C2003A5074A133515004D
:1039A4000605828093070540135735003E97B7F705
:1039B40000E093870708D443F59AD4C323A40700EF
:1039C40088CB914694C3944393E6160094C3B7F608
:1039D40000E093870608DC43898B99EB9307F7FF94
:1039E40005E3B7070C209387C74D9843050798C391
:1039F400B7F700E0938707089843799B98C38280C0
:103A04003E87C1BFB7070C2083A7074837470F007D
:103A140013070724B3D7E7022394F1901307803EDA
:103A2400B387E70223A2F1908280EFC2DFCC03A424
:103A34004190AA84EFF05FF585476307F50026857A
:103A4400EFF07FD86FC07FCD3305940265DDEFF0D2
:103A54007FF5CDBFEFC23FCA01112A8485452545B4
:103A640002C202C402C602C802CA02CC02CEEFE0FD
:103A74003FC0854513050010EFE05FC1B714014056
:103A84002D46138504C09145EFE0DF83C1477C8256
:103A94008D473EC44C00E147138504C03EC6EFE0A9
:103AA4006FF3B70708000C08372500403ECC22C846
:103AB40002CA231E0100EFE07FF58545372500404B
:103AC400EFE0DFFF05616FC05FC5EFC23FC12E8924
:103AD40032848144374A0F0063D2840493091A2440
:103AE4009305000837250040EFF0AF8309CDB307F5
:103AF400990083850700372500408504B3C5050870
:103B0400EFF02F81D1BFFD19E39C09FCB7070C200E
:103B14009387C74DD84326840507D8C322856FC031
:103B24003FBFAA8703A5C18137970D20130747C05C
:103B3400AA9763EBE70037F70F20130707006365C5
:103B4400F70023AEF18082807D5582803288AA8876
:103B54002E87CDEA63FFC50EC167636AF618B707FF
:103B64000001B337F600B307F040E19BE10733539C
:103B7400F60097260000938666709A9694221303A3
:103B84000002B697B306F340630BF3003397D500F6
:103B9400B357F5003318D6005D8FB318D50013560C
:103BA40008013355C702B346080893D70801337791
:103BB400C702B385A6024207D98F63FAB700C2973A
:103BC4001307F5FF63E4070163E8B7303A858D8F87
:103BD40033D7C702B3C80808B3F7C702B386E602EF
:103BE400C207B3E8F80063FBD800C2989307F7FF55
:103BF40063E50801791763E3D8003E874205598DD0
:103C04008145828063F5D500814501458280C16785
:103C140063E5F618B7070001B3B7F600B307F04041
:103C2400E19BE10733D8F600172700001307076567
:103C340042971823930800023E973388E840639222
:103C4400E81863EDB6263335C500134515008145E4
:103C5400828045C6C167637BF62413370610134779
:103C640017000E07B356E6009727000093870761F5
:103C7400B6979C2393060002BA97B38EF640639DD1
:103C8400F608B387C54085459356060133460608B2
:103C940033D5D70213D70801B3F7D7023303C502CC
:103CA400C207D98F63FA6700C2971307F5FF63E46D
:103CB400070163E067223A85B387674033D7D702A9
:103CC400B3C80808B3F7D7023306C702C207B3E87C
:103CD400F80063FBC800C2989307F7FF63E5080187
:103CE400791763E3C8003E874205598D8280933774
:103CF400061093C717008E079DBD814697270000C5
:103D04009387C757B6979C23014793060002BA9737
:103D1400B38EF640E387F6F63318D60133D3F500B5
:103D240093560801335ED302B395D501B357F5001A
:103D3400CD8F3346080813D70701B318D501337361
:103D4400D302B305C603420333676700637BB7003E
:103D540042971305FEFF636A07176378B716791E47
:103D640042970D8F3355D702B3C707083377D7026D
:103D74003303A6024207D98F63FB6700C297130778
:103D8400F5FF63E0071563FE67127915C297931573
:103D94000E01B3876740C98DE5BD93B7061093C77D
:103DA40017008E0733D8F600172700001307074DB6
:103DB40042971823930800023E973388E840E38231
:103DC400E8E8335EE600B3960601336EDE00B3D84E
:103DD400E500935E0E01B3D7D803B39505013357BD
:103DE400E5004D8F33430E08935607013316060141
:103DF400B3F8D803B305F302C208B3E6160163FBB4
:103E0400B600F2969388F7FF63E3C60D63F1B60C30
:103E1400F917F2968D8EB3D5D60333470708B3F658
:103E2400D603B308B302C206558F637B170172979A
:103E34009386F5FF6369C70963771709F9157297C4
:103E4400C207C16ECD8F9386FEFFB3F5D70013D39F
:103E54000701F18E4182338ED50233071741B30631
:103E6400D30293580E01B385C502B695C6953303A4
:103E7400C30263F3D500769393D605019A966363E0
:103E8400D7026305D7003E8581458280C166FD1651
:103E940033F7D5004207337EDE00331505017297F0
:103EA400E373E5FE1385F7FF81458280B7070001C0
:103EB4006377F6029356060141477DB38145054574
:103EC40082803A85E9B5B685A5BF2A8E59BDC687D5
:103ED40091B77915C297CDB37915C297CDB99356D9
:103EE4008601614751B3370780007D1793567501EA
:103EF40013D67501B377A70013F3F60F6D8F13581C
:103F0400F5011376F60FFD81C2888E070E07B306FE
:103F1400C3406301B804635FD00021EE630A071055
:103F24001386F6FF630C062A9305F00F638DB6160D
:103F3400B286B1A0D5CAB3066640631C031CFDC794
:103F44001385F6FF6307052C1308F00F638B061522
:103F5400AA86F1A2635BD0145DCE1306F00F63044E
:103F6400C3141317A7296D46635AD61E85079A866C
:103F740081A01306F00F6308C3121317A729ED4598
:103F8400054663CDD50013060002158E3316C7000F
:103F9400B356D7003337C00033E6E600918F3707B6
:103FA4000004B3F6E700DDEE13F777009A8649C301
:103FB40013F7F70011466303C7009107370700049E
:103FC4007D8F3DC7138516001307F00FC288630267
:103FD400E508139767001375F50F25835E05598D62
:103FE4009397F8015D8D8280130613001376E60F14
:103FF400631B06146314030A638907206302071012
:104004003385E74037060004698E63060622B3074A
:10401400F7402E8841A009CF1386F6FF6308061ADD
:104024009305F00F6381B608B28635BF2E88BA8730
:104034001307F00F8D836397E60CDDC31305F00FB0
:104044008148370740005E05598D9397F8015D8DCF
:1040540082801305F00F01475E05598D9397F8018F
:104064005D8D82807D1733F6E70093170660ED17A8
:104074003316F60063C16706B38667408506930767
:104084000002958FB317F600B337F0003356D6000D
:10409400D18F814613F7770001FF0DB7639507149D
:1040A40051DF2E88BA878D8349BFA1C2B30666400B
:1040B4006316030EADDF9385F6FF638905101305C0
:1040C400F00FE381A6FEAE86ED4563D2D5129307C9
:1040D4001700B286F1BDB306F3409317A6495DBF3E
:1040E400C2881305F00F0147D5BD9306130013F6DC
:1040F400E60F45EE6317030E63820712631207127D
:104104008D838146A60713D7970013F5F60FC2884F
:10411400F1B51305F00FE306A6F89397A7296D48A8
:104124000545634DD80013050002158D3395A7008E
:10413400B3D6D700B337A00033E5F600B307A740E2
:1041440032832E88A9BD3386E740B7060004F18E7A
:10415400B5EA01FE81480145014749B5130600024D
:10416400158E3316C7003357D700B336C000558FAA
:10417400BA97370700047D8FE30807E2930613001C
:104184001305F00F0147E38BA6E43706007E13D72F
:1041940017007D16858B718FD98FEDBD9305F00FB8
:1041A400E302B6F09397A72905B71306F00FE3824D
:1041B400C6EA3E979357170013F67700E31A06DE14
:1041C4008D8389B73306F7402E8845B5BA973707EC
:1041D40000047D8F894605434DFBF9B3998F054350
:1041E4007DBBE38107ECE31B07E48D83B9B593053D
:1041F4000002958DB395B700B3D6D700B337B0009E
:10420400DD8EB387E6003283ADB729D72E88BA870F
:10421400C5BDB307F7402E88054351B3BA87CDB562
:10422400BA97370600047D8E814659DA9397A749D9
:1042340085468D83C1BDAA8711DD8D83E1B5935772
:1042440075019318950093F7F70F93D898007D8123
:10425400F1CB1307F00F638DE70C8E08138617F864
:104264000147014E9398A82993D775019396950019
:1042740093F7F70FA582FD81C9C71308F00F638078
:10428400070D8E06938717F8814E9396A6293D4312
:104294003348B5001D8E6366E31A17230000130329
:1042A40063F3334767201C439A9782879307F00F81
:1042B400014713957701598D7E0833650501828086
:1042C4008D476304FE028547631BFE0E2A888147DF
:1042D400014713957701598D7E0833650501828066
:1042E4008D472E85B688639CFE0C9307F00F370725
:1042F4004000139577010148598D7E083365050107
:104304008280C1EA13671700B5473348B500E3EF6D
:10431400E7F8972600009386E6EF3347D7201C433F
:10432400B6978287639A080411470146054E2DBF4C
:10433400639F080221471306F00F094E35B795E233
:10434400136727007517AD463348B500E3E1E6F877
:1043540097260000938686EF3347D7201843369775
:104364000287136737009307F00F8D4E0DB731475F
:104374001306F00F0D4ECDBD139708609307B7FFDA
:10438400B398F8009307A0F83386E740014E01473D
:10439400E1BD139806609307B8FFB396F600930740
:1043A400A0F8B3870741814EDDB5130616F089479F
:1043B400E318FEF02A889307F00F0147DDBD2A8831
:1043C4009307F607635EF00213F7780019C713F733
:1043D400F80091466303D70091083707000833F7C4
:1043E400E80009C7930706089398B8491307E00F34
:1043F400E34EF7EA13976800258393F7F70F55BD4B
:10440400854699C79D8EED4581470147E3C3D5EAAB
:104414001307E6093397E8003337E000B3D7D80031
:10442400D98F13F7770019C713F7F7009146630381
:10443400D7009107370700047D8F55CB8547014787
:104444008DBD4167139356007D1793550301337750
:10445400E30063F8D806B3D6B802C6877D16814850
:104464003385E602B3F7B702C207B3E7170163F86F
:10447400A7009A979388F6FF63F66706C686898F26
:1044840033D5B702B3F7B7023307E502C20763F2C5
:10449400E702B3856700B3B8F500130EF5FFAE87E6
:1044A4006398080063F6E5007915B387650011A0E9
:1044B4007285C206998FC98EB337F000B3E8F6004F
:1044C40001B793D71800B3D6B702FE0893D80801F2
:1044D4003385E60241BF2E852A88D5BB01483707BC
:1044E4004000C1BBE3FCA7F8F9169A9749BF9A07A5
:1044F40013D79700814775BB2E856DBD1356750183
:10450400370780007D1793D675011376F60F1308CD
:10451400F00FB378A7009357F5016D8F13F5F60FDD
:10452400FD8163050603630A050105EA09E939C348
:10453400639E0804A1C92E85828039E719E2E38BC2
:1045440008FE6399B7009DCF3E858280639E080272
:104554006305C50205459DE782806DDDE39CB7FEDA
:10456400E34AC5FEE341A6FEE36617FF0145E3EC1B
:10457400E8FC8280E39008FE828019E7E39CB7FCA4
:10458400014582807D55828079558280E38EB7FC17
:10459400D1B713567501370780007D1793D675017F
:1045A4001376F60F1308F00FB378A7009357F501AD
:1045B4006D8F13F5F60FFD8163060603630A05018B
:1045C40005EE11E929CB639F0804B9C92E858280C1
:1045D400094501EB19E2E38A08FE638BB70205453E
:1045E400A1E38280639C0802E31BC5FE094575FBB9
:1045F400E397B7FE014582807DD1E392B7FEE340A5
:10460400C5FE6347A600E36C17FD0145E3FBE8FC28
:1046140081CB3E858280E39408FC828009458280B8
:104624007D558280E381B7FE5DBF935775011317F3
:10463400950093F7F70F935897007D8163850710D2
:104644001307F00F6387E7108E08938617F8014766
:10465400814E9398A82993D775011398950093F7E1
:10466400F70F13589800FD81F9C31306F00F638800
:10467400C704938717F8338ED7000E08A94701465D
:1046840093061E001318A82963C3E7103343B5002B
:1046940009451A8F6344E5047D17854563EEE512E9
:1046A4006300A60C85477A83631BF60481470146A1
:1046B40013957701518D9317F3015D8D8280138ECD
:1046C400F60F630A080A3343B50013673700294617
:1046D4001A8F938606106344E6200D463317E028AC
:1046E4001375075319CD8947638CFE068D47638480
:1046F400FE027686854746887A83E309F6FA368E83
:10470400A9A29377072481EB1377870871C72E8FAB
:10471400C288B28EC9BF9307F00F01433706400029
:1047240013957701518D9317F3015D8D8280631486
:104734000808368E13671700A947054693061E001E
:10474400E3D6E7F4A9A0639B080411478146854E8C
:1047540019B76390080421479306F00F894EE5BD0D
:104764009307F00F7A83014613957701518D9317C0
:10477400F3015D8D828013672700A9479386061095
:1047840039430946E3D4E7F0AD47E302F3F82A8F4F
:1047940099BF31479306F00F8D4E75BD139708608E
:1047A4009307B7FFB398F8009307A0F8B386E740E0
:1047B400814E01474DB5931708601386B7FFB38741
:1047C400F640138EA7F8A9473318C80093061E00B5
:1047D4000146E3DDE7EA65BFC16E9387FEFF93D52B
:1047E400080113550801B3F8F800B377F8003386CD
:1047F4001703B387F50213570601B3081503BE98D0
:104804004697B385A5026373F700F69541657D1558
:10481400B377A700698EC207B2971396670013583F
:104824000701E9833337C0002E98D98F1A083368FB
:10483400F800B7070008B377F80081CB9357180046
:104844001378180033E80701368E9307FE07635E7A
:10485400F0021377780019C71377F80091466303C1
:10486400D7001108370700083377E80009C7930712
:104874000E081318B8491307E00F6349F704131619
:104884006800258293F7F70F25B5054799C71D8F53
:10489400ED4681470146E3CDE6E0130EEE09331EF3
:1048A400C801B357E8003337C001D98F13F7770035
:1048B40019C713F7F70091466303D7009107370729
:1048C40000047D8F01CB85470146DDB39307F00FCC
:1048D4000146F9BB9A0713D697008147D1BB3D4ED9
:1048E400014337064000E305C7DD2D430D4669BD8E
:1048F400B7078000FD1713D6750133F7A700935649
:1049040075019358F501ED8F1376F60F1308F00F28
:1049140013F5F60F46830E07FD8193963700630265
:10492400060593C51500B307C540638FB8006358E7
:10493400F03035E6638C06141386F7FF6302062A0B
:10494400638E0703B28785A06356F0306DCA630790
:1049540005039396A6296D466350F6140507AA87A6
:10496400ADA8930715F0CDE693C515006382B80E84
:10497400638E071863070510AE8836870D8313F31B
:1049840018001305F00F3DCF1305F00F014337074F
:1049940040005E05598D9317F3015D8D8280E30F0E
:1049A40005FD9396A629ED45054663CDF50013064E
:1049B40000021D8E3396C600B3D6F600B337C0008E
:1049C40033E6F600118FB7070004B376F70063935C
:1049D400061093767700AA87D5CA9376F700114616
:1049E4006383C6001107B7060004F98EC5C28507A4
:1049F4009306F00F13F318006385D70C1A0713F509
:104A0400F70F25835E05598D9317F3015D8D828021
:104A1400E390B8F6B1C36313051C9307F00F35C7D1
:104A24009385F7FF638805121305F00F6388A71AAF
:104A3400ED4763DDB71A13871600B28779BFB9C68D
:104A44001386F7FF63080610E38A07F3B28721B7DA
:104A540081C761D501471DB79307150013F6E70F0A
:104A640063180614631B05166309071A6399061A6B
:104A74000D8381472607258313F5F70F13F31800D9
:104A840051B79307F00F65EBAE8836879306F00FA6
:104A94000D83E386D7EEF9BF130600021D8E33960D
:104AA400C6003336C000B3D6F600D18E3697B707AA
:104AB4000004F98F99DF930715009306F00F6393B1
:104AC400D70A1305F00F01475E05598D9317F301BB
:104AD4005D8D8280FD173376F70093170660ED171E
:104AE4003316F60063C8A704898F850713070002ED
:104AF4001D8F3317E6003337E0003356F600518F2D
:104B0400814793767700E39A06ECF1BD930715008D
:104B140093F7E70F8DE755E96DCFB9DAB307D740BF
:104B2400370600047D8E630706103387E64081470D
:104B3400AE88C1BFB307F5401317A649D9B73306EA
:104B4400D740B7070004F18FC9E741FA0143014593
:104B540001474DBD3697B7060004F98E89470545D0
:104B6400E38906E63706007E935617007D16058B0B
:104B7400F18E558F79B71388F7FF6307080813057B
:104B8400F00FAE88638CA704ED45854763CE05011D
:104B940093070002B3870741B317F700335807019F
:104BA400B337F000B367F8003387F640328521BD90
:104BB4001306F00FE387C7F0BA9613D716001376DF
:104BC4007700E31C06E00D8375B511EFE38E06DA7A
:104BD40065B33386E640AE8809B711E7368779BBFB
:104BE400158F0545CDB3E38B06D879BB9307000237
:104BF4008D8FB317F700B355B700B337F000DD8DD1
:104C04003387D500328565B53387E640AE880545E0
:104C14005DBB8DDEAE883687A1BD368791BD3697E4
:104C240037060004798E814759DE1317A749854753
:104C34000D8389B581DF3E870D83814725BDE387D9
:104C440007EC3308A640C287E30F05E2AE881317CA
:104C5400A7291DBFE38207E0B305A64019E1AE878B
:104C64007DBB1317A729E9B3135775019317950053
:104C74001377F70F1306E00793D697009357F501C0
:104C840001456353E60091C382809307E0097D5593
:104C9400E3CCE7FE13065009939776296357E600A1
:104CA4001307A7F63395E700828013056009198D71
:104CB40033D5A70082801DCDB306A0409307E00939
:104CC400B366D50A13066009939506608D8F135752
:104CD400F5016349F6022146638AC508E115B396D6
:104CE400B60013F5F70FA606A5825E05558D7E075F
:104CF400598D82800147014581465E05558D7E07A9
:104D0400598D8280130690096346F604154613856F
:104D1400B5FF6384C500B396A60013F57600139619
:104D2400A64919CDBD8A1145638CA6001106B706A4
:104D34000004F18E91C69307F0098D8F1316A649CE
:104D44009316660013F5F70FA5825E05558D7E0751
:104D5400598D82801386B50115453396C6000D8D95
:104D6400B3D6A6003336C000D18E45BFA606A582B1
:104D74001305600959B71DC59307E009931605602B
:104D840013076009958F6344F70221476383E6089C
:104D9400E1163317D500260713F5F70F25835E05B3
:104DA400598D8280014501475E05598D8280130724
:104DB40090096344F70415471386B6FF6384E6003D
:104DC4003315C500137675001317A54905C23D892F
:104DD4001146630DC500110737060004798E19C604
:104DE4001305F009B307D5401317A74913F5F70FB7
:104DF4001A0725835E05598D82801387B6011546EF
:104E04003317E500158E3337E0003355C500598D4F
:104E140055BF2605135795001305600971B75D71D9
:104E240022D406D62A842EDA32DC36DEBAC0BEC2DA
:104E3400C2C4C6C603A5018211C51C4D81E72AC69A
:104E4400D52032450C455418228636CE0529B25059
:104E5400225461618280411122C406C62A844EA56F
:104E640072A5232005002322050023240500232204
:104E7400050623280500232A0500232C05002146C6
:104E840081451305C505EFB07F8B97070000938715
:104E9400876D5CD0970700009387A76F1CD4970792
:104EA4000000938767735CD4970700009387A77506
:104EB400B24000D01CD822444101828097150000E2
:104EC400938505A849A2411126C2930780069384BD
:104ED400F5FFB384F4024AC02E8922C406C6938522
:104EE40044071D242A8401CD232005002322250103
:104EF400310508C4138684068145EFB03F84B2406F
:104F04002285224492440249410182801385019101
:104F140045A21385019171AA1385419151AA138564
:104F2400419141AA411122C406C62A84EFF0DFFE52
:104F34001C4C91C72244B24041016FF05FFE9707B9
:104F440000009387E7F71CD42324040423260404D5
:104F54002328040483A741876394870085471CCCD6
:104F64002285152848C022853D2008C42285252095
:104F740048C4484001469145EFF0FFED084405461A
:104F8400A545EFF05FED48440946C945EFF0BFEC95
:104F940085471CCC45B7411126C24AC006C622C467
:104FA4002A89EFF0BFF683A441879C4C81E72685CC
:104FB400EFF05FF7938484048044DC40FD1763D6EC
:104FC40007009C40A5C78440C5BF0317C40021EF58
:104FD400C17785075CC41305840523220406C12810
:104FE400EFF03FF32146232004002324040023226E
:104FF400040023280400232A0400232C04008145F0
:105004001305C405EFB08FF3232A0402232C0402F2
:105014002324040423260404B24022852244924417
:105024000249410182801304840649BF91454A859F
:10503400EFF07FE988C02A8459F5EFF09FEDB1477E
:105044002320F900D1BF797122D44AD04ECE52CC5C
:105054005AC85EC606D626D256CA2A892E8A130490
:1050640085048149054BFD5B0444832A4400FD1AF1
:1050740063D00A0200406DF8B2502254925402598F
:10508400624AD24A424BB24B4E85F2494561828014
:10509400DE24637BFB008397E40063877701A685A6
:1050A4004A85029AB3E9A90093848406C9B7828029
:1050B4008280828041114AC013898191832709002B
:1050C40022C426C206C6AA842E8489E78145B52156
:1050D4002320A900A28526858D217D59631A2501E7
:1050E4007D54B24022852244924402494101828087
:1050F400130435007198E30685FEB305A4402685A4
:105104002D29E31025FFE9BF011126CA9384350038
:10511400F1984AC8A104B14706CE22CC4EC62A89CA
:10512400B3F4F40A63C4040063FDB400B14723205C
:10513400F9000145F2406244D2444249B249056152
:105144008280EF00901B9389C19183A709003E845C
:1051540021E8A6854A85EFF0FFF5FD572A846319F7
:10516400F50A03A40900A287D1EB83290400814531
:105174004A85A299D9266396A9081C408D044A85BC
:105184009D8CF198B147A104B3F4F40AA685EFF01D
:105194007FF2FD576307F5061C40A6971CC015A0B7
:1051A4001440858E63C906042D47637ED70204C06C
:1051B400330794006397870223A0E9005C4014C37B
:1051C4005CC34A85EF00F0131305B4009307440051
:1051D40061993307F540E30FF5F43A94898F1CC0C5
:1051E40091BFD8C3E1BF58406395870023A0E9006D
:1051F400C9BFD8C3F9B7A287404099BF3E84DC43F6
:10520400A5B7B1472320F9004A85EF00900F15B7E1
:1052140004C145BF1C46FD171CC663D90700184EC0
:1052240063C5E700A9476393F500F9AE1C422E85D8
:105234001387170018C28CA38280011122CC26CABE
:105244004AC84EC652C406CE2A89AE893284B304F3
:10525400D6007D5A63149400014509A80C204E869B
:105264004A85EFF03FFB0504E31645FFF240624434
:10527400D2444249B249224A05618280357122CD25
:1052840026CB4AC94EC706CF52C556C35AC1DEDE25
:10529400E2DCAA892E843289B68409C51C4D99E3BF
:1052A400EFF05FC897170000938747116317F40462
:1052B40003A449007C50858B81EB5E2493F707207F
:1052C40081E7284CEFF0DFDE5E24A18B99C31C48F4
:1052D400B9EFA2854E85312939C97C50858BA1C38C
:1052E4007D55FA406A44DA444A49BA492A4A9A4AF4
:1052F4000A4BF65B665C0D6182809717000093870A
:10530400E7096315F40003A489006DB7971700003B
:105314009387C706E310F4FA03A4C90061BF5E24AF
:1053240093F70720D5FF284CEFF0BFD855BF93075C
:105334000002A304F1029307000302D22305F10241
:1053440026C6930B5002971A0000938A2A09294B08
:10535400CA849C2099C3639B7709338C2441638E50
:105364002401E2864A86A2854E85EFF01FEDFD57A3
:105374006309F5189257E2973ED29C20638307187D
:10538400FD571389140002C802CE3ECA02CCA309F9
:10539400010482D48345090015465685EF006074E4
:1053A400C2479304190029E513F7070109C7130736
:1053B4000002A309E10413F7870009C71307B00229
:1053C400A309E104834609001307A0026389E602E6
:1053D400F247CA8481462546982093851400130712
:1053E40007FD6372E60685C63ECE15A0850495B713
:1053F40033055541B397A72826893EC861BF324774
:1054040093064700184336C6634807023ACE9820ED
:105414009307E002631CF70498309307A002631A11
:10542400F702B2478904138747009C433AC67D5765
:10543400B3E7E70A3ECA1DA83307E04093E7270015
:105444003ACE3EC8E9B7B3876703AE848546BA97B8
:1054540061B7850402CA8146814725469820938511
:105464001400130707FD6374E606E9F68C200D4665
:1054740017150000130505F7EF00A06611CD971767
:105484000000938727F61D8DC247130700043317C6
:10549400A700D98F85043EC88C2019461715000033
:1054A400130585F4138914002304B102EF0060632B
:1054B40035C99307000095E74247B24713770710B1
:1054C40009CF91073EC69257D2973ED251B5B387C2
:1054D4006703AE848546BA9751B79D07E19BA10740
:1054E400D5B7780097060000938666D522860C0807
:1054F4004E8597000000E7000000FD572A8AE31458
:10550400F5FC7C50858B81EB5E2493F7072081E7C3
:10551400284CEFF01FBA5E2493F70704E39207DCEC
:105524001255C1B3780097060000938646D12286AF
:105534000C084E85EF002078C9B7411122C42A8493
:105544002E8523A0019206C6EFE0AFDDFD5763165A
:10555400F50083A7019291C31CC0B24022444101CB
:105564008280411122C42E848395E50006C6EF0093
:10557400501C634905007C48AA977CC8B240224469
:10558400410182805E249397C7485EA4C5BFDE258F
:10559400011122CC26CA4AC84EC606CE93F707107C
:1055A400AA842E843289B68991C78395E5008946F9
:1055B400014621295E248315E400F2409397C748ED
:1055C4005EA46244CE864A86B24942492685D244C4
:1055D4000561D5A8411122C42E848395E50006C631
:1055E400ED267D575E246319E5009397C7485EA4B2
:1055F400B2402244410182809397C72868C85EA4C0
:10560400C5BF8395E500F1AA011122CC26CA4AC878
:1056140006CE4EC6AA842E89328409C51C4D99E350
:10562400EFF05F9097170000938747D96317F40250
:10563400C0401C4C1CC45E24A18B99C31C4895EF2C
:10564400A28526857D2015C97D59F2406244D24445
:10565400B2494A85424905618280971700009387C1
:10566400E7D36314F4008044E9B7971700009387E5
:10567400E7D0E310F4FCC0446DBF1C4808409379A4
:10568400F90F1379F90F1D8D5C486346F500A28567
:1056940026856D2455F91C440505FD171CC41C40C2
:1056A4001387170018C0238037015C486388A7005C
:1056B4005E24858BD9DBA947E319F9F8A2852685F1
:1056C400B52C41D551B7411122C42A842E85B28507
:1056D400368623A0019206C6EFE02FBFFD5763165E
:1056E400F50083A7019291C31CC0B240224441013A
:1056F4008280411122C426C24AC006C683A4018204
:105704002A892E8491C49C4C81E72685EFF09F81E1
:1057140097170000938787CA6313F402C040831766
:10572400C40013F7870025E713F707010DEB25479E
:105734002320E90093E707045EA47D5571A0971721
:1057440000009387A7C56314F4008044C9BF97176A
:1057540000009387A7C2E314F4FCC044C9B7918B3B
:105764009DC34C5889C9930744046384F5004A8552
:10577400692E232A04025E242322040093F7B7FD32
:105784005EA41C481CC05E2493E787005EA41C48EA
:1057940099EB5E241307002093F707286385E7003D
:1057A400A2854A8565248317C40013F717001DC317
:1057B4005848232404003307E04018CC1848014516
:1057C40001E713F707083DF7B24022449244024927
:1057D4004101828013F72700814611E3544814C421
:1057E400F1BF411122C42A842E8523A0019206C64A
:1057F400EF00A07BFD576316F50083A7019291C3C8
:105804001CC0B2402244410182808397C50001112B
:1058140022CC26CA06CE4AC84EC613F78700AA84ED
:105824002E8479E3D8416345E000B8416356E0082B
:10583400585459C303A9040023A004000C5093D75F
:10584400C748A9CB70485E24918B99C75C401D8ED4
:105854005C5899C33C401D8E5C540C50814626858F
:105864008297FD57630CF5041C4805672322040046
:105874001CC05E24F98F91C368C84C5823A024012E
:1058840085CD930744046384F5002685BD2C232A23
:1058940004021DA00146854626850297FD572A86E7
:1058A400E313F5FA9C40C5D375476385E700594770
:1058B4006395E70623A024010145B5A0984083170A
:1058C400C40001CFF5466305D700D9466319D70450
:1058D4001C48232204001CC04DB71848232204008E
:1058E40093D7C74818C041BF83A90501E38609FCC3
:1058F40003A905008D8B23A03501330939410147E4
:1059040091E3D84918C4E35920FB1C540C50CA86AF
:105914004E8626858297634FA0008317C40093E7C1
:1059240007045EA47D55F2406244D2444249B24920
:1059340005618280AA993309A940F1B79C494111B4
:1059440006C622C426C281EB8144B2402244268585
:10595400924441018280AA842E8409C51C4D99E396
:10596400EFF04FDC97170000938747A5631FF402FD
:10597400C0408317C400E9DB7850058B19E793F71F
:10598400072081E7284CEFF0AFF22685A285EFF0DF
:10599400DFE77C50AA84858BCDFB5E2493F7072038
:1059A400CDF7284CEFF0EFF04DB797170000938731
:1059B400E79E6314F40080446DBF9717000093873B
:1059C400E79BE318F4FAC0446DB7411122C42A845A
:1059D4002E85B285368623A0019206C6CD2BFD57AF
:1059E4006316F50083A7019291C31CC0B240224400
:1059F400410182805971A2D42E848395E500A6D2F8
:105A0400CAD086D6B284368963D205025E2493F75F
:105A140007088DEB13070040B65026542320F900E5
:105A240098C00659965401456561828030003D2333
:105A3400E34E05FC3247BD67F98F7977BA9793B780
:105A44001700C9BF814713070004F9B7DE25797130
:105A540022D406D626D24AD04ECE898B2E8491CF1C
:105A6400930774041CC01CC885475CC8B2502254F8
:105A740092540259F2494561828074003000AA842C
:105A8400EFF05FF7A2492A892685CE85EFF0CFE7AC
:105A940019E98317C40013F7072069FBF19B93E707
:105AA40027005EA475BF97F7FFFF938767419CD4D7
:105AB4005E2408C008C893E707085EA4B247232AF7
:105AC400340199CB8315E40026856D2911C55E2424
:105AD400F19B93E717005EA45E2433E527014AA4F3
