:080000006FA050610000000038
:100008001305000E9705FEFF9385C5DF17B6FEFFA3
:10001800130686B263FAC5008322050023A05500A3
:1000280011059105E3EAC5FE17B5F4DF1305C5C34D
:1000380097B5FEFF938545B017B6FEFF1306C6AF0A
:1000480063FAC5008322050023A055001105910518
:10005800E3EAC5FE17B5F4DF130505C197050000EF
:100068009385450A1386019763FAC5008322050024
:1000780023A0550011059105E3EAC5FE13850197F4
:10008800979501009385054B6377B50023200500FC
:100098001105E36DB5FEB73237129382023E7390B5
:1000A80002BC9D42739012BCB94273904280A16217
:1000B80093828288739002309702FEFF938282D4E3
:1000C80093E23200739052309732FEFF9382E26BD4
:0800D800739012347300203014
:1000E000000000000000000032390A204E390A20CA
:1000F00000000000183B0A20000000000000000083
:10010000183B0A20183B0A200000000000000000F5
:10011000183B0A2010490A2000030A2000000000B2
:10012000183B0A20183B0A20183B0A20183B0A20DB
:1001300000000000000000000000000000000000BF
:1001400000000000000000000000000000000000AF
:10015000183B0A2000000000000000000000000022
:10016000183B0A20183B0A20183B0A20183B0A209B
:10017000183B0A20183B0A20183B0A20183B0A208B
:10018000183B0A20183B0A20183B0A20183B0A207B
:10019000183B0A20DE340A20183B0A20183B0A20AC
:1001A000183B0A20183B0A20183B0A20183B0A205B
:1001B000183B0A20183B0A20183B0A20183B0A204B
:1001C000183B0A20183B0A20183B0A20183B0A203B
:1001D000183B0A20183B0A20183B0A20183B0A202B
:1001E000183B0A20183B0A20183B0A20183B0A201B
:1001F000183B0A20183B0A20183B0A20183B0A200B
:10020000183B0A20183B0A20183B0A20183B0A20FA
:10021000183B0A20183B0A20183B0A20183B0A20EA
:10022000183B0A20183B0A20183B0A20183B0A20DA
:10023000D2350A20B6360A20183B0A20183B0A207D
:10024000183B0A20183B0A20183B0A20183B0A20BA
:10025000183B0A20183B0A20183B0A20183B0A20AA
:10026000183B0A20183B0A20183B0A20183B0A209A
:10027000183B0A20183B0A20183B0A20183B0A208A
:10028000183B0A20183B0A20183B0A20183B0A207A
:10029000183B0A20183B0A20183B0A20183B0A206A
:1002A000183B0A20183B0A20183B0A20183B0A205A
:1002B000183B0A20183B0A20183B0A20183B0A204A
:1002C000183B0A20183B0A20183B0A20183B0A203A
:1002D000183B0A20183B0A2000000000183B0A20A7
:1002E000183B0A200000000000000000183B0A2014
:1002F0000000000000000000183B0A20183B0A2004
:10030000183B0A20183B0A20183B0A20183B0A20F9
:10031000183B0A20183B0A20183B0A20183B0A20E9
:10032000183B0A20183B0A20183B0A20183B0A20D9
:10033000183B0A2000000000000000000000000040
:1003400000000000000000000000000000000000AD
:10035000000000000000000000000000000000009D
:10036000000000000000000000000000000000008D
:10037000000000000000000000000000000000007D
:10038000000000000000000000000000000000006D
:10039000000000000000000000000000000000005D
:1003A000000000000000000000000000000000004D
:1003B000000000000000000000000000000000003D
:1003C000000000000000000000000000000000002D
:1003D000000000000000000000000000000000001D
:1003E000130181F806C216C41AC61EC822CA26CC3A
:1003F0002ACE2ED032D236D43AD63ED842DA46DC95
:100400004ADECEC0D2C2D6C4DAC6DEC8E2CAE6CC64
:10041000EACEEED0F2D2F6D4FAD6FED8F3220030ED
:1004200096DA83A241A223A02200F32510342EC025
:100430009305000273A0458003A18196EF40105EF2
:1004400003A341A203210300824273901234D652C7
:10045000739002309240A2423243C2435244E2447B
:10046000724582551256A2563257C2575258E25818
:1004700072598649164AA64A364BC64B564CE64C2C
:10048000764D865D165EA65E365FC65F13018107F8
:100490007300203013000000130000001300000060
:1004A0001300000013000000130000001300000000
:1004B00013000000130000001300000013000000F0
:1004C00013000000130000001300000013000000E0
:1004D00013000000130000001300000013000000D0
:1004E00083A28196938202E07390023403A141A219
:1004F000024182403243C2435244E2447245825533
:100500001256A2563257C2575258E258725986496B
:10051000164AA64A364BC64B564CE64C764D865D7F
:10052000165EA65E365FC65FD652A1027390023099
:10053000A242130181078280130000001300000013
:10054000130000001300000013000000130000005F
:10055000130000001300000013000000130000004F
:10056000130000001300000013000000130000003F
:10057000130000001300000013000000130000002F
:10058000130000001300000013000000130000001F
:10059000130000001300000013000000130000000F
:1005A00013000000130000001300000013000000FF
:1005B00013000000130000001300000013000000EF
:1005C00013000000130000001300000013000000DF
:1005D00013000000130000001300000013000000CF
:1005E000F322003093F272FF130380781203B3E218
:1005F0006200711523205500130585FA10C12115DD
:100600002320050081426387020071152320050025
:10061000FD12D5BF71150CC18280000000000000E2
:1006200000000000000000000000000000000000CA
:1006300000000000000000000000000000000000BA
:1006400000000000000000000000000000000000AA
:10065000000000000000000000000000000000009A
:10066000000000000000000000000000000000008A
:10067000000000000000000000000000000000007A
:10068000000000000000000000000000000000006A
:10069000000000000000000000000000000000005A
:1006A000000000000000000000000000000000004A
:1006B000000000000000000000000000000000003A
:1006C000000000000000397101436EC619A03971A5
:1006D00041536AC866CA62CC5ECE19A03971015313
:1006E0005AD056D252D44ED64AD826DA22DC06DE6A
:1006F00033016140828241114AC026C222C406C62B
:100700008282B24D4101024D924C224CB24B4101CA
:10071000024B924A224AB249410102499244224480
:10072000B240410182802A8309CA838305002300E5
:1007300073007D16050385056DFA82802A8311C634
:100740002300B3007D16050365FE8280EFF21FF9DA
:100750002A84AE84EF20203B8329440F0347540CA6
:100760008326C40B639599008327840FADEF232A5A
:10077000940E232CA40E2320D4102322D41023055E
:10078000E410A14763E4970CB7A70A2093870741B9
:10079000B3C7F4209C43828723140410230504105C
:1007A00003C91197EF2020361379F90F0327C410DE
:1007B0001209938701A5CA9788C3D8C30357C408F1
:1007C0009AA70347841023853701A4B7D8A7034706
:1007D0000409D8B703473409F8A783C711978507D9
:1007E000BD8BA388F1962DB785472304F4104DDB0C
:1007F000232ED40EA304F41065B705462304C410B9
:100800008347941005C389E7232ED40EA304C41094
:1008100083A581840325C40FEF70F01A2322A4104E
:10082000854739A0B5DFEDB785472304F4102DDBEC
:100830002305F410B5B70347941085472304F4103B
:1008400025D30327C40F2322E410DDB785472304F3
:10085000F410B9B7EFF2BFE7B7970D20938707728F
:100860001307700698C3D843411113678700D8C394
:10087000EF40E0632AC6130520033D2B2A89EF30A1
:10088000E00083AB418503AC018583ACC184B7AA8A
:100890000A202A84014A938A4A43EF404061AA8988
:1008A0002285EF0090008327440F05468326C4105D
:1008B0009385D7FF6374B6041D466385C702B5CA26
:1008C00095472388F19683478410814589CBED9A1B
:1008D000A14591E68347540CA14591C39D452285CE
:1008E000B53505A889EE2388019603478410630275
:1008F00007140347040939E38545D5B7B9C683C74B
:1009000001971146850793F7F70F2388F196E3695E
:10091000F6FA2285EF00C07C134A1A005285EF20B8
:10092000600FCE850D454529CA856800EF40D0008F
:10093000ADB7238801960347841045FF2147E36D37
:10094000F7FAB3C757219C43828723880196034750
:1009500084106DD70347040945D38356C408130791
:100960006040E36DD7FC49BF83473409230404107A
:10097000CDD383472409D1FF83470409D9DB03572B
:10098000C40893076040E3E6E7F88347440CD1D3FB
:100990008324040B930500002685EF707073635465
:1009A00005009394F469E6852685EF707072E34242
:1009B000A0F68324440B930500002685EF70507148
:1009C000635405009394F46983A5C1842685EF7070
:1009D0003070E340A0F48347540C89459DDB01B798
:1009E00083470409E38A07F0834734099DD30357FB
:1009F000C40893071067E3FEE7F08347540C8D4566
:100A0000E38907F0E9BD8347540CE38407F083478B
:100A1000A410E38007F003254410E285EF80202135
:100A2000AA850325C40BEF7050619145E35905EA8F
:100A3000CDB5EF20400D0347540CAA8711E783473B
:100A40000409E39807EC4DBD0347941039C703250B
:100A5000C40F0327840F998F1307703EE37BF7EAD7
:100A6000DE85EF704076AA850325C40BEF705066D3
:100A7000E341A0EA8324040C930500002685EF706F
:100A80003065635405009394F46983A581852685B8
:100A9000EF701064E34FA0E685B50325441055BF01
:100AA000EFF2FFC2B7970D20938707721307600616
:100AB00098C3D8430111B704E80313674700D8C3AC
:100AC000EF40E03E2ACE1305A00FFD242A89EF2037
:100AD000F05B83AAC185370A00012A84930B0503C2
:100AE0009384843E130A0AF037AC0A20EF40203C7E
:100AF000A285AA89D6861305040B5E86EF00C05F27
:100B0000D6852285EF00900121C08347340999CF13
:100B100083270409B3F7470191EB8347040999C779
:100B20000357C4089307604063E0E702930700009F
:100B30002324F40E2326940E2328940E232AF40C47
:100B4000232CF40C232EF40C1305C40EEF20801E6E
:100B5000EF10707B83A7419713073006B307F5406A
:100B60006377F704034EC40A8355C40E0356E40E9C
:100B70008356040F0357240F8328440F72C4034E77
:100B8000340923AAA1963303D60072C2035EC408B7
:100B90003385C5003388E500B387E600B307F54029
:100BA00072C03308034113058C45EF80C077CE85B2
:100BB00009451524CA856808EF40005805BFEFF2C3
:100BC0009FB3130785A3930780021304000063FB00
:100BD000E702130545A2EF80C04783A58186EF7029
:100BE000101483A401862A84A685EF70704E634A90
:100BF000050083A441862285A685EF7010446353C7
:100C0000A0002684228511BEEFF2FFABB7970D201E
:100C1000938707721307900698C3D843011113678F
:100C20002700D8C3EF40A0282ACE1305200369224D
:100C30002AC4EF20B04503ABC18683AB018703AC68
:100C4000018683AC41862A84EF406026834A3409BA
:100C50002AC6032D040763800A1483472409639C72
:100C6000071203554407A13F2A8A0355A407813F71
:100C7000035764089307F063AA890355640763F375
:100C8000E70883C7819789E7930700002322F40AC6
:100C9000930785A81307800C6372F7061307006497
:100CA000635AA7021305059CEF80A03A83A54187EC
:100CB000EF70F00693050000AA84EF707041634F57
:100CC0000502E6852685EF7050376344A00A1309B4
:100CD000000035A83E85EF80C03783A54187EF70BF
:100CE0001004E285AA84EF70B03E634605089305C0
:100CF00000002685EF707034E35BA0FC93040000D5
:100D0000268931A06D3D2A89814A93040000238CF5
:100D1000519783A58187232AA4095285EF70D04477
:100D200083A58187232CA4084A85EF70F04383A50F
:100D3000C187232EA4084E85EF70104383A5018838
:100D40002320A40A2324940A2685EF70F0418325EA
:100D5000440AEF704047DA85AA84EF707037634E1B
:100D60000500DE852685EF70502D6359A000DE84D6
:100D700031A0E684A9BFE28499BFDA8485472322A3
:100D8000940A2306F40AB2450545B120A245680835
:100D9000EF40803A55BD93070000232AA409232C75
:100DA000F408232EF4082320F40A2322F40A23242F
:100DB000F40A2306040AC1BFAA8719C9130780C110
:100DC00005456369F7001385773E3355F502828048
:100DD0001305803E8280914763E2A70AEFF2BF913C
:100DE0002A84AE84EF40A00CB3059540B7940D2043
:100DF0009386C463130784003347D7205C479384EA
:100E0000C46385075CC7130704013347D72008C3B1
:100E1000130744013347D720544363F3B6004CC350
:100E200093F7F70795EF8D476304F4049147630444
:100E3000F40485476308F40289476308F40203A5B4
:100E4000C19819C5EF40804E61043344942008C412
:100E5000EF30F02D23A8A408EF30D02D23AAA4084A
:100E60006FF0BF8B03A58198E9BF03A54198D1BF5F
:100E700003A50198F9B703A5C197E1B78280EFF206
:100E80009F8737940D20EF30902A9304C46388C065
:100E90009146F4DC93870408514798C3D4C398C79C
:100EA00013074006D8C7B7A50A2037150A2093872D
:100EB000C198214781461306004093854549130593
:100EC000E5F4EF30F05888CCEF307026C8C0984C6D
:100ED00085471304C463630AF70037A50A20930506
:100EE00000061305C549EF20902BB7A50A2037153A
:100EF0000A20938781981D47814613060030938509
:100F0000854B130585B2EF30B05448CCEF3030221A
:100F100008C4584C8547630AF70037A50A20930593
:100F200040061305C549EF209027B7A50A203715BD
:100F30000A209387419825478146130600409385F0
:100F4000454C1305059CEF30B05008D0EF30301EF3
:100F500048C418508547630AF70037A50A2093054F
:100F600080061305C549EF209023B7A50A20370551
:100F70000A2093870198194781461306003093850C
:100F8000C54C13054577EF30B04C48D0EF30301AE0
:100F900008C858508547630AF70037A50A2093050B
:100FA000C0061305C549EF20901FB7A50A203715C5
:100FB0000A209387C1970D47814613060030938519
:100FC000854D1305E5F0EF30B04808D4EF3030160A
:100FD00048C818548547630AF70037A50A209305C7
:100FE00000071305C549EF20901B6FF00FF3EFF2D8
:100FF0008FF0B7970D20938707721307800698C369
:10100000D843411113670701D8C3EF30506A2AC68D
:1010100029455D332A84EF207007EF305069AA8597
:101020001145553BA2856800EF400011FDB7EFF276
:10103000EFEAB7970D20938707721307500698C3FE
:10104000D843011113671700D8C3EF3050662ACE7A
:101050001305A00F9533AA84EF2050032A84130AA6
:101060000403EF20402793098404EF1090771309BD
:101070000407EF30D0632AC6EF20402CEF20600E2B
:101080002285EF1080175285EF00100D4E85EF007E
:10109000B03B4A85EF102065B24501452D3BA68542
:1010A0006808EF406009F1B782800DC98347C50227
:1010B0000347450493C7170019E393E72700034745
:1010C000350909CB03270509B7060001938606F009
:1010D000758F19C393E747002326F510828082801D
:1010E000828011C9930700001CC15CC11CC55CC58E
:1010F0001CC9231A050082804DC5C5C5EFF20FDE5D
:10110000B28441CA83C9C5022A843689638609002C
:1011100031469105EFF02FE1DC28230A3401A5CFF9
:1011200083A904015C38032AC400232634019304F4
:101130000000A9CFA6854A85EF7020706358A004EF
:10114000D2854E85EF70B02ECA85EF70403D03A961
:101150004188AA84CA85EF70A077634A050003A975
:1011600081882685CA85EF70406D6353A000CA84CC
:10117000032904012685CA85EF70702B83A5C188D9
:10118000EF70807ECA85EF700004AA84854704C88A
:101190005CB86FF0EFD7930700001CC8A30A0400E7
:1011A000CDBF8280EFF22FD5AA871307800C1305DD
:1011B00085A86371A70813070064635BF7021385B2
:1011C000079CEF70106983A54187EF704035930548
:1011D00000002A84EF70C06F634E050483A441862B
:1011E0002285A685EF7060656353A004268481A0E4
:1011F000EF70306683A54187EF70603283A401866B
:101200002A84A685EF70C06C634C0500930500002E
:101210002285EF7080626356A0001304000011A0C5
:10122000268483A501892285EF7000742A84228593
:101230006FF0AFCE13040000DDBFEFF2CFCB13850C
:1012400001B5EF002065238E01986FF00FCDEFF20E
:101250008FCA1385C1BBEF00E063138581B9EF002E
:101260006063138541B7EF00E0626FF00FCB930727
:10127000803E63F2A7029307F07C63E1A702EFF2DE
:101280008FC7130585C1EF70D06883A54189EF70C2
:1012900000296FF08FC813050000828003A54186E6
:1012A0008280EFF24FC583A5018A83A7C18703A778
:1012B000818983A6C189130600001385C1BBEF0095
:1012C000C05B83A7C18703A7818983A6C18983A542
:1012D000018A13060000138581B9EF00005A83A725
:1012E000418A03A7818A83A58184930600003686FC
:1012F000138541B7EF00605883A7C18A03A7018B0C
:1013000003A6418583A5418B93060000138501B593
:10131000EF00A0561D3761296FF02FC0630605440A
:10132000EFF2EFBA0327450F83A701992A842E8A8B
:101330006307F70019378327440F23A8F1988349DF
:10134000C40A930A840C6389090A8347440CD9CFE1
:101350008325040B03258409EF70700D83A5818C10
:10136000EF70806083AB818BAA84DE85EF7040567E
:10137000634A050083ABC18B2685DE85EF70E04BA9
:101380006353A000DE848325440B0325C409232472
:10139000940CEF70D00983A5818CEF70E05C03A9F9
:1013A000818BAA84CA85EF70A052634A050003A905
:1013B000C18B2685CA85EF7040486353A000CA845C
:1013C00003A981892326940C8324040ACA852685CF
:1013D000EF700050634A050003A9C1872685CA85BE
:1013E000EF70A0456351A002CA8431A893070000A2
:1013F0002324F40CBE84E9B7930700002324F40CE3
:101400002326F40CBE84930700002324F40E232A21
:10141000F40C232CF40C232EF40C83478410232883
:10142000940C89EB2D35113D1306C40E814556856C
:10143000412625A08327440F09476392E702013D17
:10144000ED3B930700002324F40EB7071A0493879B
:10145000A7412326F40E2328F40E6FF0CFAA0347EA
:10146000540C0329C40B63110712C13B8327C40B1F
:101470002320F40E930700002322F40E93040000AF
:101480000327440F2324940E91476312F70A8347DE
:10149000440CD1CF0325040B83A5C18C1315F5494A
:1014A000EF700043635505080325440B83A5C18CE9
:1014B0001315F549EF70C041635B05068347540C73
:1014C000BDC70325040C83A581841315F549EF706E
:1014D0002040635E05040355C408513B930500009A
:1014E000AA84EF70E03E6354A00437090C208329DE
:1014F000093E2685CE85EF70807383A5018DEF7040
:10150000A046CE85EF60304C83A9418BAA84CE855E
:10151000EF70003C634A050083A9418C2685CE8587
:10152000EF70A0316353A000CE842320993E0C4875
:101530000325840C444883298401EF70406FAA85F9
:1015400052861385C1BBA92E2A890325C40CA68502
:10155000EF70E06DAA855286138581B99126AA8421
:101560000325040DCE85EF70806CAA855286138505
:1015700041B73D26232EA40C232A240D232C940CA2
:101580001306C40E854565B51147638AE7021D47FA
:10159000638DE7180D476399E71A8347A41081E725
:1015A000EFF0BFC9E1BD0355C40803294410EFF0B3
:1015B0007FBF83A58184EF601041AA8485A86383DF
:1015C000090683C6C1990325440A81EA854623ACEE
:1015D000219923AAA198238ED19883A54199EF70D0
:1015E000006583A58199EF60103E2A890355C408E0
:1015F0008324840AEFF01FBBAA852685EF60B03CE8
:1016000083A9018CAA84CE85EF70802C634A0500E3
:1016100083A941862685CE85EF7020226358A000DD
:10162000CE8429A0EFF07FC1930400008325C40B72
:101630004A85EF70C05F83AB018CAA89DE85EF70AD
:101640002029634A050083AB41864E85DE85EF7015
:10165000C01E6353A000DE89CE852685EF60B036BC
:1016600083A4018CAA89A685EF708026634A0500B1
:1016700083A441864E85A685EF70201C6353A0008D
:10168000A6898325040C4E85EF70605AAA85528680
:10169000138501B53124AA840355C408EFF03FBD7A
:1016A00083A58184EF70A05883A58184EF70C02B3F
:1016B000B7070C2083A5073EEF60F030A685EF60EA
:1016C00090308347440CAA8485CF0325040BEF3068
:1016D00050652A8B0325440BEF30B064AA855A85E8
:1016E000EF70802883AB01892A8BDE85EF70401E66
:1016F000635305005E8B2685DA85EF605062AA840D
:101700002320240F2322340F930500002685EF7039
:10171000201CE34505D603A941862685CA85EF70BE
:10172000C011E35FA0D4CA84A1BB8347A410E3899E
:1017300007E60355C40803294410EFF0BFA683A5AC
:10174000C184EF70C04E95BDEFF03FAF8327C40B4F
:101750000355C4082320F40E930700002322F40E3F
:10176000EFF0FFB0AA8429BB8280EFE2DFF8930597
:1017700000002A84EF70C015634C050083A44186E5
:101780002285A685EF70600B6356A000268419A001
:101790001304000083A541892285EF70E01CEF70DF
:1017A00070061305853E334505086FE01FF78280FC
:1017B0006304060CEFE29FF2328499C1AA8409E91E
:1017C0009307803E1EA03EA05EA07EA06FE05FF467
:1017D000032A050283A5418D4845EF70E0182A8948
:1017E00083A5418D8848EF70201883A5818DAA8933
:1017F000C848EF706017AA84CE855285EF60B01C90
:10180000CA85AA8AEF60301CA685EF704042B13FBE
:101810000AA0CA855685EF708041A685EF60B01A90
:10182000A937CE852AA05285EF706040CA85AA8963
:10183000EF70E03FA685EF70803F053F4AA0CA8564
:101840004E85EF605018A685EF60F017393F6AA00B
:10185000930500005285EF60507EE359A0F6130710
:1018600084009306C0491E200904B3F7D70A231F3A
:10187000F4FEE31AE4FE99BF828001CD14C59306FD
:1018800000000CC150C154C514C958C91CCD58CD55
:101890001CD1828009C5930700005CC51CC98280E9
:1018A000EFE2DFE39304000055C12A842E893285DC
:1018B00093050000B289EF70A00193040000635704
:1018C000A0084C404A85EF70200ACE85EF70C00911
:1018D0004C44EF60500F4448832A84012A8AA6852D
:1018E000EF60107F634A0500D6855285EF60F07483
:1018F000D6846343A000D2840C4844C44A85EF7068
:101900000033CE85EF60B0410C40AA892328240122
:101910004A85EF706005A685EF60F00A0C44AA8442
:101920004E85EF706004AA852685EF60D009444C8F
:101930002A89A685EF60D079634A050004504A855C
:10194000A685EF60906F6343A000CA8426856FE090
:101950003FDC8280054582806F0010519377F50F40
:10196000138507FD1375F50F25476365A70013154C
:10197000456082801387F7FB1377F70F954663E77F
:10198000E600938797FC1395476082801387F7F9E9
:101990001377F70F7D55E3EAE6FE938797FAE5B7ED
:1019A000630D050EEFE23FD2AA8A4111AE890145CF
:1019B000BDC103A4818283A4C18283A7018303A83C
:1019C00041833289014C014B814B814D014A3EC01C
:1019D00042C2A28C268D33878A0103070700137643
:1019E000F70F930656FDF59AB3E6860193F6F60FC8
:1019F00095E6130737FD133B1700050C1377FC0F13
:101A0000E36B37FD09C963040B00939DFD69232037
:101A100079012322B90141016FE0BFCE9307E002B3
:101A20006316F700631D0A06054AC1BF130606FDCB
:101A30001376F60FA54763E4C706130507FD1315D4
:101A40004560EF60206C63080A022286A686EF508C
:101A5000B0232A86AE865E85EE85EF401044AA8BC1
:101A6000AE8D2285A6856686EA86EF50F0212A840F
:101A7000AE84528559B7024692462EC62AC4EE85D8
:101A80005E85EF507020A24832474686BA86EF4006
:101A9000D040AA8BAE8D05458DB7014582800145AA
:101AA0009DBFEFE2DFC2411111E6014422854101F1
:101AB0006FE07FC58547E39AF6FE328A3000BA842C
:101AC000EFF01FEE2A8475D12249B24901468146C2
:101AD0004A85CE85EF50900FE34905FC03A681832C
:101AE00083A6C1834A85CE85EF50802BEF60205CB2
:101AF00033450508EF60006803A6818383A6C18390
:101B00002A8CAE8BEF5050182A86AE864A85CE8539
:101B1000EF501068014681462A8BAE8AEF50100BB9
:101B2000E34505F803A9018483A941845A854A86BF
:101B3000CE86D685EF50A07DE35905F64A86CE863F
:101B40005A85D685EF50C025DE866286EF40F03498
:101B500088C0CCC083070A001307300593F6B7FF8F
:101B60006396E6009395F569CCC089B71307E00446
:101B7000E38EE7F29387B7FB13B4170005BFAA867D
:101B80000145A9C2B1C1014781472548A9481303AE
:101B9000F00F3385E60003050500130505FD137EF0
:101BA000F50F6362C803B3871703AA97B3C7070883
:101BB000636BF30005071375F70FE36CB5FC1CA20C
:101BC00005458280828001458280038701BE93079C
:101BD00040022A88631BF702938711BE0147938650
:101BE00011BE9308C0021303A0020385070063001F
:101BF0001503630A65001DE1631AE80094C1958F1F
:101C00001CA205458280E30BE8FE01458280E307C4
:101C1000E8FE05071377F70F938617008507F1B7DE
:101C2000EFE27FAD130680028145138501C6EFE028
:101C3000FFB023A0019AA38F0198238F0198A38E50
:101C4000019805456FE07FADEFE2FFA75D71379426
:101C50000D202AC4EF00306B130784481C43AA846C
:101C600085071CC3014913048448930B4002138B5E
:101C700001BE854C054C1305D101EF1060760DC5F2
:101C80008346D101639B76071C4423007B01238F8D
:101C9000819985071CC4A38E8199230C940305099F
:101CA00093070010E319F9FC5C400145CA975CC03A
:101CB000A247A9C383C7F199138901C69DC383476E
:101CC000190285C383A7019A1307007DB387F440E7
:101CD0006379F7001C5823209900A30009028507A7
:101CE0001CD8224513068002938501C6EFE0BFA3EE
:101CF0000345190261616FE0DFA083C7D199C5D3A5
:101D0000B547E38EF6F8294783C7E1996399E62C36
:101D1000938601BEBE96238006005444A38E01988C
:101D2000138D01BE850654C4230CF40244D88147A8
:101D30001306F005B306FD008386060095EE93F7C3
:101D4000F70F038701BEA297A38C070293074002F7
:101D5000631AF700938D11BE81499306A002038791
:101D60000D0005E35C4885075CC815BFB305F400AA
:101D7000A38CD50285077DBFE39AC7FE9307F005C4
:101D8000C9B76307D728B3C7E90093F9F70F850DE3
:101D9000F9B723A0919A854DA38FB19912579387D4
:101DA00001C684C38306070013071004138D01C600
:101DB0006388E600A38007025C5485075CD4C5B540
:101DC00010102C100D45EFF05FE001E5A3000D02AF
:101DD0006DAC130611026C101145EFF01FDF7DD5BD
:101DE000130621020C181545EFF03FDE65D11306EE
:101DF00031024C181945EFF05FDD69D983461102B5
:101E000032568345010222553818EFF09FC95DDD37
:101E10008346310252568345210242559800EFF025
:101E20005FC84DD5F25762571306F1012326FD0016
:101E300096472324ED000647232AFD001C544C102E
:101E40001D4585072328ED00A300BD031CD4EFF03A
:101E5000DFD7E30605E48345F10191E59307000030
:101E6000232EFD002DBD1255B000EFF07FB3E30827
:101E700005E2B6452645EF70403483A5C18DEF607D
:101E8000B02E232EAD0021BD130770046397E70821
:101E900003074D006313F70803075D009307100461
:101EA000631DF70603076D009307C0026317F7066B
:101EB0001C501306E1014C10850719451CD0EFF0AA
:101EC000DFD06304051C8345E1011255130631027E
:101ED000EFF0FFCA630B051A23A0919A054713067A
:101EE000E1014C101D4523A091C6A38FE198EFF0AE
:101EF000DFCD138D01C601CD8345E1011255B00040
:101F0000EFF0FFC709C5834781042300FD02834723
:101F1000310281EBA3000D0245B51C4C85071CCC9A
:101F2000BDBB1306F1012C100945EFF01FCAE30FEA
:101F300005E810106C100D45EFF03FC9E30805E807
:101F4000130611020C181145EFF03FC8E30005E835
:101F5000130621024C181545EFF03FC7E30805E6CC
:101F60008346010232568345F10122553818EFF0BD
:101F70005FB3E30D05E48346210252568345110207
:101F800042559800EFF0FFB1E30205E4F2576257C3
:101F90001306E1012326FD0096472324ED000647A2
:101FA000232AFD008547A300FD021C544C10254543
:101FB00085072328ED001CD4EFF03FC1E30105CED7
:101FC0008345E1011255B000EFF09F9DE30905CC78
:101FD0002645B645EF70601E232CAD00C9B113072E
:101FE000E007637CF7001C48238F0198A38E0198BB
:101FF00085071CC8230C04025DB1138717001377F3
:10200000F70FDA97238FE19894A3230CE40241B9E8
:1020100003851D00EFF09F942A87E34505D40385CF
:102020002D003AC6EFF09F93E34E05D232479397C7
:1020300049601207598D13154560E315F5D28307E2
:102040003D0013072005E391E7E403074D009307E4
:10205000D004E314F7EC03075D0093073004E31E9C
:10206000F7EA03076D009307C002E318F7EA5C4C38
:102070001306F1014C10850709455CCCEFF0FFB465
:1020800009C58347F101E39607D05C5085075CD012
:1020900039B108418280EFE20FE6896741119387E9
:1020A000E7377C849D475C859C21C885A307010098
:1020B0005C869C3101479946DC86814730003A9620
:1020C00010220507B29793F7F70FE319D7FE280000
:1020D0009D455C87EF10A04C41016FE00FE4EFE2FB
:1020E0008FE103C781D0411149EBAA87138481D0C6
:1020F0002E8581E958409306301F3387E74063FF00
:10210000E60613068003938441CC8145138541CCB8
:102110005CC0EFE0AFE283A7018E6C001305000600
:102120009CDC83A7418EDCDCBCC09967938747F6B3
:102130007C86EFF05FF60945EF30C02CA5476C00B8
:10214000130510065C86EFF01FF50945EF30802B74
:1021500085446C00130500086486EFF0DFF3F16539
:1021600037A50A2013064006938505201305054E62
:1021700004A023260400EF70001B054541016FE019
:10218000CFD9EFE2CFD4938781D037A90A20B7A95E
:102190000A2023A0070023A2070023A4070023A6E8
:1021A00007008544138A81D08D4A1309C950938949
:1021B000495837AB0A20994BEF00F014014685458A
:1021C000EFF0FFF12A841DE58327CA00CA8663E584
:1021D000FA00B3C737219443A685154613054B5122
:1021E0008504EF7040146387740113054006EF30D7
:1021F0006021D9B722856FE00FD1EFE2CFCC01117A
:10220000AA848149EF0030106383041E83C781D004
:10221000AA8C138A81D089E705468145EFF03FEC0F
:1022200037940D201307042E1C4337AB0A20850773
:102230001CC393078B53A30F010081491304042E81
:102240003EC6138981C81305F101EF10C02A1DC9CC
:1022500083C7719A85091147B3C90908636EF71AD4
:102260003247B3C7E72098438347F101028713073A
:1022700030026392E7188947A383F19A9307000815
:10228000E393F9FC5C40BE99938741CC88232322D9
:102290003401CC43138941CCFD5719C1B387BC40ED
:1022A000834919001CDC03268900FD57638409005B
:1022B000B387CC40834A29005CDC0327C900FD5763
:1022C00063840A00B387EC4003480A003CC085479A
:1022D00023060407A306A40623073407A30754070D
:1022E00019C5B387BC4093B7F71593C7170093F789
:1022F000F70FA308F406854763880900B387CC402D
:1023000093B7F71593C7170093F7F70F2309F40650
:10231000854663880A003387EC4013379725934638
:10232000170093F6F60FA309D4068347140799C73D
:1023300083C7A19A81E73C5085073CD08347240797
:1023400099C783C7919A81E77C5085077CD08347E2
:10235000340799C783C7819A81E73C5485073CD4E9
:1023600083471407B337F0002385F19A8347240786
:10237000B337F000A384F19A83473407B337F000F2
:102380002384F19A6309082C6307052C6385092CC3
:102390003387BC409306E01563EFE62AB387CC4051
:1023A00063EBF62A2324940385472308F406314679
:1023B0009305890223A0940113854400EFE0AFB692
:1023C00031469305C90113850401EFE0CFB53146CD
:1023D000930509011385C401EFE0EFB493070000F2
:1023E00063840A00832789039CD4238634034E85A3
:1023F00005616FE00FB1938727F893B71700ADBD64
:102400002383F19AED1793F7F70F1307B00363785F
:10241000F7001C4485071CC4A383019A85B58D472A
:10242000A1BDA382F19A2382019A9147B1B583C5D8
:10243000419A03CD619A93861500138681C81307CC
:10244000CDFF93F6F60F2E961377F70F2382D19ACE
:102450001CA2E3E5E6E203CC519A0146B3078D01E5
:10246000938717FA6D1D93F7F70F137DFD0F937583
:10247000F60F63EAA5034A970347F7FF6319F71CB2
:10248000EF006068930760022A8B6304FC1463E426
:1024900087030546630ACC1891476303FC085C4830
:1024A00085075CC895BFB305C9008C210506AE97AA
:1024B00093F7F70F6DBF93072003E312FCFEBD47B0
:1024C00063F3A707138581C8138D41CCEFF07FBC60
:1024D000232AAD021385C1C8EFF0BFBB232CAD0288
:1024E000138501C9EFF0FFBA232EAD02138541C950
:1024F000EFF03FBA85472301FD005C5814502320BC
:10250000AD0423266D01850614D081CBB307FB40B3
:102510007CC4344C63F3F6003CCC232A6403EDBD49
:10252000AD4763E6A7011C4885071CC8F5B50395B0
:1025300081C8EF60103283A5818E138D41CCEF608E
:10254000A0422328AD0003152900EF60903083A539
:10255000818EEF606041232AAD0003154900EF60D2
:10256000502F83A5818EEF602040232CAD000315F2
:102570006900EF60102E83A5C18EEF60E03E232E30
:10258000AD0003158900EF60D02C83A5C18EEF60EC
:10259000A03D2320AD020315A900EF60902B83A579
:1025A000C18EEF60603C5C54144C05462322AD02A2
:1025B000850623226D012300CD0014CC81CBB30707
:1025C000FB407CC0344863F3F6003CC82326640318
:1025D000A1B5AD47E3F9A7F5138581C8EFF07FAB4F
:1025E000138D41CC2324AD021385C1C8EFF07FAA1F
:1025F0002326AD02138501C9EFF0BFA98547A300CB
:10260000FD001C58544C2328AD0223246D0185067F
:1026100054CC81CBB307FB403CC4744863F3F60051
:102620007CC823286403CDBB8947E3FEA7EF83C79B
:1026300081C8A300FA00834719002301FA008347E9
:102640002900A301FA005C5085075CD0F1B35C441B
:1026500085075CC4D1B323249403230804067C4C6F
:10266000814985077CCCA1B3EFE2EF882A846129F8
:1026700039C8AA8603C581D0938741CCBC23138770
:1026800041CC1DCD89EF14C083A7418E01455CC0AC
:102690001CC483A7018E5CC49307000031A85C476B
:1026A00014C0B387F64013B597255C5F5CC03C430C
:1026B0001CC41C5F5CC45C5B1CC848A86FE0EF8551
:1026C00014C0F9D3DDB70145D5BFEFE2CF821306C1
:1026D00080048145138581D1EFE04F86EF00102201
:1026E00005456FE08F83EFD29FFE01112A892129D2
:1026F0006300090C37940D201307443F1C43416AC3
:102700008507AA891CC3814B1304443F938481D15C
:10271000054C7D4B930C00027D1A1305F101EF006F
:1027200090551DCD8347F101A30AF402034794039A
:102730007D8B2297230DF702034794030507137738
:10274000F70FA30CE40203C7040225EB6389970982
:102750005C5085075CD0850B93070008E39FFBFA6C
:102760005C40DE975CC063950B005C5485075CD4CD
:1027700003CA44049307490063120A145848930695
:10278000C05D050758C8232039011307890196A3A6
:102790008907E31EF7FEB707DC051387C75D93873C
:1027A000873E232EF900C167232CE9002320F9027C
:1027B000014A528505616FD01FF5631E8703130719
:1027C00000046383E7021848050718C86397970752
:1027D0002380940123808403230A8403ADBF2380D4
:1027E000840323809401CDBF09472380E4029CB079
:1027F000230AE4028DB79306170093F6F60F269787
:102800002380D4021CA3230AD402E376DBF498309D
:10281000FC3C83C681D1230BE402A30BF402230CFE
:1028200004026396960193060004630DD7005C5082
:1028300085075CD01C4885071CC823800402230A36
:10284000040211BF814652877946B385D4008C219A
:1028500085060D8F33470708E399C6FEF42CA207BF
:10286000D58F6386E7001C5485071CD4E1B7268703
:1028700081461308007D1305803EB9453C33302363
:102880000907A207D18F33D6070B3376A60A12B3F6
:10289000138686023326862085063EA6E390B6FE82
:1028A00023830404A3820404B92C85472382F404FF
:1028B0001C44A8C085071CC408D841B73EC6A12443
:1028C000B8409306A00FB247198DE3E9A6EA23208A
:1028D000E900A68601472945AE3213068703332651
:1028E00086208EA36EA6050789068907E316A7FE34
:1028F00083274900232CF90083278900232EF90020
:102900008357090193B7076493C717002300F9029F
:1029100083C76404A300F90283C754042301F902A6
:1029200081C7A301090269B58547A301F9021C50BB
:1029300085071CD0BDBDEFD21FDC797113060002E4
:102940008145080802C202C402C6EFD03FDF8545B8
:1029500013054020EF1070010145EF1050068D4522
:102960001145EF104064371501408D474C001305A9
:102970000580372401407C8202C6EF1040351305E4
:102980000440EF108027B7070E00130504403ECE29
:102990000C0885472302F10202C802CA02CC02D009
:1029A00002D402D6EF106029130504408545EF10CC
:1029B000202E13050440E164EF10802E9384146AE6
:1029C000130404402285EF10402E11C9FD14FDF8B8
:1029D000B7970D209387073E9843050798C3B72400
:1029E0000140138504406164EF10A02C1304146AA5
:1029F000938404402685EF10002D11C97D147DF8C5
:102A0000B7970D209387073E9843050798C3456104
:102A10006FD0BFD0EFD23FCE894509C937150140ED
:102A2000130505C0EF1020396FD03FCF3715014097
:102A3000130505C0EF106038C5BFEFD23FCA379409
:102A40000D204111130404728949F16402C202C4C9
:102A500002C623203401EF108004EF209018138564
:102A60000420EF20D01C0D49854521452320240159
:102A7000EF10A06F371501404C00C147130505C08A
:102A80003EC6231231014AC4EF1060240145EFF025
:102A90007FF8992A13850420EF0060760965A9471D
:102AA000130505581CC0412113850420EF0040592F
:102AB000EFF07FE837A60A20B7A50A2037A50A203D
:102AC000130646599385C5591305455BEF60B0055C
:102AD00083A5419C37A60A2037A50A201306065C69
:102AE0001305855DEF60300437A50A201306200327
:102AF0009305803E1305855FEF60F002CD471CC053
:102B000041016FD0FFC003A5C19A828083A7C19AFB
:102B1000850723A6F19AB7970D20938707729847E8
:102B2000050798C78280EFD21FBD37940D208D46D0
:102B30001304443563EDA6029307007D2E87B3D7B7
:102B4000F50A1306803EB3F5C70AB3278520DAA33A
:102B5000CEA78947630CF5046301D506854763005A
:102B6000F50437350140130505C0EF10B018B7372D
:102B7000014003D747C3938707C0334707085AA8C4
:102B80009A3F334707087AA8DA3F334707081AAC59
:102B900083D70704B3C707083EAC6FD01FB83735DB
:102BA0000140130505C0EF103015D1B7373501408E
:102BB000130505C0EF1090145DBF373501401305B4
:102BC00005C0EF10F01365B7EFD2FFB2AA8401443D
:102BD000114922850504A6851374F40FEFF0BFF4A4
:102BE000E31924FF6FD07FB3EFD25FAF0565797132
:102BF000854513055584B719014002CA02CC02CE9F
:102C000002D002D202D402D602C402C623180100A6
:102C1000EF10A055138509800546A145EF10201A35
:102C200037240140130504800546AD45EF102019F7
:102C3000130504800546B545EF10601805461305D9
:102C40000480B945EF10A0179307001061498D4427
:102C50004C0813850980FC824ACE26CCEF10200751
:102C60009D67938707804C0813050480FC824ACE39
:102C700026CCEF10C00583A7419C37470F001307F0
:102C80000724B3D7E702373401402C00130504C0F2
:102C900023150100FD177C8495679387F7E13EC6F5
:102CA000EF104053C167938707063ED00C1093077F
:102CB000803E130504C02313F10223140102EF1018
:102CC00020590C10130504C0EF10A05F0C10130561
:102CD00004C0EF10A0680C10130504C0EF10807141
:102CE000130504C0A145EF10607C130504C0A14585
:102CF000EF10A07C130504C0A145EF10607D130503
:102D000004C0A145EF10A07D130504C08545EF1058
:102D10004078130504C08545EF10407685451305BE
:102D200004C0EF1020741305803EEFF0FFE9456109
:102D30006FD01F9EEFD23F9CB7970D2093874735EA
:102D40009843AA840144050798C31149B3279420E6
:102D50008E231375F40F0504EFF0FFDCE31824FF56
:102D60006FD0BF9BEFD23F994111B14702C42EC033
:102D70008A852A847C8502C202C6EF10C078854508
:102D80002285EF10500341016FD03F99EFD2BF96DB
:102D9000B74400401304104093840440930500029C
:102DA0002685EF10B00709C57D14334404081DE0E3
:102DB00037440040A14513050440EF10300619CDFB
:102DC000374500408357054013050540EF10900438
:102DD0006FD0BF942685EF10F003C9B79145130556
:102DE0000440EF10B00369FD894513050440EF105E
:102DF000F00279F5854513050440EF10300269F1C2
:102E0000C1BFEFD25F8FB7540040130410109384FA
:102E10000480930500022685EF10500009C57D143B
:102E2000334404081DE037540040A14513050480D5
:102E3000EF10C07E19CD375500408357058013052C
:102E40000580EF10207D6FD05F8D2685EF10807C90
:102E5000C9B7914513050480EF10407C69FD894591
:102E600013050480EF10807B79F5854513050480F8
:102E7000EF10C07A69F1C1BFEFD2FF87B7540040AD
:102E800013041020938404C0930500022685EF10DC
:102E9000E07809C57D14334404081DE03754004030
:102EA000A145130504C0EF10607719CD37550040D8
:102EB000835705C0130505C0EF10C0756FD0FF859F
:102EC0002685EF102075C9B79145130504C0EF1092
:102ED000E07469FD8945130504C0EF10207479F58D
:102EE0008545130504C0EF10607369F1C1BFEFD2CF
:102EF0009F806164AA841304146A930500082685E0
:102F0000EF10C07119C1054529A87D147DF4B7974C
:102F10000D209387475203A747110145050723AAB0
:102F2000E7106FD08FFFEFD20FFD2390019C41116E
:102F3000AA84239F019A854537050200238E019AB2
:102F400002C202C402C6EF10002485451305100218
:102F5000EF10A02137140140130504401D4695458C
:102F6000EF00F0651D46130504409945EF003065FC
:102F7000930700027C82E1473EC64C008D47130553
:102F800004403EC4EF00B054930700047C824C0020
:102F900093078004130504403EC637440040EF0009
:102FA0001053A68513050440EFF0DFDBB7E700E020
:102FB0000547A386E7624157A386E742096723A234
:102FC000E7180F100000014623A2E728930550528E
:102FD00013050440EF10605FEFF05FDB41016FD03D
:102FE000CFF3EFD24FF1B7970D2093874752D857C1
:102FF0000507D8D783C7C19B85E737450040014601
:103000009305505213050540EF10205CEFF01FD8D8
:10301000B7E700E0096723A2E7288547238EF19AE6
:103020003745004005469305505213050540EF1003
:10303000C059B7E700E0096723A2E7106FD0EFEDB2
:10304000EFD26FEB239D019A4111AA84239C019A30
:10305000854537050400238B019A02C202C402C6CB
:10306000EF10601285452545EF1020103714014000
:10307000130504C01D46A945EF0070541D461305F5
:1030800004C0AD45EF00B053930700407C82E14798
:103090003EC64C008D47130504C03EC4EF003043CC
:1030A0009317B0287C824C0093078004130504C05A
:1030B0003EC637540040EF009041A68513050480BA
:1030C000EFF05FCAB7E700E00547238AE76441579E
:1030D000238AE7443707100023A4E7180F100000E5
:1030E000014623A4E7289305505213050480EF10EE
:1030F000C04DEFF01FD141016FD02FE2EFD2AFDF13
:10310000B7970D209387475203A74708050723A2C7
:10311000E70883C7619B8DE737550040014693055B
:10312000505213050580EF10404AEFF09FCDB7E7EE
:1031300000E03707100023A4E7288547238BF19A86
:103140003755004005469305505213050580EF1092
:10315000C047B7E700E03707100023A4E7106FD09F
:10316000CFDBEFD24FD937150140130505C0EF0073
:103170001044B7970D2093874752239EA70803D783
:10318000C709B7060140938707081357B748F8AF38
:10319000984A31833D8BF8BF9842B756004098D388
:1031A0001387068083D60680B3C6060894C75627C1
:1031B000B3C60608D4C7162BB3C6060894CB562B45
:1031C000B3C60608D4CB1A273347070898CF37E78A
:1031D00000E0144793D64649D4D3145793D64649B2
:1031E00094D79306073094461307077093D6464941
:1031F000D4D718471357474998DB6FD00FD2EFD277
:10320000EFCD239A019A4111AA842399019A854509
:10321000370508002388019A02C202C402C6EF00E3
:103220009076854513051008EF003074372401406F
:10323000130504C0C145EF00103841498D494C00C9
:10324000130504C0231221014AC64EC4EF003028E2
:103250001D46130504C09145EF007036E1474C0050
:10326000130504C03EC6231221014EC4EF003026D0
:103270001D46130504C08D45EF007034A1477C82C4
:103280004C0093078004130504C03EC63754004029
:10329000EF00F023A685130504C0EFF0BFACB7E73D
:1032A00000E00547A38AE7644157A38AE74437074C
:1032B000200023A4E7180F100000014623A4E728EC
:1032C00093055052130504C0EF102030EFF0DFBA21
:1032D00041016FD0EFC3EFD20FC2B7970D20938794
:1032E000475203A7470E050723A2E70E83C7019B9A
:1032F0008DE737550040014693055052130505C030
:10330000EF10A02CEFF05FB7B7E700E03707200021
:1033100023A4E72885472388F19A375500400546BE
:1033200093055052130505C0EF10202AB7E700E0BF
:103330003707200023A4E7106FD02FBEEFD2AFBB1A
:1033400037250140130505C0EF007026B7970D2003
:1033500093874752239EA70E03D7C70FB706014096
:103360003756004013573748238FE70ED85631831E
:103370003D8BA38FE70E94421387071093870708AE
:1033800014C3930606C0035606C033460608B0D7DA
:10339000D22633460608F0D7922A33460608B0DB19
:1033A000D22A33460608F0DB9626B3C60608B4DFF9
:1033B000B7E700E0944793D6564954C3945793D641
:1033C000564914C79386073094469387077093D65F
:1033D000564954C79C4793D757491CCB6FD0EFB37E
:1033E00039C537E600E00328460089652322B61870
:1033F0003378B8000F10000003D3E19B83D6019C03
:10340000B7970D20938747526315D302D44785069B
:10341000D4C703D7E19B33470708BABB03D7019C46
:1034200033470708DABB630408002322B6100145BE
:10343000828003D3E19B938601069A96942214A17D
:1034400083D6E19B850693F6F63F239FD19A944756
:10345000850694C703D7E19B33470708BABB03D758
:10346000019C33470708DABB6314080005458280D6
:103470002322B610E5BF0DCD37E700E01047B706B1
:1034800010002324D718758E01CE0F10000003D82A
:10349000819B03D6A19B631FC8022324D71009A8D0
:1034A0000F10000083D6819B03D7A19B6394E60095
:1034B0000145828083D6819B138701F636971823B6
:1034C00018A103D7819B05071377F70F239CE19A77
:1034D0000545828083D5819B138601F62E961022A6
:1034E00010A103D6819B05061376F60F239CC19A83
:1034F0002324D710F1BF2DC5B7E600E09C46370660
:10350000200023A4C618F18FA1C70F10000003D814
:10351000219B83D7419B6307F804854703D6219BF2
:10352000938601D6B296942214A183D6219B850658
:1035300093F6F61F2399D19A37970D201307475218
:103540008326C70B8506232ED70A85E3054582808F
:103550000F10000003D6219B83D6419BE310D6FCBD
:103560000145828023A4C610E5BFB7E700E0370716
:10357000200023A4E710D9BFEFD2EF9741113754B1
:1035800000402AC6130504C0EFF07F9611C5B2456E
:10359000130504C0EF10800741016FD00F9819CDBB
:1035A000EFD26F952A84B304B500631494006FD0F2
:1035B000CF9608200504EFF03FFCC5BF82800111C3
:1035C0003EC4B74700403AC603D70740B7970D201F
:1035D00036C89386475232CA90422ACE2ECC42C277
:1035E000050690C23347070898DE1376F70090D699
:1035F000937687009387475281C6D44B8506D4CBF8
:103600009376270081C6944F850694CF9376470022
:1036100081C6D44F8506D4CF9376170081C69453C4
:10362000850694D39376F70291EED8530507D8D345
:103630007245E2455246C2463247A24712480561EA
:1036400073002030B7460040137707029386064088
:1036500039CFCE2203D7019C83D6E19B334807089C
:1036600005071377F73F93F5F50F639CE600944B3E
:10367000850694CB83D6E19B850693F6F63F239F80
:10368000D19AD4438506D4C3938601062388B70212
:10369000C2968CA22390E19C03D7E19B3347070895
:1036A000BABB03D7019C33470708DABB51B7DE2208
:1036B00041B701113EC4B75700403AC603D707804F
:1036C000B7970D2036C89386475232CAF04E2ACE9D
:1036D0002ECC42C20506F0CE1386060833470708F3
:1036E00018C61376F700F0DE93768700938747526B
:1036F00081C6B4578506B4D79376270081C6F457A0
:103700008506F4D79376470081C6B45B8506B4DBA3
:103710009376170081C6F45B8506F4DB9376F70297
:1037200091EEB85F0507B8DF7245E2455246C246E2
:103730003247A2471248056173002030B756004057
:10374000137707029386068029C7D62203D7A19B49
:10375000B05393F6F60F334807080506B0D323801D
:10376000D70883D5819B05071377F70F639CE50086
:10377000EC538505ECD383D7819B850793F7F70F2F
:10378000239CF19A938701F6C29794A3239DE19A13
:1037900061BFDE2251BF01113EC4B75700403AC697
:1037A00003D707C0B7970D2036C893864752938634
:1037B000060832CAD05A2ACE2ECC0506D0DA3347B4
:1037C0000708B8D61376F700F0CE93768700938774
:1037D000475291C683A6870C850623A4D70C9376FF
:1037E000270091C683A6C70C850623A6D70C93761F
:1037F000470091C683A6070D850623A8D70C9376AC
:10380000170091C683A6470D850623AAD70C937689
:10381000F70299EE03A7870D050723ACE70C724565
:10382000E2455246C2463247A24705617300203046
:10383000B7560040938606C0D6221377070293F648
:10384000F60F2380D70E61DF03D7419B83A6870B3A
:1038500033450708850623ACD70A83D6219B050785
:103860001377F71F6399E60083D6219B850693F6AD
:10387000F61F2399D19A83C6070E938701D693F634
:10388000F60FAA9794A3239AE19A51BF1385014694
:103890008280EFC25FE637940D2013060011814548
:1038A00013040472F94793840146138501461CC032
:1038B000EFC0DFE8B707E8039387873E23A6F40E3F
:1038C00023A8F40EFD471CC0EFE0BF8B9307000256
:1038D0001CC0EFE02F88930710021CC0EFE04FB42C
:1038E000930720021CC0EFE05FDE93078002138580
:1038F00001511CC0EFD0EFFEEFD0BF9AEFD0CFFA4E
:10390000EFD0EFFDEFE0EF841305803EEFF0CFAB9B
:10391000930720031CC0EFD08FD6EF104001930710
:10392000C00348C41CC0EF10804F9307800C1CC01C
:1039300001A0EFC25FDC37940D20B7075EA58907B1
:103940001304046F1CC0EF00907E08CCEF00907E43
:1039500048CC1305803EEFF02FA789679387078037
:103960007390073001A0EFC21FD937940D20B7071D
:103970005EA51304046F8D071CC048C00CC4EF0083
:10398000107B08CCEF00107B48CC1305803EEFF095
:10399000AFA38967938707807390073001A0EFC2B8
:1039A000FFD386892E8AAA8AEF10B01CB7940D2007
:1039B000B7075EA51384046F85071CC02326540136
:1039C000232844015C482A899384046F85075CC8D6
:1039D000EF00F07508CCEF00F07548CC23203403DD
:1039E0002322240385476302F902EF10404C88D458
:1039F000EF10D017C8D41305803EEFF0EF9C896715
:103A0000938707807390073001A023A40402014527
:103A1000D5B7B7970D209387476D9843050798C38F
:103A20009307800873B007800F10000001A0B797BC
:103A30000D209387476DD8430507D8C373272034DB
:103A400098C773271034D8C77327303498CB73279F
:103A50000030D8CB0A8798CF9307800873B00780CF
:103A60000F10000001A0EFC21FC9B7E700E0370741
:103A7000200023A4E7180F10000037940D2023A482
:103A8000E7281304047285471CC0EFE01FFBD147F1
:103A90001CC0EFF01FE09307A00F1CC001A0B717D8
:103AA0000240D44398472146B18A6394C602B706C0
:103AB0000070758F37060050630BC7126360E60213
:103AC0001DC7B7479C1CB706004093870780630754
:103AD000D706B7877D01938707848DA037060060DE
:103AE0006308C70EB767730793870794CDB79047EE
:103AF000944798479305000A93F6060E218313779F
:103B0000F7037D8A0507639AB606B767CD1D9387CD
:103B1000075033D7E702B7070C2093870732B297D5
:103B20009C239146B387E7026309D6008566938696
:103B30000654B3D6C600858A91C2858323A4F19C1E
:103B400037160240544237070C2013070731918281
:103B5000BD8A36971823B7060C209386463EB3D706
:103B6000E700584241830D8B3697182333D7E7007F
:103B700023A6E19C23A2F19C82809305000E639210
:103B8000B602D45BB7070C2093870730C182B69783
:103B90009C23B7867D0193860684B387D7028583ED
:103BA0008DBF930700086397F600B7479C1C938767
:103BB000078085B79307000C6397F600B767730714
:103BC00093870794B9B7B7877D019387078491B727
:103BD000D85BB7070C20938707304183BA979C23A3
:103BE00037877D0113070784B387E702B9B7B76743
:103BF000CD1D9387075099B701A0EFC2DFAFB7275C
:103C0000014093870740631CF5008545130500209C
:103C1000492B81451305002069236FC01FB0B737BA
:103C2000014093870780E31AF5FE854513050040A0
:103C30008D2B814513050040C5B75841B707F1E00A
:103C40009387F7EF944D7D8F9C41D58FD44DD58FC1
:103C5000D441A206D58FD98F5CC11845B7F7F1FFC3
:103C60009387D77FD4457D8F9C49D58F9445860611
:103C7000D58FD98F1CC55855B70710FFFD177D8FFD
:103C8000DC29FD1793F7F70FD207D98F5CD5828017
:103C90001C4589C593E717001CC58280F99BEDBFC1
:103CA0001C4593E787001CC582800845135535489D
:103CB00082805C4537070038D98F5CC51C4593E787
:103CC00047001CC5828008451355254882809C45C5
:103CD00003D8050013F7070193F8F7001DCB584DE3
:103CE00093E8180081468D4E414E3316D028337329
:103CF000C800631C66001393160033966E0033777A
:103D0000C740D04133166600518F8506E39FC6FD3C
:103D100058CD1377F80F1DCF184181461303800249
:103D20003D4E930E8004A1453316D028337FC80042
:103D3000631EE6016395670650C913962600331F7C
:103D4000CE003396C8003377E741518F8506E39D57
:103D5000B6FC18C11307F00F637207055441014602
:103D6000130E8002930E800421431307860033173D
:103D7000E028B375E800631FB7006396C70358C90E
:103D800013172600BD45B395E5003397E800B3F659
:103D9000B640D98E0506E31A66FC54C18280E39EC4
:103DA000D7F910C959BFE39DD7FD18C9D1BF084540
:103DB0003345050882800CC982804CC98280371740
:103DC00001409D479306078063F8B702938785FFFC
:103DD00093F7F70F631AD506B70601408C468A079A
:103DE0003D473317F70033F7E54098C69846B317B9
:103DF000F600D98F9CC682806308D502930707C05E
:103E0000630AF508631CE51637070140544B8A0521
:103E1000BD47B397B700B3F7F6405CCB5C4BB31527
:103E2000B600DD8D4CCB82803707014054438A05B4
:103E3000BD47B397B700B3F7F6405CC35C43B31517
:103E4000B600DD8D4CC38280930607C06304D502A3
:103E50006312E510B70601408C4E8A073D473317C1
:103E6000F70033F7E54098CE984EB317F600D98F98
:103E70009CCE8280B70601408C4A8A073D473317A3
:103E8000F70033F7E54098CA984AB317F600D98F80
:103E90009CCA82803707014054478A05BD47B397C3
:103EA000B700B3F7F6405CC75C47B315B600DD8DCD
:103EB0004CC782803727014013070780AE876318FD
:103EC000E5043707014054538A05BD47B397B7004F
:103ED000B3F7F6405CD35C53B315B600DD8D4CD31D
:103EE000828037270140130707806312E502B70677
:103EF00001408C568A073D473317F70033F7E540FA
:103F000098D69856B317F600D98F9CD6828037275B
:103F10000140130707C06317E5088A073D473317B9
:103F2000F7003316F6009D471347F7FF63FBB70012
:103F3000B7070140945B758F98DB985B518F98DBD6
:103F40008280B7070140D457758FD8D7D857518F83
:103F5000D8D7828013070740E315E5F8B70601407C
:103F60008C528A073D473317F70033F7E54098D264
:103F70009852B317F600D98F9CD28280130707405E
:103F8000E31AE5F237070140544F8A05BD47B3975E
:103F9000B700B3F7F6405CCF5C4FB315B600DD8DCC
:103FA0004CCF82808280B7160240DC4241771307F3
:103FB000F77FBA05F98FDD8D2E054D8DC8C2828041
:103FC000B7170240D44398472146B18A6394C6028A
:103FD000B7060070758F37060050630EC714636014
:103FE000E6021DC7B7479C1CB706004093870780B1
:103FF0006307D706B7877D01938707848DA03706AF
:104000000060630BC710B767730793870794CDB73A
:104010009047944798479305000A93F6060E21832C
:104020001377F7037D8A0507639DB608B767CD1D33
:104030009387075033D7E702B7070C2093870736DB
:10404000B2979C239146B387E7026309D600856641
:1040500093860654B3D6C600858A91C285831CC157
:1040600037160240544237070C2013070735918258
:10407000BD8A3697182393864181B3D7E70058420B
:10408000416641830D8B36971823B7F600E033D78E
:10409000E70058C183A606D1F18E91E2BA871CC50C
:1040A000371602405C4263DD07085C4237479C1CC0
:1040B00013070780AD83FD8B95073357F70258C56B
:1040C00082809305000E6392B602D45BB7070C2082
:1040D00093870734C182B6979C23B7867D01938668
:1040E0000684B387D7028583B1B793070008639727
:1040F000F600B7479C1C938707802DBF9307000CE1
:104100006397F600B76773079387079425B7B78758
:104110007D019387078439BFD85BB7070C2093874D
:1041200007344183BA979C2337877D01130707849F
:10413000B387E70225B7B767CD1D9387075005B74B
:104140005442B7070C209387C73EAD829D8AB6972D
:104150008C235C42B7060C209386863EB9838D8BF8
:10416000B6979C233357B70089BF99C537170240CC
:104170005C4FC98F5CCF8280B7170240D84F337530
:10418000A740C8CF828099C5371702401C53C98FFA
:104190001CD38280B717024098533375A74088D349
:1041A000828099C5371702401C4BC98F1CCB828077
:1041B000B7170240984B3375A74088CB8280B7175A
:1041C0000240D8437E051317F749D8C3D843598D09
:1041D000C8C38280B7370140138607C0D6219A2111
:1041E000630DC502938707406309F502B7070040D6
:1041F0006305F502938707406301F502B717004096
:1042000013860780630BC500938707C06307F5001B
:1042100056B51AB585475EA982801E21B221B3C763
:10422000070893F7F7F8D18FF22193F7F7CFD18FE3
:104230001EA156B5B73701401AB5138707C06306EC
:10424000E50093870740E317F5FC9C251EB9D9B715
:104250001E31922103D82500B3C70708F99BB3C7C5
:1042600007081EB11E3156211A2DB3C70708F59B4A
:10427000334707081377C7F8518F9225B3C606084E
:1042800033660601D18F37360140130806C0630636
:104290000501130606406310C502B225DD9B03D855
:1042A000E500D18FD221ED9B93F6F6CFD18FD225A9
:1042B00033660601D18E56A11AADFA215AB91EB144
:1042C00082801E31E5769386F6CFB3C70708BD9B83
:1042D000B3C707081EB11E3152211A2D03D885001D
:1042E000B3C70708758F962193F7F7FD3346060885
:1042F000A206558FB62133470708B3E6060192069A
:10430000D58FB7360140138806C0B3C707086306C8
:10431000050193860640631DD502B62593F7F7F78E
:1043200003D8C5009206D58FD621B3C7070893F7E7
:10433000F7FB9206D58FFD769386F63FF18EF22538
:10434000B3C70708336606010A06D18E33C60608CE
:1043500052A11AADFA211ABD1EB182801E319621DA
:1043600003D88500B3C7070893F7F7EFB3C707086B
:104370001EB11E3152215A2DB3C7070893F7F7DF3C
:10438000334707081377C7F8558FB6213346060819
:10439000B3E60601A206D58FB7360140138806C0E2
:1043A000B3C707086306050193860640631ED5025E
:1043B000FD769386F67FF58FB62503D8C500A20655
:1043C000D58FD621B3C7070893F7F7BFA206D58FBD
:1043D000F576FD16F18EF225B3C7070833660601A0
:1043E0001206D18E33C6060852A15AADFA215ABD23
:1043F0001EB182801E317D777D17F98F1EB11A3173
:104400005E21562D65761306F6CFF18E922103D8E4
:104410008500B3C707082206D18E79767D16718F85
:10442000B221B3C60608336606013206518F37360D
:104430000140130806C03347070863060501130649
:104440000640631AC50071767D16F18FD2251A06D3
:10445000D18FB3C707085EA1FE2156AD2310F50426
:104460001AB182801E2189C593E717001EA18280A0
:10447000B3C70708F99BB3C70708CDBF83574504E7
:1044800091C59397F7282312F5048280C607C58348
:10449000DDBF1E2189C593E707081EA18280B3C72F
:1044A000070893F7F7F7B3C70708C5BF1E2DB3C7B3
:1044B0000708DD9BCD8F1EAD82801E2D7D771307F3
:1044C000F77FF98FA205CD8FB3C707081EAD828095
:1044D0005E2DB3C70708DD9BCD8F5EAD82805E2D5C
:1044E0007D771307F77FF98FA205CD8FB3C7070834
:1044F0005EAD82804EB982800EBD82804EBD8280CC
:104500002310B5048280EFC20F9F9E257D77BD6684
:104510007D8F41112A84AE84631BD7005A2DB18B45
:10452000334707084D9BD98F5EAD239405001A28A9
:10453000F577FD177D8FFE200A85D98F1EA85A2496
:104540008D679387379F7D8FDE20D98F9A24D98FEF
:10455000BA24D98F5EA45E28DA24B3C7070893F77C
:10456000F7CFD98F5EA8EFF0BFA592476545904081
:10457000B335F50281460A063305F502EF105058AF
:1045800093064006B357D5021306F063139747000E
:10459000B377D502920793872703637AF6009307D0
:1045A0000701B3C707081EA441016FC00F97B3D717
:1045B000D702D98FFDB75E2589C59397D7285EA509
:1045C000828079777D17F98FDDBF93F7F50F95839B
:1045D0000547B315B0286398E70031051C411DC29B
:1045E000CD8F1CC1828009476394E7004105FDB768
:1045F0000D476394E7005105D5B71147E390E7FEF7
:104600007105E9BFB3F5B7400CC1828093F5F51F82
:104610004EA182804A211375F51F82800A216D8D7B
:104620003335A0008280EFC28F8A1307F5FFB95798
:1046300063F9E700EF00F00683A7019E99EF81443C
:1046400091A09377F5009304050185E3EF007005D1
:1046500083A7019E85CB63DD0406EF00101CEFF0FD
:104660004FAD814A56856FC00F8A1387F7FEE3630B
:1046700097FC13050502B304F540EF00900283A7F1
:10468000019EA9E737170C20130707159376F7004B
:10469000E16799C69306F700C19ABA97958F368756
:1046A000BA979386419EC117C19B23A2060098C268
:1046B00023A2070023A00700B386E74023A0F19EB2
:1046C0001CC323ACD19C54C323AED19CE35790F8B8
:1046D00083A7C19DE3E397F89387419E8043371AF0
:1046E0000C20130A0A151389419E63684401B79789
:1046F0000D209387F71463FA870037A50A209305E6
:10470000600F1305C561EFF08FA9B79B0D2037AC83
:104710000A20938BFB145C4063F69700832A040005
:10472000639A0A0C83A7019EE38987F2832A090012
:10473000C10A63E84A01B7970D209387F71463FA1B
:10474000570137A50A20930560101305C561EFF0E6
:104750000FA51C402320F9005C4063FA970037A5A1
:104760000A209305E0101305C561EFF04FA35C40EC
:1047700013070002858F637AF702B309940093F759
:10478000F90089CB37A50A20930570111305C5617F
:10479000EFF0EFA05C40858F23A2F900832709008A
:1047A00044C023A0F9002320390183A7C19D5840AC
:1047B00003A6819D998F23AEF19C63F4C70023ACBF
:1047C000F19C1317F72958C083A7419D23200400AB
:1047D000850723AAF19CEF00500493F7FA00E383C6
:1047E00007E837A50A209305D0151305C561EFF03A
:1047F0000F9B8DBD63E44A0163F85B019305C00F15
:104800001305CC61EFF0AF992289568429B7630F65
:104810000510EFB2BFECB7190C20130905FF9389FF
:1048200009152A8463683901B7970D209387F71417
:1048300063FA270137A50A20930500171305C56100
:10484000EFF0EF95832744FF63CA070037A50A20DE
:10485000930510171305C561EFF06F94832704FFCC
:1048600089CB37A50A20930520171305C561EFF002
:104870000F93832744FF63D6070A032704FF55E3FA
:104880009397F749232AF4FEEF00A06183A6C19D08
:10489000832744FFB69723AEF19C1387419E9387ED
:1048A000419EBA841843E36E27FF6382F40263E8F3
:1048B0003401B7970D209387F71463FA970037A553
:1048C0000A20930560201305C561EFF04F8DD44099
:1048D000032744FF9C403386D400631AC9003697EF
:1048E000D8C0B386E4006397D702268929A0B3060F
:1048F000E900639AD70283A6019E6387F600D4433A
:104900009C4336972322E9002320F9006384240185
:1049100023A0240183A7019D850723A8F19CEF0014
:10492000C06F6FB0FFDE2328F4FECDB7828003A5F1
:10493000C19D828003A5819D8280B7E700E0415739
:104940002387E740A386E740B7F700E0938707088F
:1049500023A0070023A2070023A4070003A7419C6C
:104960008566938606FA3357D70298CB3D4798C39E
:1049700037970D20130707371443850614C3944B4C
:1049800014CB9C435CC78280EFB2FFD6411102C6B4
:10499000F32750303EC6B2470D478D8B638AE70040
:1049A00037A50A209305C00C13054564EFE03FFFCF
:1049B000B707102093870700BD8B89CB37A50A2046
:1049C0009305000D13054564EFE07FFDEFF0FFF662
:1049D000B7E700E0116723A0E710096723A0E710FD
:1049E00023AC0180EFB0DFAF014541016FB0FFD2D2
:1049F0005D7186C696C49AC29EC022DE2ADC2EDA7B
:104A000032D836D63AD43ED242D046CE72CC76CACE
:104A10007AC87EC6731101348967938707807390C3
:104A2000073037940D20130704375C4385075CC3B8
:104A3000B7F700E093870708D44354CB944714CFCB
:104A400023A2070085299307043709C9984791666F
:104A5000050798C737E700E02320D72073110134FA
:104A60009847D8CF89679387078873900730725427
:104A7000B640A642164386436255D2554256B256B8
:104A8000225792570258F248624ED24E424FB24FCE
:104A900061617300203089679387078073900730C6
:104AA00083A78181850723ACF1808280EFB2BFC4E8
:104AB00083A7818189EB37A50A209305601213052E
:104AC0004564EFE0DFED83A78181FD1723ACF18022
:104AD00091E7896793878788739007306FB0FFC32A
:104AE000930785007D575CC118C55CC51CC9232090
:104AF000050082802328050082809441FD5713071A
:104B00008500639DF6001C49D843D8C10CC79CC5DD
:104B1000CCC31C4188C985071CC18280BA87584311
:104B20001043E3FDC6FECDB7544118451C4998C655
:104B300054C3D4436393A600D8C3232805008843F5
:104B40007D1588C38280EFB27FB983A901A103AA32
:104B500001A283AAC1A1AA8483A741A203A541A25D
:104B60002E89A38807041105EFF01FFCFD57639001
:104B7000F404630E0902B7970D2093870715D843F5
:104B800083A641A2104798C683A641A2D0C683A699
:104B900041A2910654C283A641A2910614C703A75D
:104BA00041A25CCB9843050798C36FB07FB683A73B
:104BB00041A283A541A2CE94C4C3910563F63401FA
:104BC0005685EFF09FF3D5B75285EFF01FF303A79B
:104BD000419FE3FCE4FC23AA919EC1BF83A701A2ED
:104BE000944389E67D5723AAE19E828003A701A210
:104BF00058471843CDBFEFB27FAEB7940D209384D2
:104C0000441683A781A199E36FB09FB0EFF0BFE88E
:104C1000DC4403A9C70013054900EFF0FFF083A7A8
:104C200041A1FD1723AAF1A083A781A1FD1723AC01
:104C3000F1A0EFF0BFE703250903EFF05FBD4A8560
:104C4000EFF0FFBC7DBFEFB21FABEFF0DFFAF5BFB7
:104C5000EFB2FFA7131926002A8B4A85AE8AB68BBE
:104C6000BA843E8AEFF03F9C01E57D556FB0BFA945
:104C7000AA8913054005EFF01F9B2A84630B0516D4
:104C8000130640058145EFB07FAB4A8623283403E5
:104C90009305500A4E85EFB07FAA1C5871193E99B2
:104CA000137909FF63820A028147C1463387FA00FC
:104CB000030707003306F400230AE60201C785074D
:104CC000E396D7FEA3010404B94763FB970037A519
:104CD0000A209305D0781305C566EFE05FCCB94490
:104CE000930A4400568544D464C0EFF0BFE0130536
:104CF0008401EFF03FE0BD47858F00C81CCC40D059
:104D00005E86DA854A85EFB0BF8D08C063040A006D
:104D100023208A00EFF03FD803A741A137990D2047
:104D2000050723AAE1A003A741A29304491B631628
:104D3000070C23A281A203A741A185476312F706AE
:104D40001309491B138AC4124A855109EFF05FD930
:104D5000E31C2AFF379A0D2013050A1AEFF05FD8DB
:104D600037990D201305C918EFF09FD737950D20FF
:104D700013058517EFF0DFD637950D20130545167F
:104D8000EFF01FD637950D2013050515EFF05FD511
:104D9000130A0A1A23A041A31309C91823AE21A19B
:104DA00083A7819F850723ACF19E5C5483A6C1A095
:104DB00063F4F60023A6F1A05147B387E702A69754
:104DC000D843144718C454C423A2560123245701BE
:104DD00098435CC8050798C3EFF05FCD83A781A017
:104DE00099C783A741A2D8575C546364F70205456D
:104DF000B5BD4E85EFF0BFA18DBD03A781A05C546A
:104E000045F303A741A25857E3ECE7F823A281A298
:104E100041BFB7E700E0116723A0E720C9BFEFB2A9
:104E20009F8D4111B7A70A200A8702C002C202C49F
:104E300002C693870768BA8583860700050785073A
:104E4000A30FD7FEF5FA37550A209387019F014734
:104E500013060010130565B6EFF09FDF8547630F5B
:104E6000F500FD57631AF502856537A50A2093857D
:104E700065ED1305C566EFE09FB239A88967938792
:104E80000780739007307D5723AAE19E23A4A1A039
:104E900023A801A0EFF05FAF83A7C18141016FB0EC
:104EA000DF8783A7C19E850723A6F19E828003A585
:104EB00001A18280EFB23F8483A7C19E4111639319
:104EC000071403A401A1050423A881A00DEC83A766
:104ED00001A29C4391CB856537A50A209385552A6D
:104EE0001305C566EFE0BFAB03A701A283A6C1A16E
:104EF00023A0D1A223AEE1A083A7C19F850723AE43
:104F0000F19EEFF0BFCD83A7419F37970D20130788
:104F1000471B0145637BF40283A741A2D146DC57BE
:104F2000B387D7023E971843854763F3E7000545EB
:104F300083A741A089E72AC6EFD05FBD324583A78A
:104F400001A0F1EB41016FB04FFDD14F65A083A7E8
:104F500001A2DC47DC47D4436375D40023AAD19E69
:104F600065BF03A88700D047D44B9388470023240C
:104F7000C8002322060103A8460063131801D0C20B
:104F8000904223AA07007D1690C2945785C603A8B5
:104F9000C701905303AF46002324C8002322060113
:104FA0001388870163130F01D0C2904223A4070224
:104FB0007D1690C2D05783A6C1A063F4C60023A675
:104FC000C1A0B306F603BA9603A84600032F8800D3
:104FD00023A4070123A6E70123221F01232418018C
:104FE000D4CB9C4285079CC283A741A2DC5763F3C4
:104FF000C700054583A701A29C43B1FBFD5723AA27
:10500000F19E19BF83A741A0850723A2F1A0EFD08D
:10501000FFAF014505BF054535B7EFB22FEC411194
:10502000EFF07FA783A7C19E91EB856537A50A2086
:10503000938545FD1305C566EFE07F9683A7C19E66
:10504000FD1723A6F19E83A7C19E89CB01452AC6E1
:10505000EFF0DFA5324541016FB08FEB83A741A18F
:10506000F5D7B7960D20B7950D2081479386861703
:105070009385451B5143054F49A0DC46DC479857B3
:10508000C84F90530328470010C548C213858701B5
:105090006313A80050C3104323A407027D1610C356
:1050A0008847D047D84B1388470010C548C24843AB
:1050B0006313050150C310437D1610C3D05703A7D7
:1050C000C1A06374C70023A6C1A0330766022E9750
:1050D00048438328850088C723A6170123A2080117
:1050E000232405010843D8CB050508C303A741A223
:1050F00058576374C70023A0E1A198423DFF99C3AC
:10510000EFF0DFAD03A441A019C88549EFF09FDAA5
:1051100019C123A031A17D1475F823A201A083A792
:1051200001A0E38507F283A741A21167B7E700E07A
:1051300023A0E720054521BFEFB2EFDBAA842E8430
:1051400011E9856537A50A20938595951305C566F0
:10515000EFE0FF8411E8856537A50A209385A595C2
:105160001305C566EFE0BF83EFF0BFD303A901A12C
:1051700003A7C19E8547630BF700856537A50A2005
:10518000938525961305C566EFE07F81984033052A
:105190008700B336E5006372E90299C26360A90231
:1051A00088C00144EFF07FE711E5B7E700E0116741
:1051B00023A0E72022856FB04FD6EDD288C081456D
:1051C00033052541EFF03F980544E9BF19E5B7E7FE
:1051D00000E0116723A0E7208280EFB2CFD12A84BC
:1051E000EFF03FCC03A7C19E8547630BF7008565B1
:1051F00037A50A209385859B1305C566EFE02FFA36
:1052000081452285EFF03F94EFF03FE111E5B7E7EC
:1052100000E0116723A0E7206FB02FD0EFB20FCCD2
:1052200003A9C19E63070900054723A0E1A06FB051
:105230002FCE23A001A083A741A283A641A203A74A
:1052400041A29C5B9442185B6372D702904337A7DC
:10525000A5A51307575A631BE600D4436398C600FD
:1052600098476315D700DC47638AE70083A541A20E
:1052700003A541A293854503EFE0EFEEB7970D201C
:1052800013870737145393870737850614D383A6EC
:10529000C1A054D383A6C19E54D783A641A274D77C
:1052A00083A641A27D5781C603A741A25857B79450
:1052B0000D2098D73D461387441B9384441B0C4311
:1052C0009306C900B3C6F62005098CC25107E3183E
:1052D000C9FE03A9C1A0056AD14A130A3A4437ABF3
:1052E0000A20B30759033387F40014439DC654437F
:1052F000A107A697D44254C36394F6005C475CC3ED
:10530000D147B307F902BE94DC40DC4723A2F1A2E7
:1053100023A621A183A741A219BF63170900D28543
:105320001305CB66EFE0AFE77D1965BFEFB2AFBC09
:105330002A8419ED03A441A201EC896537A50A204E
:105340009385A5931305C566EFE06FE51C580290A1
:10535000145801459307500A3387A60018236305A4
:10536000F70009816FB06FBB0505FDB703A541A22A
:10537000828083A781A0054591C703A5C19E1335EF
:1053800015000605828093070540135735003E97A8
:10539000B7F700E093870708D443F59AD4C323A452
:1053A000070088CB914694C3944393E6160094C3B8
:1053B000B7F600E093870608DC43898B89EB9307F7
:1053C000F7FF11EF938781A29843050798C3B7F7BA
:1053D00000E0938707089843799B98C382803E87B3
:1053E000D1BF83A7C19C37470F0013070724B3D74A
:1053F000E702239AF1A21307803EB387E70223A8AE
:10540000F1A28280EFB22FAF03A401A3AA84EFF030
:105410005FF685476307F5002685EFF03FDB6FB049
:10542000CFAF3305940265DDEFF0FFF5CDBFEFB2EE
:105430008FAC01112A848545254502C202C402C6EB
:1054400002C802CA02CC02CEEFE03FD28545130566
:105450000010EFE05FD3B71401402D46138504C060
:105460009145EFE0DF95C1477C828D473EC44C00FB
:10547000E147138504C03EC6EFE07F85B70708000B
:105480000C08372500403ECC22C802CA231E01006A
:10549000EFF06F87854537250040EFF0CF9105612C
:1054A0006FB0AFA7EFB28FA32E8932848144374A01
:1054B0000F0063D0840493091A249305000837254C
:1054C0000040EFF0AF9509CDB30799008385070041
:1054D000372500408504B3C50508EFF02F93D1BFF1
:1054E000FD19E39C09FC938781A2D8432684050714
:1054F000D8C322856FB0CFA1AA8703A501823797B1
:105500000D2013070773AA9763EBE70037F70F2007
:10551000130707006365F70023A0F18282807D55A1
:105520008280B717493F938787FD1317F54963E5D5
:10553000E700930500006DAE011106CEB707807F2E
:105540006368F700AA85EF30806EF24005618280C3
:105550002C001528937735000547B245224563880E
:10556000E7000947638BE70099EB5926F9BF054629
:10557000EF00302E1315F569C9BF9D2EE5BF054616
:10558000EF00302DD9B73971B717493F22DC4AD81F
:105590005AD006DE26DA4ED652D456D25ECE62CC31
:1055A000938787FD2A8B2E841319F54963E8270119
:1055B00008C093070000DCC1814485A0B7D716401E
:1055C000938737BEB70900802A8C63E12711938443
:1055D00009FFE98C97B5010083A5C5FD6353A008B9
:1055E000EF30E064B717C93F938707FD2A896383CB
:1055F000F40497B5010083A525FCEF304063AA852C
:10560000AA844A85EF30A06297B5010083A5C5FA48
:10561000EF30E06148C004C08544F2506254425902
:10562000B259225A925A025BF24B624C2685D254EE
:105630002161828097B5010083A545F8EF30205F96
:1056400097B5010083A5C5F72A89EF30405EAA858A
:10565000AA844A85EF30A05D97B5010083A545F681
:1056600045BFEF205036B717C93F938707FD2A89FA
:105670006387F40297B5010083A505F4EF20B034E9
:10568000AA85AA844A85EF30805A97B5010083A580
:10569000A5F2EF20503348C004C0FD54BDBF97B5FC
:1056A000010083A5A5F1EF20103297B5010083A575
:1056B00025F12A89EF203031AA85AA844A85EF3066
:1056C000005797B5010083A5A5EFE1B7B717494388
:1056D000938707F863E72717EF00302997B5010094
:1056E00083A545EE2A8AEF30202897B5010083A5CF
:1056F000E5E1EF20502DEF30100BAA84EF3070154C
:1057000097B5010083A505EBAA8BEF30E025AA85AC
:105710005285EF30C051AA8A97B5010083A5C5E92B
:105720005E85EF306024FD472A8AAA85568563C3CB
:1057300097029757000093876703B3C7F42083A7A6
:10574000C7FF938909F0B3F969016385F900EF3068
:10575000004E31A8EF30A04D935775011359794190
:1057600093F7F70FB307F94021476344F70008C0E8
:1057700085A097B5010083A565E45E85EF30C01E66
:105780002A8AAA855685EF30804AAA85AA89568535
:10579000EF30E049D285EF3080492A8A97B5010081
:1057A00083A505E25E85EF30201CD285EF302048CE
:1057B000AA852A8A4E85EF3080479357750193F763
:1057C000F70F3309F940E54763CA270308C0CE8ABB
:1057D000032904005685CA85EF306045D285EF3035
:1057E000004548C0E35B0CE21319F9691315F5692C
:1057F0002320240148C0B304904005B597B50100AB
:1058000083A585DC5E85EF3020162A89AA854E8522
:10581000EF30E041AA85AA8A4E85EF304041CA8523
:10582000EF30E0402A8997B5010083A525DA5E852F
:10583000EF308013CA85EF30803F2A8AAA855685CB
:1058400039B7B707807F6368F900AA85EF30203E3B
:1058500048C008C095B3935979419389A9F79397A4
:1058600079013309F9404A85EF30E073EF30607E0B
:10587000AA852AC24A85EF30803B97B5010083A5EF
:1058800025D5EF30600E2A89EF30E071EF30607C73
:10589000AA852AC4AA844A85EF30603997B50100E9
:1058A00083A505D3EF30400C930500002AC6EF20F6
:1058B000F0728D4609E9930500002685EF201072ED
:1058C000B336A000850697570000938727F2094753
:1058D0004E86A2854800912AAA84E3500CD41C402D
:1058E0009397F7691CC05C409397F7695CC021B738
:1058F000797126D24AD052CC06D622D44ECEB707E2
:1059000000322A892E8A9314F54963F6F400EF30A9
:10591000806963070510CA854A85EF30E00497B5B2
:10592000010083A5A5BE2A84EF30000497B50100CD
:1059300083A585CAAA892285EF30000397B50100A7
:1059400083A5C5C9EF203008A285EF30E00197B5E7
:10595000010083A5E5C8EF30802DA285EF30C0009F
:1059600097B5010083A505C8EF20F005A285EF20BB
:10597000B07F97B5010083A525C7EF30402BA285E6
:10598000EF20907E97B5010083A545C6EF20B003B8
:10599000A285EF20707DA285EF20107D2A84D2851C
:1059A0004A85EF20707CAA852285EF304028B7A772
:1059B000993E938797992A8463E59702AA854E8535
:1059C000EF30E026AA8517B501000325E5B5EF30D5
:1059D0000026B250225492540259F249624A45615B
:1059E0008280B707483F63E89702B70700FFB38597
:1059F000F40017B50100032525B32EC6EF30202390
:105A0000B245AA844E85EF308022A285EF30202255
:105A1000AA8526856DBF97B5010083A5A5BBD1BF1B
:105A200017B50100032545B06DB761713ECA9757A0
:105A300000009387E70FB347F7202324811A232C14
:105A4000411923286119232671192324811983AB55
:105A5000070023229119232EB1172326111A23227E
:105A6000911A2320211B232E3119232A5119232077
:105A7000A1192AC8F1572E8A328CB68C3A8B938D95
:105A8000F6FF01446347F6001304D6FFA1473344F1
:105A9000F402130D140093173D00B30AB4413EC63F
:105AA0003309FC40338DBB0193090108D684B387C9
:105AB0005441635FFD00E68A1812B3879A4163CFB1
:105AC000FB041C0193040000814933CDFA2081A01E
:105AD0001305000063C80400D247B3C7F42088430D
