:080000006F60803C000000006D
:100008001305400E9705FEFF9385C5DF1766FEFFB3
:100018001306860D63FAC5008322050023A0550048
:1000280011059105E3EAC5FE1765F4DF1305051F01
:100038009765FEFF9385450B1766FEFF1306C60AF4
:1000480063FAC5008322050023A055001105910518
:10005800E3EAC5FE1765F4DF1305451C97050000A4
:100068009385450A1386818763FAC50083220500B4
:1000780023A0550011059105E3EAC5FE1705000008
:100088001305C51D97950100938505976377B500FE
:10009800232005001105E36DB5FEB73237129382B0
:1000A800023E739002BC9D42739012BCB942739099
:1000B8004280A16293828288739002309702FEFF89
:1000C800938242D493E23200739052309722FEFF1B
:0C00D8009382C2C3739012347300203076
:1000E4000000000000000000B21E0A20CA1E0A2000
:1000F4000000000098200A2000000000000000001A
:1001040098200A2098200A20000000000000000027
:1001140098200A20902E0A2000030A2000000000E4
:1001240098200A2098200A2098200A2098200A2043
:1001340000000000000000000000000000000000BB
:1001440000000000000000000000000000000000AB
:1001540098200A20000000000000000000000000B9
:1001640098200A2098200A2098200A2098200A2003
:1001740098200A2098200A2098200A2098200A20F3
:1001840098200A2098200A2098200A2098200A20E3
:1001940098200A2098200A2098200A2098200A20D3
:1001A40098200A2098200A2098200A2098200A20C3
:1001B40098200A2098200A2098200A2098200A20B3
:1001C40098200A2098200A2098200A2098200A20A3
:1001D40098200A2098200A2098200A2098200A2093
:1001E40098200A2098200A2098200A2098200A2083
:1001F40098200A2098200A2098200A2098200A2073
:1002040098200A2098200A2098200A2098200A2062
:1002140098200A2098200A2098200A2098200A2052
:1002240098200A2098200A2098200A2098200A2042
:1002340098200A20001C0A2098200A2098200A20CE
:1002440098200A2098200A2098200A2098200A2022
:1002540098200A2098200A2098200A2098200A2012
:1002640098200A2098200A2098200A2098200A2002
:1002740098200A2098200A2098200A2098200A20F2
:1002840098200A2098200A2098200A2098200A20E2
:1002940098200A2098200A2098200A2098200A20D2
:1002A40098200A2098200A2098200A2098200A20C2
:1002B40098200A2098200A2098200A2098200A20B2
:1002C40098200A2098200A2098200A2098200A20A2
:1002D40098200A2098200A200000000098200A2074
:1002E40098200A20000000000000000098200A2046
:1002F400000000000000000098200A2098200A2036
:1003040098200A2098200A2098200A2098200A2061
:1003140098200A2098200A2098200A2098200A2051
:1003240098200A2098200A2098200A2098200A2041
:1003340098200A20000000000000000000000000D7
:1003440000000000000000000000000000000000A9
:100354000000000000000000000000000000000099
:100364000000000000000000000000000000000089
:100374000000000000000000000000000000000079
:100384000000000000000000000000000000000069
:100394000000000000000000000000000000000059
:1003A4000000000000000000000000000000000049
:1003B4000000000000000000000000000000000039
:1003C4000000000000000000000000000000000029
:1003D4000000000000000000000000000000000019
:1003E400130181F806C216C41AC61EC822CA26CC36
:1003F4002ACE2ED032D236D43AD63ED842DA46DC91
:100404004ADECEC0D2C2D6C4DAC6DEC8E2CAE6CC60
:10041400EACEEED0F2D2F6D4FAD6FED8F3220030E9
:1004240096DA83A2019F23A02200F32510342EC064
:100434009305000273A0458003A10187EF300036C5
:1004440003A3019F03210300824273901234D65206
:10045400739002309240A2423243C2435244E24477
:10046400724582551256A2563257C2575258E25814
:1004740072598649164AA64A364BC64B564CE64C28
:10048400764D865D165EA65E365FC65F13018107F4
:10049400730020301300000013000000130000005C
:1004A40013000000130000001300000013000000FC
:1004B40013000000130000001300000013000000EC
:1004C40013000000130000001300000013000000DC
:1004D40013000000130000001300000013000000CC
:1004E40083A20187938202E07390023403A1019FE7
:1004F400024182403243C2435244E244724582552F
:100504001256A2563257C2575258E2587259864967
:10051400164AA64A364BC64B564CE64C764D865D7B
:10052400165EA65E365FC65FD652A1027390023095
:10053400A24213018107828013000000130000000F
:10054400130000001300000013000000130000005B
:10055400130000001300000013000000130000004B
:10056400130000001300000013000000130000003B
:10057400130000001300000013000000130000002B
:10058400130000001300000013000000130000001B
:10059400130000001300000013000000130000000B
:1005A40013000000130000001300000013000000FB
:1005B40013000000130000001300000013000000EB
:1005C40013000000130000001300000013000000DB
:1005D40013000000130000001300000013000000CB
:1005E400F322003093F272FF130380781203B3E214
:1005F4006200711523205500130585FA10C12115D9
:100604002320050081426387020071152320050021
:10061400FD12D5BF71150CC18280000000000000DE
:1006240000000000000000000000000000000000C6
:1006340000000000000000000000000000000000B6
:1006440000000000000000000000000000000000A6
:100654000000000000000000000000000000000096
:100664000000000000000000000000000000000086
:100674000000000000000000000000000000000076
:100684000000000000000000000000000000000066
:100694000000000000000000000000000000000056
:1006A4000000000000000000000000000000000046
:1006B4000000000000000000000000000000000036
:1006C400000000000000397101436EC619A03971A1
:1006D40041536AC866CA62CC5ECE19A0397101530F
:1006E4005AD056D252D44ED64AD826DA22DC06DE66
:1006F40033016140828241114AC026C222C406C627
:100704008282B24D4101024D924C224CB24B4101C6
:10071400024B924A224AB24941010249924422447C
:10072400B240410182802A8309CA838305002300E1
:1007340073007D16050385056DFA82802A8311C630
:100744002300B3007D16050365FE8280EFF2BFFA35
:100754001307700623ACE19483A741950111014965
:1007640093E7470023AAF194EF20704C2ACE130597
:1007740020037128AA84EF1080682A84EF20304B6C
:100784002AC62285A1262285BD2E134919004A8531
:10079400EF00F054B24509455128A6856808EF20BA
:1007A400B071E9BFEFF29FF31307600623ACE19445
:1007B40083A74195411193E7270023AAF194EF20E1
:1007C40010472AC61305401F9920AA84EF102063FE
:1007D40083A981822A84130B0503930A0508130A4B
:1007E400850AEF20D044CE865A862A89A28556856A
:1007F4009926CE852285D52E5285EF00307ACA857A
:1008040005452D20A6856800EF20106BD9BFAA8767
:1008140019C9130780C105456369F7001385773E3D
:100824003355F50282801305803E82808D4763E351
:10083400A70AEFF25FEC2A84AE84EF20503F1387BF
:10084400C1A53347E4201C43B30595409314240009
:1008540085071CC31387C1A43347E42008C3138747
:10086400C1A33347E420144363F3B6000CC393F7E6
:10087400F707A9E389476305F4048D476307F40484
:100884008547630AF402B7070C2003A5074719C577
:10089400EF3000029387C1A2A69788C3EF2020619E
:1008A400B7070C2023AEA744EF20C060B7070C2085
:1008B40023ACA7449DB5B7070C2003A5C746C1BF09
:1008C400B7070C2003A58746D9B7B7070C2003A5A3
:1008D400474675BF8280EFF21FE2EF20405DB70705
:1008E4000C2023A0A7469387C1A1094798C3D8C366
:1008F400514798C713074006D8C7B7650A20B707FA
:100904000C2037150A209387074721478146130691
:100914000040938505E61305E597EF20700B1389D6
:10092400C1A62320A900EF2080589387C1A788C3BC
:100934000327090085471384C1A69384C1A7630ACA
:10094400F70037650A2093054006130585E6EF1086
:10095400E05CB7070C20B7650A2037050A209387A7
:10096400C7462547814613060040938545E813058D
:10097400456CEF20F00548C0EF206053C8C05840D4
:100984008547630AF70037650A2093058006130537
:1009940085E6EF10A058B7070C20B7650A20370585
:1009A4000A209387874619478146130600309385AA
:1009B400C5E81305C566EF20B00108C4EF20204F39
:1009C40088C418448547630AF70037650A209305ED
:1009D400C006130585E6EF106054B7070C20B76511
:1009E4000A2037150A20938747460D478146130688
:1009F4000030938585E913050594EF20607D48C494
:100A0400EF20E04AC8C458448547630AF7003765B5
:100A14000A2093050007130585E6EF102050F5B969
:100A2400EFF27FCD1307800623ACE19483A74195B1
:100A3400411193E7870023AAF194EF20501F2AC69F
:100A44002945F1332A84EF10803BEF20501EAA85FC
:100A54000D45E93BA2856800EF201046FDB7EFF293
:100A6400FFC71307500623ACE19483A741950111F6
:100A740093E7170023AAF194EF20701B2ACE1305E5
:100A8400401F7133AA84EF1080372A84130A0403A9
:100A9400EF00F07D9309840413090407EF20301953
:100AA4002AC6EF1020032285EF00B00152852521CC
:100AB4004E852D214A85EF003010B2450145BD33E6
:100AC400A6856808EF20503FD1BF82801DC98347A7
:100AD400C5020347450493C7170019E393E72700AA
:100AE4000347E50701C70347D50719C393E7470041
:100AF40093E78700232CF50A9947230A050A23283C
:100B0400F50A8280828001CD0327050B9147631883
:100B1400F7008347950681E78D472328F50A8280ED
:100B240011C9930700001CC15CC11CC55CC51CC96C
:100B3400231A0500828039CDB1CDEFF23FBAB284D9
:100B440039C283C9C5022A843689638509003146BE
:100B54009105D13EDC28230A340195CB84488329AE
:100B6400C4009305000044C44A85EF30D00E635D91
:100B7400A000CE852685EF30504DCA85EF30C06188
:100B8400854708C85CB869B613050000D5BFA30A39
:100B94000400D5BF8280EFF21FB683A5418383A7EB
:100BA400C18203A7018383A68182130600001385F3
:100BB40041AD992483A7C18203A7018383A68182BF
:100BC40083A5418313060000138501AB352483A755
:100BD400818303A7C18383A501849306000036861D
:100BE4001385C1A8112CBD220DBE63020512EFF2BC
:100BF4001FAE2A8403554507AE84130545A2EF4072
:100C0400200183A58184EF30205983A5C184EF306E
:100C14007017232CA4082A8903556407130545A2D9
:100C2400EF30107F83A58184EF30005783A5C18402
:100C3400EF305015232EA4080355A407130545A22D
:100C4400EF30107D83A58184EF30005583A5C182E8
:100C5400EF305013835784072320A40A1307803EE0
:100C640013050000637EF7001307F07C6362F7044A
:100C7400138587C1EF40C00583A50185EF30C051BE
:100C84008347440B2322A40A130A8409930A840A7F
:100C94009DE3138541ADB52A138501AB9D2A1385C8
:100CA400C1A8852A56868145528575206FF0BFA557
:100CB40003A54184F1B70C484A85832C4401EF30E5
:100CC400D038AA852686138541AD032C8401812A58
:100CD400AA890325C409E685EF303037AA8526861C
:100CE400138501AB2D2A2A890325040AE285EF30F6
:100CF400D035AA8526861385C1A815222320A40AE7
:100D0400232C3409232E24095686854571BF8280FD
:100D1400EFF27F9E930500002A84EF30207D634C20
:100D2400050083A441842285A685EF30C0726356F2
:100D3400A000268419A01304000083A54185228500
:100D4400EF305004EF30F0671305853E3345050856
:100D54006FF0BF9C828045C2EFF25F98328499C1E4
:100D6400AA8409E99307803E1EA03EA05EA07EA04F
:100D74006FF01F9A832AC50083A581850841EF304F
:100D840070002A8983A58185C840EF30A07F83A5A0
:100D9400C185AA898844EF30E07EAA84CE85568531
:100DA400EF30000ACA852A8AEF308009A685EF3021
:100DB400D029B93F0AA0CA855285EF301029A685EB
:100DC400EF300008B137CE852AA05685EF30F027E2
:100DD400CA85AA89EF307027A685EF3010270D3F0A
:100DE4004AA0CA854E85EF30A005A685EF304005A0
:100DF40005376AA0B5BF828001CD14C593060000F3
:100E04000CC150C154C514C958C91CCD58CD1CD1EE
:100E1400828009C5930700005CC51CC98280EFF27B
:100E2400FF8B9304000055C12A842E8932859305D3
:100E34000000B289EF30806B930400006357A00870
:100E44004C404A85EF300074CE85EF30A0734C449B
:100E5400EF20107F4448832A84012A8AA685EF3034
:100E6400E068634A0500D6855285EF30C05ED684BB
:100E74006343A000D2840C4844C44A85EF30F01C7C
:100E8400CE85EF3060310C40AA89232824014A859D
:100E9400EF30406FA685EF20B07A0C44AA844E85CB
:100EA400EF30406EAA852685EF209079444C2A893C
:100EB400A685EF30A063634A050004504A85A685E1
:100EC400EF3060596343A000CA8426856FF05F84C5
:100ED40082800545828041A105458280EFF2BF8171
:100EE40041112A8493041008FD14B3C4040891C466
:100EF4001305F100EF00D04B65F901451DC0EF006B
:100F0400606C9307000008C0232404002326040017
:100F140023280400232A04001CCC5CCC23100402E4
:100F2400054541016FF06FFF08418280EFF22FFA0F
:100F34004111376A0A20A307010093090008B70486
:100F44000C20130A0AEA370B0C20B70A0C2013846E
:100F540081AF1305F100EF00F04B1DC583C7744743
:100F640011476364F704B3C7472198439C870287FA
:100F740013073002639DE7008947A38BF446FD19EC
:100F8400B3C90908E39709FC41016FF0CFF79387D0
:100F940027F893B71700D5B7230BFB46ED1793F744
:100FA400F70F1307B0036375F700A38B0446C1BFA3
:100FB4008D47E1B737070C20A30AF746238A0A4670
:100FC400914765BF83C54A47834B6B47138681AFFF
:100FD400938615001387CBFF93F6F60F2E9613779F
:100FE400F70F238ADA461CA2E3EBE6F8B7070C20D6
:100FF40083CC57478146B3879B01938717FAED1B30
:1010040093F7F70F93FBFB0F13F6F60F636C760B56
:1010140022970347F7FFE31AF7F8EF00A05A930764
:1010240060022A8C638BFC0E63E6970B054D63808C
:10103400AC139147E39BFCF6AD47E3F877F70395D0
:1010440081AFEF30F03C83A50186938B41B3EF3041
:10105400605323A8AB0003152400EF30703B83A535
:101064000186EF30205223AAAB0003154400EF3071
:10107400303A83A50186EF30E05023ACAB00031572
:101084006400EF30F03883A54186EF30A04F23AEE3
:10109400AB0003158400EF30B03783A54186EF30F1
:1010A400604E23A0AB020315A400EF30703683A575
:1010B4004186EF30204D23A2AB0223A28B01238073
:1010C400AB01E5B53306D40010228506B29793F739
:1010D400F70F1DBF93072003E399FCECBD47E3F62C
:1010E40077ED138581AF938B41B33D3D23AAAB02CA
:1010F4001385C1AF153D23ACAB02138501B02D356B
:1011040023AEAB02138541B00535854723A0AB045C
:1011140023A68B012381FB0049BDAD47E3F777E9A3
:10112400138581AF938B41B3013523A4AB0213859F
:10113400C1AFDD3B23A6AB02138501B0F533854770
:1011440023A8AB0223A48B01A380FB00B9BD89476C
:10115400E3FD77E503C781AF938781B798B3183070
:10116400B8A33820B8B391B5EFF2EFD8896741112D
:101174009387E7377C849D475C859C21C885A307BA
:1011840001005C869C3101479946DC86814730002A
:101194003A9610220507B29793F7F70FE319D7FE93
:1011A40028009D455C87EF00D03141016FF0EFD6F8
:1011B400EFF26FD403C781B7411151E7AA871384B3
:1011C40081B72E8581E958409306301F3387E74065
:1011D40063FCE60613068003938441B381451385BB
:1011E40041B35CC0EFF08FD583A781866C001305F3
:1011F40000069CDC83A7C186DCDCBCC099679387AE
:1012040027F37C8695370945EF200078A5476C00C5
:10121400130510065C86893F0945EF20E076854476
:101224006C001305000864868137F16537650A2070
:101234001306200393850520130545EB04A02326FC
:101244000400EF307033054541016FF00FCDEFF22C
:101254000FC8938781B737690A20B7690A2023A08A
:10126400070023A2070023A4070023A60700854440
:10127400138A81B78D4A130909EE938949F4376BB0
:101284000A20994B8126014685451D372A841DE590
:101294008327CA00CA8663E5FA00B3C7372194439B
:1012A400A685154613058BEE8504EF30F02C638775
:1012B400740113054006EF20206DE9B722856FF015
:1012C4008FC4EFF2AFC12A898144ED2C630209086F
:1012D40003C781B7AA89138481B701E7054681450D
:1012E400C13DEFF0BFC41C20138441B381448DC3BE
:1012F4001C2099CF1C3089CF5C401307401FB38753
:10130400F9406367F7000444B384994093B4541FCD
:101314003146930584022320390113054900EFF077
:101324008FC031469305C40113050901EFF0AFBF27
:101334003146930504011305C901EFF0CFBE3820EF
:101344009307000011C31C5C2324F90223069902AD
:1013540026856FF0EFBBEFF20FBA2A84A52429C8C3
:10136400AA84EFF0BFBC83C781B7138741B301459B
:1013740081CB3C2391C75C47B387F44013B5571F17
:101384003C2304C081CF5C5F5CC03C431CC41C5F35
:101394005CC45C5B1CC848A86FF02FB883A7C186E7
:1013A4005CC01CC483A781865CC493070000DDB7BE
:1013B4000145DDB705458280EFF2EFB341112A8480
:1013C40093041008FD14B3C4040891C41305F10078
:1013D400EF00300165F901450DC0ED22B707DC05CA
:1013E4001387C75D9387873E1CC49307001008C00A
:1013F40058C05EA423070400054541016FF0EFB116
:10140400EFF26FAF7971130600028145080802C23A
:1014140002C402C6EFF08FB2854513054020EF10D9
:10142400C02C0145EF10A0318D451145EF10A00FE0
:10143400371501408D474C001305058037240140C2
:101444007C8202C6EF00B06013050440EF00F05246
:10145400B7070E00130504403ECE0C08854723024F
:10146400F10202C802CA02CC02D002D402D6EF00B2
:10147400D054130504408545EF00905913050440EA
:10148400E164EF00F0599384146A13040440228544
:10149400EF00B05911C9FD14FDF837070C2083275C
:1014A40087478507232CF746B7240140138504405A
:1014B4006164EF0010581304146A93840440268571
:1014C400EF00705811C97D147DF837070C2083276D
:1014D40087478507232CF74645616FF00FA4EFF289
:1014E4008FA1894509C937150140130505C0EF00CF
:1014F40090646FF08FA237150140130505C0EF000B
:10150400D063C5BFEFF28F9D41118949F16402C2D6
:1015140002C402C623AC3195EF007030EF20A04422
:1015240013850420EF20E0480D498545214523AC6F
:101534002195EF10801B371501404C00C14713055E
:1015440005C03EC6231231014AC4EF005050014584
:101554007937292A138504200D29A94713850420E6
:1015640023ACF194352661651305056A4D26493D82
:1015740037660A20B7650A2037650A20130646F540
:101584009385C5F5130545F7EF30007F83A5C19515
:1015940037660A2037650A20130606F8130585F90D
:1015A400EF30807D37650A20130600199305803ECD
:1015B400130585FBEF30407CCD4723ACF19441010A
:1015C4006FF00F95B7070C2003A5074882803707F3
:1015D4000C208327074885072320F74837070C206A
:1015E4008327C7478507232EF7468280EFF2AF9003
:1015F4009307007DB3D5F50A9307803EB3F5F50A4A
:1016040089476308F50263EAA70009ED373501400D
:10161400130505C0EF10004621A08D476302F502B3
:101624006FF0AF8F37350140130505C0EF10C0448C
:10163400C5BF37350140130505C0EF102044CDB7B1
:1016440037350140130505C0EF108043D1BFEFF2D9
:101654008F8AAA840144114922850504A68513743E
:10166400F40F6937E31A24FF6FF02F8BEFF2AF8882
:10167400856479711385148485453724014002CA31
:1016840002CC02CE02D002D202D402D602C402C6D6
:1016940023180100EF106005130504800546A545D5
:1016A400EF00F049130504800546AD45EF003049CD
:1016B400130504800546B545EF007048054613053B
:1016C4000480B945EF00B0479D67938707A0FC826B
:1016D400E1473ECE4C088D47130504803ECCEF0015
:1016E400103783A7C19537470F0013070724B3D7D3
:1016F400E702373401402C00130504C09384349C62
:1017040026C623150100FD177C84EF10A004C167D1
:10171400938707063ED00C109307803E130504C040
:101724002313F10223140102EF10800A0C10130595
:1017340004C0EF1000110C10130504C0EF10001AC0
:101744000C10130504C0EF10E022130504C0A145DA
:10175400EF10C02D130504C0A145EF10002E130592
:1017640004C0A145EF10C02E130504C0A145EF101D
:10177400002F130504C08545EF10A029130504C0EC
:101784008545EF10A0278545130504C0EF1080257B
:101794001305803E6D3D45616FE03FF8EFE2BFF514
:1017A400AA8401441149B32794208E231375F40F9E
:1017B4000504EFF0BFE3E31824FF6FE01FF6EFE248
:1017C4009FF34111B14702C42EC08A852A847C85C7
:1017D40002C202C6EF10202B85452285EF10A035EA
:1017E40041016FE09FF3EFE21FF1B754004013048F
:1017F4001020938404C0930500022685EF10003A5C
:1018040009C57D14334404081DE037540040A14544
:10181400130504C0EF10803819CD375500408357A5
:1018240005C0130505C0EF10E0366FE01FEF2685F5
:10183400EF104036C9B79145130504C0EF100036C8
:1018440069FD8945130504C0EF10403579F58545D8
:10185400130504C0EF10803469F1C1BFEFE2BFE9A2
:101864006164AA841304146A930500082685EF10A2
:10187400E03219C1054519A87D147DF437070C2001
:1018840083274748014585072322F7486FE0FFE88F
:10189400EFE27FE64111AA8485453705020002C2C2
:1018A40002C402C6EF003066854513051002EF003E
:1018B400D06337140140130504401D469545EF00DD
:1018C40010281D46130504409945EF00502793073F
:1018D40000027C82E1473EC64C008D47130504405C
:1018E4003EC4EF00D016930700047C824C0091475D
:1018F400130504403EC6EF00901537450040A68509
:1019040013050540EFF0BFEB41016FE01FE1EFE28B
:101914009FDE4111AA8485453705040002C202C432
:1019240002C6EF00505E85452545EF00105C371474
:101934000140130504C01D46A945EF0050201D4673
:10194400130504C0AD45EF00901F930700407C824F
:10195400E1473EC64C008D47130504C03EC4EF006A
:10196400100F9317B0287C824C009147130504C0D4
:101974003EC6EF00D00D37550040A68513050580FF
:10198400EFF0FFE341016FE05FD9EFE23FD5B70726
:101994000C202390074EB7070C204111AA84239FE3
:1019A400074C8545B7070C2037050800238E074CE4
:1019B40002C202C402C6EF00105585451305100883
:1019C400EF00B05237240140130504C0C145EF00B5
:1019D400901641498D494C00130504C0231221017E
:1019E4004AC64EC4EF00B0061D46130504C0914517
:1019F400EF00F014E1474C00130504C03EC6231267
:101A040021014EC4EF00B0041D46130504C08D45EA
:101A1400EF00F012A1477C824C0093078004130569
:101A240004C03EC637540040EF007002A68513057B
:101A340004C0EFF0DFD8B7E700E00547A38AE76406
:101A44004157A38AE7443707200023A4E7180F105F
:101A54000000014623A4E72893055052130504C04F
:101A6400EF10A00EEFF03FD841016FE07FCAEFE224
:101A74009FC837070C208327874837040C20850725
:101A84002324F7488347C44D8DE73755004001466A
:101A940093055052130505C0EF10200BEFF0BFD48F
:101AA400B7E700E03707200023A4E7288547230E83
:101AB400F44C37550040054693055052130505C0B4
:101AC400EF10A008B7E700E03707200023A4E710D1
:101AD4006FE0BFC4EFE23FC237250140130505C0E4
:101AE400EF00F004B7070C202399A74A83D7274BAC
:101AF40037070C20B7060C2093D73748230AF74A38
:101B0400370701405C57B183BD8B2388F64A1843DD
:101B1400B7070C20B7060C2023A6E74A3757004026
:101B2400930707C0035707C03347070823ACE64AA7
:101B3400DA27B7060C203347070823A4E64A9A2B72
:101B4400B7060C203347070823A2E64ADA2BB70668
:101B54000C203347070823A0E64A9E2737070C20AA
:101B6400B7060C20B3C70708232EF748B7E700E0F1
:101B740098471357574923ACE6489857B7060C20A3
:101B84001357574923AAE648138707301847B7065F
:101B94000C20938707701357574923A8E6489C479E
:101BA40037070C2093D757492326F7486FE0FFB631
:101BB40011E50145828001456FE03FB6EFE2BFB316
:101BC400B74400402A849305000213850440EF00C3
:101BD400F07C75D113850440EF00D07B08A0054547
:101BE400E1BF11E50145828001456FE01FB3EFE2DB
:101BF4009FB0B75400402A849305000213850480E3
:101C0400EF00D07975D113850480EF00B07808A077
:101C14000545E1BF29C137E700E01047B7062000BA
:101C24002324D718758EB7070C20B7050C2001CED6
:101C34000F10000003D8E74D03D6054E631FC802FA
:101C44002324D71009A80F10000083D6E74D03D72B
:101C5400054E6394E6000145828083D6E74D1387E1
:101C640081B83697182318A103D7E74D05071377D2
:101C7400F71F239FE74C0545828083D5E74D1386E4
:101C840081B82E96102210A103D6E74D05061376CF
:101C9400F61F239FC74C2324D710F1BFEFE2BFA543
:101CA4004111375400402AC6130504C0EFF01FBB8E
:101CB40011C5B245130504C0EF00506D41016FE03A
:101CC400DFA511CDEFE23FA32A84B304B50063146A
:101CD40094006FE09FA408200504C937CDBF82801B
:101CE400011136C83EC4B7060C20B757004083D74D
:101CF40007C03AC603A7864DB3C707082ACE05070F
:101D040023ACE64C37070C20232CF74A93F6F70054
:101D140037070C20232ED74A2ECC32CA13F787005C
:101D240001CBB7060C2003A7064D050723A8E64CF4
:101D340013F7270001CBB7060C2003A7C64C0507F1
:101D440023A6E64C13F7470001CBB7060C2003A7E4
:101D5400864C050723A4E64C13F7170001CBB706FE
:101D64000C2003A7464C050723A2E64C13F7F70201
:101D74000DE337070C208327074C85072320F74CF6
:101D84007245E2455246C2463247A2470561730096
:101D9400203037570040130707C05A23B7050C20DB
:101DA40093F707021377F70FA38AE54AF1DBB70627
:101DB4000C2037060C208357064E03A7464D33C527
:101DC4000708050723AAE64CB7060C2003D7E64DFF
:101DD400850793F7F71F6319F70003D7E64D050747
:101DE4001377F71F239FE64C83C6554B138781B89F
:101DF40093F6F60F2A9714A32310F64E51B71385C2
:101E040081D88280EFE23F8F1306000C8145F947A9
:101E1400938481D8138581D823ACF194EFE01F9289
:101E2400B707E8039387873E23A4F40A23A6F40A9A
:101E3400FD4723ACF194EFF08FC19307000223AC6C
:101E4400F194EFF00F899307100223ACF194EFF0B3
:101E5400AF889307200223ACF194EFF0AFD593073A
:101E64008002138581E023ACF194EFE07FCBEFE0B7
:101E74009FD2EFE09FC5EFE0FFC8EFF06F85130539
:101E8400803EEFF0CFFC9307200323ACF194EFE006
:101E94009FA4EF10C00123A2A1909307C00323AC19
:101EA400F194EF10C04F9307800C23ACF19401A080
:101EB400EFE27F84B7075EA5890723A8F190EF00BE
:101EC400107F23A4A192EF00F07E23A2A192130518
:101ED400803EEFF0CFF789679387078073900730D0
:101EE40001A0EFE25F81B7075EA58D0723A8F190FB
:101EF40023A6A19023A4B190EF00707B23A4A19208
:101F0400EF00507B23A2A1921305803EEFF02FF443
:101F14008967938707807390073001A0EFE20FFC75
:101F240086842E89AA89EF10101DB7075EA5850740
:101F340023A8F19023AA319323A8219383A7C192C4
:101F44002A84850723A6F192EF00707623A4A19238
:101F5400EF00507623A2A19223A0919223AE819008
:101F640085476304F402EF10804C23ACA190EF107A
:101F7400301823AAA1901305803EEFF04FED896736
:101F8400938707807390073001A023AC019001452B
:101F9400CDB783A70195850723A8F19493078008FB
:101FA40073B007800F10000001A083A7C1948507B8
:101FB40023A6F1947327203423A4E19473271034C7
:101FC40023A2E1947327303423A0E19473270030D3
:101FD40023AEE1920A8723ACE1929307800873B0A1
:101FE40007800F10000001A0EFE2EFF0B7E700E078
:101FF4003707200023A4E7180F10000023A4E728C4
:10200400854723ACF194EFF0EFCFD14723ACF194A3
:10201400EFF05FDF9307A00F23ACF19401A0B71793
:102024000240D44398472146B18A6394C602B70656
:102034000070758F37060050630BC7126360E602A9
:102044001DC7B7479C1CB7060040938707806307EA
:10205400D706B7877D01938707848DA03706006074
:102064006308C70EB767730793870794CDB7904784
:10207400944798479305000A93F6060E2183137735
:10208400F7037D8A0507639AB606B767CD1D938764
:10209400075033D7E702B7070C2093870732B2976C
:1020A4009C239146B387E7026309D600856693862D
:1020B4000654B3D6C600858A91C2858323A0F196BF
:1020C40037160240544237070C2013070731918218
:1020D400BD8A36971823B7060C209386063EB3D7DD
:1020E400E700584241830D8B3697182333D7E70016
:1020F40023A2E19623AEF19482809305000E6392AD
:10210400B602D45BB7070C2093870730C182B69719
:102114009C23B7867D0193860684B387D702858383
:102124008DBF930700086397F600B7479C1C9387FD
:10213400078085B79307000C6397F600B7677307AA
:1021440093870794B9B7B7877D019387078491B7BD
:10215400D85BB7070C20938707304183BA979C2339
:1021640037877D0113070784B387E702B9B7B767D9
:10217400CD1D9387075099B701A0EFE2CFD7B727BA
:10218400014093870740631CF50085451305002033
:10219400492B81451305002069236FE00FD8B73719
:1021A400014093870780E31AF5FE85451305004037
:1021B4008D2B814513050040C5B75841B707F1E0A1
:1021C4009387F7EF944D7D8F9C41D58FD44DD58F58
:1021D400D441A206D58FD98F5CC11845B7F7F1FF5A
:1021E4009387D77FD4457D8F9C49D58F94458606A8
:1021F400D58FD98F1CC55855B70710FFFD177D8F94
:10220400DC29FD1793F7F70FD207D98F5CD58280AD
:102214001C4589C593E717001CC58280F99BEDBF57
:102224001C4593E787001CC5828008451355354833
:1022340082805C4537070038D98F5CC51C4593E71D
:1022440047001CC5828008451355254882809C455B
:1022540003D8050013F7070193F8F7001DCB584D79
:1022640093E8180081468D4E414E3316D0283373BF
:10227400C800631C66001393160033966E00337710
:10228400C740D04133166600518F8506E39FC6FDD3
:1022940058CD1377F80F1DCF1841814613038002E0
:1022A4003D4E930E8004A1453316D028337FC800D9
:1022B400631EE6016395670650C913962600331F13
:1022C400CE003396C8003377E741518F8506E39DEE
:1022D400B6FC18C11307F00F637207055441014699
:1022E400130E8002930E80042143130786003317D4
:1022F400E028B375E800631FB7006396C70358C9A5
:1023040013172600BD45B395E5003397E800B3F6EF
:10231400B640D98E0506E31A66FC54C18280E39E5A
:10232400D7F910C959BFE39DD7FD18C9D1BF0845D6
:102334003345050882800CC982804CC982803717D6
:1023440001409D479306078063F8B702938785FF92
:1023540093F7F70F631AD506B70601408C468A0730
:102364003D473317F70033F7E54098C69846B3174F
:10237400F600D98F9CC682806308D502930707C0F4
:10238400630AF508631CE51637070140544B8A05B8
:10239400BD47B397B700B3F7F6405CCB5C4BB315BE
:1023A400B600DD8D4CCB82803707014054438A054B
:1023B400BD47B397B700B3F7F6405CC35C43B315AE
:1023C400B600DD8D4CC38280930607C06304D5023A
:1023D4006312E510B70601408C4E8A073D47331758
:1023E400F70033F7E54098CE984EB317F600D98F2F
:1023F4009CCE8280B70601408C4A8A073D4733173A
:10240400F70033F7E54098CA984AB317F600D98F16
:102414009CCA82803707014054478A05BD47B39759
:10242400B700B3F7F6405CC75C47B315B600DD8D63
:102434004CC782803727014013070780AE87631893
:10244400E5043707014054538A05BD47B397B700E5
:10245400B3F7F6405CD35C53B315B600DD8D4CD3B3
:10246400828037270140130707806312E502B7060D
:1024740001408C568A073D473317F70033F7E54090
:1024840098D69856B317F600D98F9CD682803727F2
:102494000140130707C06317E5088A073D47331750
:1024A400F7003316F6009D471347F7FF63FBB700A9
:1024B400B7070140945B758F98DB985B518F98DB6D
:1024C4008280B7070140D457758FD8D7D857518F1A
:1024D400D8D7828013070740E315E5F8B706014013
:1024E4008C528A073D473317F70033F7E54098D2FB
:1024F4009852B317F600D98F9CD2828013070740F5
:10250400E31AE5F237070140544F8A05BD47B397F4
:10251400B700B3F7F6405CCF5C4FB315B600DD8D62
:102524004CCF82808280B7160240DC424177130789
:10253400F77FBA05F98FDD8D2E054D8DC8C28280D7
:10254400B7170240D44398472146B18A6394C60220
:10255400B7060070758F37060050630EC7146360AA
:10256400E6021DC7B7479C1CB70600409387078047
:102574006307D706B7877D01938707848DA0370645
:102584000060630BC710B767730793870794CDB7D1
:102594009047944798479305000A93F6060E2183C3
:1025A4001377F7037D8A0507639DB608B767CD1DCA
:1025B4009387075033D7E702B7070C209387073672
:1025C400B2979C239146B387E7026309D6008566D8
:1025D40093860654B3D6C600858A91C285831CC1EE
:1025E40037160240544237070C20130707359182EF
:1025F400BD8A3697182393860181B3D7E7005842E2
:10260400416641830D8B36971823B7F600E033D724
:10261400E70058C183A606D1F18E91E2BA871CC5A2
:10262400371602405C4263DD07085C4237479C1C56
:1026340013070780AD83FD8B95073357F70258C501
:1026440082809305000E6392B602D45BB7070C2018
:1026540093870734C182B6979C23B7867D019386FE
:102664000684B387D7028583B1B7930700086397BD
:10267400F600B7479C1C938707802DBF9307000C77
:102684006397F600B76773079387079425B7B787EF
:102694007D019387078439BFD85BB7070C209387E4
:1026A40007344183BA979C2337877D011307078436
:1026B400B387E70225B7B767CD1D9387075005B7E2
:1026C4005442B7070C209387873EAD829D8AB69704
:1026D4008C235C42B7060C209386463EB9838D8BCF
:1026E400B6979C233357B70089BF99C53717024063
:1026F4005C4FC98F5CCF8280B7170240D84F3375C7
:10270400A740C8CF828099C5371702401C53C98F90
:102714001CD38280B717024098533375A74088D3DF
:10272400828099C5371702401C4BC98F1CCB82800D
:10273400B7170240984B3375A74088CB8280B717F0
:102744000240D8437E051317F749D8C3D843598D9F
:10275400C8C38280B7370140138607C0D6219A21A7
:10276400630DC502938707406309F502B70700406C
:102774006305F502938707406301F502B71700402C
:1027840013860780630BC500938707C06307F500B2
:1027940056B51AB585475EA982801E21B221B3C7FA
:1027A400070893F7F7F8D18FF22193F7F7CFD18F7A
:1027B4001EA156B5B73701401AB5138707C0630683
:1027C400E50093870740E317F5FC9C251EB9D9B7AC
:1027D4001E31922103D82500B3C70708F99BB3C75C
:1027E40007081EB11E3156211A2DB3C70708F59BE1
:1027F400334707081377C7F8518F9225B3C60608E5
:1028040033660601D18F37360140130806C06306CC
:102814000501130606406310C502B225DD9B03D8EB
:10282400E500D18FD221ED9B93F6F6CFD18FD2253F
:1028340033660601D18E56A11AADFA215AB91EB1DA
:1028440082801E31E5769386F6CFB3C70708BD9B19
:10285400B3C707081EB11E3152211A2D03D88500B3
:10286400B3C70708758F962193F7F7FD334606081B
:10287400A206558FB62133470708B3E60601920630
:10288400D58FB7360140138806C0B3C7070863065F
:10289400050193860640631DD502B62593F7F7F725
:1028A40003D8C5009206D58FD621B3C7070893F77E
:1028B400F7FB9206D58FFD769386F63FF18EF225CF
:1028C400B3C70708336606010A06D18E33C6060865
:1028D40052A11AADFA211ABD1EB182801E31962171
:1028E40003D88500B3C7070893F7F7EFB3C7070802
:1028F4001EB11E3152215A2DB3C7070893F7F7DFD3
:10290400334707081377C7F8558FB62133460608AF
:10291400B3E60601A206D58FB7360140138806C078
:10292400B3C707086306050193860640631ED502F4
:10293400FD769386F67FF58FB62503D8C500A206EB
:10294400D58FD621B3C7070893F7F7BFA206D58F53
:10295400F576FD16F18EF225B3C707083366060136
:102964001206D18E33C6060852A15AADFA215ABDB9
:102974001EB182801E317D777D17F98F1EB11A3109
:102984005E21562D65761306F6CFF18E922103D87B
:102994008500B3C707082206D18E79767D16718F1C
:1029A400B221B3C60608336606013206518F3736A4
:1029B4000140130806C033470708630605011306E0
:1029C4000640631AC50071767D16F18FD2251A066A
:1029D400D18FB3C707085EA1FE2156AD2310F504BD
:1029E4001AB182801E2189C593E717001EA1828037
:1029F400B3C70708F99BB3C70708CDBF835745047E
:102A040091C59397F7282312F5048280C607C583DE
:102A1400DDBF1E2189C593E707081EA18280B3C7C5
:102A2400070893F7F7F7B3C70708C5BF1E2DB3C749
:102A34000708DD9BCD8F1EAD82801E2D7D77130789
:102A4400F77FF98FA205CD8FB3C707081EAD82802B
:102A54005E2DB3C70708DD9BCD8F5EAD82805E2DF2
:102A64007D771307F77FF98FA205CD8FB3C70708CA
:102A74005EAD82804EB982800EBD82804EBD828062
:102A84002310B5048280EFD21FC79E257D77BD66D3
:102A94007D8F41112A84AE84631BD7005A2DB18BDC
:102AA400334707084D9BD98F5EAD239405001A2840
:102AB400F577FD177D8FFE200A85D98F1EA85A242D
:102AC4008D679387379F7D8FDE20D98F9A24D98F86
:102AD400BA24D98F5EA45E28DA24B3C7070893F713
:102AE400F7CFD98F5EA8EFF0BFA592476545904018
:102AF400B335F50281460A063305F502EF00B07AD4
:102B040093064006B357D5021306F06313974700A4
:102B1400B377D502920793872703637AF600930766
:102B24000701B3C707081EA441016FD01FBFB3D765
:102B3400D702D98FFDB75E2589C59397D7285EA59F
:102B4400828079777D17F98FDDBF93F7F50F958331
:102B54000547B315B0286398E70031051C411DC231
:102B6400CD8F1CC1828009476394E7004105FDB7FE
:102B74000D476394E7005105D5B71147E390E7FE8D
:102B84007105E9BFB3F5B7400CC1828093F5F51F19
:102B94004EA182804A211375F51F82800A216D8D12
:102BA4003335A0008280EFD29FB21307F5FFB957E7
:102BB40063F9E700EF00F00683A7819799EF81445A
:102BC40091A09377F5009304050185E3EF00700568
:102BD40083A7819785CB63DD0406EF00101CEFF01B
:102BE4002FAD814A56856FD01FB21387F7FEE3637A
:102BF40097FC13050502B304F540EF00900283A788
:102C04008197A9E737170C20130787A29376F7005B
:102C1400E16799C69306F700C19ABA97958F3687EC
:102C2400BA979386C197C117C19B23A2060098C285
:102C340023A2070023A00700B386E74023ACF19644
:102C44001CC323A8D19654C323AAD196E35790F862
:102C540083A74197E3E397F89387C1978043371A93
:102C64000C20130A8AA21389C19763684401B79799
:102C74000D20938777A263FA870037650A209305AE
:102C8400600F1305C5FDEFF06FA9B79B0D20376CDE
:102C94000A20938B7BA25C4063F69700832A04008E
:102CA400639A0A0C83A78197E38987F2832A090030
:102CB400C10A63E84A01B7970D20938777A263FAA4
:102CC400570137650A20930560101305C5FDEFF021
:102CD400EFA41C402320F9005C4063FA9700376599
:102CE4000A209305E0101305C5FDEFF02FA35C4007
:102CF40013070002858F637AF702B309940093F7F0
:102D0400F90089CB37650A20930570111305C5FDB9
:102D1400EFF0CFA05C40858F23A2F9008327090040
:102D240044C023A0F9002320390183A741975840C8
:102D340003A60197998F23AAF19663F4C70023A8E9
:102D4400F1961317F72958C083A7C19623200400CE
:102D5400850723A6F196EF00500493F7FA00E38366
:102D640007E837650A209305D0151305C5FDEFF074
:102D7400EF9A8DBD63E44A0163F85B019305C00FCC
:102D84001305CCFDEFF08F992289568429B7630F80
:102D94000510EFD2BF94B7190C20130905FF9389CE
:102DA40089A22A8463683901B7970D20938777A293
:102DB40063FA270137650A20930500171305C5FD3B
:102DC400EFF0CF95832744FF63CA070037650A20D5
:102DD400930510171305C5FDEFF04F94832704FFE7
:102DE40089CB37650A20930520171305C5FDEFF03D
:102DF400EF92832744FF63D6070A032704FF55E3B2
:102E04009397F749232AF4FEEF00A06183A6419724
:102E1400832744FFB69723AAF1961387C197938714
:102E2400C197BA841843E36E27FF6382F40263E810
:102E34003401B7970D20938777A263FA970037651B
:102E44000A20930560201305C5FDEFF02F8DD440B3
:102E5400032744FF9C403386D400631AC900369785
:102E6400D8C0B386E4006397D702268929A0B306A5
:102E7400E900639AD70283A681976387F600D44357
:102E84009C4336972322E9002320F900638424011C
:102E940023A0240183A78196850723A4F196EF003C
:102EA400C06F6FD0FF862328F4FECDB7828003A5C0
:102EB4004197828003A501978280B7E700E04157DC
:102EC4002387E740A386E740B7F700E09387070826
:102ED40023A0070023A2070023A4070003A7C1958A
:102EE4008566938606FA3357D70298CB3D4798C335
:102EF40003A7019A050723A0E19A944B23A8D1982C
:102F0400984323AAE1988280EFD2EFFE411102C6D2
:102F1400F32750303EC6B2470D478D8B638AE700D6
:102F240037650A209305400D13054500EFE01FFFA8
:102F3400B707102093870700BD8B89CB37650A201C
:102F44009305800D13054500EFE05FFDEFF0FFF6FC
:102F5400B7E700E0116723A0E710096723A0E71093
:102F640023AA0180EFD0CFD7014541016FD0EFFAFA
:102F7400397106DE16DC1ADA1ED82AD62ED432D2DD
:102F840036D03ACE3ECC42CA46C872C676C47AC25D
:102F94007EC073110134896793870780739007306B
:102FA40083A7C199850723AEF198B7F700E093870B
:102FB4000708D44323A6D198944723A4D19823A2E5
:102FC40007008D2919C903A781999166050723ACC8
:102FD400E19837E700E02320D7207311013403A7D9
:102FE400819923A2E19889679387078873900730B2
:102FF400F250E2525253C2533255A25512568256DF
:103004007247E2475248C248324EA24E124F824F94
:10301400216173002030896793870780739007309C
:1030240083A74181850723AAF1808280EFD2AFEC88
:1030340083A7418189EB37650A209305E0121305C4
:103044004500EFE0BFED83A74181FD1723AAF1807E
:1030540091E7896793878788739007306FD0EFEB88
:10306400930785007D575CC118C55CC51CC9232026
:10307400050082802328050082809441FD571307B0
:103084008500639DF6001C49D843D8C10CC79CC574
:10309400CCC31C4188C985071CC18280BA875843A8
:1030A4001043E3FDC6FECDB7544118451C4998C6EC
:1030B40054C3D4436393A600D8C32328050088438C
:1030C4007D1588C38280EFD26FE183A9C19D03AAD5
:1030D400C19E83AA819EAA8483A7019F03A5019F01
:1030E4002E89A38807041105EFF01FFCFD57639098
:1030F400F404630E0902B7970D20938747A6D843BB
:1031040083A6019F104798C683A6019FD0C683A6B5
:10311400019F910654C283A6019F910614C703A779
:10312400019F5CCB9843050798C36FD06FDE83A7DC
:10313400019F83A5019FCE94C4C3910563F6340116
:103144005685EFF09FF3D5B75285EFF01FF303A731
:10315400019CE3FCE4FC23A0919CC1BF83A7C19E16
:10316400944389E67D5723A0E19C828003A7C19EF6
:1031740058471843CDBFEFD26FD6B7940D20938430
:1031840084A783A7419E99E36FD08FD8EFF0BFE85F
:10319400DC4403A9C70013054900EFF0FFF083A73F
:1031A400019EFD1723A0F19E83A7419EFD1723A234
:1031B400F19EEFF0BFE703250903EFF05FBD4A85F9
:1031C400EFF0FFBC7DBFEFD20FD3EFF0DFFAF5BF16
:1031D400EFD2EFCF131926002A8B4A85AE8AB68B1D
:1031E400BA843E8AEFF03F9C01E57D556FD0AFD1A4
:1031F400AA8913054005EFF01F9B2A84630B05166B
:10320400130640058145EFD06FD34A862328340343
:103214009305500A4E85EFD06FD21C5871193E9910
:10322400137909FF63820A028147C1463387FA0092
:10323400030707003306F400230AE60201C78507E3
:10324400E396D7FEA3010404B94763FB97003765EF
:103254000A20930530791305C502EFE03FCCB94449
:10326400930A4400568544D464C0EFF0BFE01305CC
:103274008401EFF03FE0BD47858F00C81CCC40D0EF
:103284005E86DA854A85EFD0AFB508C063040A00CC
:1032940023208A00EFF03FD803A7019E37990D2021
:1032A400050723A0E19E03A7019F930489AC63163D
:1032B400070C23A8819E03A7019E85476312F70686
:1032C400130989AC138AC4124A855109EFF05FD9F6
:1032D400E31C2AFF379A0D2013054AABEFF05FD8A1
:1032E40037990D20130509AAEFF09FD737950D20C4
:1032F4001305C5A8EFF0DFD637950D20130585A774
:10330400EFF01FD637950D20130545A6EFF05FD5D6
:10331400130A4AAB23A6419F130909AA23A4219F98
:1033240083A7419C850723A2F19C5C5483A6819DBD
:1033340063F4F60023ACF19C5147B387E702A697E8
:10334400D843144718C454C423A256012324570154
:1033540098435CC8050798C3EFF05FCD83A7419DF0
:1033640099C783A7019FD8575C546364F702054546
:10337400B5BD4E85EFF0BFA18DBD03A7419D5C5443
:1033840045F303A7019F5857E3ECE7F823A8819E70
:1033940041BFB7E700E0116723A0E720C9BFEFD220
:1033A4008FB54111B7670A200A8702C002C202C45E
:1033B40002C693870704BA85838607000507850735
:1033C400A30FD7FEF5FA37350A209387C19B01472F
:1033D400130600101305650EEFF09FDF8547630F9A
:1033E400F500FD57631AF502856537650A20938554
:1033F400C5ED1305C502EFE07FB239A8896793874D
:103404000780739007307D5723A0E19C23AAA19CD9
:1034140023AE019CEFF05FAF83A7818141016FD0A0
:10342400CFAF83A7819B850723ACF19A828003A544
:10343400C19D8280EFD22FAC83A7819B41116393FE
:10344400071403A4C19D050423AE819C0DEC83A73E
:10345400C19E9C4391CB856537650A209385B52A27
:103464001305C502EFE09FAB03A7C19E83A6819E0F
:1034740023A6D19E23A4E19E83A7819C850723A430
:10348400F19CEFF0BFCD83A7019C37970D20130764
:1034940087AC0145637BF40283A7019FD146DC57C7
:1034A400B387D7023E971843854763F3E700054582
:1034B40083A7019D89E72AC6EFE06F91324583A770
:1034C400C19CF1EB41016FD04FA5D14F65A083A7FB
:1034D400C19EDC47DC47D4436375D40023A0D19C50
:1034E40065BF03A88700D047D44B938847002324A3
:1034F400C8002322060103A8460063131801D0C2A2
:10350400904223AA07007D1690C2945785C603A84B
:10351400C701905303AF46002324C80023220601A9
:103524001388870163130F01D0C2904223A40702BA
:103534007D1690C2D05783A6819D63F4C60023AC48
:10354400C19CB306F603BA9603A84600032F88006D
:1035540023A4070123A6E70123221F012324180122
:10356400D4CB9C4285079CC283A7019FDC5763F39D
:10357400C700054583A7C19E9C43B1FBFD5723A00B
:10358400F19C19BF83A7019D850723A8F19CEFE057
:103594000F84014505BF054535B7EFD22F9441117E
:1035A400EFF07FA783A7819B91EB856537650A20A0
:1035B4009385A5FD1305C502EFE05F9683A7819B64
:1035C400FD1723ACF19A83A7819B89CB01452AC6B9
:1035D400EFF0DFA5324541016FD08F9383A7019EA1
:1035E400F5D7B7960D20B7950D2081479386C6A8C9
:1035F400938585AC5143054F49A0DC46DC47985779
:10360400C84F90530328470010C548C2138587014B
:103614006313A80050C3104323A407027D1610C3EC
:103624008847D047D84B1388470010C548C2484341
:103634006313050150C310437D1610C3D05703A76D
:10364400819D6374C70023ACC19C330766022E9727
:1036540048438328850088C723A6170123A20801AD
:10366400232405010843D8CB050508C303A7019FFC
:1036740058576374C70023A6E19D98423DFF99C340
:10368400EFF0DFAD03A4019D19C88549EFF09FDA7F
:1036940019C123A6319D7D1475F823A8019C83A725
:1036A400C19CE38507F283A7019F1167B7E700E098
:1036B40023A0E720054521BFEFD2EF83AA842E84FF
:1036C40011E9856537650A209385F5951305C502CB
:1036D400EFE0DF8411E8856537650A209385059658
:1036E4001305C502EFE09F83EFF0BFD303A9C19D8B
:1036F40003A7819B8547630BF700856537650A201F
:10370400938585961305C502EFE05F8198403305E4
:103714008700B336E5006372E90299C26360A902C7
:1037240088C00144EFF07FE711E5B7E700E01167D7
:1037340023A0E72022856FC05FFEEDD288C08145BB
:1037440033052541EFF03F980544E9BF19E5B7E794
:1037540000E0116723A0E7208280EFC2DFF92A840A
:10376400EFF03FCC03A7819B8547630BF70085658A
:1037740037650A209385E59B1305C502EFE00FFA30
:1037840081452285EFF03F94EFF03FE111E5B7E783
:1037940000E0116723A0E7206FC03FF8EFC21FF4D9
:1037A40003A9819B63070900054723A6E19C6FC019
:1037B4003FF623A6019C83A7019F83A6019F03A72D
:1037C400019F9C5B9442185B6372D702904337A7B6
:1037D400A5A51307575A631BE600D4436398C60094
:1037E40098476315D700DC47638AE70083A5019FE8
:1037F40003A5019F93854503EFE0AFEE83A7419BAB
:10380400850723AAF19A03A7819D23A8E19A03A718
:10381400819B23A4E19A03A7019F23A2E19A03A712
:10382400019FFD5701C783A7019FDC5723A6F19A87
:10383400B7940D2037970D20938784AC130787A284
:10384400938484ACBD468C433346E92005090CC2FD
:10385400D107E31AD9FE03A9819D056AD14A130A47
:103864009A44376B0A20B30759033387F40014438F
:103874009DC65443A107A697D44254C36394F6004B
:103884005C475CC3D147B307F902BE94DC40DC4714
:1038940023A8F19E23AC219D83A7019F09BF631731
:1038A4000900D2851305CB02EFE04FE77D1965BF10
:1038B400EFC27FE42A8419ED03A4019F01EC89651A
:1038C40037650A20938505941305C502EFE00FE5DB
:1038D4001C580290145801459307500A3387A600D8
:1038E40018236305F70009816FC03FE30505FDB7A1
:1038F40003A5019F828083A7419D054591C703A528
:10390400819B1335150006058280930705401357E4
:1039140035003E97B7F700E093870708D443F59A3C
:10392400D4C323A4070088CB914694C3944393E65D
:10393400160094C3B7F600E093870608DC43898B2E
:1039440089EB9307F7FF11EF83A7819F850723ACCA
:10395400F19EB7F700E0938707089843799B98C3D3
:1039640082803E87D1BF83A7419637470F00130754
:103974000724B3D7E7022390F1A01307803EB3874F
:10398400E70223AEF19E8280EFC2FFD603A4C19F5B
:10399400AA84EFF05FF685476307F5002685EFF00C
:1039A400FFDA6FC09FD73305940265DDEFF0FFF5B2
:1039B400CDBFEFC25FD401112A848545254502C2DB
:1039C40002C402C602C802CA02CC02CEEFE0FFD192
:1039D400854513050010EFE01FD3B71401402D46B1
:1039E400138504C09145EFE09F95C1477C828D47C4
:1039F4003EC44C00E147138504C03EC6EFE03F855A
:103A0400B70708000C08372500403ECC22C802CA7C
:103A1400231E0100EFF02F87854537250040EFF086
:103A24008F9105616FC07FCFEFC25FCB2E89328447
:103A34008144374A0F0063D0840493091A24930500
:103A4400000837250040EFF06F9509CDB3079900C2
:103A540083850700372500408504B3C50508EFF0CA
:103A6400EF92D1BFFD19E39C09FC83A7419F2684F3
:103A7400850723AAF19E22856FC09FC9AA8703A543
:103A8400C18137970D20130747BFAA9763EBE7005F
:103A940037F70F20130707006365F70023AEF180A3
:103AA40082807D5582803288AA882E87CDEA63FF82
:103AB400C50EC167636AF618B7070001B337F6008D
:103AC400B307F040E19BE1073353F600972600006B
:103AD400938646709A96942213030002B697B3060F
:103AE400F340630BF3003397D500B357F500331855
:103AF400D6005D8FB318D500135608013355C7029D
:103B0400B346080893D708013377C702B385A602E2
:103B14004207D98F63FAB700C2971307F5FF63E42E
:103B2400070163E8B7303A858D8F33D7C702B3C82E
:103B34000808B3F7C702B386E602C207B3E8F80081
:103B440063FBD800C2989307F7FF63E50801791770
:103B540063E3D8003E874205598D8145828063F531
:103B6400D500814501458280C16763E5F618B70732
:103B74000001B3B7F600B307F040E19BE10733D887
:103B8400F600172700001307E764429718239308E9
:103B940000023E973388E8406392E81863EDB62646
:103BA4003335C500134515008145828045C6C1677C
:103BB400637BF62413370610134717000E07B3561A
:103BC400E600972700009387E760B6979C23930647
:103BD4000002BA97B38EF640639DF608B387C540DA
:103BE4008545935606013346060833D5D70213D7C5
:103BF4000801B3F7D7023303C502C207D98F63FAAA
:103C04006700C2971307F5FF63E4070163E06722C7
:103C14003A85B387674033D7D702B3C80808B3F7E8
:103C2400D7023306C702C207B3E8F80063FBC80033
:103C3400C2989307F7FF63E50801791763E3C800A7
:103C44003E874205598D82809337061093C717002B
:103C54008E079DBD8146972700009387A757B69787
:103C64009C23014793060002BA97B38EF640E3877C
:103C7400F6F63318D60133D3F50093560801335EB4
:103C8400D302B395D501B357F500CD8F3346080859
:103C940013D70701B318D5013373D302B305C60391
:103CA400420333676700637BB70042971305FEFF47
:103CB400636A07176378B716791E42970D8F3355D9
:103CC400D702B3C707083377D7023303A6024207E4
:103CD400D98F63FB6700C2971307F5FF63E00715ED
:103CE40063FE67127915C29793150E01B387674077
:103CF400C98DE5BD93B7061093C717008E0733D857
:103D0400F600172700001307E74C4297182393087F
:103D140000023E973388E840E382E8E8335EE60039
:103D2400B3960601336EDE00B3D8E500935E0E0150
:103D3400B3D7D803B39505013357E5004D8F33430B
:103D44000E089356070133160601B3F8D803B305DA
:103D5400F302C208B3E6160163FBB600F296938839
:103D6400F7FF63E3C60D63F1B60CF917F2968D8E77
:103D7400B3D5D60333470708B3F6D603B308B30263
:103D8400C206558F637B170172979386F5FF6369AB
:103D9400C70963771709F9157297C207C16ECD8FEA
:103DA4009386FEFFB3F5D70013D30701F18E41824A
:103DB400338ED50233071741B306D30293580E014D
:103DC400B385C502B695C6953303C30263F3D50024
:103DD400769393D605019A966363D7026305D70059
:103DE4003E8581458280C166FD1633F7D5004207C2
:103DF400337EDE00331505017297E373E5FE138508
:103E0400F7FF81458280B70700016377F602935676
:103E1400060141477DB38145054582803A85E9B570
:103E2400B685A5BF2A8E59BDC68791B77915C297A5
:103E3400CDB37915C297CDB993568601614751B375
:103E4400370780007D179356750113D67501B37734
:103E5400A70013F3F60F6D8F1358F5011376F60FC1
:103E6400FD81C2888E070E07B306C3406301B80400
:103E7400635FD00021EE630A07101386F6FF630C1C
:103E8400062A9305F00F638DB616B286B1A0D5CA83
:103E9400B3066640631C031CFDC71385F6FF630766
:103EA400052C1308F00F638B0615AA86F1A2635B39
:103EB400D0145DCE1306F00F6304C3141317A7299F
:103EC4006D46635AD61E85079A8681A01306F00FA5
:103ED4006308C3121317A729ED45054663CDD50022
:103EE40013060002158E3316C700B356D7003337B6
:103EF400C00033E6E600918F37070004B3F6E7000D
:103F0400DDEE13F777009A8649C313F7F7001146DD
:103F14006303C7009107370700047D8F3DC71385EE
:103F240016001307F00FC2886302E50813976700B1
:103F34001375F50F25835E05598D9397F8015D8DF3
:103F44008280130613001376E60F631B06146314B2
:103F5400030A63890720630207103385E7403706A5
:103F64000004698E63060622B307F7402E8841A039
:103F740009CF1386F6FF6308061A9305F00F6381D1
:103F8400B608B28635BF2E88BA871307F00F8D8323
:103F94006397E60CDDC31305F00F81483707400033
:103FA4005E05598D9397F8015D8D82801305F00F9E
:103FB40001475E05598D9397F8015D8D82807D17C9
:103FC40033F6E70093170660ED173316F60063C166
:103FD4006706B3866740850693070002958FB3177B
:103FE400F600B337F0003356D600D18F814613F76D
:103FF400770001FF0DB76395071451DF2E88BA8748
:104004008D8349BFA1C2B30666406316030EADDFBC
:104014009385F6FF638905101305F00FE381A6FE6F
:10402400AE86ED4563D2D51293071700B286F1BD73
:10403400B306F3409317A6495DBFC2881305F00F7A
:104044000147D5BD9306130013F6E60F45EE63173B
:10405400030E63820712631207128D838146A6073B
:1040640013D7970013F5F60FC288F1B51305F00FB7
:10407400E306A6F89397A7296D480545634DD80034
:1040840013050002158D3395A700B3D6D700B337B7
:10409400A00033E5F600B307A74032832E88A9BDFC
:1040A4003386E740B7060004F18EB5EA01FE814885
:1040B4000145014749B513060002158E3316C700A2
:1040C4003357D700B336C000558FBA97370700046B
:1040D4007D8FE30807E2930613001305F00F0147F1
:1040E400E38BA6E43706007E13D717007D16858B75
:1040F400718FD98FEDBD9305F00FE302B6F093975E
:10410400A72905B71306F00FE382C6EA3E97935733
:10411400170013F67700E31A06DE8D8389B733069A
:10412400F7402E8845B5BA97370700047D8F894636
:1041340005434DFBF9B3998F05437DBBE38107EC40
:10414400E31B07E48D83B9B593050002958DB39500
:10415400B700B3D6D700B337B000DD8EB387E6001F
:104164003283ADB729D72E88BA87C5BDB307F740C8
:104174002E88054351B3BA87CDB5BA9737060004E4
:104184007D8E814659DA9397A74985468D83C1BDB3
:10419400AA8711DD8D83E1B59357750193189500B6
:1041A40093F7F70F93D898007D81F1CB1307F00FA5
:1041B400638DE70C8E08138617F80147014E939818
:1041C400A82993D775019396950093F7F70FA582C5
:1041D400FD81C9C71308F00F6380070D8E0693870E
:1041E40017F8814E9396A6293D433348B5001D8E9A
:1041F4006366E31A17230000130343F3334767206E
:104204001C439A9782879307F00F01471395770110
:10421400598D7E083365050182808D476304FE0253
:104224008547631BFE0E2A88814701471395770152
:10423400598D7E083365050182808D472E85B688A9
:10424400639CFE0C9307F00F37074000139577012A
:104254000148598D7E08336505018280C1EA1367E0
:104264001700B5473348B500E3EFE7F89726000099
:104274009386C6EF3347D7201C43B6978287639A49
:10428400080411470146054E2DBF639F08022147CC
:104294001306F00F094E35B795E21367270075171B
:1042A400AD463348B500E3E1E6F89726000093866F
:1042B40066EF3347D72018433697028713673700D2
:1042C4009307F00F8D4E0DB731471306F00F0D4EC7
:1042D400CDBD139708609307B7FFB398F800930711
:1042E400A0F83386E740014E0147E1BD139806600C
:1042F4009307B8FFB396F6009307A0F8B387074176
:10430400814EDDB5130616F08947E318FEF02A88BE
:104314009307F00F0147DDBD2A889307F607635E14
:10432400F00213F7780019C713F7F80091466303F6
:10433400D70091083707000833F7E80009C7930747
:1043440006089398B8491307E00FE34EF7EA13976A
:104354006800258393F7F70F55BD854699C79D8E51
:10436400ED4581470147E3C3D5EA1307E6093397CF
:10437400E8003337E000B3D7D800D98F13F77700BC
:1043840019C713F7F70091466303D700910737075E
:1043940000047D8F55CB854701478DBD416713933D
:1043A40056007D17935503013377E30063F8D8066D
:1043B400B3D6B802C6877D1681483385E602B3F7C3
:1043C400B702C207B3E7170163F8A7009A97938867
:1043D400F6FF63F66706C686898F33D5B702B3F74F
:1043E400B7023307E502C20763F2E702B385670049
:1043F400B3B8F500130EF5FFAE876398080063F6B3
:10440400E5007915B387650011A07285C206998FFE
:10441400C98EB337F000B3E8F60001B793D718009C
:10442400B3D6B702FE0893D808013385E60241BF2C
:104434002E852A88D5BB014837074000C1BBE3FC61
:10444400A7F8F9169A9749BF9A0713D79700814797
:1044540075BB2E856DBD13567501370780007D171A
:1044640093D675011376F60F1308F00FB378A700EF
:104474009357F5016D8F13F5F60FFD816305060360
:10448400630A050105EA09E939C3639E0804A1C961
:104494002E85828039E719E2E38B08FE6399B70021
:1044A4009DCF3E858280639E08026305C502054553
:1044B4009DE782806DDDE39CB7FEE34AC5FEE341E0
:1044C400A6FEE36617FF0145E3ECE8FC8280E39077
:1044D40008FE828019E7E39CB7FC014582807D5584
:1044E400828079558280E38EB7FCD1B7135675016B
:1044F400370780007D1793D675011376F60F1308DE
:10450400F00FB378A7009357F5016D8F13F5F60FED
:10451400FD8163060603630A050105EE11E929CB53
:10452400639F0804B9C92E858280094501EB19E20D
:10453400E38A08FE638BB7020545A1E38280639C8E
:104544000802E31BC5FE094575FBE397B7FE014569
:1045540082807DD1E392B7FEE340C5FE6347A600A7
:10456400E36C17FD0145E3FBE8FC81CB3E858280CB
:10457400E39408FC8280094582807D558280E38132
:10458400B7FE5DBF935775011317950093F7F70FA7
:10459400935897007D81638507101307F00F638795
:1045A400E7108E08938617F80147814E9398A8293F
:1045B40093D775011398950093F7F70F1358980044
:1045C400FD81F9C31306F00F6388C704938717F8B6
:1045D400338ED7000E08A947014693061E00131810
:1045E400A82963C3E7103343B50009451A8F634410
:1045F400E5047D17854563EEE5126300A60C854747
:104604007A83631BF6048147014613957701518D24
:104614009317F3015D8D8280138EF60F630A080AE7
:104624003343B5001367370029461A8F9386061063
:104634006344E6200D463317E0281375075319CD5C
:104644008947638CFE068D476384FE027686854720
:1046540046887A83E309F6FA368EA9A2937707246B
:1046640081EB1377870871C72E8FC288B28EC9BFBA
:104674009307F00F01433706400013957701518DDE
:104684009317F3015D8D828063140808368E1367D7
:104694001700A947054693061E00E3D6E7F4A9A030
:1046A400639B080411478146854E19B7639008043B
:1046B40021479306F00F894EE5BD9307F00F7A83E7
:1046C400014613957701518D9317F3015D8D828017
:1046D40013672700A9479386061039430946E3D494
:1046E400E7F0AD47E302F3F82A8F99BF3147930609
:1046F400F00F8D4E75BD139708609307B7FFB398FD
:10470400F8009307A0F8B386E740814E01474DB502
:10471400931708601386B7FFB387F640138EA7F884
:10472400A9473318C80093061E000146E3DDE7EAF3
:1047340065BFC16E9387FEFF93D508011355080129
:10474400B3F8F800B377F80033861703B387F5029C
:1047540013570601B3081503BE984697B385A502FF
:104764006373F700F69541657D15B377A700698EED
:10477400C207B2971396670013580701E9833337CA
:10478400C0002E98D98F1A083368F800B7070008BC
:10479400B377F80081CB935718001378180033E8E7
:1047A4000701368E9307FE07635EF00213777800E5
:1047B40019C71377F80091466303D7001108370728
:1047C40000083377E80009C793070E081318B8499F
:1047D4001307E00F6349F70413166800258293F763
:1047E400F70F25B5054799C71D8FED46814701464B
:1047F400E3CDE6E0130EEE09331EC801B357E8001B
:104804003337C001D98F13F7770019C713F7F700AF
:1048140091466303D7009107370700047D8F01CBCE
:1048240085470146DDB39307F00F0146F9BB9A07AC
:1048340013D697008147D1BB3D4E01433706400054
:10484400E305C7DD2D430D4669BDB7078000FD179D
:1048540013D6750133F7A700935675019358F501E4
:10486400ED8F1376F60F1308F00F13F5F60F46834A
:104874000E07FD81939637006302060593C5150064
:10488400B307C540638FB8006358F03035E6638CD6
:1048940006141386F7FF6302062A638E0703B287A2
:1048A40085A06356F0306DCA630705039396A62965
:1048B4006D466350F6140507AA87ADA8930715F053
:1048C400CDE693C515006382B80E638E071863079F
:1048D4000510AE8836870D8313F318001305F00F07
:1048E4003DCF1305F00F0143370740005E05598D96
:1048F4009317F3015D8D8280E30F05FD9396A6293E
:10490400ED45054663CDF500130600021D8E339672
:10491400C600B3D6F600B337C00033E6F600118FF5
:10492400B7070004B376F700639306109376770015
:10493400AA87D5CA9376F70011466383C600110788
:10494400B7060004F98EC5C285079306F00F13F36A
:1049540018006385D70C1A0713F5F70F25835E0536
:10496400598D9317F3015D8D8280E390B8F6B1C33E
:104974006313051C9307F00F35C79385F7FF63880E
:1049840005121305F00F6388A71AED4763DDB71A04
:1049940013871600B28779BFB9C61386F7FF630879
:1049A4000610E38A07F3B28721B781C761D50147AF
:1049B4001DB79307150013F6E70F63180614631B5E
:1049C40005166309071A6399061A0D83814726079A
:1049D400258313F5F70F13F3180051B79307F00F5E
:1049E40065EBAE8836879306F00F0D83E386D7EE2A
:1049F400F9BF130600021D8E3396C6003336C0007D
:104A0400B3D6F600D18E3697B7070004F98F99DF35
:104A1400930715009306F00F6393D70A1305F00F5D
:104A240001475E05598D9317F3015D8D8280FD1753
:104A34003376F70093170660ED173316F60063C854
:104A4400A704898F8507130700021D8F3317E6001B
:104A54003337E0003356F600518F81479376770061
:104A6400E39A06ECF1BD9307150093F7E70F8DE782
:104A740055E96DCFB9DAB307D740370600047D8E08
:104A8400630706103387E6408147AE88C1BFB3078A
:104A9400F5401317A649D9B73306D740B707000422
:104AA400F18FC9E741FA0143014501474DBD3697EE
:104AB400B7060004F98E89470545E38906E63706FB
:104AC400007E935617007D16058BF18E558F79B7AE
:104AD4001388F7FF630708081305F00FAE88638C8B
:104AE400A704ED45854763CE050193070002B3870C
:104AF4000741B317F70033580701B337F000B36722
:104B0400F8003387F640328521BD1306F00FE387A2
:104B1400C7F0BA9613D7160013767700E31C06E0A5
:104B24000D8375B511EFE38E06DA65B33386E6407F
:104B3400AE8809B711E7368779BB158F0545CDB324
:104B4400E38B06D879BB930700028D8FB317F70068
:104B5400B355B700B337F000DD8D3387D500328508
:104B640065B53387E640AE8805455DBB8DDEAE880E
:104B74003687A1BD368791BD369737060004798EF6
:104B8400814759DE1317A74985470D8389B581DF0E
:104B94003E870D83814725BDE38707EC3308A64094
:104BA400C287E30F05E2AE881317A7291DBFE3826E
:104BB40007E0B305A64019E1AE877DBB1317A7290B
:104BC400E9B313577501931795001377F70F13067D
:104BD400E00793D697009357F50101456353E60028
:104BE40091C382809307E0097D55E3CCE7FE130669
:104BF4005009939776296357E6001307A7F6339570
:104C0400E700828013056009198D33D5A7008280DF
:104C14001DCDB306A0409307E009B366D50A130679
:104C24006009939506608D8F1357F5016349F60269
:104C34002146638AC508E115B396B60013F5F70F4C
:104C4400A606A5825E05558D7E07598D8280014793
:104C5400014581465E05558D7E07598D8280130678
:104C640090096346F60415461385B5FF6384C500B1
:104C7400B396A60013F576001396A64919CDBD8AFE
:104C84001145638CA6001106B7060004F18E91C687
:104C94009307F0098D8F1316A6499316660013F532
:104CA400F70FA5825E05558D7E07598D8280138688
:104CB400B50115453396C6000D8DB3D6A60033361F
:104CC400C000D18E45BFA606A5821305600959B759
:104CD4001DC59307E0099316056013076009958FB6
:104CE4006344F70221476383E608E1163317D500CE
:104CF400260713F5F70F25835E05598D828001453C
:104D040001475E05598D8280130790096344F704B7
:104D140015471386B6FF6384E6003315C500137682
:104D240075001317A54905C23D891146630DC500D9
:104D3400110737060004798E19C61305F009B30765
:104D4400D5401317A74913F5F70F1A0725835E05F6
:104D5400598D82801387B60115463317E500158EE9
:104D64003337E0003355C500598D55BF2605135719
:104D740095001305600971B75D7122D406D62A84A3
:104D84002EDA32DC36DEBAC0BEC2C2C4C6C603A541
:104D9400018211C51C4D81E72AC6D52032450C4538
:104DA4005418228636CE0529B2502254616182807D
:104DB400411122C406C62A844EA572A523200500EB
:104DC40023220500232405002322050623280500A9
:104DD400232A0500232C0500214681451305C5051A
:104DE400EFB0DF95970700009387876D5CD0970736
:104DF40000009387A76F1CD49707000093876773FD
:104E04005CD4970700009387A775B24000D01CD8E4
:104E140022444101828097150000938505A849A288
:104E2400411126C2930780069384F5FFB384F402EC
:104E34004AC02E8922C406C6938544071D242A84A9
:104E440001CD2320050023222501310508C4138642
:104E540084068145EFB09F8EB2402285224492445D
:104E6400024941018280138581A045A2138581A056
:104E740071AA1385C1A051AA1385C1A041AA4111E9
:104E840022C406C62A84EFF0DFFE1C4C91C72244DC
:104E9400B24041016FF05FFE970700009387E7F788
:104EA4001CD423240404232604042328040483A7F1
:104EB40041876394870085471CCC2285152848C008
:104EC40022853D2008C42285252048C44840014647
:104ED4009145EFF0FFED08440546A545EFF05FED81
:104EE40048440946C945EFF0BFEC85471CCC45B79B
:104EF400411126C24AC006C622C42A89EFF0BFF671
:104F040083A441879C4C81E72685EFF05FF7938467
:104F140084048044DC40FD1763D607009C40A5C789
:104F24008440C5BF0317C40021EFC17785075CC463
:104F34001305840523220406C128EFF03FF321461C
:104F44002320040023240400232204002328040033
:104F5400232A0400232C040081451305C405EFB063
:104F6400EFFD232A0402232C040223240404232611
:104F74000404B240228522449244024941018280C1
:104F84001304840649BF91454A85EFF07FE988C040
:104F94002A8459F5EFF09FEDB1472320F900D1BFE2
:104FA400797122D44AD04ECE52CC5AC85EC606D6A7
:104FB40026D256CA2A892E8A130485048149054BB0
:104FC400FD5B0444832A4400FD1A63D00A020040B6
:104FD4006DF8B250225492540259624AD24A424B5A
:104FE400B24B4E85F24945618280DE24637BFB002F
:104FF4008397E40063877701A6854A85029AB3E91B
:10500400A90093848406C9B782808280828041117A
:105014004AC0138901A18327090022C426C206C6F7
:10502400AA842E8489E78145B5212320A900A2857D
:1050340026858D217D59631A25017D54B240228530
:10504400224492440249410182801304350071983C
:10505400E30685FEB305A44026852D29E31025FF2C
:10506400E9BF011126CA93843500F1984AC8A10406
:10507400B14706CE22CC4EC62A89B3F4F40A63C4DF
:10508400040063FDB400B1472320F9000145F24058
:105094006244D2444249B24905618280EF00901BC8
:1050A400938941A183A709003E8421E8A6854A8506
:1050B400EFF0FFF5FD572A846319F50A03A40900EC
:1050C400A287D1EB8329040081454A85A299D92678
:1050D4006396A9081C408D044A859D8CF198B147BC
:1050E400A104B3F4F40AA685EFF07FF2FD57630739
:1050F400F5061C40A6971CC015A01440858E63C9F4
:1051040006042D47637ED70204C0330794006397D7
:10511400870223A0E9005C4014C35CC34A85EF0006
:10512400F0131305B4009307440061993307F54065
:10513400E30FF5F43A94898F1CC091BFD8C3E1BF43
:1051440058406395870023A0E900C9BFD8C3F9B7C5
:10515400A287404099BF3E84DC43A5B7B1472320D2
:10516400F9004A85EF00900F15B704C145BF1C46EE
:10517400FD171CC663D90700184E63C5E700A9478D
:105184006393F500F9AE1C422E851387170018C2ED
:105194008CA38280011122CC26CA4AC84EC652C4AE
:1051A40006CE2A89AE893284B304D6007D5A6314AC
:1051B4009400014509A80C204E864A85EFF03FFB78
:1051C4000504E31645FFF2406244D2444249B24921
:1051D400224A05618280357122CD26CB4AC94EC749
:1051E40006CF52C556C35AC1DEDEE2DCAA892E843C
:1051F4003289B68409C51C4D99E3EFF05FC897174F
:105204000000938727116317F40403A449007C501A
:10521400858B81EB5E2493F7072081E7284CEFF020
:10522400DFDE5E24A18B99C31C48B9EFA2854E85AD
:10523400312939C97C50858BA1C37D55FA406A4414
:10524400DA444A49BA492A4A9A4A0A4BF65B665CE6
:105254000D618280971700009387C7096315F400D6
:1052640003A489006DB7971700009387A706E3107E
:10527400F4FA03A4C90061BF5E2493F70720D5FFA5
:10528400284CEFF0BFD855BF93070002A304F102E6
:105294009307000302D22305F10226C6930B5002A2
:1052A400971A0000938A0A09294BCA849C2099C33F
:1052B400639B7709338C2441638E2401E2864A86FA
:1052C400A2854E85EFF01FEDFD576309F51892573F
:1052D400E2973ED29C2063830718FD57138914007C
:1052E40002C802CE3ECA02CCA309010482D483457B
:1052F400090015465685EF006074C24793041900EF
:1053040029E513F7070109C713070002A309E104FC
:1053140013F7870009C71307B002A309E104834602
:1053240009001307A0026389E602F247CA84814692
:105334002546982093851400130707FD6372E6063B
:1053440085C63ECE15A0850495B733055541B39760
:10535400A72826893EC861BF3247930647001843F1
:1053640036C6634807023ACE98209307E002631CCE
:10537400F70498309307A002631AF702B24789042E
:10538400138747009C433AC67D57B3E7E70A3ECAF2
:105394001DA83307E04093E727003ACE3EC8E9B79B
:1053A400B3876703AE848546BA9761B7850402CA9A
:1053B400814681472546982093851400130707FDED
:1053C4006374E606E9F68C200D46171500001305F4
:1053D400E5F6EF00A06611CD97170000938707F656
:1053E4001D8DC247130700043317A700D98F850406
:1053F4003EC88C20194617150000130565F413895F
:1054040014002304B102EF00606335C99307000060
:1054140095E74247B2471377071009CF91073EC675
:105424009257D2973ED251B5B3876703AE8485466F
:10543400BA9751B79D07E19BA107D5B778009706A6
:105444000000938666D522860C084E8597000000DE
:10545400E7000000FD572A8AE314F5FC7C50858B95
:1054640081EB5E2493F7072081E7284CEFF01FBA05
:105474005E2493F70704E39207DC1255C1B3780066
:1054840097060000938646D122860C084E85EF00CD
:105494002078C9B7411122C42A842E8523AC01A0E7
:1054A40006C6EFE0AFDDFD576316F50083A781A1C3
:1054B40091C31CC0B240224441018280411122C4E4
:1054C4002E848395E50006C6EF00501C6349050051
:1054D4007C48AA977CC8B2402244410182805E2461
:1054E4009397C7485EA4C5BFDE25011122CC26CA06
:1054F4004AC84EC606CE93F70710AA842E84328972
:10550400B68991C78395E5008946014621295E2421
:105514008315E400F2409397C7485EA46244CE86A4
:105524004A86B24942492685D2440561D5A841112B
:1055340022C42E848395E50006C6ED267D575E249D
:105544006319E5009397C7485EA4B2402244410121
:1055540082809397C72868C85EA4C5BF8395E50079
:10556400F1AA011122CC26CA4AC806CE4EC6AA8484
:105574002E89328409C51C4D99E3EFF05F9097178B
:105584000000938727D96317F402C0401C4C1CC445
:105594005E24A18B99C31C4895EFA28526857D20A6
:1055A40015C97D59F2406244D244B2494A85424900
:1055B40005618280971700009387C7D36314F400B2
:1055C4008044E9B7971700009387C7D0E310F4FC31
:1055D400C0446DBF1C4808409379F90F1379F90F43
:1055E4001D8D5C486346F500A28526856D2455F91A
:1055F4001C440505FD171CC41C401387170018C064
:10560400238037015C486388A7005E24858BD9DB3F
:10561400A947E319F9F8A2852685B52C41D551B7D8
:10562400411122C42A842E85B285368623AC01A07A
:1056340006C6EFE06FBFFD576316F50083A781A18F
:1056440091C31CC0B240224441018280411122C452
:1056540026C24AC006C683A401822A892E8491C424
:105664009C4C81E72685EFF09F8197170000938774
:1056740067CA6313F402C0408317C40013F787009A
:1056840025E713F707010DEB25472320E90093E7EE
:1056940007045EA47D5571A097170000938787C502
:1056A4006314F4008044C9BF97170000938787C22E
:1056B400E314F4FCC044C9B7918B9DC34C5889C909
:1056C400930744046384F5004A85692E232A04025F
:1056D4005E242322040093F7B7FD5EA41C481CC07B
:1056E4005E2493E787005EA41C4899EB5E241307AD
:1056F400002093F707286385E700A2854A8565247F
:105704008317C40013F717001DC35848232404004B
:105714003307E04018CC1848014501E713F70708A0
:105724003DF7B2402244924402494101828013F77A
:105734002700814611E3544814C4F1BF411122C427
:105744002A842E8523AC01A006C6EF00A07BFD575A
:105754006316F50083A781A191C31CC0B240224403
:10576400410182808397C500011122CC26CA06CE4E
:105774004AC84EC613F78700AA842E8479E3D84119
:105784006345E000B8416356E008585459C303A97F
:10579400040023A004000C5093D7C748A9CB704839
:1057A4005E24918B99C75C401D8E5C5899C33C4024
:1057B4001D8E5C540C50814626858297FD57630CE0
:1057C400F5041C480567232204001CC05E24F98FDD
:1057D40091C368C84C5823A0240185CD9307440481
:1057E4006384F5002685BD2C232A04021DA00146EE
:1057F400854626850297FD572A86E313F5FA9C40D1
:10580400C5D375476385E70059476395E70623A029
:1058140024010145B5A098408317C40001CFF54683
:105824006305D700D9466319D7041C482322040012
:105834001CC04DB718482322040093D7C74818C08A
:1058440041BF83A90501E38609FC03A905008D8BEB
:1058540023A0350133093941014791E3D84918C4DC
:10586400E35920FB1C540C50CA864E862685829729
:10587400634FA0008317C40093E707045EA47D551B
:10588400F2406244D2444249B24905618280AA99F5
:105894003309A940F1B79C49411106C622C426C266
:1058A40081EB8144B24022442685924441018280A6
:1058B400AA842E8409C51C4D99E3EFF04FDC971799
:1058C4000000938727A5631FF402C0408317C40018
:1058D400E9DB7850058B19E793F7072081E7284C1B
:1058E400EFF0AFF22685A285EFF0DFE77C50AA84C3
:1058F400858BCDFB5E2493F70720CDF7284CEFF082
:10590400EFF04DB7971700009387C79E6314F40018
:1059140080446DBF971700009387C79BE318F4FA80
:10592400C0446DB7411122C42A842E85B2853686BF
:1059340023AC01A006C6CD2BFD576316F50083A743
:1059440081A191C31CC0B24022444101828059719B
:10595400A2D42E848395E500A6D2CAD086D6B2847A
:10596400368963D205025E2493F707088DEB13078B
:105974000040B65026542320F90098C00659965486
:1059840001456561828030003D23E34E05FC3247CA
:10599400BD67F98F7977BA9793B71700C9BF814765
:1059A40013070004F9B7DE25797122D406D626D26E
:1059B4004AD04ECE898B2E8491CF930774041CC099
:1059C4001CC885475CC8B250225492540259F2490B
:1059D4004561828074003000AA84EFF05FF7A24929
:1059E4002A892685CE85EFF0CFE719E98317C4000D
:1059F40013F7072069FBF19B93E727005EA475BFAB
:105A040097F7FFFF938767419CD45E2408C008C8BA
:105A140093E707085EA4B247232A340199CB831580
:105A2400E40026856D2911C55E24F19B93E71700D8
:105A34005EA45E2433E527014AA471B793F5F50FFC
:105A44002A966314C500014582801C21E38EB7FEAB
:105A54000505C5BF138541A06FF02FDB138541A059
:105A64006FF0CFDAC5C183A7C5FF011122CC06CEE2
:105A74001384C5FF63D307003E942AC6EFF09FFD4D
:105A8400138741A11C43324589EB2322040000C340
:105A94006244F24005616FF07FFC637DF4001040C6
:105AA400B306C4006396D7009443DC43B29614C093
:105AB4005CC0F1BF3E87DC4399C3E37DF4FE14432D
:105AC4003306D700631F86001040B29614C3330612
:105AD400D700E39FC7FA9043DC43B29614C35CC378
