:080000006FA0900E000000004B
:100008001305000E9705FEFF9385C5DF17A6FEFFB3
:100018001306C65F63FAC5008322050023A05500B6
:1000280011059105E3EAC5FE17A5F4DF130505716F
:1000380097A5FEFF9385855D17A6FEFF1306065D4F
:1000480063FAC5008322050023A055001105910518
:10005800E3EAC5FE17A5F4DF1305456E9705000012
:100068009385450A1386819663FAC50083220500A5
:1000780023A0550011059105E3EAC5FE1385819675
:1000880097950100938505316377B5002320050016
:100098001105E36DB5FEB73237129382023E7390B5
:1000A80002BC9D42739012BCB94273904280A16217
:1000B80093828288739002309702FEFF938282D4E3
:1000C80093E23200739052309732FEFF9382E21C23
:0800D800739012347300203014
:1000E000000000000000000042340A205E340A20B4
:1000F0000000000028360A20000000000000000078
:1001000028360A2028360A200000000000000000DF
:1001100028360A2020440A2000030A20000000009C
:1001200028360A2028360A2028360A2028360A20AF
:1001300000000000000000000000000000000000BF
:1001400000000000000000000000000000000000AF
:1001500028360A2000000000000000000000000017
:1001600028360A2028360A2028360A2028360A206F
:1001700028360A2028360A2028360A2028360A205F
:1001800028360A2028360A2028360A2028360A204F
:1001900028360A20EE2F0A2028360A2028360A2080
:1001A00028360A2028360A2028360A2028360A202F
:1001B00028360A2028360A2028360A2028360A201F
:1001C00028360A2028360A2028360A2028360A200F
:1001D00028360A2028360A2028360A2028360A20FF
:1001E00028360A2028360A2028360A2028360A20EF
:1001F00028360A2028360A2028360A2028360A20DF
:1002000028360A2028360A2028360A2028360A20CE
:1002100028360A2028360A2028360A2028360A20BE
:1002200028360A2028360A2028360A2028360A20AE
:10023000E2300A20C6310A2028360A2028360A2051
:1002400028360A2028360A2028360A2028360A208E
:1002500028360A2028360A2028360A2028360A207E
:1002600028360A2028360A2028360A2028360A206E
:1002700028360A2028360A2028360A2028360A205E
:1002800028360A2028360A2028360A2028360A204E
:1002900028360A2028360A2028360A2028360A203E
:1002A00028360A2028360A2028360A2028360A202E
:1002B00028360A2028360A2028360A2028360A201E
:1002C00028360A2028360A2028360A2028360A200E
:1002D00028360A2028360A200000000028360A2086
:1002E00028360A20000000000000000028360A20FE
:1002F000000000000000000028360A2028360A20EE
:1003000028360A2028360A2028360A2028360A20CD
:1003100028360A2028360A2028360A2028360A20BD
:1003200028360A2028360A2028360A2028360A20AD
:1003300028360A2000000000000000000000000035
:1003400000000000000000000000000000000000AD
:10035000000000000000000000000000000000009D
:10036000000000000000000000000000000000008D
:10037000000000000000000000000000000000007D
:10038000000000000000000000000000000000006D
:10039000000000000000000000000000000000005D
:1003A000000000000000000000000000000000004D
:1003B000000000000000000000000000000000003D
:1003C000000000000000000000000000000000002D
:1003D000000000000000000000000000000000001D
:1003E000130181F806C216C41AC61EC822CA26CC3A
:1003F0002ACE2ED032D236D43AD63ED842DA46DC95
:100400004ADECEC0D2C2D6C4DAC6DEC8E2CAE6CC64
:10041000EACEEED0F2D2F6D4FAD6FED8F3220030ED
:1004200096DA83A201A123A02200F32510342EC066
:100430009305000273A0458003A10196EF40100FC1
:1004400003A301A103210300824273901234D65208
:10045000739002309240A2423243C2435244E2447B
:10046000724582551256A2563257C2575258E25818
:1004700072598649164AA64A364BC64B564CE64C2C
:10048000764D865D165EA65E365FC65F13018107F8
:100490007300203013000000130000001300000060
:1004A0001300000013000000130000001300000000
:1004B00013000000130000001300000013000000F0
:1004C00013000000130000001300000013000000E0
:1004D00013000000130000001300000013000000D0
:1004E00083A20196938202E07390023403A101A1DA
:1004F000024182403243C2435244E2447245825533
:100500001256A2563257C2575258E258725986496B
:10051000164AA64A364BC64B564CE64C764D865D7F
:10052000165EA65E365FC65FD652A1027390023099
:10053000A242130181078280130000001300000013
:10054000130000001300000013000000130000005F
:10055000130000001300000013000000130000004F
:10056000130000001300000013000000130000003F
:10057000130000001300000013000000130000002F
:10058000130000001300000013000000130000001F
:10059000130000001300000013000000130000000F
:1005A00013000000130000001300000013000000FF
:1005B00013000000130000001300000013000000EF
:1005C00013000000130000001300000013000000DF
:1005D00013000000130000001300000013000000CF
:1005E000F322003093F272FF130380781203B3E218
:1005F0006200711523205500130585FA10C12115DD
:100600002320050081426387020071152320050025
:10061000FD12D5BF71150CC18280000000000000E2
:1006200000000000000000000000000000000000CA
:1006300000000000000000000000000000000000BA
:1006400000000000000000000000000000000000AA
:10065000000000000000000000000000000000009A
:10066000000000000000000000000000000000008A
:10067000000000000000000000000000000000007A
:10068000000000000000000000000000000000006A
:10069000000000000000000000000000000000005A
:1006A000000000000000000000000000000000004A
:1006B000000000000000000000000000000000003A
:1006C000000000000000397101436EC619A03971A5
:1006D00041536AC866CA62CC5ECE19A03971015313
:1006E0005AD056D252D44ED64AD826DA22DC06DE6A
:1006F00033016140828241114AC026C222C406C62B
:100700008282B24D4101024D924C224CB24B4101CA
:10071000024B924A224AB249410102499244224480
:10072000B240410182802A8309CA838305002300E5
:1007300073007D16050385056DFA82802A8311C634
:100740002300B3007D16050365FE8280EFF2BFFA39
:100750002A84AE84EF10906C8326440F8347540C98
:100760000327C40B639596008326840F95EA232AFA
:10077000940E232CA40E2320E4102322E41023053E
:10078000F410A14663E39608B7A60A20938606F202
:10079000B3C4D4209440828623140410230504108B
:1007A000ADBF85462304D410E5DF232EE40EA30459
:1007B000D410FDB705462304C4108346941085C3A6
:1007C00089E6232EE40EA304C41083A581840325A7
:1007D000C40FEF7040502322A410854725A0E9D212
:1007E000EDB705472304E410C5DF2305E4104DBF32
:1007F0000347941085472304F4105DD30327C40FE7
:100800002322E4102305F41061BF85472304F4106C
:1008100041BFEFF2DFEBB7970D209387075813071F
:10082000700698C3D843411113678700D8C3EF40BF
:1008300000192AC61305200339212A89EF20103612
:1008400003AB418583AB818503AC018583ACC18457
:100850002A84014AEF40A016AA892285EF00C06DC4
:100860008327C41099CF03478410630E0718ED9BAC
:10087000A1456392070E8347540CA145E9CF9D45DE
:10088000D9A88327440F21476368F70A37A70A20AE
:10089000130747F4B3C7E7209C4382878347340993
:1008A00023040410BDC783472409A5E7834704092F
:1008B000ADC30357C4089307604063ECE704834764
:1008C000440CA1CB8324040B930500002685EF7014
:1008D0003031635405009394F469E6852685EF7002
:1008E00030306348A0028324440B93050000268522
:1008F000EF70102F635405009394F46983A5C184AD
:100900002685EF70F02D6346A0008347540C89457F
:10091000B9E32285EF00E065134A1A005285EF1013
:10092000D040CE850D453D2ECA856800EF40C031D0
:1009300015B78347040999E3854531A883473409EE
:10094000E9DB0357C40893071067E3F4E7FC834728
:10095000540C8D45DDDF2285D53B65BF83470409F7
:10096000E38F07F08347540CCDD78347A410D5D32A
:1009700003254410E285EF70905CAA850325C40B23
:10098000EF70B01C9145E35805FC61B7834704093B
:10099000C9F3F5B5EF1090480347540CAA8709E74F
:1009A00083470409BDF749BF0347941031C70325A6
:1009B000C40F0327840F998F1307703EE37BF7F46E
:1009C000DA85EF704031AA850325C40BEF70502102
:1009D000E341A0F48324040C930500002685EF7006
:1009E0003020635405009394F469DE852685EF700A
:1009F000301FE340A0F289B7032544105DBF834751
:100A00000409E39807F08145B9B7EFF23FCDB797F6
:100A10000D20938707581307600698C3D8434111E8
:100A200013674700D8C3EF3090792AC61305401FDB
:100A3000192CAA84EF20901683A9C1852A84930AD1
:100A40000503130A050BEF309077CE8656862A8968
:100A5000A2855285EF006053CE852285EF000068A5
:100A6000EF10B05ACA850945F52AA6856800EF40FF
:100A7000A01DD1BFEFF23FC8130785A393078002E3
:100A80001304000063FBE702130545A2EF80600D2D
:100A900083A58186EF70A05983A401862A84A68548
:100AA000EF701014634A050083A441862285A68551
:100AB000EF70B0096353A00026842285B9B9EFF224
:100AC0009FC0B7970D20938707581307900698C3C8
:100AD000D843411113672700D8C3EF30506E2AC6A0
:100AE000130520038D222A89EF20500B03ABC1860A
:100AF00083AB018703AC018683AC41862A84EF3047
:100B0000106C83473409832D0407AA89638C07106E
:100B10008347240963980710035544079304000092
:100B2000913F2A8D03556407B137AA8A0355A4075C
:100B30009137835784072A8A1307800C138587A867
:100B40006372A706130700646359F7021385079CB5
:100B5000EF80200183A54187EF70604D9305000071
:100B6000AA84EF70F007634D0502E6852685EF70D5
:100B7000C07D6359A002E68435A0EF70907E83A506
:100B80004187EF70C04AE285AA84EF707005634B1D
:100B90000506930500002685EF70207B6354A000B6
:100BA00093040000232AB40983A581876A85EF7026
:100BB000B00C83A58187232CA4085685EF70D00B39
:100BC00083A5C187232EA4085285EF70F00A83A560
:100BD00001882320A40A2324940A2685EF70D009D3
:100BE0008325440AEF70200FDA85AA84EF70407FD6
:100BF000634C0500DE852685EF7020756357A000E5
:100C0000DE8421A0E28479BFDA8485472322940A16
:100C10002306F40ACE850545B120CA856800EF4059
:100C2000A002F1BD93070000232AB409232CF40885
:100C3000232EF4082320F40A2322F40A2324F40A9E
:100C40002306040AC1BFAA8719C9130780C1054535
:100C50006369F7001385773E3355F50282801305EB
:100C6000803E8280914763E2A70AEFF2DFA82A84E0
:100C7000AE84EF30D054B3059540B7940D209386E1
:100C8000C449130784003347D7205C479384C44981
:100C900085075CC7130704013347D72008C3130730
:100CA00044013347D720544363F3B6004CC393F752
:100CB000F70795EF8D476304F40491476304F40448
:100CC00085476308F40289476308F40203A5819706
:100CD00019C5EF40A01661043344942008C4EF30D6
:100CE000007623A8A408EF30E07523AAA4086FF0CB
:100CF000DFA203A54197E9BF03A50197D1BF03A5D3
:100D0000C196F9B703A58196E1B78280EFF2BF9E45
:100D100037940D20EF30A0729304C44988C08946EF
:100D2000F4DC93870408514798C3D4C398C71307CA
:100D30004006D8C7B7A50A2037150A2093878197A0
:100D40002147814613060040938585F61305C5DDCE
:100D5000EF30102188CCEF30806EC8C0984C8547AA
:100D60001304C449630AF70037A50A209305000657
:100D7000130505F7EF20A073B7A50A2037150A2041
:100D8000938741971D478146130600309385C5F828
:100D90001305E59DEF30D01C48CCEF30406A08C405
:100DA000584C8547630AF70037A50A20930540068B
:100DB000130505F7EF20A06FB7A50A2037150A2005
:100DC000938701972547814613060040938585F94F
:100DD0001305A592EF30D01808D0EF30406648C414
:100DE00018508547630AF70037A50A209305800647
:100DF000130505F7EF20A06BB7A50A2037050A20D9
:100E00009387C1961947814613060030938505FAEA
:100E100013052573EF30D01448D0EF30406208C876
:100E200058508547630AF70037A50A209305C00686
:100E3000130505F7EF20A067B7A50A2037150A208C
:100E4000938781960D478146130600309385C5FA36
:100E50001305C5D9EF30D01008D4EF30405E48C834
:100E600018548547630AF70037A50A209305000741
:100E7000130505F7EF20A0636FF03F8AEFF2BF87FD
:100E8000B7970D20938707581307800698C3D84358
:100E9000411113670701D8C3EF3070322AC62945C4
:100EA0005D332A84EF20804FEF307031AA851145E1
:100EB000553BA2856800EF303059FDB7EFF21F8235
:100EC000B7970D20938707581307500698C3D84348
:100ED000011113671700D8C3EF30702E2ACE130507
:100EE000401F9533AA84EF20604B2A84130A040321
:100EF000EF10906F93098404EF10D03F130904079B
:100F0000EF30F02B2AC6EF109074EF10B056228508
:100F1000EF10401D5285EF00A06F4E85EF00301E90
:100F20004A85EF10202DB24501452D3BA685680866
:100F3000EF309051F1B782801DC98347C502034746
:100F4000450493C7170019E393E7270003473509C2
:100F500009CB03270509B7060001938606F0758FB4
:100F600019C393E7470093E787002326F510828093
:100F70008280828011C9930700001CC15CC11CC51E
:100F80005CC51CC9231A050082804DC5C5C5EFF29A
:100F9000EFF4B28441CA83C9C5022A8436896386C4
:100FA000090031469105EFF00FF8DC28230A3401DF
:100FB000A5CF83A904015C38032AC4002326340189
:100FC00093040000A9CFA6854A85EF7000386358C6
:100FD000A004D2854E85EF708076CA85EF7020051B
:100FE00003A94188AA84CA85EF70803F634A05003F
:100FF00003A981882685CA85EF7020356353A00038
:10100000CA84032904012685CA85EF70407383A52D
:10101000C188EF706046CA85EF60F04BAA848547AF
:1010200004C85CB86FF0CFEE930700001CC8A30A99
:101030000400CDBF8280EFF20FEC1385C1A3EF0057
:10104000E050238401986FF04FEDEFF2CFEA138563
:1010500081AAEF00A04F138541A8EF00204F138510
:1010600001A6EF00A04E6FF04FEBEFF2CFE883A5A3
:10107000418983A7C18703A7018983A6C185130678
:101080000000138581AA752183A7C18703A7018961
:1010900083A6C18583A5418913060000138541A855
:1010A000492983A7818903A7C18983A581849306E0
:1010B00000003686138501A6AD2983A7018A03A700
:1010C000418A03A6418583A5818A93060000138582
:1010D000C1A385218D37652E6FF02FE46306053699
:1010E000EFF2EFDE0327450F83A7C1972A842E8AEC
:1010F0006307F70089378327440F23AEF1968349AE
:10110000C40A930A840C6389090A8347440CD9CF23
:101110008325040B03258409EF70606283A5018C8D
:10112000EF70803583ABC18AAA84DE85EF70402BD7
:10113000634A050083AB018B2685DE85EF70E020D6
:101140006353A000DE848325440B0325C4092324B4
:10115000940CEF70C05E83A5018CEF70E03103A9A1
:10116000C18AAA84CA85EF70A027634A050003A933
:10117000018B2685CA85EF70401D6353A000CA8489
:1011800003A901892326940C8324040ACA85268591
:10119000EF700025634A050003A9C1872685CA852B
:1011A000EF70A01A6351A002CA8431A8930700000F
:1011B0002324F40CBE84E9B7930700002324F40C25
:1011C0002326F40CBE84930700002324F40E232A64
:1011D000F40C232CF40C232EF40C834784102328C6
:1011E000940C89EB9D35813D1306C40E81455685CF
:1011F000452425A08327440F09476392E702B135B0
:101200001D3D930700002324F40EB7071A049387AB
:10121000A7412326F40E2328F40E6FF0CFCE034708
:10122000540C0329C40B3DEB39358327C40B232011
:10123000F40E930700002322F40E930400000C48E0
:101240000325840C2324940E83298401EF70204FFE
:10125000AA855286138581AA4448FD2C2A89032534
:10126000C40CA685EF70A04DAA855286138541A8AF
:10127000E524AA840325040DCE85EF70404CAA8591
:101280005286138501A6C92C232EA40C232A240DD3
:10129000232C940C1306C40E854591BF1147638C13
:1012A000E70E1D476388E7140D47639EE7148347E5
:1012B000A41099E3493351B70329441083A48184CE
:1012C0008325C40B4A85EF70804783AB418BAA8985
:1012D000DE85EF70E010634A050083AB41864E85E2
:1012E000DE85EF7080066353A000DE89CE852685FB
:1012F000EF60701E83A4418BAA89A685EF70400E13
:10130000634A050083A441864E85A685EF70E003FD
:101310006353A000A6898325040C4E85EF702042FC
:10132000AA8552861385C1A3052C83A58184EF600D
:10133000901A8347440CAA8485CF0325040BEF3011
:10134000504F2A8B0325440BEF30B04EAA855A85A7
:10135000EF70801283ABC18B2A8BDE85EF70400863
:10136000635305005E8B2685DA85EF60504CAA84B6
:101370002320240F2322340F930500002685EF70CD
:101380002006E34C05EA83A541862685EF60F07BC5
:10139000E357A0EA69A8638B090483C681980325F3
:1013A000440A81EA854623A2219923A0A198238497
:1013B000D19883A50198EF70803883A54198EF609C
:1013C00090118324840A83A9418B2A892685CE859E
:1013D000EF700001634A050083A941862685CE850A
:1013E000EF60B076E35EA0ECCE84D9BDA931930462
:1013F0000000F9B58347A410E38E07EA03294410DF
:1014000083A4818B75BDEFF01FC38327C40B0355E5
:10141000C4082320F40E930700002322F40E930740
:10142000803EE3FCA7E09307F07C63F5A70083A46C
:10143000418631B5130585C1EF70A07E83A5418C2F
:10144000EF60F03EAA84E5BB8280EFF2CFAA93055D
:1014500000002A84EF60D078634C050083A44186A5
:101460002285A685EF60706E6356A000268419A0C1
:101470001304000083A5818C2285EF60F07FEF705C
:1014800060691305853E334505086FF00FA982801A
:1014900045C2EFF2AFA4328499C1AA8409E9930747
:1014A000803E1EA03EA05EA07EA06FF06FA6832AA5
:1014B000050283A5C18C4845EF60107C2A8983A56D
:1014C000C18C8848EF60507B83A5018DAA89C848EC
:1014D000EF60907AAA84CE855685EF60C07FCA857A
:1014E0002A8AEF60407FA685EF706025B93F0AA089
:1014F000CA855285EF70A024A685EF60C07DB13704
:10150000CE852AA05685EF708023CA85AA89EF7000
:101510000023A685EF70A0220D3F4AA0CA854E8504
:10152000EF60607BA685EF60007B05376AA0B5BFE2
:10153000828001CD14C5930600000CC150C154C572
:1015400014C958C91CCD58CD1CD1828009C5930738
:1015500000005CC51CC98280EFF24F989304000024
:1015600055C12A842E89328593050000B289EF6027
:101570003067930400006357A0084C404A85EF6031
:10158000B06FCE85EF60506F4C44EF60C07444483C
:10159000832A84012A8AA685EF609064634A050045
:1015A000D6855285EF60705AD6846343A000D284FA
:1015B0000C4844C44A85EF708018CE85EF60302710
:1015C0000C40AA89232824014A85EF60F06AA68589
:1015D000EF6060700C44AA844E85EF60F069AA85C4
:1015E0002685EF60406F444C2A89A685EF60505FE6
:1015F000634A050004504A85A685EF601055634391
:10160000A000CA8426856FF0AF9082800545828055
:101610006F00B0369377F50F138507FD1375F50F3F
:1016200025476365A7001315456082801387F7FB84
:101630001377F70F954663E7E600938797FC1395BA
:10164000476082801387F7F91377F70F7D55E3EA38
:10165000E6FE938797FAE5B7630D050EEFF2AF86C6
:10166000AA8A4111AE890145BDC103A4818283A428
:10167000C18283A7018303A841833289014C014BB6
:10168000814B814D014A3EC042C2A28C268D3387D8
:101690008A01030707001376F70F930656FDF59AA4
:1016A000B3E6860193F6F60F95E6130737FD133B75
:1016B0001700050C1377FC0FE36B37FD09C96304B2
:1016C0000B00939DFD69232079012322B90141017B
:1016D0006FF02F839307E0026316F700631D0A067D
:1016E000054AC1BF130606FD1376F60FA54763E44E
:1016F000C706130507FD13154560EF60A051630889
:101700000A022286A686EF5030092A86AE865E85BA
:10171000EE85EF409029AA8BAE8D2285A685668640
:10172000EA86EF5070072A84AE84528559B7024684
:1017300092462EC62AC4EE855E85EF50F005A2487B
:1017400032474686BA86EF405026AA8BAE8D0545B5
:101750008DB70145828001459DBFEFE25FF74111E2
:1017600011E60144228541016FE0FFF98547E39AC4
:10177000F6FE328A3000BA84C5352A847DD12249EA
:10178000B249014681464A85CE85EF502075E34A2D
:1017900005FC03A6818383A6C1834A85CE85EF50CD
:1017A0002011EF60C04133450508EF60A04D03A64E
:1017B000818383A6C1832A8CAE8BEF50E07D2A867D
:1017C000AE864A85CE85EF50B04D014681462A8BC4
:1017D000AE8AEF50A070E34605F803A9018483A9FF
:1017E00041845A854A86CE86D685EF504063E35AB7
:1017F00005F64A86CE865A85D685EF50600BDE8682
:101800006286EF40901A88C0CCC083070A00130795
:10181000300593F6B7FF6396E6009395F569CCC063
:1018200091B71307E004E38FE7F29387B7FB13B494
:1018300017000DBFAA860145A9C2B1C10147814762
:101840002548A9481303F00F3385E600030505007A
:10185000130505FD137EF50F6362C803B3871703F5
:10186000AA97B3C70708636BF30005071375F70F53
:10187000E36CB5FC1CA20545828082800145828014
:101880000387C1AC930740022A88631BF702938742
:10189000D1AC01479386D1AC9308C0021303A002D8
:1018A0000385070063001503630A65001DE1631AE1
:1018B000E80094C1958F1CA205458280E30BE8FEE9
:1018C00001458280E307E8FE05071377F70F93864B
:1018D00017008507F1B7EFE21FE21306800281458A
:1018E000138501B5EFE09FE523A60198A385019834
:1018F00023850198A384019805456FE01FE2EFE27C
:101900009FDC5D7137940D202AC4EF00305113071E
:10191000842E1C43AA8485071CC301491304842E0A
:10192000930B4002138BC1AC854C054C1305D101C0
:10193000EF10205C0DC58346D101639B76071C44E4
:1019400023007B012385819985071CC4A384819989
:10195000230C9403050993070010E319F9FC5C407C
:101960000145CA975CC0A247A9C383C7B198138930
:1019700001B59DC38347190285C383A7C198130787
:10198000007DB387F4406379F7001C582320990049
:10199000A300090285071CD82245130680029385FF
:1019A00001B5EFE05FD80345190261616FE07FD5B3
:1019B00083C79198C5D3B547E38EF6F8294783C707
:1019C000A1986399E62C9386C1ACBE96238006004D
:1019D0005444A3840198138DC1AC850654C4230CD0
:1019E000F40244D881471306F005B306FD00838650
:1019F000060095EE93F7F70F0387C1ACA297A38C6F
:101A0000070293074002631AF700938DD1AC814916
:101A10009306A00203870D0005E35C4885075CC8B8
:101A200015BFB305F400A38CD50285077DBFE39AEB
:101A3000C7FE9307F005C9B76307D728B3C7E90006
:101A400093F9F70F850DF9B723A69198854DA385D6
:101A5000B1991257938701B584C383060700130712
:101A60001004138D01B56388E600A38007025C545F
:101A700085075CD4C5B510102C100D45EFF05FE064
:101A800001E5A3000D026DAC130611026C101145A7
:101A9000EFF01FDF7DD5130621020C181545EFF07E
:101AA0003FDE65D1130631024C181945EFF05FDDBA
:101AB00069D98346110232568345010222553818EE
:101AC000EFF0BFC95DDD83463102525683452102E6
:101AD00042559800EFF07FC84DD5F2576257130674
:101AE000F1012326FD0096472324ED000647232A13
:101AF000FD001C544C101D4585072328ED00A30054
:101B0000BD031CD4EFF0DFD7E30605E48345F10104
:101B100091E593070000232EFD002DBD1255B00066
:101B2000EFF09FB3E30805E2B6452645EF70E019F4
:101B300083A5418DEF605014232EAD0021BD130706
:101B400070046397E70803074D006313F708030762
:101B50005D0093071004631DF70603076D009307EC
:101B6000C0026317F7061C501306E1014C108507ED
:101B700019451CD0EFF0DFD06304051C8345E1015B
:101B8000125513063102EFF0FFCA630B051A23A6A4
:101B9000919805471306E1014C101D4523A891B407
:101BA000A385E198EFF0DFCD138D01B501CD83451D
:101BB000E1011255B000EFF0FFC709C5834781046A
:101BC0002300FD028347310281EBA3000D0245B5DE
:101BD0001C4C85071CCCBDBB1306F1012C1009451C
:101BE000EFF01FCAE30F05E810106C100D45EFF081
:101BF0003FC9E30805E8130611020C181145EFF080
:101C00003FC8E30005E8130621024C181545EFF024
:101C10003FC7E30805E68346010232568345F101DA
:101C200022553818EFF07FB3E30D05E48346210217
:101C300052568345110242559800EFF01FB2E3025D
:101C400005E4F25762571306E1012326FD0096478B
:101C50002324ED000647232AFD008547A300FD024B
:101C60001C544C10254585072328ED001CD4EFF0AB
:101C70003FC1E30105CE8345E1011255B000EFF00D
:101C8000BF9DE30905CC2645B645EF700004232C23
:101C9000AD00C9B11307E007637CF7001C4823853A
:101CA0000198A384019885071CC8230C04025DB128
:101CB000138717001377F70FDA972385E19894A31A
:101CC000230CE40241B903851D00EFF0BF942A877D
:101CD000E34505D403852D003AC6EFF0BF93E34EEC
:101CE00005D23247939749601207598D1315456005
:101CF000E315F5D283073D0013072005E391E7E4E0
:101D000003074D009307D004E314F7EC03075D00CD
:101D100093073004E31EF7EA03076D009307C00240
:101D2000E318F7EA5C4C1306F1014C1085070945EE
:101D30005CCCEFF0FFB409C58347F101E39607D00F
:101D40005C5085075CD039B108418280EFE23F9852
:101D5000411137AA0A20A307010093090008130ABA
:101D60004AFB138481B71305F100EF10E0291DC56C
:101D700083C7319911476364F704B3C74721984378
:101D80009C87028713073002639DE7008947A38978
:101D9000F198FD19B3C90908E39709FC41016FE007
:101DA0009F96938727F893B71700D5B72389F198A3
:101DB000ED1793F7F70F1307B0036375F700A389C7
:101DC0000198C1BF8D47E1B7A388F1982388019896
:101DD000914775BF83C5019983CB2199138681B73C
:101DE000938615001387CBFF93F6F60F2E96137785
:101DF000F70F2388D1981CA2E3EDE6F883CC119964
:101E00008146B3879B01938717FAED1B93F7F70F72
:101E100093FBFB0F13F6F60F636C760B22970347C9
:101E2000F7FFE31EF7F8EF00607F930760022A8C4C
:101E3000638FFC0E63E6970B054D6387AC139147E8
:101E4000E39FFCF6AD47E3FC77F7039581B7EF60BE
:101E5000505183A5818D938B41BBEF60E06123A836
:101E6000AB0003152400EF60D04F83A5818DEF6098
:101E7000A06023AAAB0003154400EF60904E83A539
:101E8000818DEF60605F23ACAB0003156400EF60F1
:101E9000504D83A5C18DEF60205E23AEAB000315CE
:101EA0008400EF60104C83A5C18DEF60E05C23A03F
:101EB000AB020315A400EF60D04A83A5C18DEF608B
:101EC000A05B23A2AB0223A28B012380AB01C5BD83
:101ED0003306D40010228506B29793F7F70F1DBF83
:101EE00093072003E39DFCECBD47E3FA77ED1385F0
:101EF00081B7938B41BBEFF03FE523AAAB0213857B
:101F0000C1B7EFF07FE423ACAB02138501B8EFF06B
:101F1000BFE323AEAB02138541B8EFF0FFE2854784
:101F200023A0AB0423A68B012381FB0049BDAD4751
:101F3000E3F777E9138581B7938B41BBEFF0DFE0DF
:101F400023A4AB021385C1B7EFF01FE023A6AB02B9
:101F5000138501B8EFF05FDF854723A8AB0223A408
:101F60008B01A380FB00A1BD8947E3FA77E503C796
:101F700081B7938781BF98B31830B8A33820B8B31E
:101F80003DBDEFE24FF7896741119387E7377C84C6
:101F90009D475C859C21C885A30701005C869C3118
:101FA00001479946DC86814730003A9610220507A2
:101FB000B29793F7F70FE319D7FE28009D455C878A
:101FC000EF10E00E41016FE04FF5EFE2CFF203C7F3
:101FD00081BF411149EBAA87138481BF2E8581E916
:101FE00058409306301F3387E74063FFE606130629
:101FF0008003938441BB8145138541BB5CC0EFE006
:10200000EFF383A7018E6C00130500069CDC83A709
:10201000418EDCDCBCC09967938747F67C86EFF085
:102020005FF60945EF20106FA5476C0013051006F9
:102030005C86EFF01FF50945EF20D06D85446C00FC
:10204000130500086486EFF0DFF3F16537A50A2079
:102050001306400693850520130585FC04A023265E
:102060000400EF60505D054541016FE00FEBEFE2CA
:102070000FE6938781BF37A90A20B7A90A2023A0BA
:10208000070023A2070023A4070023A60700854416
:10209000138A81BF8D4A130949FF9389890537AB9C
:1020A0000A20994BA52B01468545EFF01FF22A84A3
:1020B0001DE58327CA00CA8663E5FA00B3C7372146
:1020C0009443A68515461305CBFF8504EF60B056F3
:1020D0006387740113054006EF20D063E1B72285C2
:1020E0006FE06FE2EFE28FDF2A898144052B630303
:1020F000090803C781BFAA89138481BF09E7054680
:102100008145EFF09FECEFF07FC41C20138441BBAE
:1021100081448DC31C2099CF1C3089CF5C401307AC
:102120002003B387F9406367F7000444B384994000
:1021300093B43403314693058402232039011305F7
:102140004900EFE04FDE31469305C4011305090154
:10215000EFE06FDD3146930504011305C901EFE09F
:102160008FDC38209307000011C31C5C2324F90284
:102170002306990226856FE0AFD9EFE2CFD72A84F4
:10218000712929C8AA84EFF07FBC83C781BF138758
:1021900041BB014581CB3C2391C75C47B387F440E9
:1021A00013B537033C2304C081CF5C5F5CC03C4364
:1021B0001CC41C5F5CC45C5B1CC848A86FE0EFD506
:1021C00083A7418E5CC01CC483A7018E5CC49307A7
:1021D0000000DDB70145DDB7EFE2EFD11306800463
:1021E0008145138581C0EFE06FD5EF005022054592
:1021F0006FE0AFD2EFE2AFCD01112A890521630074
:10220000090C37940D20130744251C43416A8507A8
:10221000AA891CC3814B13044425938481C0054CB7
:102220007D4B930C00027D1A1305F101EF00D05590
:102230001DCD8347F101A30AF402034794037D8B6C
:102240002297230DF7020347940305071377F70F2F
:10225000A30CE40203C7040225EB638997095C50D1
:1022600085075CD0850B93070008E39FFBFA5C4071
:10227000DE975CC063950B005C5485075CD403CA91
:1022800044049307490063120A1458489306C05D3A
:10229000050758C8232039011307890196A3890728
:1022A000E31EF7FEB707DC051387C75D9387873EFC
:1022B000232EF900C167232CE9002320F902014AEB
:1022C000528505616FE02FC4631E87031307000466
:1022D0006383E7021848050718C8639797072380A8
:1022E000940123808403230A8403ADBF23808403E5
:1022F00023809401CDBF09472380E4029CB0230AC8
:10230000E4028DB79306170093F6F60F2697238005
:10231000D4021CA3230AD402E376DBF49830FC3CFD
:1023200083C681C0230BE402A30BF402230C040236
:102330006396960193060004630DD7005C508507F1
:102340005CD01C4885071CC823800402230A0402B1
:1023500011BF814652877946B385D4008C2185060A
:102360000D8F33470708E399C6FEF42CA207D58FDB
:102370006386E7001C5485071CD4E1B72687814695
:102380001308007D1305803EB9453C33302309070F
:10239000A207D18F33D6070B3376A60A12B3138662
:1023A00086023326862085063EA6E390B6FE23836A
:1023B0000404A38204049D2485472382F4041C445E
:1023C000A8C085071CC408D841B73EC6812CB840B8
:1023D00093064006B247198DE3E9A6EA2320E900F7
:1023E000A68601472945AE32130687033326862089
:1023F0008EA36EA6050789068907E316A7FE832725
:102400004900232CF9008357C900231EF900835784
:10241000A900231FF9008357090193B7076493C7E5
:1024200017002300F90283C76404A300F90283C7DD
:1024300054042301F90281C7A301090249B5854764
:10244000A301F9021C5085071CD09DBDEFE2AFAA85
:102450007971130600028145080802C202C402C64F
:10246000EFE0CFAD854513054020EF101001014589
:10247000EF10F0058D451145EF10E0633715014071
:102480008D474C0013050580372401407C8202C62D
:10249000EF10E03413050440EF102027B7070E00BB
:1024A000130504403ECE0C0885472302F10202C802
:1024B00002CA02CC02D002D402D6EF1000291305C2
:1024C00004408545EF10C02D13050440E164EF1072
:1024D000202E9384146A130404402285EF10E02D0B
:1024E00011C9FD14FDF8B7970D2093870724984371
:1024F000050798C3B7240140138504406164EF10B9
:10250000402C1304146A938404402685EF10A02CF9
:1025100011C97D147DF8B7970D2093870724984340
:10252000050798C345616FE04F9FEFE2CF9C894557
:1025300009C937150140130505C0EF10C0386FE019
:10254000CF9D37150140130505C0EF100038C5BFFA
:10255000EFE2CF9837940D204111130404588949B4
:10256000F16402C202C402C623203401EF10200429
:10257000EF20301813850420EF20701C0D4985458D
:10258000214523202401EF10406F371501404C00F6
:10259000C147130505C03EC6231231014AC4EF10DE
:1025A00000240145EFF07FF8192A13850420EF007D
:1025B00020760965A947130505581CC0B529138560
:1025C0000420EF000059EFF07FE837A60A20B7A5F6
:1025D0000A2037A50A2013068606938505071305EA
:1025E0008508EF60500583A5019B37A60A2037A513
:1025F0000A20130646091305C50AEF60D00337A564
:102600000A20130620039305803E1305C50CEF60D6
:102610009002CD471CC041016FE08F8F03A5419907
:10262000828083A74199850723AAF198B7970D2047
:10263000938707589847050798C78280EFE2AF8BCA
:102640009307007DB3D5F50A9307803EB3F5F50AED
:1026500089476308F50263EAA70009ED37350140B1
:10266000130505C0EF10101A21A08D476302F50273
:102670006FE0AF8A37350140130505C0EF10D01861
:10268000C5BF37350140130505C0EF103018CDB771
:1026900037350140130505C0EF109017D1BFEFE2A9
:1026A0008F85AA840144114922850504A6851374E7
:1026B000F40FEFF0BFF8E31924FF6FE00F86EFE2AD
:1026C000EF8105657971854513055584B71901407A
:1026D00002CA02CC02CE02D002D202D402D602C476
:1026E00002C623180100EF104059138509800546E2
:1026F000A145EF10C01D3724014013050480054695
:10270000AD45EF10C01C130504800546B545EF101C
:10271000001C054613050480B945EF10401B9307C4
:10272000001061498D444C0813850980FC824ACE13
:1027300026CCEF10C00A9D67938707804C081305CD
:102740000480FC824ACE26CCEF10600983A7019B4F
:1027500037470F0013070724B3D7E7023734014088
:102760002C00130504C023150100FD177C84956718
:102770009387F7E13EC6EF10E056C16793870706DF
:102780003ED00C109307803E130504C02313F102C2
:1027900023140102EF10C05C0C10130504C0EF10ED
:1027A00040630C10130504C0EF10406C0C101305AF
:1027B00004C0EF102075130504C0A145EF101000F0
:1027C000130504C0A145EF105000130504C0A14536
:1027D000EF101001130504C0A145EF1050011305BF
:1027E00004C08545EF10E07B130504C08545EF105C
:1027F000E0798545130504C0EF10C0771305803ECE
:10280000EFF0FFE945616FD0BFF0EFD2DFEE83A7B5
:1028100081999305803E9386170023ACD198056774
:102820001307479C6375D7027D771307D763BA9761
:102830002947B387E7021307401F9305004BB3D71F
:10284000E7029387873EB3C70708B3D5B70A0145A8
:10285000EFF0DFDE9305803E0545EFF03FDE9305A8
:10286000803E0945EFF09FDD9305803E0D45EFF07A
:10287000FFDC6FD09FEAEFD21FE84111B14702C4DD
:102880002EC08A852A847C8502C202C6EF10A078F9
:1028900085452285EF10300341016FD01FE8EFD24C
:1028A0009FE5B7440040130410409384044093050F
:1028B00000022685EF10900709C57D1433440408F3
:1028C0001DE037440040A14513050440EF101006F9
:1028D00019CD374500408357054013050540EF10DB
:1028E00070046FD09FE32685EF10D003C9B79145E0
:1028F00013050440EF10900369FD8945130504405A
:10290000EF10D00279F5854513050440EF10100251
:1029100069F1C1BFEFD23FDEB7540040130410107D
:1029200093840480930500022685EF10300009C5CA
:102930007D14334404081DE037540040A1451305BD
:102940000480EF10A07E19CD3755004083570580D5
:1029500013050580EF10007D6FD03FDC2685EF105A
:10296000607CC9B7914513050480EF10207C69FD98
:10297000894513050480EF10607B79F585451305C3
:102980000480EF10A07A69F1C1BFEFD2DFD6B7544F
:10299000004013041020938404C093050002268590
:1029A000EF10C07809C57D14334404081DE0375486
:1029B0000040A145130504C0EF10407719CD3755ED
:1029C0000040835705C0130505C0EF10A0756FD0F8
:1029D000DFD42685EF100075C9B79145130504C0F3
:1029E000EF10C07469FD8945130504C0EF10007431
:1029F00079F58545130504C0EF10407369F1C1BF37
:102A0000EFD27FCF6164AA841304146A930500088F
:102A10002685EF10A07119C1054529A87D147DF404
:102A2000B7970D209387473803A74711014505073E
:102A300023AAE7106FD07FCEEFD2FFCB2396019A67
:102A40004111AA842395019A854537050200238404
:102A5000019A02C202C402C6EF10E02385451305A5
:102A60001002EF10802137140140130504401D4669
:102A70009545EF00D0651D46130504409945EF00CC
:102A80001065930700027C82E1473EC64C008D47EB
:102A9000130504403EC4EF009054930700047C8269
:102AA0004C0093078004130504403EC637440040A1
:102AB000EF00F052A68513050440EFF0DFDBB7E727
:102AC00000E00547A386E7624157A386E74209670E
:102AD00023A2E7180F100000014623A2E728930560
:102AE000505213050440EF10405FEFF05FDB4101EF
:102AF0006FD0BFC2EFD23FC0B7970D209387473842
:102B0000D8570507D8D783C7819A85E7374500404E
:102B100001469305505213050540EF10005CEFF09D
:102B20001FD8B7E700E0096723A2E7288547238479
:102B3000F19A37450040054693055052130505406C
:102B4000EF10A059B7E700E0096723A2E7106FD0A4
:102B5000DFBCEFD25FBA2393019A4111AA8423927A
:102B6000019A8545370504002381019A02C202C4F7
:102B700002C6EF10401285452545EF1000103714AE
:102B80000140130504C01D46A945EF0050541D46E1
:102B9000130504C0AD45EF009053930700407C82BD
:102BA000E1473EC64C008D47130504C03EC4EF000C
:102BB00010439317B0287C824C00930780041305C0
:102BC00004C03EC637540040EF007041A68513058F
:102BD0000480EFF05FCAB7E700E00547238AE764A7
:102BE0004157238AE7443707100023A4E7180F1042
:102BF0000000014623A4E7289305505213050480E2
:102C0000EF10A04DEFF01FD141016FD01FB1EFD2F7
:102C10009FAEB7970D209387473803A7470805074E
:102C200023A2E70883C7219A8DE737550040014664
:102C30009305505213050580EF10204AEFF09FCD09
:102C4000B7E700E03707100023A4E7288547238172
:102C5000F19A3755004005469305505213050580FB
:102C6000EF10A047B7E700E03707100023A4E710F4
:102C70006FD0BFAAEFD23FA837150140130505C09A
:102C8000EF00F043B7970D2093874738239EA7089E
:102C900003D7C709B7060140938707081357B748FA
:102CA000F8AF984A31833D8BF8BF9842B756004041
:102CB00098D31387068083D60680B3C6060894C7C8
:102CC0005627B3C60608D4C7162BB3C6060894CB3E
:102CD000562BB3C60608D4CB1A273347070898CF1C
:102CE00037E700E0144793D64649D4D3145793D618
:102CF000464994D79306073094461307077093D636
:102D00004649D4D718471357474998DB6FD0FFA0DF
:102D1000EFD2DF9C2390019A4111AA84239F01984E
:102D2000854537050800238E019802C202C402C6F9
:102D3000EF007076854513051008EF0010743724F6
:102D40000140130504C0C145EF00F03741498D49EA
:102D50004C00130504C0231221014AC64EC4EF00E3
:102D600010281D46130504C09145EF005036E14779
:102D70004C00130504C03EC6231221014EC4EF00CF
:102D800010261D46130504C08D45EF005034A147A1
:102D90007C824C0093078004130504C03EC6375460
:102DA0000040EF00D023A685130504C0EFF0BFACB0
:102DB000B7E700E00547A38AE7644157A38AE744E1
:102DC0003707200023A4E7180F100000014623A4B2
:102DD000E72893055052130504C0EF100030EFF0C0
:102DE000DFBA41016FD0DF92EFD2FF90B7970D208D
:102DF0009387473803A7470E050723A2E70E83C72B
:102E0000C1998DE73755004001469305505213058F
:102E100005C0EF10802CEFF05FB7B7E700E0370791
:102E2000200023A4E7288547238EF19837550040DA
:102E3000054693055052130505C0EF10002AB7E769
:102E400000E03707200023A4E7106FD01F8DEFD2DA
:102E50009F8A37250140130505C0EF005026B7971C
:102E60000D2093874738239EA70E03D7C70FB706B9
:102E700001403756004013573748238FE70ED85686
:102E800031833D8BA38FE70E9442138707109387FE
:102E9000070814C3930606C0035606C03346060847
:102EA000B0D7D22633460608F0D7922A3346060812
:102EB000B0DBD22A33460608F0DB9626B3C60608F6
:102EC000B4DFB7E700E0944793D6564954C394570C
:102ED00093D6564914C79386073094469387077054
:102EE00093D6564954C79C4793D757491CCB6FD0AC
:102EF000DF8239C537E600E00328460089652322D2
:102F0000B6183378B8000F10000003D3A19A83D607
:102F1000C19AB7970D20938747386315D302D447DA
:102F20008506D4C703D7A19A33470708BABB03D78E
:102F3000C19A33470708DABB630408002322B6109E
:102F40000145828003D3A19A938601F59A96942233
:102F500014A183D6A19A850693F6F63F2395D19ABC
:102F60009447850694C703D7A19A33470708BABB8D
:102F700003D7C19A33470708DABB63140800054535
:102F800082802322B610E5BF0DCD37E700E0104761
:102F9000B70610002324D718758E01CE0F1000003D
:102FA00003D8419A03D6619A631FC8022324D7101D
:102FB00009A80F10000083D6419A03D7619A639441
:102FC000E6000145828083D6419A138701E5369752
:102FD000182318A103D7419A05071377F70F2392F7
:102FE000E19A0545828083D5419A138601E52E96A4
:102FF000102210A103D6419A05061376F60F2392EC
:10300000C19A2324D710F1BF0DCD37E700E0104758
:10301000B70620002324D718758E01CE0F100000AC
:1030200003D8E19903D6019A631FC8022324D7105D
:1030300009A80F10000083D6E19903D7019A639481
:10304000E6000145828083D6E199138701C5369752
:10305000182318A103D7E19905071377F71F239FBA
:10306000E1980545828083D5E199138601C52E96A6
:10307000102210A103D6E19905061376F61F239FAF
:10308000C1982324D710F1BFEFD2EFE64111375496
:1030900000402AC6130504C0EFF09F9611C5B24543
:1030A000130504C0EF10800741016FD00FE719CD61
:1030B000EFD26FE42A84B304B500631494006FD098
:1030C000CFE508200504EFF03FFCC5BF8280011169
:1030D0003EC4B74700403AC603D70740B7970D2014
:1030E00036C89386473832CA90422ACE2ECC42C286
:1030F000050690C23347070898DE1376F70090D68E
:10310000937687009387473881C6D44B8506D4CB06
:103110009376270081C6944F850694CF9376470017
:1031200081C6D44F8506D4CF9376170081C69453B9
:10313000850694D39376F70291EED8530507D8D33A
:103140007245E2455246C2463247A24712480561DF
:1031500073002030B746004013770702938606407D
:1031600039CFCE2203D7C19A83D6A19A3348070814
:1031700005071377F73F93F5F50F639CE600944B33
:10318000850694CB83D6A19A850693F6F63F2395C0
:10319000D19AD4438506D4C3938601F52388B70218
:1031A000C2968CA22396E19A03D7A19A33470708C7
:1031B000BABB03D7C19A33470708DABB51B7DE223F
:1031C00041B701113EC4B75700403AC603D7078044
:1031D000B7970D2036C89386473832CAF04E2ACEAC
:1031E0002ECC42C20506F0CE1386060833470708E8
:1031F00018C61376F700F0DE93768700938747387A
:1032000081C6B4578506B4D79376270081C6F45794
:103210008506F4D79376470081C6B45B8506B4DB98
:103220009376170081C6F45B8506F4DB9376F7028C
:1032300091EEB85F0507B8DF7245E2455246C246D7
:103240003247A2471248056173002030B75600404C
:10325000137707029386068029C7D62203D7619A7F
:10326000B05393F6F60F334807080506B0D3238012
:10327000D70883D5419A05071377F70F639CE500BC
:10328000EC538505ECD383D7419A850793F7F70F65
:103290002392F19A938701E5C29794A32393E19A2D
:1032A00061BFDE2251BF01113EC4B75700403AC68C
:1032B00003D707C0B7970D2036C893864738938643
:1032C000060832CAD05A2ACE2ECC0506D0DA3347A9
:1032D0000708B8D61376F700F0CE93768700938769
:1032E000473891C683A6870C850623A4D70C93760E
:1032F000270091C683A6C70C850623A6D70C937614
:10330000470091C683A6070D850623A8D70C9376A0
:10331000170091C683A6470D850623AAD70C93767E
:10332000F70299EE03A7870D050723ACE70C72455A
:10333000E2455246C2463247A2470561730020303B
:10334000B7560040938606C0D6221377070293F63D
:10335000F60F2380D70E61DF03D7019A83A6870B70
:1033600033450708850623ACD70A83D6E1990507BC
:103370001377F71F6399E60083D6E199850693F6E4
:10338000F61F239FD19883C6070E938701C593F636
:10339000F60FAA9794A32390E19A51BF13850135A4
:1033A0008280EFD24FB537940D201306001181456E
:1033B00013040458F94793840135138501351CC063
:1033C000EFD0CFB7B707E8039387873E23A6F40E65
:1033D00023A8F40EFD471CC0EFE07FC9930700024D
:1033E0001CC0EFE0AFA2930710021CC0EFE0AFCE0D
:1033F000930720021CC0EFE03FDE93078002138595
:1034000001401CC0EFD01FB7EFD03FC6EFD0BFB216
:10341000EFD01FB6EFE06F9F1305803EEFF02FA8AF
:10342000930720031CC0EFD07F8EEF10400193075D
:10343000C00348C41CC0EF10804F9307800C1CC011
:1034400001A0EFD24FAB37940D20B7075EA58907D7
:10345000130404551CC0EF00907E08CCEF00907E52
:1034600048CC1305803EEFF08FA3896793870780D0
:103470007390073001A0EFD20FA837940D20B70743
:103480005EA5130404558D071CC048C00CC4EF0092
:10349000107B08CCEF00107B48CC1305803EEFF08A
:1034A0000FA08967938707807390073001A0EFD240
:1034B000EFA286892E8AAA8AEF10B01CB7940D203D
:1034C000B7075EA51384045585071CC02326540145
:1034D000232844015C482A899384045585075CC8E5
:1034E000EF00F07508CCEF00F07548CC23203403D2
:1034F0002322240385476302F902EF10404C88D44D
:10350000EF10D017C8D41305803EEFF04F998967AC
:10351000938707807390073001A023A4040201451C
:10352000D5B7B7970D20938747539843050798C39E
:103530009307800873B007800F10000001A0B797B1
:103540000D2093874753D8430507D8C373272034EA
:1035500098C773271034D8C77327303498CB732794
:103560000030D8CB0A8798CF9307800873B00780C4
:103570000F10000001A0EFD20F98B7E700E0370767
:10358000200023A4E7180F10000037940D2023A477
:10359000E7281304045885471CC0EFE07FFBD147A0
:1035A0001CC0EFF01FE09307A00F1CC001A0B717CD
:1035B0000240D44398472146B18A6394C602B706B5
:1035C0000070758F37060050630BC7126360E60208
:1035D0001DC7B7479C1CB706004093870780630749
:1035E000D706B7877D01938707848DA037060060D3
:1035F0006308C70EB767730793870794CDB79047E3
:10360000944798479305000A93F6060E2183137793
:10361000F7037D8A0507639AB606B767CD1D9387C2
:10362000075033D7E702B7070C2093870732B297CA
:103630009C239146B387E7026309D600856693868B
:103640000654B3D6C600858A91C2858323AAF19A0F
:1036500037160240544237070C2013070731918276
:10366000BD8A36971823B7060C209386063EB3D73B
:10367000E700584241830D8B3697182333D7E70074
:1036800023ACE19A23A8F19A82809305000E6392FD
:10369000B602D45BB7070C2093870730C182B69778
:1036A0009C23B7867D0193860684B387D7028583E2
:1036B0008DBF930700086397F600B7479C1C93875C
:1036C000078085B79307000C6397F600B767730709
:1036D00093870794B9B7B7877D019387078491B71C
:1036E000D85BB7070C20938707304183BA979C2398
:1036F00037877D0113070784B387E702B9B7B76738
:10370000CD1D9387075099B701A0EFC2DFFEB72701
:10371000014093870740631CF50085451305002091
:10372000492B81451305002069236FC01FFFB73760
:10373000014093870780E31AF5FE85451305004095
:103740008D2B814513050040C5B75841B707F1E0FF
:103750009387F7EF944D7D8F9C41D58FD44DD58FB6
:10376000D441A206D58FD98F5CC11845B7F7F1FFB8
:103770009387D77FD4457D8F9C49D58F9445860606
:10378000D58FD98F1CC55855B70710FFFD177D8FF2
:10379000DC29FD1793F7F70FD207D98F5CD582800C
:1037A0001C4589C593E717001CC58280F99BEDBFB6
:1037B0001C4593E787001CC5828008451355354892
:1037C00082805C4537070038D98F5CC51C4593E77C
:1037D00047001CC5828008451355254882809C45BA
:1037E00003D8050013F7070193F8F7001DCB584DD8
:1037F00093E8180081468D4E414E3316D02833731E
:10380000C800631C66001393160033966E0033776E
:10381000C740D04133166600518F8506E39FC6FD31
:1038200058CD1377F80F1DCF18418146130380023E
:103830003D4E930E8004A1453316D028337FC80037
:10384000631EE6016395670650C913962600331F71
:10385000CE003396C8003377E741518F8506E39D4C
:10386000B6FC18C11307F00F6372070554410146F7
:10387000130E8002930E8004214313078600331732
:10388000E028B375E800631FB7006396C70358C903
:1038900013172600BD45B395E5003397E800B3F64E
:1038A000B640D98E0506E31A66FC54C18280E39EB9
:1038B000D7F910C959BFE39DD7FD18C9D1BF084535
:1038C0003345050882800CC982804CC98280371735
:1038D00001409D479306078063F8B702938785FFF1
:1038E00093F7F70F631AD506B70601408C468A078F
:1038F0003D473317F70033F7E54098C69846B317AE
:10390000F600D98F9CC682806308D502930707C052
:10391000630AF508631CE51637070140544B8A0516
:10392000BD47B397B700B3F7F6405CCB5C4BB3151C
:10393000B600DD8D4CCB82803707014054438A05A9
:10394000BD47B397B700B3F7F6405CC35C43B3150C
:10395000B600DD8D4CC38280930607C06304D50298
:103960006312E510B70601408C4E8A073D473317B6
:10397000F70033F7E54098CE984EB317F600D98F8D
:103980009CCE8280B70601408C4A8A073D47331798
:10399000F70033F7E54098CA984AB317F600D98F75
:1039A0009CCA82803707014054478A05BD47B397B8
:1039B000B700B3F7F6405CC75C47B315B600DD8DC2
:1039C0004CC782803727014013070780AE876318F2
:1039D000E5043707014054538A05BD47B397B70044
:1039E000B3F7F6405CD35C53B315B600DD8D4CD312
:1039F000828037270140130707806312E502B7066C
:103A000001408C568A073D473317F70033F7E540EE
:103A100098D69856B317F600D98F9CD68280372750
:103A20000140130707C06317E5088A073D473317AE
:103A3000F7003316F6009D471347F7FF63FBB70007
:103A4000B7070140945B758F98DB985B518F98DBCB
:103A50008280B7070140D457758FD8D7D857518F78
:103A6000D8D7828013070740E315E5F8B706014071
:103A70008C528A073D473317F70033F7E54098D259
:103A80009852B317F600D98F9CD282801307074053
:103A9000E31AE5F237070140544F8A05BD47B39753
:103AA000B700B3F7F6405CCF5C4FB315B600DD8DC1
:103AB0004CCF82808280B7160240DC4241771307E8
:103AC000F77FBA05F98FDD8D2E054D8DC8C2828036
:103AD000B7170240D44398472146B18A6394C6027F
:103AE000B7060070758F37060050630EC714636009
:103AF000E6021DC7B7479C1CB706004093870780A6
:103B00006307D706B7877D01938707848DA03706A3
:103B10000060630BC710B767730793870794CDB72F
:103B20009047944798479305000A93F6060E218321
:103B30001377F7037D8A0507639DB608B767CD1D28
:103B40009387075033D7E702B7070C2093870736D0
:103B5000B2979C239146B387E7026309D600856636
:103B600093860654B3D6C600858A91C285831CC14C
:103B700037160240544237070C201307073591824D
:103B8000BD8A3697182393860181B3D7E700584240
:103B9000416641830D8B36971823B7F600E033D783
:103BA000E70058C183A606D1F18E91E2BA871CC501
:103BB000371602405C4263DD07085C4237479C1CB5
:103BC00013070780AD83FD8B95073357F70258C560
:103BD00082809305000E6392B602D45BB7070C2077
:103BE00093870734C182B6979C23B7867D0193865D
:103BF0000684B387D7028583B1B79307000863971C
:103C0000F600B7479C1C938707802DBF9307000CD5
:103C10006397F600B76773079387079425B7B7874D
:103C20007D019387078439BFD85BB7070C20938742
:103C300007344183BA979C2337877D011307078494
:103C4000B387E70225B7B767CD1D9387075005B740
:103C50005442B7070C209387873EAD829D8AB69762
:103C60008C235C42B7060C209386463EB9838D8B2D
:103C7000B6979C233357B70089BF99C537170240C1
:103C80005C4FC98F5CCF8280B7170240D84F337525
:103C9000A740C8CF828099C5371702401C53C98FEF
:103CA0001CD38280B717024098533375A74088D33E
:103CB000828099C5371702401C4BC98F1CCB82806C
:103CC000B7170240984B3375A74088CB8280B7174F
:103CD0000240D8437E051317F749D8C3D843598DFE
:103CE000C8C38280B7370140138607C0D6219A2106
:103CF000630DC502938707406309F502B7070040CB
:103D00006305F502938707406301F502B71700408A
:103D100013860780630BC500938707C06307F50010
:103D200056B51AB585475EA982801E21B221B3C758
:103D3000070893F7F7F8D18FF22193F7F7CFD18FD8
:103D40001EA156B5B73701401AB5138707C06306E1
:103D5000E50093870740E317F5FC9C251EB9D9B70A
:103D60001E31922103D82500B3C70708F99BB3C7BA
:103D700007081EB11E3156211A2DB3C70708F59B3F
:103D8000334707081377C7F8518F9225B3C6060843
:103D900033660601D18F37360140130806C063062B
:103DA0000501130606406310C502B225DD9B03D84A
:103DB000E500D18FD221ED9B93F6F6CFD18FD2259E
:103DC00033660601D18E56A11AADFA215AB91EB139
:103DD00082801E31E5769386F6CFB3C70708BD9B78
:103DE000B3C707081EB11E3152211A2D03D8850012
:103DF000B3C70708758F962193F7F7FD334606087A
:103E0000A206558FB62133470708B3E6060192068E
:103E1000D58FB7360140138806C0B3C707086306BD
:103E2000050193860640631DD502B62593F7F7F783
:103E300003D8C5009206D58FD621B3C7070893F7DC
:103E4000F7FB9206D58FFD769386F63FF18EF2252D
:103E5000B3C70708336606010A06D18E33C60608C3
:103E600052A11AADFA211ABD1EB182801E319621CF
:103E700003D88500B3C7070893F7F7EFB3C7070860
:103E80001EB11E3152215A2DB3C7070893F7F7DF31
:103E9000334707081377C7F8558FB621334606080E
:103EA000B3E60601A206D58FB7360140138806C0D7
:103EB000B3C707086306050193860640631ED50253
:103EC000FD769386F67FF58FB62503D8C500A2064A
:103ED000D58FD621B3C7070893F7F7BFA206D58FB2
:103EE000F576FD16F18EF225B3C707083366060195
:103EF0001206D18E33C6060852A15AADFA215ABD18
:103F00001EB182801E317D777D17F98F1EB11A3167
:103F10005E21562D65761306F6CFF18E922103D8D9
:103F20008500B3C707082206D18E79767D16718F7A
:103F3000B221B3C60608336606013206518F373602
:103F40000140130806C0334707086306050113063E
:103F50000640631AC50071767D16F18FD2251A06C8
:103F6000D18FB3C707085EA1FE2156AD2310F5041B
:103F70001AB182801E2189C593E717001EA1828095
:103F8000B3C70708F99BB3C70708CDBF83574504DC
:103F900091C59397F7282312F5048280C607C5833D
:103FA000DDBF1E2189C593E707081EA18280B3C724
:103FB000070893F7F7F7B3C70708C5BF1E2DB3C7A8
:103FC0000708DD9BCD8F1EAD82801E2D7D771307E8
:103FD000F77FF98FA205CD8FB3C707081EAD82808A
:103FE0005E2DB3C70708DD9BCD8F5EAD82805E2D51
:103FF0007D771307F77FF98FA205CD8FB3C7070829
:104000005EAD82804EB982800EBD82804EBD8280C0
:104010002310B5048280EFC20FEE9E257D77BD662A
:104020007D8F41112A84AE84631BD7005A2DB18B3A
:10403000334707084D9BD98F5EAD239405001A289E
:10404000F577FD177D8FFE200A85D98F1EA85A248B
:104050008D679387379F7D8FDE20D98F9A24D98FE4
:10406000BA24D98F5EA45E28DA24B3C7070893F771
:10407000F7CFD98F5EA8EFF0BFA592476545904076
:10408000B335F50281460A063305F502EF105058A4
:1040900093064006B357D5021306F0631397470003
:1040A000B377D502920793872703637AF6009307C5
:1040B0000701B3C707081EA441016FC00FE6B3D7BD
:1040C000D702D98FFDB75E2589C59397D7285EA5FE
:1040D000828079777D17F98FDDBF93F7F50F958390
:1040E0000547B315B0286398E70031051C411DC290
:1040F000CD8F1CC1828009476394E7004105FDB75D
:104100000D476394E7005105D5B71147E390E7FEEB
:104110007105E9BFB3F5B7400CC1828093F5F51F77
:104120004EA182804A211375F51F82800A216D8D70
:104130003335A0008280EFC28FD91307F5FFB9573E
:1041400063F9E700EF00F00683A7C19C99EF814473
:1041500091A09377F5009304050185E3EF007005C6
:1041600083A7C19C85CB63DD0406EF00101CEFF034
:104170004FAD814A56856FC00FD91387F7FEE363B1
:1041800097FC13050502B304F540EF00900283A7E6
:10419000C19CA9E737170C20130707049376F70093
:1041A000E16799C69306F700C19ABA97958F36874B
:1041B000BA979386019DC117C19B23A2060098C29E
:1041C00023A2070023A00700B386E74023A6F19CA3
:1041D0001CC323A2D19C54C323A4D19CE35790F8C1
:1041E00083A7819CE3E397F89387019D8043371A67
:1041F0000C20130A0A041389019D63684401B797D0
:104200000D209387F70363FA870037A50A209305EB
:10421000600F1305050FEFF08FA9B79B0D2037AC8A
:104220000A20938BFB035C4063F69700832A04000B
:10423000639A0A0C83A7C19CE38987F2832A090049
:10424000C10A63E84A01B7970D209387F70363FA21
:10425000570137A50A20930560101305050FEFF0ED
:104260000FA51C402320F9005C4063FA970037A596
:104270000A209305E0101305050FEFF04FA35C40F3
:1042800013070002858F637AF702B309940093F74E
:10429000F90089CB37A50A20930570111305050F86
:1042A000EFF0EFA05C40858F23A2F900832709007F
:1042B00044C023A0F9002320390183A7819C5840E2
:1042C00003A6419C998F23A4F19C63F4C70023A209
:1042D000F19C1317F72958C083A7019C23200400E1
:1042E000850723A0F19CEF00500493F7FA00E383C5
:1042F00007E837A50A209305D0151305050FEFF041
:104300000F9B8DBD63E44A0163F85B019305C00F09
:1043100013050C0FEFF0AF992289568429B7630F6C
:104320000510EFC2AFBBB7190C20130905FF938925
:1043300009042A8463683901B7970D209387F7032E
:1043400063FA270137A50A20930500171305050F07
:10435000EFF0EF95832744FF63CA070037A50A20D3
:10436000930510171305050FEFF06F94832704FFD3
:1043700089CB37A50A20930520171305050FEFF009
:104380000F93832744FF63D6070A032704FF55E3EF
:104390009397F749232AF4FEEF00A06183A6819C3E
:1043A000832744FFB69723A4F19C1387019D93872D
:1043B000019DBA841843E36E27FF6382F40263E829
:1043C0003401B7970D209387F70363FA970037A559
:1043D0000A20930560201305050FEFF04F8DD440A0
:1043E000032744FF9C403386D400631AC9003697E4
:1043F000D8C0B386E4006397D702268929A0B30604
:10440000E900639AD70283A6C19C6387F600D44370
:104410009C4336972322E9002320F900638424017A
:1044200023A0240183A7C19B850723AEF19AEF0047
:10443000C06F6FC0EFAD2328F4FECDB7828003A517
:10444000819C828003A5419C8280B7E700E04157B0
:104450002387E740A386E740B7F700E09387070884
:1044600023A0070023A2070023A4070003A7019BA2
:104470008566938606FA3357D70298CB3D4798C393
:1044800037970D201307071D1443850614C3944B5B
:1044900014CB9C435CC78280EFC2EFA5411102C6DA
:1044A000F32750303EC6B2470D478D8B638AE70035
:1044B00037A50A209305C00C13058511EFE03FFFD7
:1044C000B707102093870700BD8B89CB37A50A203B
:1044D0009305000D13058511EFE07FFDEFF0FFF66A
:1044E000B7E700E0116723A0E710096723A0E710F2
:1044F00023AA0180EFB0DFFE014541016FC0EFA1AB
:104500005D7186C696C49AC29EC022DE2ADC2EDA6F
:1045100032D836D63AD43ED242D046CE72CC76CAC3
:104520007AC87EC6731101348967938707807390B8
:10453000073037940D201307041D5C4385075CC3C7
:10454000B7F700E093870708D44354CB944714CFC0
:1045500023A2070085299307041D09C9984791667E
:10456000050798C737E700E02320D72073110134EF
:104570009847D8CF8967938707887390073072541C
:10458000B640A642164386436255D2554256B256AD
:10459000225792570258F248624ED24E424FB24FC3
:1045A00061617300203089679387078073900730BB
:1045B00083A74181850723AAF1808280EFC2AF9350
:1045C00083A7418189EB37A50A2093056012130563
:1045D0008511EFE0DFED83A74181FD1723AAF1806C
:1045E00091E7896793878788739007306FC0EF9250
:1045F000930785007D575CC118C55CC51CC9232085
:10460000050082802328050082809441FD5713070E
:104610008500639DF6001C49D843D8C10CC79CC5D2
:10462000CCC31C4188C985071CC18280BA87584306
:104630001043E3FDC6FECDB7544118451C4998C64A
:1046400054C3D4436393A600D8C3232805008843EA
:104650007D1588C38280EFC26F8883A9C19F03AA9A
:10466000C1A083AA81A0AA8483A701A103A501A157
:104670002E89A38807041105EFF01FFCFD576390F6
:10468000F404630E0902B7970D2093870704D843FB
:1046900083A601A1104798C683A601A1D0C683A610
:1046A00001A1910654C283A601A1910614C703A7D4
:1046B00001A15CCB9843050798C36FC06F8583A7A2
:1046C00001A183A501A1CE94C4C3910563F6340171
:1046D0005685EFF09FF3D5B75285EFF01FF303A790
:1046E000019EE3FCE4FC23A0919EC1BF83A7C1A06F
:1046F000944389E67D5723A0E19E828003A7C1A051
:1047000058471843CDBFEFB27FFDB7940D20938477
:10471000440583A741A099E36FB09FFFEFF0BFE886
:10472000DC4403A9C70013054900EFF0FFF083A79D
:1047300001A0FD1723A0F1A083A741A0FD1723A28C
:10474000F1A0EFF0BFE703250903EFF05FBD4A8555
:10475000EFF0FFBC7DBFEFB21FFAEFF0DFFAF5BF5D
:10476000EFB2FFF6131926002A8B4A85AE8AB68B64
:10477000BA843E8AEFF03F9C01E57D556FB0BFF8EB
:10478000AA8913054005EFF01F9B2A84630B0516C9
:10479000130640058145EFB07FFA4A86232834038B
:1047A0009305500A4E85EFB07FF91C5871193E9958
:1047B000137909FF63820A028147C1463387FA00F1
:1047C000030707003306F400230AE60201C7850742
:1047D000E396D7FEA3010404B94763FB970037A50E
:1047E0000A209305D07813050514EFE05FCCB94497
:1047F000930A4400568544D464C0EFF0BFE013052B
:104800008401EFF03FE0BD47858F00C81CCC40D04D
:104810005E86DA854A85EFB0BFDC08C063040A0013
:1048200023208A00EFF03FD803A701A037990D207D
:10483000050723A0E1A003A701A19304490A631679
:10484000070C23A881A003A701A085476312F706E0
:104850001309490A138AC4124A855109EFF05FD936
:10486000E31C2AFF379A0D2013050A09EFF05FD8E1
:1048700037990D201305C907EFF09FD737950D2005
:1048800013058506EFF0DFD637950D201305450596
:10489000EFF01FD637950D2013050504EFF05FD517
:1048A000130A0A0923A641A11309C90723A421A1B8
:1048B00083A7419E850723A2F19E5C5483A6819F16
:1048C00063F4F60023ACF19E5147B387E702A69745
:1048D000D843144718C454C423A2560123245701B3
:1048E00098435CC8050798C3EFF05FCD83A7419F4D
:1048F00099C783A701A1D8575C546364F7020545A3
:10490000B5BD4E85EFF0BFA18DBD03A7419F5C549F
:1049100045F303A701A15857E3ECE7F823A881A0CA
:1049200041BFB7E700E0116723A0E720C9BFEFB29E
:104930009FDC4111B7A70A200A8702C002C202C445
:1049400002C693874715BA85838607000507850742
:10495000A30FD7FEF5FA37450A209387C19D01477B
:104960001306001013056567EFF09FDF8547630F9F
:10497000F500FD57631AF502856537A50A20938572
:1049800065ED13050514EFE09FB239A88967938799
:104990000780739007307D5723A0E19E23AAA19E34
:1049A00023AE019EEFF05FAF83A7818141016FB01D
:1049B000DFD683A7819D850723ACF19C828003A568
:1049C000C19F8280EFB23FD383A7819D4111639342
:1049D000071403A4C19F050423AE819E0DEC83A799
:1049E000C1A09C4391CB856537A50A209385552AA4
:1049F00013050514EFE0BFAB03A7C1A083A681A0F8
:104A000023A6D1A023A4E1A083A7819E850723A488
:104A1000F19EEFF0BFCD83A7019E37970D201307BE
:104A2000470A0145637BF40283A701A1D146DC5705
:104A3000B387D7023E971843854763F3E7000545E0
:104A400083A7019F89E72AC6EFD0BFBD324583A760
:104A5000C19EF1EB41016FB05FCCD14F65A083A740
:104A6000C1A0DC47DC47D4436375D40023A0D19EAA
:104A700065BF03A88700D047D44B93884700232401
:104A8000C8002322060103A8460063131801D0C200
:104A9000904223AA07007D1690C2945785C603A8AA
:104AA000C701905303AF46002324C8002322060108
:104AB0001388870163130F01D0C2904223A4070219
:104AC0007D1690C2D05783A6819F63F4C60023ACA5
:104AD000C19EB306F603BA9603A84600032F8800CA
:104AE00023A4070123A6E70123221F012324180181
:104AF000D4CB9C4285079CC283A701A1DC5763F3FA
:104B0000C700054583A7C1A09C43B1FBFD5723A067
:104B1000F19E19BF83A7019F850723A8F19EEFD0BF
:104B20005FB0014505BF054535B7EFB23FBB411149
:104B3000EFF07FA783A7819D91EB856537A50A20BC
:104B4000938545FD13050514EFE07F9683A7819DAE
:104B5000FD1723ACF19C83A7819D89CB01452AC613
:104B6000EFF0DFA5324541016FB09FBA83A701A0E6
:104B7000F5D7B7960D20B7950D2081479386860609
:104B80009385450A5143054F49A0DC46DC479857B9
:104B9000C84F90530328470010C548C213858701AA
:104BA0006313A80050C3104323A407027D1610C34B
:104BB0008847D047D84B1388470010C548C24843A0
:104BC0006313050150C310437D1610C3D05703A7CC
:104BD000819F6374C70023ACC19E330766022E9782
:104BE00048438328850088C723A6170123A208010C
:104BF000232405010843D8CB050508C303A701A159
:104C000058576374C70023A6E19F98423DFF99C39C
:104C1000EFF0DFAD03A4019F19C88549EFF09FDADB
:104C200019C123A6319F7D1475F823A8019E83A77F
:104C3000C19EE38507F283A701A11167B7E700E0F2
:104C400023A0E720054521BFEFB2FFAAAA842E8446
:104C500011E9856537A50A209385959513050514F7
:104C6000EFE0FF8411E8856537A50A209385A595B7
:104C700013050514EFE0BF83EFF0BFD303A9C19F75
:104C800003A7819D8547630BF700856537A50A203B
:104C90009385259613050514EFE07F819840330531
:104CA0008700B336E5006372E90299C26360A90226
:104CB00088C00144EFF07FE711E5B7E700E0116736
:104CC00023A0E72022856FB05FA5EDD288C0814583
:104CD00033052541EFF03F980544E9BF19E5B7E7F3
:104CE00000E0116723A0E7208280EFB2DFA02A84D2
:104CF000EFF03FCC03A7819D8547630BF7008565E7
:104D000037A50A209385859B13050514EFE02FFA3C
:104D100081452285EFF03F94EFF03FE111E5B7E7E1
:104D200000E0116723A0E7206FB03F9FEFB21F9B09
:104D300003A9819D63070900054723A6E19E6FB083
:104D40003F9D23A6019E83A701A183A601A103A7DE
:104D500001A19C5B9442185B6372D702904337A712
:104D6000A5A51307575A631BE600D4436398C600F2
:104D700098476315D700DC47638AE70083A501A144
:104D800003A501A193854503EFE0EFEEB7970D2052
:104D90001387071D14539387071D850614D383A615
:104DA000819F54D383A6819D54D783A601A174D734
:104DB00083A601A17D5781C603A701A15857B794C7
:104DC0000D2098D73D461387440A9384440A0C4328
:104DD0009306C900B3C6F62005098CC25107E31833
:104DE000C9FE03A9819F056AD14A130A3A4437AB29
:104DF0000A20B30759033387F40014439DC6544374
:104E0000A107A697D44254C36394F6005C475CC3E1
:104E1000D147B307F902BE94DC40DC4723A8F1A0D8
:104E200023AC219F83A701A119BF63170900D28575
:104E300013050B14EFE0AFE77D1965BFEFB2BF8B31
:104E40002A8419ED03A401A101EC896537A50A2084
:104E50009385A59313050514EFE06FE51C580290A8
:104E6000145801459307500A3387A6001823630599
:104E7000F70009816FB07F8A0505FDB703A501A181
:104E8000828083A7419F054591C703A5819D133566
:104E900015000605828093070540135735003E979D
:104EA000B7F700E093870708D443F59AD4C323A447
:104EB000070088CB914694C3944393E6160094C3AD
:104EC000B7F600E093870608DC43898B89EB9307EC
:104ED000F7FF11EF938741A19843050798C3B7F7F0
:104EE00000E0938707089843799B98C382803E87A8
:104EF000D1BF83A7819B37470F0013070724B3D780
:104F0000E7022390F1A21307803EB387E70223AEA6
:104F1000F1A08280EFB22FFE03A4C1A1AA84EFF01A
:104F20005FF685476307F5002685EFF03FDB6FB03E
:104F3000CFFE3305940265DDEFF0FFF5CDBFEFB294
:104F40008FFB01112A848545254502C202C402C691
:104F500002C802CA02CC02CEEFE03FD2854513055B
:104F60000010EFE05FD3B71401402D46138504C055
:104F70009145EFE0DF95C1477C828D473EC44C00F0
:104F8000E147138504C03EC6EFE07F85B707080000
:104F90000C08372500403ECC22C802CA231E01005F
:104FA000EFF06F87854537250040EFF0CF91056121
:104FB0006FB0AFF6EFB28FF22E8932848144374A58
:104FC0000F0063D0840493091A2493050008372541
:104FD0000040EFF0AF9509CDB30799008385070036
:104FE000372500408504B3C50508EFF02F93D1BFE6
:104FF000FD19E39C09FC938741A1D843268405074A
:10500000D8C322856FB0CFF0AA8703A5C181379797
:105010000D2013070759AA9763EBE70037F70F2016
:10502000130707006365F70023AEF18082807D558A
:105030008280B717493F938787FD1317F54963E5CA
:10504000E700930500006DAE011106CEB707807F23
:105050006368F700AA85EF30806EF24005618280B8
:105060002C001528937735000547B2452245638803
:10507000E7000947638BE70099EB5926F9BF05461E
:10508000EF00302E1315F569C9BF9D2EE5BF05460B
:10509000EF00302DD9B73971B717493F22DC4AD814
:1050A0005AD006DE26DA4ED652D456D25ECE62CC26
:1050B000938787FD2A8B2E841319F54963E827010E
:1050C00008C093070000DCC1814485A0B7D7164013
:1050D000938737BEB70900802A8C63E12711938438
:1050E00009FFE98C97B5010083A5454C6353A008DF
:1050F000EF30E064B717C93F938707FD2A896383C0
:10510000F40497B5010083A5A54AEF304063AA8552
:10511000AA844A85EF30A06297B5010083A545496E
:10512000EF30E06148C004C08544F25062544259F7
:10513000B259225A925A025BF24B624C2685D254E3
:105140002161828097B5010083A5C546EF30205FBD
:1051500097B5010083A545462A89EF30405EAA85B0
:10516000AA844A85EF30A05D97B5010083A5C544A8
:1051700045BFEF205036B717C93F938707FD2A89EF
:105180006387F40297B5010083A58542EF20B03410
:10519000AA85AA844A85EF30805A97B5010083A575
:1051A0002541EF20503348C004C0FD54BDBF97B522
:1051B000010083A52540EF20103297B5010083A59B
:1051C000A53F2A89EF203031AA85AA844A85EF308D
:1051D000005797B5010083A5253EE1B7B7174943AE
:1051E000938707F863E72717EF00302997B5010089
:1051F00083A5C53C2A8AEF30202897B5010083A5F6
:10520000E530EF20502DEF30100BAA84EF307015F1
:1052100097B5010083A58539AA8BEF30E025AA85D3
:105220005285EF30C051AA8A97B5010083A5453851
:105230005E85EF306024FD472A8AAA85568563C3C0
:105240009702975700009387A7FFB3C7F42083A75F
:10525000C7FF938909F0B3F969016385F900EF305D
:10526000004E31A8EF30A04D935775011359794185
:1052700093F7F70FB307F94021476344F70008C0DD
:1052800085A097B5010083A5E5325E85EF30C01E8D
:105290002A8AAA855685EF30804AAA85AA8956852A
:1052A000EF30E049D285EF3080492A8A97B5010076
:1052B00083A585305E85EF30201CD285EF302048F5
:1052C000AA852A8A4E85EF3080479357750193F758
:1052D000F70F3309F940E54763CA270308C0CE8AB0
:1052E000032904005685CA85EF306045D285EF302A
:1052F000004548C0E35B0CE21319F9691315F56921
:105300002320240148C0B304904005B597B501009F
:1053100083A5052B5E85EF3020162A89AA854E8548
:10532000EF30E041AA85AA8A4E85EF304041CA8518
:10533000EF30E0402A8997B5010083A5A5285E8556
:10534000EF308013CA85EF30803F2A8AAA855685C0
:1053500039B7B707807F6368F900AA85EF30203E30
:1053600048C008C095B3935979419389A9F7939799
:1053700079013309F9404A85EF30E073EF30607E00
:10538000AA852AC24A85EF30803B97B5010083A5E4
:10539000A523EF30600E2A89EF30E071EF30607C9A
:1053A000AA852AC4AA844A85EF30603997B50100DE
:1053B00083A58521EF30400C930500002AC6EF201D
:1053C000F0728D4609E9930500002685EF201072E2
:1053D000B336A000850697570000938767EE09470C
:1053E0004E86A2854800912AAA84E3500CD41C4022
:1053F0009397F7691CC05C409397F7695CC021B72D
:10540000797126D24AD052CC06D622D44ECEB707D6
:1054100000322A892E8A9314F54963F6F400EF309E
:10542000806963070510CA854A85EF30E00497B5A7
:10543000010083A5A50D2A84EF30000497B5010073
:1054400083A50519AA892285EF30000397B50100CD
:1054500083A54518EF203008A285EF30E00197B50D
:10546000010083A56517EF30802DA285EF30C000C5
:1054700097B5010083A58516EF20F005A285EF20E2
:10548000B07F97B5010083A5A515EF30402BA2850D
:10549000EF20907E97B5010083A5C514EF20B003DF
:1054A000A285EF20707DA285EF20107D2A84D28511
:1054B0004A85EF20707CAA852285EF304028B7A767
:1054C000993E938797992A8463E59702AA854E852A
:1054D000EF30E026AA8517B501000325E504EF307B
:1054E0000026B250225492540259F249624A456150
:1054F0008280B707483F63E89702B70700FFB3858C
:10550000F40017B50100032525022EC6EF30202335
:10551000B245AA844E85EF308022A285EF3020224A
:10552000AA8526856DBF97B5010083A5250AD1BF41
:1055300017B50100032545FF6DB761713ECA975746
:1055400000009387270CB347F7202324811A232CCC
:10555000411923286119232671192324811983AB4A
:10556000070023229119232EB1172326111A232273
:10557000911A2320211B232E3119232A511923206C
:10558000A1192AC8F1572E8A328CB68C3A8B938D8A
:10559000F6FF01446347F6001304D6FFA1473344E6
:1055A000F402130D140093173D00B30AB4413EC634
:1055B0003309FC40338DBB0193090108D684B387BE
:1055C0005441635FFD00E68A1812B3879A4163CFA6
:1055D000FB041C0193040000814933CDFA2081A013
:1055E0001305000063C80400D247B3C7F420884302
:1055F000EF30205723A0A90085049109C9B7C247FD
:1056000083250D003ACCB3C6F92088428509EF20E6
:10561000B066AA852685EF20006C6247AA84711DBA
:10562000E3DF3DFD04C3850A110745B71C18B3C766
:10563000FB203ED2931724003ED0A147B3872741D9
:105640005E843ECE931724003ECC9C1AB347F420D0
:1056500083A907FB130D0103EA84A28A6341501555
:10566000CA854E85EF00A06C97B70100938707F8B5
:105670008C43AA84EF205060EF00806097B7010050
:10568000938707F78C43EF20305FAA852685EF309C
:10569000000BAA84EF302042AA8AEF30804CAA8502
:1056A0002685EF30C009AA8963512015981A9307FF
:1056B000F4FFB3C7E720724783A407ECB3D6E440F6
:1056C000B69AB396E600958C23A097EC9D47B387D6
:1056D0002741B3D4F440635E9004850A81460146B5
:1056E0009305F00F1305001063C68612635820015E
:1056F0008547630AF91489476303F9168947639A52
:10570000F40297B70100938727E28843CE8532D40D
:10571000EF30E0022256AA8909CECA8517B50100EA
:10572000032585E0EF00A060AA854E85EF302001BB
:10573000AA89930500004E85EF20503B6312051C9B
:105740009307F4FF0147BE8663D5771363000718FC
:1057500036841C18B347F4209C4361196380071AF0
:10576000CA8517B50100032525DCEF00405C2A89B6
:10577000A28917BC0100032C2CE763D609202289DB
:10578000634109261C12975D0000938DEDE4930997
:105790000000814C330C2441334DF92005AC97B700
:1057A0000100938767E48C434E85FD1AEF20D04CAF
:1057B000EF306030EF30E03A97B701009387C7E0F1
:1057C0008C432AD4EF20504BAA854E85EF203077AA
:1057D000EF30602E1C1288C0B3C6FA2022558C42CE
:1057E0009104EF20404FAA8995BD631909009C1AC6
:1057F000B347F42083A4C7EB9D84F1BD97B70100A4
:105800009387C7D08C438144EF203034E34305F2C3
:105810008944E1B583270D0001EE85C3B307F54048
:105820002320FD008506110D63DD860083270D0012
:10583000B387F5402320FD0085478506110D3E8680
:1058400065B5054665B5981A9307F4FFB3C7E72019
:1058500003A707EC1377F70723A0E7EC45B5981AE1
:105860009307F4FFB3C7E72003A707EC1377F70309
:10587000E5B7101833C6C7201042FD17518FE9B5A0
:10588000850771171443EDDEB3099401930A1400E0
:1058900018013E94B3C9E920E34654DB52478257CE
:1058A00093942A00B3C7FA20BA978843EF30602B4D
:1058B00023A0A900CE8601479307000063DBED001B
:1058C0001812BA949CC0850A9109F9B712578547F6
:1058D0004DBF3ED6C2478C423AD43346F7200842E9
:1058E00036CCEF207039B257AA853E85EF20A03E16
:1058F0002257E246AA870507F116C9B77D1491BD64
:10590000B2474E85B38587411D2197BC010083AC0A
:10591000ACCBE685AA89EF205023634A050497B5EE
:10592000010083A565CC4E85EF201035EF30A0181F
:10593000EF302023E2471818E68593870714338D4C
:10594000E7002A8CEF205033AA854E85EF20305F88
:10595000EF3060162320ADEC9C1A05046285B34934
:10596000F420EF304015210923A0A9ECD5BBE24774
:1059700018184E8593870714338CE700EF30A01377
:105980002320ACECF1BB1C12B3CCF9201C18B3C71C
:10599000F9208843FD19EF30C01CCA85EF20D02DB7
:1059A00023A0AC00E2854A85EF20102D2A89F1B3AF
:1059B00083250D0003A50D00850C910DEF20D02B44
:1059C000AA854E85EF202031AA89110D63C49B0161
:1059D000E3509CFF9C1A334CFC207D1923203CF79C
:1059E00045B3894763C667056342600F130500002E
:1059F00063070B088320C11A0324811A8324411AE8
:105A00000329011A8329C119032A8119032B0119BA
:105A1000832BC118032C8118832C4118032D0118E6
:105A2000832DC11713F57A00832A41195D618280A5
:105A30008D47E311FBFC9C093349F420A28BCA89F2
:105A4000F119634F7009228B854C711963C06C0D7D
:105A50001305000005496341890E4E47DE476395F3
:105A6000040E2320EA002322FA002324AA0059B7B7
:105A70009C09B347F4208C437D14EF20C025E359E3
:105A800004FE99C01315F5692320AA00A5B79C0947
:105A9000B347F9208C437D19EF20E023E35909FE39
:105AA000AA8799C09317F569AA854E452320FA0065
:105AB0001309010DEF20B04885491109635C3401D9
:105AC00099C01315F5692322AA002DB72289130561
:105AD0000000E9B7832509008509EF20C01FF1BF49
