:080000006F60500C00000000CD
:100008001305400E9705FEFF9385C5DF1766FEFFB3
:100018001306465D63FAC5008322050023A0550038
:1000280011059105E3EAC5FE1765F4DF1305C56EF2
:100038009765FEFF9385055B1766FEFF1306865AD4
:1000480063FAC5008322050023A055001105910518
:10005800E3EAC5FE1765F4DF1305056C9705000094
:100068009385450A1386818763FAC50083220500B4
:1000780023A0550011059105E3EAC5FE1705000008
:100088001305C51D97C500009385455C6377B500CA
:10009800232005001105E36DB5FEB73237129382B0
:1000A800023E739002BC9D42739012BCB942739099
:1000B8004280A16293828288739002309702FEFF89
:1000C800938242D493E23200739052309712FEFF2B
:0C00D8009382E2427390123473002030D7
:1000E4000000000000000000E8160A20EA160A20BA
:1000F400000000006C180A2000000000000000004E
:100104006C180A206C180A2000000000000000008F
:100114006C180A2098280A2000030A200000000016
:100124006C180A206C180A206C180A206C180A2013
:1001340000000000000000000000000000000000BB
:1001440000000000000000000000000000000000AB
:100154006C180A20000000000000000000000000ED
:100164006C180A206C180A206C180A206C180A20D3
:100174006C180A206C180A206C180A206C180A20C3
:100184006C180A206C180A206C180A206C180A20B3
:100194006C180A206C180A206C180A206C180A20A3
:1001A4006C180A206C180A206C180A206C180A2093
:1001B4006C180A206C180A206C180A206C180A2083
:1001C4006C180A206C180A206C180A206C180A2073
:1001D4006C180A206C180A206C180A206C180A2063
:1001E4006C180A206C180A206C180A206C180A2053
:1001F4006C180A206C180A206C180A206C180A2043
:100204006C180A206C180A206C180A206C180A2032
:100214006C180A206C180A206C180A206C180A2022
:100224006C180A206C180A206C180A206C180A2012
:100234006C180A206C180A206C180A206C180A2002
:100244006C180A206C180A206C180A206C180A20F2
:100254006C180A206C180A206C180A206C180A20E2
:100264006C180A206C180A206C180A206C180A20D2
:100274006C180A206C180A206C180A206C180A20C2
:100284006C180A206C180A206C180A206C180A20B2
:100294006C180A206C180A206C180A206C180A20A2
:1002A4006C180A206C180A206C180A206C180A2092
:1002B4006C180A206C180A206C180A206C180A2082
:1002C4006C180A206C180A206C180A206C180A2072
:1002D4006C180A206C180A20000000006C180A2010
:1002E4006C180A2000000000000000006C180A20AE
:1002F40000000000000000006C180A206C180A209E
:100304006C180A206C180A206C180A206C180A2031
:100314006C180A206C180A206C180A206C180A2021
:100324006C180A206C180A206C180A206C180A2011
:100334006C180A200000000000000000000000000B
:1003440000000000000000000000000000000000A9
:100354000000000000000000000000000000000099
:100364000000000000000000000000000000000089
:100374000000000000000000000000000000000079
:100384000000000000000000000000000000000069
:100394000000000000000000000000000000000059
:1003A4000000000000000000000000000000000049
:1003B4000000000000000000000000000000000039
:1003C4000000000000000000000000000000000029
:1003D4000000000000000000000000000000000019
:1003E400130181F806C216C41AC61EC822CA26CC36
:1003F4002ACE2ED032D236D43AD63ED842DA46DC91
:100404004ADECEC0D2C2D6C4DAC6DEC8E2CAE6CC60
:10041400EACEEED0F2D2F6D4FAD6FED8F3220030E9
:1004240096DA9702020083A2E21823A02200F325A1
:1004340010342EC09305000273A0458003A10187E8
:10044400EF30C023170302000323C3160321030064
:10045400824273901234D652739002309240A24278
:100464003243C2435244E244724582551256A25664
:100474003257C2575258E25872598649164AA64A08
:10048400364BC64B564CE64C764D865D165EA65EE4
:10049400365FC65F1301810773002030130000002C
:1004A40013000000130000001300000013000000FC
:1004B40013000000130000001300000013000000EC
:1004C40013000000130000001300000013000000DC
:1004D40013000000130000001300000013000000CC
:1004E40083A20187938202E0739002341701020011
:1004F4000321410C024182403243C2435244E2444C
:10050400724582551256A2563257C2575258E25873
:1005140072598649164AA64A364BC64B564CE64C87
:10052400764D865D165EA65E365FC65FD652A10224
:1005340073900230A24213018107828013000000ED
:10054400130000001300000013000000130000005B
:10055400130000001300000013000000130000004B
:10056400130000001300000013000000130000003B
:10057400130000001300000013000000130000002B
:10058400130000001300000013000000130000001B
:10059400130000001300000013000000130000000B
:1005A40013000000130000001300000013000000FB
:1005B40013000000130000001300000013000000EB
:1005C40013000000130000001300000013000000DB
:1005D40013000000130000001300000013000000CB
:1005E400F322003093F272FF130380781203B3E214
:1005F4006200711523205500130585FA10C12115D9
:100604002320050081426387020071152320050021
:10061400FD12D5BF71150CC18280000000000000DE
:1006240000000000000000000000000000000000C6
:1006340000000000000000000000000000000000B6
:1006440000000000000000000000000000000000A6
:100654000000000000000000000000000000000096
:100664000000000000000000000000000000000086
:100674000000000000000000000000000000000076
:100684000000000000000000000000000000000066
:100694000000000000000000000000000000000056
:1006A4000000000000000000000000000000000046
:1006B4000000000000000000000000000000000036
:1006C400000000000000397101436EC619A03971A1
:1006D40041536AC866CA62CC5ECE19A0397101530F
:1006E4005AD056D252D44ED64AD826DA22DC06DE66
:1006F40033016140828241114AC026C222C406C627
:100704008282B24D4101024D924C224CB24B4101C6
:10071400024B924A224AB24941010249924422447C
:10072400B240410182802A8309CA838305002300E1
:1007340073007D16050385056DFA82802A8311C630
:100744002300B3007D16050365FE8280EFF2BFFA35
:100754004111EF20B0342AC6130520038D28AA8442
:10076400EF00B07C2A84014922854D2A2285E522A6
:10077400134919004A85EF00D016A6856800EF20BA
:100784009062DDB7EFF29FF54111EF2030312AC6B8
:100794001305401F2D28AA84EF00307903A9818214
:1007A4002A84930A0503130A05089309850ACA864D
:1007B4005686A2855285C12ACA852285BD2C4E85BE
:1007C400EF00905DA6856800EF20F05DCDB711C500
:1007D4009307803E33D5A70282801305803E828032
:1007E400EFF27FF1B7070C20B7650A2037050A201E
:1007F4009387474621478146130600209385C533D6
:100804001305257FEF20407D85476309F500376593
:100814000A2013054534EF40302801A02A84B70785
:100824000C20B7650A2037050A2093870746254719
:10083400814613060030938585351305456AEF20FC
:10084400A079AA84E31585FCB7070C20B7650A20B4
:1008540037050A209387C7451947814613060020A8
:10086400938505361305C566EF2000772A84E310C7
:1008740095FAB7070C20B7650A2037050A20938735
:1008840087450D478146130600209385C536130519
:10089400C57BEF206074E31C85F641B5EFF21FE4DD
:1008A4004111EF20B01F2AC629451537AA84EF004D
:1008B400D0672A890144954905041374F40F63151C
:1008C40034014A85A1290144A6856800EF20B04D72
:1008D400E5B7EFF2BFE04111EF20501C2AC6130523
:1008E400401FF535AA84EF0050642A84130A0503D7
:1008F40093098504130905072285EF0000615285D9
:10090400EF00804D4E85EF0080554A85EF00E06E84
:10091400A6856800EF203049C5B782801DC983478A
:10092400C5020347450493C7170019E393E727005B
:100934000347E50701C70347D50719C393E74700F2
:1009440093E78700232CF50A9947230A050A2328ED
:10095400F50A8280828001CD0327050B9147631835
:10096400F7008347950681E78D472328F50A82809F
:1009740011C9930700001CC15CC11CC55CC51CC91E
:10098400231A0500828039CDB1CDEFF23FD5B28470
:1009940039C283C9C5022A84368963850900314670
:1009A40091055133DC28230A340195CB84488329EB
:1009B400C4009305000044C44A85EF30D061635DF0
:1009C400A000CE852685EF404020CA85EF30D03484
:1009D400854708C85CB82DBB13050000D5BFA30A22
:1009E4000400D5BF8280EFF21FD183A5418383A782
:1009F400C18203A7018383A68182130600001385A5
:100A04000197812483A7C18203A7018383A68182DE
:100A140083A54183130600001385C1941D2483A775
:100A2400818303A7C18383A50184930600003686CE
:100A3400138581923924AD22CDB163010512EFF201
:100A44001FC92A8403554507AE84130545A2EF4008
:100A5400005A83A58184EF30302C83A5C184EF3004
:100A6400706A232CA4082A8903556407130545A238
:100A7400EF40E05783A58184EF30102A83A5C18419
:100A8400EF305068232EA4080355A407130545A28C
:100A9400EF40E05583A58184EF30102883A5C182FF
:100AA400EF305066835784072320A40A1307803E3F
:100AB40013050000637EF7001307F07C6361F704FD
:100AC400138587C1EF40A05E83A50185EF30D02454
:100AD4008347440B2322A40A130A8409930A840A31
:100AE40095E3138501979D2A1385C194852A13855F
:100AF4008192AD22568681455285652029B103A590
:100B04004184F9B70C484A85832C4401EF40E00B3B
:100B1400AA85268613850197032C8401B122AA890C
:100B24000325C409E685EF40400AAA852686138575
:100B3400C1941D2A2A890325040AE285EF40E008AE
:100B4400AA8526861385819205222320A40A232CB4
:100B54003409232E24095686854579BF8280EFF215
:100B64009FB9930500002A84EF305050634C050070
:100B740083A441842285A685EF30F0456356A00006
:100B8400268419A01304000083A541852285EF3033
:100B94007057EF40E0401305853E33450508B5BE68
:100BA400828059CEEFF29FB3328499C1AA8401E9BD
:100BB4009307803E1EA03EA05EA07EA091BE832A25
:100BC400C50083A581850841EF30D0532A8983A5C8
:100BD4008185C840EF30105383A5C185AA89884414
:100BE400EF305052AA84CE855685EF30605DCA85B9
:100BF4002A8AEF30E05CA685EF30307D8D370AA07D
:100C0400CA855285EF30707CA685EF30605B813FEA
:100C1400CE852AA05685EF30507BCA85AA89EF304D
:100C2400D07AA685EF30707A1D3F4AA0CA854E85DA
:100C3400EF300059A685EF30A05815376AA0BDBF24
:100C4400828001CD14C5930600000CC150C154C567
:100C540014C958C91CCD58CD1CD1828009C593072D
:100C640000005CC51CC98280EFF25FA793040000FA
:100C740055C12A842E89328593050000B289EF304C
:100C8400F03E930400006357A0084C404A85EF30BF
:100C94007047CE85EF3010474C44EF3060524448E3
:100CA400832A84012A8AA685EF30503C634A0500D2
:100CB400D6855285EF303032D6846343A000D28487
:100CC4000C4844C44A85EF305070CE85EF30D004D0
:100CD4000C40AA89232824014A85EF30B042A68516
:100CE400EF30004E0C44AA844E85EF30B041AA8503
:100CF4002685EF30E04C444C2A89A685EF30103726
:100D0400634A050004504A85A685EF30D02C63431E
:100D1400A000CA8426856FF0BF9F828035CDEFF294
:100D24009F9D8358850A2A8483A501850325C508C8
:100D3400011146CEEF30103DEF40A02083A5018580
:100D44002ACC03254408EF30F03BEF40801F83A5F5
:100D540001852ACA03250408EF30D03AEF40601E0B
:100D64008356E40AF248624836C48356C40AD2471A
:100D74002A8736C28356A40A37650A2013054537E5
:100D840036C08326840B0346440B8325040BEF40B3
:100D9400803C05616FF07F98828018311C21220706
:100DA4005D8F3C212831C207D98F62055D8D828019
:100DB400EFF27F94138441996146814513854199EB
:100DC400EFF0DF9783A7018605451CC483A74186FE
:100DD4005CC41CC86FF07F94EFF2FF91411102C014
:100DE40002C202C402C625C993874199DC2BAA8496
:100DF4001384419999C31C209DE7C1460A86930533
:100E04002003130530022D2319CD0A85793748C0F4
:100E14004800613708C42800493748C46800B53F12
:100E2400854708C81CA05C282547850793F7F70F5A
:100E34006373F70081475CA8BD2E5C4488C008201A
:100E4400DCC01C48C8A89CC41C44DCC45C409CC8CE
:100E540041016FF09F8C0145E5BF05458280EFF2AB
:100E64009F8941112A841305F100EF00D00565FD27
:100E740015C091269307000008C0232404002326EC
:100E8400040023280400232A04001CCC5CCC231077
:100E94000402054541016FF05F8818311C212207C7
:100EA4005D8F3C212831C207D98F62055D8D828018
:100EB400EFF27F84411137040C208D467000854584
:100EC40013053002231601002307010023240446DE
:100ED400852109E5014541016FF03F841886930798
:100EE4008446854698B398861306B1009305100688
:100EF400B8A3188713053002B8B3A547DC85592673
:100F040071D985472304F446F9B7EFF24FFC011178
:100F14002A8402C402C602C802CA02CC02CE612CD0
:100F240011C8B7070C2083C78746AA8489EB04C07D
:100F34002306040201494A8505616FF0CFFCB146DE
:100F44003000914513053002E52675D1B1465008AD
:100F54009305600213053002E12E2A8969D903152D
:100F6400810004C0EF40A00883A58186831BA100F3
:100F7400031BC100EF30101948CC5E85EF402007F9
:100F840083A58186831AE100031A0101EF309017CB
:100F940008D05A85EF40A00583A5818683192101D5
:100FA400EF30501648D05685EF40600483A5C186C3
:100FB400EF30501508C85285EF40600383A5C18601
:100FC400EF30501448C84E85EF40600283A5C186B7
:100FD400EF30501308CC4808C93548C02808753D7F
:100FE40008C468085D3D930700001CD4854748C4C5
:100FF4002306F40289B705458280EFF2CFEF411151
:101004002A841305F100EF00206F65FD0DC06522F1
:10101400B707DC051387C75D9387873E1CC4930716
:10102400001008C058C05EA4230704000545410110
:101034006FF0AFEEEFF22FEC7971130600028145E9
:10104400080802C202C402C6EFF04FEF854513053B
:101054004020EF10A0020145EF1080078D45114597
:10106400EF009065371501408D474C00130505804E
:10107400372401407C8202C6EF00101B1305044094
:10108400EF00F00CB7070E003ECE0C0885471305A1
:1010940004402302F10202C802CA02CC02D002D4E4
:1010A40002D6EF00300F854513050440EF00F0131E
:1010B40013050440EF007014930404402685EF00E8
:1010C40070146DFD1305044037240140EF00101423
:1010D400130404402285EF00B0146DFD45616FF0E8
:1010E400CFE3EFF24FE1894509C9371501401305F4
:1010F40005C0EF0070216FF04FE237150140130572
:1011040005C0EF00B020C5BFEFF2EFDE4111F1647E
:1011140002C202C402C6EF00006DEF20D040138566
:101124000420EF20B04285452145EF003075894702
:101134007C8237150140C1474C003EC6130505C0EB
:101144008D473EC4EF00500E0145613F6164212E7E
:101154001305046A65201385042059211305046AC4
:10116400D529C93D37660A20B7650A2037650A20A4
:101174001306C63C9385453D1305C53EEF30B07D4F
:10118400B7070C2083A5074737660A2037650A206E
:101194001306863F13050541EF30F07B37650A20BF
:1011A400130600199305803E13050543EF30B07A0A
:1011B40041016FF08FD6B7070C2003A5C746828084
:1011C40037070C208327C74685072326F7468280E6
:1011D400EFF26FD26164B76400402A891304146A81
:1011E40093840480CA852685EF00904801C505458F
:1011F4006FF0AFD27D147DF40145DDBFEFF2AFCFC8
:1012040001112A8485453705400002C202C402C682
:1012140002C802CA02CC02CEEF00106885454545DB
:10122400EF00D0652546814537150140EF00500E8B
:101234002546854537150140EF00900D71478D47D0
:101244004C00371501403AC67C823EC4EF00C07D95
:10125400B70700403ECAB707000422C893870703B4
:10126400376400403ECC0C08916713050480FC866B
:10127400EF009028854513050480EF007037056161
:101284006FF0AFC9EFF28FC5E169376A00402A8475
:10129400AE8AB28436899389196A130B0A80B7051A
:1012A40002005A85EF00303E25E513050A80854586
:1012B400EF009035370503000505193F29CD0604D5
:1012C40013050A8001469375E40FEF009039B709BE
:1012D400070013852908ED3D1DCDD68513050A8029
:1012E400EF00703713854908E5352A840DC5376A40
:1012F40000402699130A0A809389490863912403BC
:1013040037650040854513050580EF00903129A01D
:10131400FD19E39609F8014422856FF06FBF8C2014
:1013240052858504EF0030334E855D3561F9E5B7AC
:10133400EFF2EFB909E6014422856FF0CFBCB68421
:10134400FDDA328A814601462A892D3F6DD5B76977
:101354000040138509808545EF00102B37040300F6
:1013640013051400B53561D9931519001385098047
:10137400054693F5E50FEF00D02E13052400893DB3
:101384005DD9B76B0040138BF4FF0149938A0B803E
:1013940093090404334B0B08B3470908631AFB0091
:1013A40081455685EF00902985455685EF007027C5
:1013B4004E85393D2A8409E9376500408545130582
:1013C4000580EF00B02785BF5685EF001029B307CD
:1013D4002A0188A30509E31199FC854513850B802F
:1013E400EF00D02591BFEFF20FB19307007DB3D585
:1013F400F50A9307803EB3F5F50A89476308F502B9
:1014040063EAA70009ED37350140130505C0EF0075
:10141400907F21A08D476302F5026FF00FB037353E
:101424000140130505C0EF00507EC5BF37350140AC
:10143400130505C0EF00B07DCDB737350140130566
:1014440005C0EF00107DD1BFEFF2EFAAAA840144DA
:10145400114922850504A6851374F40F6937E31A2C
:1014640024FF6FF08FABEFF20FA9856479711385B8
:10147400148485453724014002CA02CC02CE02D02E
:1014840002D202D402D602C402C623180100EF001D
:10149400F03E130504800546A545EF00606713057B
:1014A40004800546AD45EF00A0661305048005469B
:1014B400B545EF00E065054613050480B945EF0026
:1014C40020659D67938707A0FC82E1473ECE4C08C8
:1014D4008D47130504803ECC812BB7070C2083A7CE
:1014E400074737470F0013070724B3D7E7023734FA
:1014F40001402C00130504C09384349C26C6231594
:101504000100FD177C84EF00103EC1679387070636
:101514003ED00C109307803E130504C02313F10240
:1015240023140102EF00F0430C10130504C0EF0074
:10153400704A0C10130504C0EF0070530C1013050F
:1015440004C0EF00505C130504C0A145EF003067F0
:10155400130504C0A145EF007067130504C0A1453D
:10156400EF003068130504C0A145EF00706813054F
:1015740004C08545EF001063130504C08545EF00E2
:1015840010618545130504C0EF00F05E1305803E2D
:10159400653D45616FF06F98EFF2EF95AA840144C1
:1015A4001149B32794208E231375F40F0504253DA8
:1015B400E31924FF6FF06F96EFF2EF934111B147F7
:1015C40002C42EC08A852A847C8502C202C6EF002A
:1015D400B06485452285EF00306F41016FF0EF93D1
:1015E400EFF26F914111AA8485453705020002C2CA
:1015F40002C402C6EF00502A854513051002EF000D
:10160400F02737140140130504401D46954509236E
:101614001D46130504409945E529930700027C8281
:10162400E1473EC64C008D47130504403EC4ED2EF1
:10163400930700047C824C009147130504403EC686
:10164400E52637450040A68513050540B537410119
:101654006FF0AF8CEFF22F8A4111AA8485453705CC
:10166400040002C202C402C6EF00102385452545CA
:10167400EF00D02037140140130504C01D46A945CE
:1016840041291D46130504C0AD4559219307004067
:101694007C82E1473EC64C008D47130504C03EC41E
:1016A40061269317B0287C824C009147130504C02F
:1016B4003EC69D2E37550040A68513050580ED3D99
:1016C40041016FF08F8511E50145828001456FF07E
:1016D400CF84EFF24F82B74400402A84930500027E
:1016E40013850440EF00906075D113850440EF002A
:1016F400705F08A00545E1BF11E501458280014501
:101704006FF0AF81EFE23FFFB75400402A849305A6
:10171400000213850480EF00705D75D11385048089
:10172400EF00505C08A00545E1BF37050C20130508
:1017340005598280EFE23FFC37050C201306000CAC
:1017440081451304055913050559EFE03FFFB70719
:10175400E8039387873E2324F40A2326F40AEFF050
:101764002FF5EFF0EFE4EFF04FEFEFF0DF881385A4
:1017740001A3EFF0EF9FEFF00FA7EFF00F9AEFF058
:101784006F9DEFF08FD91305803EEFF0FFCBEFF0A4
:101794002F85EF10D02401A0EFE2FFF51305803E62
:1017A400EFF09FCA8967938707807390073001A081
:1017B400EFE27FF41305803EEFF01FC9896793873A
:1017C40007807390073001A001A0B707EFBE37E789
:1017D40000E0938707083CC701A0EFE2DFF1EFF0D8
:1017E400BF92893F01A0B7170240D44398472146CE
:1017F400B18A6394C602B7060070758F370600502D
:101804006301C7146360E6021DC7B7479C1CB70693
:101814000040938707806307D706B7877D019387C6
:1018240007848DA037060060630EC70EB767730781
:1018340093870794CDB79047944798479305000A38
:1018440093F6060E21831377F7037D8A05076390C9
:10185400B608B767CD1D9387075033D7E702B7079C
:101864000C2093870732B2979C239146B387E702F3
:101874006309D600856693860654B3D6C600858A66
:1018840091C2858337070C20232AF7463716024076
:10189400544237070C20130707319182BD8A3697CB
:1018A4001823B7060C209386063EB3D7E7005842A8
:1018B40041830D8B36971823B7060C2033D7E700E6
:1018C40023ACE64637070C202328F746828093058D
:1018D400000E6392B602D45BB7070C2093870730DF
:1018E400C182B6979C23B7867D0193860684B3870D
:1018F400D70285839DB7930700086397F600B7471F
:101904009C1C9387078091BF9307000C6397F60094
:10191400B76773079387079489B7B7877D01938760
:10192400078425BFD85BB7070C2093870730418312
:10193400BA979C2337877D0113070784B387E7028F
:1019440089B7B767CD1D938707502DBF01A0EFE27C
:101954009FDAB727014093870740631EF50085454A
:1019640013050020EF000075814513050020EF00EA
:1019740060746FE09FDAB737014093870780E31AFA
:10198400F5FE854513050040EF00C072814513053F
:101994000040F1BF5841B707F1E09387F7EF944D4A
:1019A4007D8F9C41D58FD44DD58FD441A206D58F40
:1019B400D98F5CC11845B7F7F1FF9387D77FD4451A
:1019C4007D8F9C49D58F94458606D58FD98F1CC5AC
:1019D4005855B70710FFFD177D8FDC29FD1793F7C6
:1019E400F70FD207D98F5CD582801C4589C593E750
:1019F40017001CC58280F99BEDBF1C4593E7870047
:101A04001CC5828008451355354882805C453707DC
:101A14000038D98F5CC51C4593E747001CC58280FC
:101A240008451355254882809C4503D8050013F7C3
:101A3400070193F8F7001DCB584D93E81800814631
:101A44008D4E414E3316D0283373C800631C660094
:101A54001393160033966E003377C740D041331684
:101A64006600518F8506E39FC6FD58CD1377F80FA6
:101A74001DCF18418146130380023D4E930E80040E
:101A8400A1453316D028337FC800631EE601639551
:101A9400670650C913962600331FCE003396C8003C
:101AA4003377E741518F8506E39DB6FC18C11307D0
:101AB400F00F6372070554410146130E8002930E22
:101AC40080042143130786003317E028B375E80028
:101AD400631FB7006396C70358C913172600BD4593
:101AE400B395E5003397E800B3F6B640D98E050602
:101AF400E31A66FC54C18280E39ED7F910C959BF2A
:101B0400E39DD7FD18C9D1BF0CC982804CC982801E
:101B1400371701409D479306078063F8B702938700
:101B240085FF93F7F70F631AD506B70601408C4675
:101B34008A073D473317F70033F7E54098C69846C0
:101B4400B317F600D98F9CC682806308D502930729
:101B540007C0630AF508631CE51637070140544BB8
:101B64008A05BD47B397B700B3F7F6405CCB5C4B2F
:101B7400B315B600DD8D4CCB82803707014054434A
:101B84008A05BD47B397B700B3F7F6405CC35C431F
:101B9400B315B600DD8D4CC38280930607C0630481
:101BA400D5026312E510B70601408C4E8A073D4703
:101BB4003317F70033F7E54098CE984EB317F60085
:101BC400D98F9CCE8280B70601408C4A8A073D4754
:101BD4003317F70033F7E54098CA984AB317F6006D
:101BE400D98F9CCA82803707014054478A05BD4774
:101BF400B397B700B3F7F6405CC75C47B315B600BC
:101C0400DD8D4CC782803727014013070780AE87DC
:101C14006318E5043707014054538A05BD47B39759
:101C2400B700B3F7F6405CD35C53B315B600DD8D53
:101C34004CD3828037270140130707806312E502E3
:101C4400B70601408C568A073D473317F70033F730
:101C5400E54098D69856B317F600D98F9CD6828063
:101C640037270140130707C06317E5088A073D4774
:101C74003317F7003316F6009D471347F7FF63FB4E
:101C8400B700B7070140945B758F98DB985B518F61
:101C940098DB8280B7070140D457758FD8D7D857BF
:101CA400518FD8D7828013070740E315E5F8B706AC
:101CB40001408C528A073D473317F70033F7E5405C
:101CC40098D29852B317F600D98F9CD2828013070A
:101CD4000740E31AE5F237070140544F8A05BD4730
:101CE400B397B700B3F7F6405CCF5C4FB315B600BB
:101CF400DD8D4CCF82808280EFE2FF9F411146212F
:101D04002A840A852E89F1229247B7869303B3C4A5
:101D140004089386F66F93F404FC1307C003B3C45A
:101D2400040863EAF60037470F001307072433D784
:101D3400E70233470708D98C46A0162061661306CC
:101D4400066AB3C60608F99AB3C6060816A083261F
:101D540009006368D6048606B3D7D7029146B3C791
:101D64000708B3F7D70A0507334707081AB05EAC6C
:101D74001E20035749008356A90093E717001EA0AD
:101D84001E20558FB3C7070893F757BFD98F1EA0DE
:101D9400035789008357C900D98F1EA441016FE0FE
:101DA400DF978355690031667D166399C5020D4638
:101DB400B386C602B3D7D702B3C7070893964701C1
:101DC40099E293E717009306C0123307D7029306EC
:101DD400803E9397F7283347D70271B76546B38699
:101DE400C602B3D7D702B3C707089397E728F9B752
:101DF4001E2189C593E717001EA18280B3C7070877
:101E0400F99BB3C70708CDBF1E2189C593E7071007
:101E14001EA18280B3C7070893F7F7EFB3C707087B
:101E2400C5BF1E2189C593E707201EA18280B3C7C1
:101E3400070893F7F7DFB3C70708C5BF1E2189C595
:101E440093E707401EA18280B3C7070893F7F7BF43
:101E5400B3C70708C5BF0EA982800A291375F50FF9
:101E6400828093F7E50F19C293E715001EA98280BB
:101E74005E290A2D42055D8D6D8D220521810D8D12
:101E8400133515008280411102C402C693D7C501DF
:101E94002AC63EC4A247A205A18199CBB247D10765
:101EA4003EC6B247884341016D8D3335A000828020
:101EB400B247C181E107EDB7B7160240DC42417772
:101EC4001307F77FBA05F98FDD8D2E054D8DC8C236
:101ED4008280B7170240D44398472146B18A63945D
:101EE400C602B7060070758F37060050630EC7141C
:101EF4006360E6021DC7B7479C1CB7060040938782
:101F040007806307D706B7877D01938707848DA071
:101F140037060060630BC710B7677307938707948E
:101F2400CDB79047944798479305000A93F6060E59
:101F340021831377F7037D8A0507639DB608B76786
:101F4400CD1D9387075033D7E702B7070C2093873B
:101F54000736B2979C239146B387E7026309D600FC
:101F6400856693860654B3D6C600858A91C2858356
:101F74001CC137160240544237070C20130707359B
:101F84009182BD8A3697182393860181B3D7E700DF
:101F94005842416641830D8B36971823B7F600E00B
:101FA40033D7E70058C183A606D1F18E91E2BA87F0
:101FB4001CC5371602405C4263DD07085C423747A4
:101FC4009C1C13070780AD83FD8B95073357F702DD
:101FD40058C582809305000E6392B602D45BB7079E
:101FE4000C2093870734C182B6979C23B7867D0162
:101FF40093860684B387D7028583B1B79307000815
:102004006397F600B7479C1C938707802DBF9307FF
:10201400000C6397F600B76773079387079425B797
:10202400B7877D019387078439BFD85BB7070C2036
:10203400938707344183BA979C2337877D0113071D
:102044000784B387E70225B7B767CD1D9387075089
:1020540005B75442B7070C209387873EAD829D8A0B
:10206400B6978C235C42B7060C209386463EB98310
:102074008D8BB6979C233357B70089BF99C5371703
:1020840002405C4FC98F5CCF8280B7170240D84FA3
:102094003375A740C8CF828099C5371702401C53B7
:1020A400C98F1CD38280B717024098533375A74059
:1020B40088D3828099C5371702401C4BC98F1CCB2B
:1020C4008280B7170240984B3375A74088CB828033
:1020D400B7170240D8437E051317F749D8C3D8432E
:1020E400598DC8C38280B7370140138607C0D621F3
:1020F4009A21630DC502938707406309F502B70768
:1021040000406305F502938707406301F502B717A2
:10211400004013860780630BC500938707C06307DD
:10212400F50056B51AB585475EA982801E21B221F5
:10213400B3C7070893F7F7F8D18FF22193F7F7CFD6
:10214400D18F1EA156B5B73701401AB5138707C002
:102154006306E50093870740E317F5FC9C251EB949
:10216400D9B71E31922103D82500B3C70708F99BBC
:10217400B3C707081EB11E3156211A2DB3C707086D
:10218400F59B334707081377C7F8518F9225B3C6D9
:10219400060833660601D18F37360140130806C09E
:1021A40063060501130606406310C502B225DD9BD4
:1021B40003D8E500D18FD221ED9B93F6F6CFD18FD2
:1021C400D22533660601D18E56A11AADFA215AB929
:1021D4001EB182801E31E5769386F6CFB3C7070819
:1021E400BD9BB3C707081EB11E3152211A2D03D857
:1021F4008500B3C70708758F962193F7F7FD33461B
:102204000608A206558FB62133470708B3E6060130
:102214009206D58FB7360140138806C0B3C70708A6
:102224006306050193860640631DD502B62593F720
:10223400F7F703D8C5009206D58FD621B3C7070890
:1022440093F7F7FB9206D58FFD769386F63FF18ED2
:10225400F225B3C70708336606010A06D18E33C6D2
:10226400060852A11AADFA211ABD1EB182801E3190
:10227400962103D88500B3C7070893F7F7EFB3C7D0
:1022840007081EB11E3152215A2DB3C7070893F710
:10229400F7DF334707081377C7F8558FB62133465E
:1022A4000608B3E60601A206D58FB73601401388A7
:1022B40006C0B3C707086306050193860640631E7C
:1022C400D502FD769386F67FF58FB62503D8C50033
:1022D400A206D58FD621B3C7070893F7F7BFA20686
:1022E400D58FF576FD16F18EF225B3C70708336650
:1022F40006011206D18E33C6060852A15AADFA2140
:102304005ABD1EB182801E317D777D17F98F1EB1B3
:102314001A315E21562D65761306F6CFF18E922181
:1023240003D88500B3C707082206D18E79767D16B7
:10233400718FB221B3C60608336606013206518F87
:1023440037360140130806C0334707086306050102
:1023540013060640631AC50071767D16F18FD225E7
:102364001A06D18FB3C707085EA1FE2156AD23100C
:10237400F5041AB182801E2189C593E717001EA1B6
:102384008280B3C70708F99BB3C70708CDBF83573B
:10239400450491C59397F7282312F5048280C60754
:1023A400C583DDBF1E2189C593E707081EA182806E
:1023B400B3C7070893F7F7F7B3C70708C5BF1E2DC0
:1023C400B3C70708DD9BCD8F1EAD82801E2D7D77A0
:1023D4001307F77FF98FA205CD8FB3C707081EAD8A
:1023E40082805E2DB3C70708DD9BCD8F5EAD8280F2
:1023F4005E2D7D771307F77FF98FA205CD8FB3C7C5
:1024040007085EAD82804EB982800EBD82804EBDCB
:1024140082802310B5048280EFE2EFAD9E257D77A4
:10242400BD667D8F41112A84AE84631BD7005A2D6B
:10243400B18B334707084D9BD98F5EAD23940500BC
:102444001A28F577FD177D8FFE200A85D98F1EA8DF
:102454005A248D679387379F7D8FDE20D98F9A24E6
:10246400D98FBA24D98F5EA45E28DA24B3C70708AB
:1024740093F7F7CFD98F5EA8EFF0BFA592476545D4
:102484009040B335F50281460A063305F502EF1094
:10249400901993064006B357D5021306F0631397B9
:1024A4004700B377D502920793872703637AF60030
:1024B40093070701B3C707081EA441016FE0EFA506
:1024C400B3D7D702D98FFDB75E2589C59397D7288F
:1024D4005EA5828079777D17F98FDDBF93F5F51FAF
:1024E4004EA182804A211375F51F82800A216D8DC9
:1024F4003335A0008280EFE20FA01307F5FFB95730
:10250400B7040C2063F9E700EF00505883A7C448D0
:1025140099EF014491A09377F5001304050185E335
:10252400EF00D05683A7C44885CB63530408EF005B
:102534003072EFF06FA6814426856FE00F9E1387FB
:10254400F7FEE36387FC130505023304F540EF004F
:10255400F05383A7C448B9EB37070C20130707656A
:102564009376F700B16799C69306F700C19ABA97B4
:10257400958F3687B7060C20BA9793860649C117FC
:10258400C19B23A2060098C223A2070023A0070030
:10259400B386E74023A6F4481CC3B7070C2023A244
:1025A400D748B7070C2054C323A4D748E35180F875
:1025B400B7080C2083A68848E3EB86F637070C207F
:1025C400930707499C4337050C201305056563E809
:1025D400A700B7C50C209385F56463FBF5048967F0
:1025E400938707807390073037660A2037650A207F
:1025F400130646459305600F1305C547EF20B03514
:1026040001A06365A8003E8763F90507896793877E
:1026140007807390073037660A2037650A2013064F
:1026240046459305C00F1305C547EF20D03201A0DE
:1026340013070749D0436376860003A80700E31213
:1026440008FC03A8C448E304F8EE0443C10463E4AB
:10265400A40063F695028967938707807390073017
:1026640037660A2037650A2013064645930560102D
:102674001305C547EF20302E01A0C28765BF8843EC
:1026840008C3637486028967938707807390073051
:1026940037660A2037650A20130646459305E0107D
:1026A4001305C547EF20302B01A0018E93050002CE
:1026B40063FEC502B385870013F8F50063040802BE
:1026C4008967938707807390073037660A203765D8
:1026D4000A2013064645930570111305C547EF20DC
:1026E400902701A0D0C1C0C388C10CC3D043338795
:1026F400C640B7060C2083A5464823A4E848637463
:10270400B70023A2E64837070C2023A007001316BE
:10271400F629D0C38327074885072320F748EF000D
:10272400305393F7F400E38907E0896793870780C0
:102734007390073037660A2037650A20130646452A
:102744009305D0151305C547EF20F02001A0630EB3
:102754000514EFD2BFF8B7090C20130405FF9389C1
:102764000965AA84636E340337C90C201309F9641C
:1027740063688902832745FF63C6070489679387D3
:1027840007807390073037660A2037650A201306DE
:102794004645930510171305C547EF20D01B01A02C
:1027A4008967938707807390073037660A203765F7
:1027B4000A2013064645930500171305C547EF2065
:1027C400901901A0032705FF1DC38967938707801C
:1027D4007390073037660A2037650A20130646458A
:1027E400930520171305C547EF20F01601A0939712
:1027F400F749232AF5FEEF00702937070C208327B9
:10280400874883A644FFB6972324F748B7070C20CC
:102814001387074913860749BA871843E36E87FE6F
:102824006388C70263E437016374F9028967938795
:1028340007807390073037660A2037650A2013062D
:102844004645930560201305C547EF20D01001A02D
:10285400D043B385C700631AB400B296D4C3338699
:10286400D7006316C7023E8429A03306D400631B35
:10287400C70237060C200326C6486306C700504328
:10288400B296104354C010C06383870080C33707D7
:102894000C208327C7478507232EF746EF00503BBC
:1028A4006FD01FE723A8E4FEC5B78280B7E700E036
:1028B40041572387E740A386E740B7F700E09387B3
:1028C400070823A0070023A2070023A40700370753
:1028D4000C20032707478566938606FA3357D702E9
:1028E40098CB3D4798C38280EFD2FFE0411102C6E6
:1028F400F32750303EC6B2470D478D8B6384E70201
:102904008967938707807390073037660A20376595
:102914000A201306064A9305600C1305C547EF20E9
:10292400900301A0B707102093870700BD8B9DC3B8
:102934008967938707807390073037660A20376565
:102944000A201306064A9305A00C1305C547EF2079
:10295400900001A0EFF09FF5B7E700E0116723A016
:10296400E710096723A0E71023AA0180EFD05FB71F
:10297400014541016FD07FDA397106DE16DC1ADABF
:102984001ED82AD62ED432D236D03ACE3ECC42CA23
:1029940046C872C676C47AC27EC073110134896790
:1029A4009387078073900730B7F700E09387070891
:1029B40023A20700EF00300F11C5B7E700E011674D
:1029C40023A0E72089679387878873900730731162
:1029D4000134F250E2525253C2533255A2551256A8
:1029E40082567247E2475248C248324EA24E124FB4
:1029F400824F216173002030896793870780739029
:102A0400073083A74181850723AAF180828083A7A9
:102A140041818DE7EFD23FCE89679387078073901A
:102A2400073037660A2037650A201306064A9305DD
:102A340050111305C547EF20007201A0FD1723AA0A
:102A4400F18091E789679387878873900730828044
:102A5400930785007D575CC118C55CC51CC923203C
:102A6400050082802328050082809441FD571307C6
:102A74008500639DF6001C49D843D8C10CC79CC58A
:102A8400CCC31C4188C985071CC18280BA875843BE
:102A94001043E3FDC6FECDB7544118451C4998C602
:102AA40054C3D4436393A600D8C3232805008843A2
:102AB4007D1588C38280EFD21FC42A84EFF0DFF330
:102AC400005CEFF0DFF4133514006FD01FC5304104
:102AD400AA8709CED84794472E853297D8C763640E
:102AE400D7009843D8C7CC476FD0FFC38280EFD2BA
:102AF4009FC02A84EFF05FF0834454041309440216
:102B04009394446063489002FD57A302F404EFF0E9
:102B14001FF0EFF07FEE83444404130904019394FF
:102B2400446063459002FD572302F404EFF03FEE46
:102B34006FD0BFBE5C50E9DB4A85EF00F04D19C190
:102B4400EF007069FD14939444606DBF1C48E1DF8D
:102B54004A85EF00704C19C1EF00F067FD1493949F
:102B64004460C1B7EFD23FB91DE1896793870780FD
:102B74007390073037660A2037650A201306864C9F
:102B8400930570131305C547EF20E05C01A05C5D5D
:102B94002A84B5C73841B3B7E702B5E3AE84EFF092
:102BA400BFE534405C5C1840232C0402B387F60272
:102BB40058C03306F700958F3E97FD572302F4045F
:102BC40010C458C4A302F40495E01C4899CB13051F
:102BD4000401EF00704411C5B7E700E0116723A0BA
:102BE400E720EFF0DFE205456FD03FB313050401A2
:102BF400EFF01FE613054402EFF09FE5DDB78967A8
:102C0400938707807390073037660A2037650A2058
:102C14001306864C9305C0161305C547EF20A05331
:102C240001A0EFD25FAD29C1B337B5022A89AE84C2
:102C340085EF3305B502930770FB63E7A70213051D
:102C44008504EFF05F8B2A8409CDAA8799C0930786
:102C540085041CC0232E240324C085452285EFF05F
:102C64007FF022856FD07FAB89679387078073904D
:102C7400073037660A2037650A201306864C930509
:102C8400D0221305C547EF20004D01A0EFD21FA5A8
:102C9400011132C61DE1896793870780739007305D
:102CA40037660A2037650A201306864C9305305F81
:102CB4001305C547EF20204A01A02A842E898DE5FB
:102CC4003C419DC3896793870780739007303766BB
:102CD4000A2037650A201306864C9305705F130596
:102CE400C547EF20404701A0EF00B04F0DE5B247C4
:102CF4009DC38967938707807390073037660A20DE
:102D040037650A201306864C9305C05F1305C54733
:102D1400EF20604401A0EFF03FCE045C8DC8CA856B
:102D24002285EFF0DFDA1C48FD1404DC99CB13058F
:102D34000401EF00702E11C5B7E700E0116723A06E
:102D4400E720EFF0DFCC054505616FD07F9CB247EB
:102D540089E7EFF0DFCB0145C5BF2808EF00F03964
:102D6400FD59EFF0DFCA1D23EFF01FC98347440468
:102D74009397476063943701230204048347540400
:102D84009397476063943701A3020404EFF03FC8AC
:102D94006C002808EF00D03731E12285EFF0BFD175
:102DA40005C9B24513054402EF00501B2285EFF01C
:102DB4001FD4EF00E06911E5B7E700E0116723A035
:102DC400E720EFF07FC3045CB9F8B247D9FB51B7F1
:102DD4002285EFF0DFD1EF00A067E5B72285EFF0A1
:102DE4001FD1EF00E0662285EFF0FFCC79D9A5B7BB
:102DF40015E5EFD25F90896793870780739007305A
:102E040037660A20856537650A201306864C938544
:102E140035BD1305C547EF20003401A095CD37C655
:102E24000C20130706658147814613060665214871
:102E3400832847006397A800B3E7C6208CC3C8C3A0
:102E440021A891E78328070063930800BA878506C1
:102E54002107E39F06FDFDF38280EFD2DF892A84F8
:102E6400AE843289EFF05FB9834744047D5793976A
:102E740047606394E70023020404834754047D57A6
:102E8400939747606394E700A3020404EFF03FB80C
:102E94001C5C99E74A86A68513054402EF0090104E
:102EA4002285EFF0DFC46FD05F87EFD23F83B7078F
:102EB4000C2083A9C74BB7070C2003AAC74C3704BF
:102EC4000C20B7070C2083AA874CAA848327044DBF
:102ED4000325044D2E89A38807041105EFF0DFBBF9
:102EE400FD576390F404630E0902B7C70C2093875F
:102EF4000769D8438326044D104798C68326044D9A
:102F0400D0C68326044D910654C28326044D9106EF
:102F140014C70327044D5CCB9843050798C36FD0AF
:102F24002FFF8327044D8325044DCE94C4C39105FC
:102F340063F634015685EFF05FB3D5B75285EFF0F1
:102F4400DFB2B7070C2003A7074AE3FAE4FC23A087
:102F5400974AF1B737070C208327C74C9443B70728
:102F64000C2089E67D5723A0E74A82800327C74CBB
:102F740058471843CDBFEFD26FF6B7C40C203704BF
:102F84000C209384446AB7090C208327444C99E3AA
:102F94006FD00FF8EFF05FA6DC4403A9C700130558
:102FA4004900EFF07FAF83A7094CFD1723A0F94C2C
:102FB4008327444CFD172322F44CEFF05FA503252F
:102FC4000903EFF0CFF84A85EFF06FF87DBFEFD239
:102FD4008FF2EFF05FFAF5BFEFD26FEF9314260094
:102FE4002A8B26852E8AB68BBA89BE8AEFF0AFD09B
:102FF40001E57D556FD02FF12A8913054005EFF0C7
:103004008FCF2A846305051A130640058145EFD046
:10301400EFF24A852328240326869305500AEFD02D
:10302400EFF10329040363020A020147C146B3070F
:10303400EA00838707003306E400230AF60281C707
:103044000507E316D7FEA3010404B94763F4370365
:103054008967938707807390073037660A2037653E
:103064000A201306C64D9305A0771305C547EF2024
:10307400800E01A0130A4400528523263403232220
:103084003405EFF03F9E13058401EFF0BF9DBD476B
:10309400F114B38737413305990000C81CCC40D0E4
:1030A4005E86DA854199EFD0AFD308C063840A0005
:1030B40023A08A00EFF05F94B7070C2003A7074C06
:1030C400B7090C2037C90C20050723A0E74C03A738
:1030D400094D9304496F6310070E23A8894C03A775
:1030E400074C85476316F7061309496F938AC41280
:1030F4004A855109EFF0DF95E39C2AFFB7CA0C20FB
:1031040013850A6EEFF0DF9437C90C201305C96CE0
:10311400EFF01F9437C50C201305856BEFF05F9318
:1031240037C50C201305456AEFF09F9237C50C2074
:1031340013050569EFF0DF91B7070C20938A0A6E37
:1031440023A6574D1309C96CB7070C2023A4274D98
:1031540037070C208327474A85072322F74A370776
:103164000C205C548326874B63F4F600232CF74A27
:103174005147B387E702A697D843144718C454C4E9
:1031840023A246012324470198435CC8050798C33A
:10319400EFF0FF87B7070C2083A7474B99C783A796
:1031A400094DD8575C546366F7020545A1B54A85B5
:1031B400EFF0EFD93DBDB7070C2083A7474B585418
:1031C400C1FB83A7094DDC57E364F7F823A8894CB6
:1031D40041B7B7E700E0116723A0E720F9B7EFD2C2
:1031E4008FD14111B7670A200A8702C002C202C404
:1031F40002C69387074FBA858386070005078507AC
:10320400A30FD7FEF5FAB7070C2037350A209387AA
:10321400C7490147130600101305E5EEEFF0DFDBA5
:103224000544631F8502EF00102A631B850289672A
:103234009387078073900730B7070C207D5723A02E
:10324400E74AB7070C2023AAA74AB7070C2023AEE6
:10325400074AEFF06FE983A7818141016FD0EFCB7B
:10326400FD57E31AF5FE896793870780739007304B
:1032740037660A20856537650A201306C64D93858F
:1032840035EC1305C547EF10106D01A037070C206E
:10329400832787498507232CF7488280B7070C20AA
:1032A40003A5C74B8280EFD20FC5B7070C2083A7B5
:1032B4008749411163910718B7070C2003A4C74B32
:1032C400050423AE874A29ECB7070C2003A7C74C93
:1032D400184305C78967938707807390073037665B
:1032E4000A20856537650A201306C64D938525296E
:1032F4001305C547EF10306601A037070C2083A6DD
:10330400C74C0326874C23A6C74C2324D74C370726
:103314000C208327874A85072324F74AEFF09FC3AD
:10332400B7050C2083A7054A37C70C201307476F3E
:1033340037030C200145637FF4028327034DD146F4
:10334400DC57B387D7023E971843854763F3E700FA
:103354000545B7070C2083A7074B89E72AC6EFD09A
:103364003FE63245B7070C2083A7C74AE5E341018E
:103374006FD0AFBA370E0C20B70E0C20D14F65A01A
:103384008327CE4CDC47DC47D4436375D40023A0A9
:10339400D54A65B703A88700D047D44B9388470024
:1033A4002324C8002322060103A84600631318013E
:1033B400D0C2904223AA07007D1690C2945785C6B6
:1033C40003A8C701905303AF46002324C800232257
:1033D40006011388870163130F01D0C2904223A40E
:1033E40007027D1690C2D05783A68E4B63F4C600A5
:1033F40023ACCE4AB306F603BA9603A84600032FBD
:10340400880023A4070123A6E70123221F01232404
:103414001801D4CB9C4285079CC28327034DDC57FB
:1034240063F3C70005458327CE4C9C43B1FBFD578E
:1034340023A0F54A19B737070C208327074B8507C4
:103444002328F74AEFD0DFD7014515B7054505B75F
:10345400EFD2CFA84111EFF02FDAB7070C2003A762
:10346400874905E789679387078073900730376634
:103474000A20856537650A201306C64D938515FC19
:103484001305C547EF10304D01A003A787497D17E9
:1034940023ACE74883A7874989CB01452AC6EFF0C7
:1034A4000FD7324541016FD0AFA6B7070C2083A7D1
:1034B400074CE5D7B7C60C20B7C50C2081479386C7
:1034C400866BB70F0C209385456F5143370E0C2044
:1034D400B70E0C20054F49A0DC46DC479857C84F6F
:1034E40090530328470010C548C21385870163130E
:1034F400A80050C3104323A407027D1610C38847B5
:10350400D047D84B1388470010C548C248436313BB
:10351400050150C310437D1610C3D05703A78F4B2A
:103524006374C70023ACCF4A330766022E9748431F
:103534008328850088C723A6170123A20801232412
:1035440005010843D8CB050508C303270E4D58577A
:103554006374C70023A6EE4B98423DFF99C3EFF076
:103564007F9FB7040C2003A4044B09CC37090C201B
:103574008549EFF05FD319C12326394B7D1475F8C3
:1035840023A8044AB7070C2083A7C74AE38707F098
:10359400B7070C2083A7074D1167B7E700E023A006
:1035A400E7200545E5BDEFD20F9505E589679387CB
:1035B40007807390073037660A20856537650A20CF
:1035C4001306C64D938565941305C547EF10B038AF
:1035D40001A02E8485E5896793870780739007305F
:1035E40037660A20856537650A201306C64D93851C
:1035F40075941305C547EF10103601A0AA84EFF0A7
:10360400FFC8B7070C2003A5C74BB7070C2003A7B7
:10361400874985476305F702896793870780739015
:10362400073037660A20856537650A201306C64DBC
:103634009385F5941305C547EF10F03101A0984028
:103644003A94B336E4006372E50299C2636085027A
:1036540080C00144EFF0DFDF11E5B7E700E0116758
:1036640023A0E72022856FD04F8BEDD280C0330595
:10367400A4408145EFF07F830544E9BFB7070C20E0
:1036840003A78749B7070C2009C7054723A6E74ABC
:103694008280EFD24F8623A6074A37040C20832763
:1036A400044D8326044D0327044D9C5B9442185B10
:1036B4006372D702904337A7A5A51307575A631B14
:1036C400E600D4436398C60098476315D700DC47E7
:1036D400638AE7008325044D0325044D9385450340
:1036E400EFE00F8DB7050C2003A7854BB7C70C205F
:1036F40051489387476FB30607033386F6000842A1
:1037040005C94842A106BE96484148C26314D50083
:10371400544654C2D146B306D702B697DC43DC47BD
:103724002328F44C23ACE54A8327044D6FC0FFFEE5
:1037340005E78967938707807390073037660A2007
:10374400856537650A201306C64D9385F542130532
:10375400C547EF10502001A07D1771BFEFC2BFF91C
:1037640005E58967938707807390073037660A20D9
:10377400856537650A201306C64D9385554B130599
:10378400C547EF10501D01A0B7070C202E8483A558
:10379400074DE105EFF06FAD85452285EFF0EFF0C1
:1037A4006FC0BFF7EFC23FF5AA8705E58967938726
:1037B40007807390073037660A20856537650A20CD
:1037C4001306C64D9385354F1305C547EF10B01842
:1037D40001A037070C20D4432E85B2850326074D5C
:1037E40003A8860054CE0326074D23200603032690
:1037F400074D61062322C8000326074D0327074D02
:10380400610690C61CD79843050798C391C17D559E
:10381400EFF0AFE96FC07FF05C45DC4795E7EFC29E
:103824009FED8967938707807390073037660A2076
:10383400856537650A201306C64D9385A552130581
:10384400C547EF10501101A0D04F9453985793855A
:10385400870114C6D0C250436313B60054C3144343
:1038640023A40702FD1614C337070C200327874936
:10387400D45725EBD84B8C47D047484390C54CC20E
:10388400938547006313B50050C310437D1610C3DE
:1038940037070C200326874B6374D600232CD74AA2
:1038A40051463386C60237C70C201307476F329739
:1038B4005043084690C7C8C74CC10CC6D8CB1C435C
:1038C400014585071CC3B7070C2083A7074DDC57A8
:1038D40063F8D700B7070C20054723A6E74A054538
:1038E400828037C70C201307876B50430846D0CF1C
:1038F40088D34CC10CC698D7D9B7B7070C2083A777
:10390400874A1CC1B7070C2083A7C74B5CC18280C0
:10391400EFC27FDE411105E58967938707807390C5
:10392400073037660A20856537650A201306C64DB9
:103934009385A55D1305C547EF10F00101A02E8402
:1039440085E58967938707807390073037660A2077
:10395400856537650A201306C64D9385B55D130545
:10396400C547EF10407F01A02AC6EFF0EF88B707E4
:103974000C2083A6C74BB7070C2003A6074D32457E
:1039840003461605584109CE83A7074DA3880704AB
:1039940005452AC6EFF0AF87324541016FC0FFD716
:1039A4001C407D566387C70237060C200326864ACF
:1039B4000C416387C50063E5E60023200400C9BF0A
:1039C4003386E640E37BF6FE958FBA971CC0EFF092
:1039D400DFF201457DBFB7070C20054723A6E74A60
:1039E4008280B7070C2083A7474B054581CBB707D7
:1039F4000C2003A587491335150006058280EFC204
:103A04009FCF4CC108C9AA876362B602184D158EB0
:103A14000545637BE60093854700B7070C2003A5A3
:103A2400074EEFF08F8401456FC03FCF6375D6001A
:103A34000545E3FBD5FE9385470003A54190D5B723
:103A4400EFC27FCB2A84AE8432890C4CA6864A8688
:103A5400A6952285EFF0BFFA19E16FC01FCC1C4C6C
:103A64002285BE941C508297CDB7EFC2DFC883A7CE
:103A740041904111AA84DC472EC6C0471305440077
:103A8400EFF08F8183474402324613F7470019CB86
:103A9400A6852285EFF0DFFA1C502285829741012A
:103AA4006FC0BFC7F99B2302F402FDB7EFC21FC367
:103AB400AA8437090C20EFF06FFE8327494D2A842E
:103AC4006370F50283A74190984315E337070C20F0
:103AD4008326074E2320F74E854723A2D19011A0B9
:103AE40081479CC0232A894C22856FC07FC2DC4752
:103AF400FD558843EFF07FF7F1B7EFC23FBEB764DF
:103B04000A20797137090C20370A0C209384045158
:103B140083A741900546804301C4DC4701468043A6
:103B240032C6EFF0AFF60810EFF05FF88257AA85BF
:103B3400D1E7324625E2636485062AC6EFF05F9139
:103B4400B2452285EFF07FF202D002D202D402D62F
:103B5400A14A0325C94D01460C10EFF02F934DD90E
:103B64008257225563CF0704225465D45C4889C721
:103B740013054400EFE05FF26808EFF03FF382576B
:103B84002A86FD17E3E7FAFCB3C7972098438347D7
:103B94004402028783270A4E9043133616000325F6
:103BA400C94DB305B440EFF04FABEFF07F8A49FD48
:103BB400B7E700E0116723A0E72079B7EFF05F894A
:103BC40061B79257B25582978257E3C407F869BF29
:103BD40093E717002302F4020C4C92562AC622855E
:103BE400B695EFF0DFE135D583474402324613F74B
:103BF400470019CB1C4C92552285BE95EFF05FE42B
:103C04001C5022858297B1B7F99B2302F402CDBFE1
:103C140093E717002302F40292550CCC9DE18967C7
:103C2400938707807390073037660A2037650A2028
:103C34001306864F9305E0401305C547EF10A051C6
:103C440001A0AA86AA952285EFF07FDB19B713F7A6
:103C5400270009E72285EFE09FAFE5BDF99B23022A
:103C6400F402C5BDEFC23FA9EFE01FD937090C200C
:103C74008327C94DA9E7B7D40C2013854483EFE00B
:103C84003FDD37D40C2013050482EFE07FDC9384FE
:103C9400448323A2919013040482B7070C200146A5
:103CA400C145114523A0874EEFE0BFF7232EA94C51
:103CB40019C5B7650A2093854553EFF06F93EFE07C
:103CC4001FD56FC09FA5EFC21FA3EFF0BFF9B707C1
:103CD4000C2083A7C74D9DE3896793870780739062
:103CE400073037660A2037650A201306864F930586
:103CF40060141305C547EF10004601A0B7070C2058
:103D0400B7650A2037450A209387874D394781468E
:103D1400130600109385C5531305A5A1EFF0CFAB8F
:103D240045DD6FC09F9FB7070C2083A787473747A0
:103D34000F0013070724B3D7E7022396F190130764
:103D4400803EB387E70223A4F1908280EFC2BF9A3A
:103D540001112A848545254502C202C402C602C84F
:103D640002CA02CC02CEEFE06FB185451305001004
:103D7400EFE08FB2B71401402D46138504C091457E
:103D8400EFD01FD9C1477C828D473EC44C00E14728
:103D9400138504C03EC6EFD03FC9B70708000C081E
:103DA400372500403ECC22C802CA231E0100EFE0A2
:103DB400AFE6854537250040EFE00FF105616FC0A0
:103DC400DF95EFC25F932E893284814463C58400FA
:103DD40022856FC09F949305000437250040EFE0CF
:103DE400EFF075D9B30799008385070037250040A4
:103DF4008504B3C50508EFE06FEEC9BFAA8703A524
:103E0400C18137D70C2013078784AA9763EBE70097
:103E140037071020130707806365F70023AEF1808E
:103E240082807D5582803288AA882E87CDEA63FFFE
:103E3400C50EC167636AF618B7070001B337F60009
:103E4400B307F040E19BE1073353F60097360000D7
:103E5400938606889A96942213030002B697B306B3
:103E6400F340630BF3003397D500B357F5003318D1
:103E7400D6005D8FB318D500135608013355C70219
:103E8400B346080893D708013377C702B385A6025F
:103E94004207D98F63FAB700C2971307F5FF63E4AB
:103EA400070163E8B7303A858D8F33D7C702B3C8AB
:103EB4000808B3F7C702B386E602C207B3E8F800FE
:103EC40063FBD800C2989307F7FF63E508017917ED
:103ED40063E3D8003E874205598D8145828063F5AE
:103EE400D500814501458280C16763E5F618B707AF
:103EF4000001B3B7F600B307F040E19BE10733D804
:103F0400F600172700001307A77C4297182393088D
:103F140000023E973388E8406392E81863EDB626C2
:103F24003335C500134515008145828045C6C167F8
:103F3400637BF62413370610134717000E07B35696
:103F4400E600972700009387A778B6979C239306EB
:103F54000002BA97B38EF640639DF608B387C54056
:103F64008545935606013346060833D5D70213D741
:103F74000801B3F7D7023303C502C207D98F63FA26
:103F84006700C2971307F5FF63E4070163E0672244
:103F94003A85B387674033D7D702B3C80808B3F765
:103FA400D7023306C702C207B3E8F80063FBC800B0
:103FB400C2989307F7FF63E50801791763E3C80024
:103FC4003E874205598D82809337061093C71700A8
:103FD4008E079DBD8146972700009387676FB6972C
:103FE4009C23014793060002BA97B38EF640E387F9
:103FF400F6F63318D60133D3F50093560801335E31
:10400400D302B395D501B357F500CD8F33460808D5
:1040140013D70701B318D5013373D302B305C6030D
:10402400420333676700637BB70042971305FEFFC3
:10403400636A07176378B716791E42970D8F335555
:10404400D702B3C707083377D7023303A602420760
:10405400D98F63FB6700C2971307F5FF63E0071569
:1040640063FE67127915C29793150E01B3876740F3
:10407400C98DE5BD93B7061093C717008E0733D8D3
:10408400F600172700001307A76442971823930824
:1040940000023E973388E840E382E8E8335EE600B6
:1040A400B3960601336EDE00B3D8E500935E0E01CD
:1040B400B3D7D803B39505013357E5004D8F334388
:1040C4000E089356070133160601B3F8D803B30557
:1040D400F302C208B3E6160163FBB600F2969388B6
:1040E400F7FF63E3C60D63F1B60CF917F2968D8EF4
:1040F400B3D5D60333470708B3F6D603B308B302E0
:10410400C206558F637B170172979386F5FF636927
:10411400C70963771709F9157297C207C16ECD8F66
:104124009386FEFFB3F5D70013D30701F18E4182C6
:10413400338ED50233071741B306D30293580E01C9
:10414400B385C502B695C6953303C30263F3D500A0
:10415400769393D605019A966363D7026305D700D5
:104164003E8581458280C166FD1633F7D50042073E
:10417400337EDE00331505017297E373E5FE138584
:10418400F7FF81458280B70700016377F6029356F3
:10419400060141477DB38145054582803A85E9B5ED
:1041A400B685A5BF2A8E59BDC68791B77915C29722
:1041B400CDB37915C297CDB993568601614751B3F2
:1041C400370780007D179356750113D67501B377B1
:1041D400A70013F3F60F6D8F1358F5011376F60F3E
:1041E400FD81C2888E070E07B306C3406301B8047D
:1041F400635FD00021EE630A07101386F6FF630C99
:10420400062A9305F00F638DB616B286B1A0D5CAFF
:10421400B3066640631C031CFDC71385F6FF6307E2
:10422400052C1308F00F638B0615AA86F1A2635BB5
:10423400D0145DCE1306F00F6304C3141317A7291B
:104244006D46635AD61E85079A8681A01306F00F21
:104254006308C3121317A729ED45054663CDD5009E
:1042640013060002158E3316C700B356D700333732
:10427400C00033E6E600918F37070004B3F6E70089
:10428400DDEE13F777009A8649C313F7F70011465A
:104294006303C7009107370700047D8F3DC713856B
:1042A40016001307F00FC2886302E508139767002E
:1042B4001375F50F25835E05598D9397F8015D8D70
:1042C4008280130613001376E60F631B061463142F
:1042D400030A63890720630207103385E740370622
:1042E4000004698E63060622B307F7402E8841A0B6
:1042F40009CF1386F6FF6308061A9305F00F63814E
:10430400B608B28635BF2E88BA871307F00F8D839F
:104314006397E60CDDC31305F00F814837074000AF
:104324005E05598D9397F8015D8D82801305F00F1A
:1043340001475E05598D9397F8015D8D82807D1745
:1043440033F6E70093170660ED173316F60063C1E2
:104354006706B3866740850693070002958FB317F7
:10436400F600B337F0003356D600D18F814613F7E9
:10437400770001FF0DB76395071451DF2E88BA87C4
:104384008D8349BFA1C2B30666406316030EADDF39
:104394009385F6FF638905101305F00FE381A6FEEC
:1043A400AE86ED4563D2D51293071700B286F1BDF0
:1043B400B306F3409317A6495DBFC2881305F00FF7
:1043C4000147D5BD9306130013F6E60F45EE6317B8
:1043D400030E63820712631207128D838146A607B8
:1043E40013D7970013F5F60FC288F1B51305F00F34
:1043F400E306A6F89397A7296D480545634DD800B1
:1044040013050002158D3395A700B3D6D700B33733
:10441400A00033E5F600B307A74032832E88A9BD78
:104424003386E740B7060004F18EB5EA01FE814801
:104434000145014749B513060002158E3316C7001E
:104444003357D700B336C000558FBA9737070004E7
:104454007D8FE30807E2930613001305F00F01476D
:10446400E38BA6E43706007E13D717007D16858BF1
:10447400718FD98FEDBD9305F00FE302B6F09397DA
:10448400A72905B71306F00FE382C6EA3E979357B0
:10449400170013F67700E31A06DE8D8389B7330617
:1044A400F7402E8845B5BA97370700047D8F8946B3
:1044B40005434DFBF9B3998F05437DBBE38107ECBD
:1044C400E31B07E48D83B9B593050002958DB3957D
:1044D400B700B3D6D700B337B000DD8EB387E6009C
:1044E4003283ADB729D72E88BA87C5BDB307F74045
:1044F4002E88054351B3BA87CDB5BA973706000461
:104504007D8E814659DA9397A74985468D83C1BD2F
:10451400AA8711DD8D83E1B5935775019318950032
:1045240093F7F70F93D898007D81F1CB1307F00F21
:10453400638DE70C8E08138617F80147014E939894
:10454400A82993D775019396950093F7F70FA58241
:10455400FD81C9C71308F00F6380070D8E0693878A
:1045640017F8814E9396A6293D433348B5001D8E16
:104574006366E31A172300001303030B3347672012
:104584001C439A9782879307F00F0147139577018D
:10459400598D7E083365050182808D476304FE02D0
:1045A4008547631BFE0E2A888147014713957701CF
:1045B400598D7E083365050182808D472E85B68826
:1045C400639CFE0C9307F00F3707400013957701A7
:1045D4000148598D7E08336505018280C1EA13675D
:1045E4001700B5473348B500E3EFE7F89726000016
:1045F400938686073347D7201C43B6978287639AEE
:10460400080411470146054E2DBF639F0802214748
:104614001306F00F094E35B795E213672700751797
:10462400AD463348B500E3E1E6F8972600009386EB
:1046340026073347D7201843369702871367370076
:104644009307F00F8D4E0DB731471306F00F0D4E43
:10465400CDBD139708609307B7FFB398F80093078D
:10466400A0F83386E740014E0147E1BD1398066088
:104674009307B8FFB396F6009307A0F8B3870741F2
:10468400814EDDB5130616F08947E318FEF02A883B
:104694009307F00F0147DDBD2A889307F607635E91
:1046A400F00213F7780019C713F7F8009146630373
:1046B400D70091083707000833F7E80009C79307C4
:1046C40006089398B8491307E00FE34EF7EA1397E7
:1046D4006800258393F7F70F55BD854699C79D8ECE
:1046E400ED4581470147E3C3D5EA1307E60933974C
:1046F400E8003337E000B3D7D800D98F13F7770039
:1047040019C713F7F70091466303D70091073707DA
:1047140000047D8F55CB854701478DBD41671393B9
:1047240056007D17935503013377E30063F8D806E9
:10473400B3D6B802C6877D1681483385E602B3F73F
:10474400B702C207B3E7170163F8A7009A979388E3
:10475400F6FF63F66706C686898F33D5B702B3F7CB
:10476400B7023307E502C20763F2E702B3856700C5
:10477400B3B8F500130EF5FFAE876398080063F62F
:10478400E5007915B387650011A07285C206998F7B
:10479400C98EB337F000B3E8F60001B793D7180019
:1047A400B3D6B702FE0893D808013385E60241BFA9
:1047B4002E852A88D5BB014837074000C1BBE3FCDE
:1047C400A7F8F9169A9749BF9A0713D79700814714
:1047D40075BB2E856DBD13567501370780007D1797
:1047E40093D675011376F60F1308F00FB378A7006C
:1047F4009357F5016D8F13F5F60FFD8163050603DD
:10480400630A050105EA09E939C3639E0804A1C9DD
:104814002E85828039E719E2E38B08FE6399B7009D
:104824009DCF3E858280639E08026305C5020545CF
:104834009DE782806DDDE39CB7FEE34AC5FEE3415C
:10484400A6FEE36617FF0145E3ECE8FC8280E390F3
:1048540008FE828019E7E39CB7FC014582807D5500
:10486400828079558280E38EB7FCD1B713567501E7
:10487400370780007D1793D675011376F60F13085A
:10488400F00FB378A7009357F5016D8F13F5F60F6A
:10489400FD8163060603630A050105EE11E929CBD0
:1048A400639F0804B9C92E858280094501EB19E28A
:1048B400E38A08FE638BB7020545A1E38280639C0B
:1048C4000802E31BC5FE094575FBE397B7FE0145E6
:1048D40082807DD1E392B7FEE340C5FE6347A60024
:1048E400E36C17FD0145E3FBE8FC81CB3E85828048
:1048F400E39408FC8280094582807D558280E381AF
:10490400B7FE5DBF935775011317950093F7F70F23
:10491400935897007D81638507101307F00F638711
:10492400E7108E08938617F80147814E9398A829BB
:1049340093D775011398950093F7F70F13589800C0
:10494400FD81F9C31306F00F6388C704938717F832
:10495400338ED7000E08A947014693061E0013188C
:10496400A82963C3E7103343B50009451A8F63448C
:10497400E5047D17854563EEE5126300A60C8547C3
:104984007A83631BF6048147014613957701518DA1
:104994009317F3015D8D8280138EF60F630A080A64
:1049A4003343B5001367370029461A8F93860610E0
:1049B4006344E6200D463317E0281375075319CDD9
:1049C4008947638CFE068D476384FE02768685479D
:1049D40046887A83E309F6FA368EA9A293770724E8
:1049E40081EB1377870871C72E8FC288B28EC9BF37
:1049F4009307F00F01433706400013957701518D5B
:104A04009317F3015D8D828063140808368E136753
:104A14001700A947054693061E00E3D6E7F4A9A0AC
:104A2400639B080411478146854E19B763900804B7
:104A340021479306F00F894EE5BD9307F00F7A8363
:104A4400014613957701518D9317F3015D8D828093
:104A540013672700A9479386061039430946E3D410
:104A6400E7F0AD47E302F3F82A8F99BF3147930685
:104A7400F00F8D4E75BD139708609307B7FFB39879
:104A8400F8009307A0F8B386E740814E01474DB57F
:104A9400931708601386B7FFB387F640138EA7F801
:104AA400A9473318C80093061E000146E3DDE7EA70
:104AB40065BFC16E9387FEFF93D5080113550801A6
:104AC400B3F8F800B377F80033861703B387F50219
:104AD40013570601B3081503BE984697B385A5027C
:104AE4006373F700F69541657D15B377A700698E6A
:104AF400C207B2971396670013580701E983333747
:104B0400C0002E98D98F1A083368F800B707000838
:104B1400B377F80081CB935718001378180033E863
:104B24000701368E9307FE07635EF0021377780061
:104B340019C71377F80091466303D70011083707A4
:104B440000083377E80009C793070E081318B8491B
:104B54001307E00F6349F70413166800258293F7DF
:104B6400F70F25B5054799C71D8FED4681470146C7
:104B7400E3CDE6E0130EEE09331EC801B357E80097
:104B84003337C001D98F13F7770019C713F7F7002C
:104B940091466303D7009107370700047D8F01CB4B
:104BA40085470146DDB39307F00F0146F9BB9A0729
:104BB40013D697008147D1BB3D4E014337064000D1
:104BC400E305C7DD2D430D4669BDB7078000FD171A
:104BD40013D6750133F7A700935675019358F50161
:104BE400ED8F1376F60F1308F00F13F5F60F4683C7
:104BF4000E07FD81939637006302060593C51500E1
:104C0400B307C540638FB8006358F03035E6638C52
:104C140006141386F7FF6302062A638E0703B2871E
:104C240085A06356F0306DCA630705039396A629E1
:104C34006D466350F6140507AA87ADA8930715F0CF
:104C4400CDE693C515006382B80E638E071863071B
:104C54000510AE8836870D8313F318001305F00F83
:104C64003DCF1305F00F0143370740005E05598D12
:104C74009317F3015D8D8280E30F05FD9396A629BA
:104C8400ED45054663CDF500130600021D8E3396EF
:104C9400C600B3D6F600B337C00033E6F600118F72
:104CA400B7070004B376F700639306109376770092
:104CB400AA87D5CA9376F70011466383C600110705
:104CC400B7060004F98EC5C285079306F00F13F3E7
:104CD40018006385D70C1A0713F5F70F25835E05B3
:104CE400598D9317F3015D8D8280E390B8F6B1C3BB
:104CF4006313051C9307F00F35C79385F7FF63888B
:104D040005121305F00F6388A71AED4763DDB71A80
:104D140013871600B28779BFB9C61386F7FF6308F5
:104D24000610E38A07F3B28721B781C761D501472B
:104D34001DB79307150013F6E70F63180614631BDA
:104D440005166309071A6399061A0D838147260716
:104D5400258313F5F70F13F3180051B79307F00FDA
:104D640065EBAE8836879306F00F0D83E386D7EEA6
:104D7400F9BF130600021D8E3396C6003336C000F9
:104D8400B3D6F600D18E3697B7070004F98F99DFB2
:104D9400930715009306F00F6393D70A1305F00FDA
:104DA40001475E05598D9317F3015D8D8280FD17D0
:104DB4003376F70093170660ED173316F60063C8D1
:104DC400A704898F8507130700021D8F3317E60098
:104DD4003337E0003356F600518F814793767700DE
:104DE400E39A06ECF1BD9307150093F7E70F8DE7FF
:104DF40055E96DCFB9DAB307D740370600047D8E85
:104E0400630706103387E6408147AE88C1BFB30706
:104E1400F5401317A649D9B73306D740B70700049E
:104E2400F18FC9E741FA0143014501474DBD36976A
:104E3400B7060004F98E89470545E38906E6370677
:104E4400007E935617007D16058BF18E558F79B72A
:104E54001388F7FF630708081305F00FAE88638C07
:104E6400A704ED45854763CE050193070002B38788
:104E74000741B317F70033580701B337F000B3679E
:104E8400F8003387F640328521BD1306F00FE3871F
:104E9400C7F0BA9613D7160013767700E31C06E022
:104EA4000D8375B511EFE38E06DA65B33386E640FC
:104EB400AE8809B711E7368779BB158F0545CDB3A1
:104EC400E38B06D879BB930700028D8FB317F700E5
:104ED400B355B700B337F000DD8D3387D500328585
:104EE40065B53387E640AE8805455DBB8DDEAE888B
:104EF4003687A1BD368791BD369737060004798E73
:104F0400814759DE1317A74985470D8389B581DF8A
:104F14003E870D83814725BDE38707EC3308A64010
:104F2400C287E30F05E2AE881317A7291DBFE382EA
:104F340007E0B305A64019E1AE877DBB1317A72987
:104F4400E9B313577501931795001377F70F1306F9
:104F5400E00793D697009357F501635BE6001306C9
:104F6400D0096359E600370500807D153E9582809F
:104F7400014582801306500993967629634DE60015
:104F8400130660093307E640B3D6E6003305D04084
:104F9400EDF3368582801307A7F6B396E600FDB7D6
:104FA40013577501931795001377F70F1306E0074E
:104FB40093D697009357F50101456353E60091C3D7
:104FC40082809307E0097D55E3CCE7FE1306500980
:104FD400939776296357E6001307A7F63395E700FE
:104FE400828013056009198D33D5A70082801DCDF9
:104FF400B306A0409307E009B366D50A1306600917
:10500400939506608D8F1357F5016349F602214687
:10501400638AC508E115B396B60013F5F70FA60623
:10502400A5825E05558D7E07598D82800147014515
:1050340081465E05558D7E07598D82801306900941
:105044006346F60415461385B5FF6384C500B3961D
:10505400A60013F576001396A64919CDBD8A11450D
:10506400638CA6001106B7060004F18E91C693075F
:10507400F0098D8F1316A6499316660013F5F70FE2
:10508400A5825E05558D7E07598D82801386B501F4
:1050940015453396C6000D8DB3D6A6003336C00031
:1050A400D18E45BFA606A5821305600959B71DC553
:1050B4009307E0099316056013076009958F63440D
:1050C400F70221476383E608E1163317D500260764
:1050D40013F5F70F25835E05598D8280014501473D
:1050E4005E05598D8280130790096344F7041547C0
:1050F4001386B6FF6384E6003315C5001376750086
:105104001317A54905C23D891146630DC500110752
:1051140037060004798E19C61305F009B307D54084
:105124001317A74913F5F70F1A0725835E05598D41
:1051340082801387B60115463317E500158E333781
:10514400E0003355C500598D55BF2605135795000A
:105154001305600971B75D7122D406D62A842EDA4C
:1051640032DC36DEBAC0BEC2C2C4C6C603A50182E2
:1051740011C51C4D81E72AC6B12B32450C45541884
:10518400228636CEEF007023B250225461618280B1
:10519400011126CA06CE22CC4AC84EC652C4AA84DD
:1051A40019E11C4502901C4D2E89BDE325239C4C1E
:1051B4008044ADC39717000093878765631FF40489
:1051C400C0407C50858B81EB5E2493F7072081E7F8
:1051D400284CEF00E0685E24A18B99C31C48DDE3F2
:1051E400A2852685AD2A59CDFD547C50858B81EB53
:1051F4005E2493F7072081E7284CEF008066F24095
:1052040062444249B249224A2685D24405618280D9
:1052140000454DB726857D2971BF971700009387F8
:10522400275D6314F400804469BF971700009387D7
:10523400275AE318F4F8C04469B71CC4050963C8C5
:1052440007021C401387170018C08CA31C44834515
:105254000900FD17FDF11CC463D907022286A94584
:1052640026858120FD57E301F5F8A944BDBF184CFC
:1052740063C4E700E39745FD228626851D20E317D6
:1052840035FD9DB7FD59294AD1B71C401387170036
:1052940018C0294798A3D1BFAA8503A501826FF03E
:1052A4003FEF011122CC26CA4AC806CE4EC6AA84B4
:1052B4002E89328401C51C4D91E3292997170000DA
:1052C400938707556317F402C0401C4C1CC45E242A
:1052D400A18B99C31C4895EFA2852685492015C941
:1052E4007D59F2406244D244B2494A85424905613B
:1052F4008280971700009387A74F6314F4008044BB
:10530400E9B7971700009387A74CE310F4FCC04457
:105314006DBF1C4808409379F90F1379F90F1D8D5F
:105324005C486346F500A2852685912C55F91C44FA
:105334000505FD171CC41C401387170018C02380E3
:1053440037015C486388A7005E24858BD9DBA947B5
:10535400E319F9F8A28526851D2441D551B74111D9
:1053640022C426C24AC006C683A401822A892E8486
:1053740089C49C4C99E32685B12E97170000938726
:1053840027496313F402C0408317C40013F787004E
:1053940025E713F707010DEB25472320E90093E7E1
:1053A40007045EA47D5571A09717000093874744B6
:1053B4006314F4008044C9BF9717000093874741E2
:1053C400E314F4FCC044C9B7918B9DC34C5889C9FC
:1053D400930744046384F5004A85AD2B232A040211
:1053E4005E242322040093F7B7FD5EA41C481CC06E
:1053F4005E2493E787005EA41C4899EB5E241307A0
:10540400002093F707286385E700A2854A8545298C
:105414008317C40013F717001DC35848232404003E
:105424003307E04018CC1848014501E713F7070893
:105434003DF7B2402244924402494101828013F76D
:105444002700814611E3544814C4F1BF8397C50073
:10545400011122CC26CA06CE4AC84EC613F78700CD
:10546400AA842E8479E3D8416345E000B8416356A9
:10547400E008585459C303A9040023A004000C50A5
:1054840093D7C748A9CB70485E24918B99C75C40D9
:105494001D8E5C5899C33C401D8E5C540C50814653
:1054A40026858297FD57630CF5041C480567232263
:1054B40004001CC05E24F98F91C368C84C5823A013
:1054C400240185CD930744046384F500268559217E
:1054D400232A04021DA00146854626850297FD570E
:1054E4002A86E313F5FA9C40C5D375476385E70024
:1054F40059476395E70623A024010145B5A09840C8
:105504008317C40001CFF5466305D700D946631954
:10551400D7041C48232204001CC04DB7184823227A
:10552400040093D7C74818C041BF83A90501E38687
:1055340009FC03A905008D8B23A0350133093941EA
:10554400014791E3D84918C4E35920FB1C540C507B
:10555400CA864E8626858297634FA0008317C400AF
:1055640093E707045EA47D55F2406244D244424965
:10557400B24905618280AA993309A940F1B79C49CF
:10558400411106C622C426C281EB8144B2402244A2
:105594002685924441018280AA842E8401C51C4D33
:1055A40091E30D2A9717000093878726631DF40261
:1055B400C0408317C400F1DB7850058B11E793F7E3
:1055C400072099E3284C692C2685A285EFF01FE873
:1055D4007C50AA84858BDDFB5E2493F70720DDF7DE
:1055E400284C412465B797170000938767206314FC
:1055F400F40080447DBF971700009387671DE31A6A
:10560400F4FAC0447DB7411122C406C62A844EA5CB
:1056140072A523200500232205002324050023224C
:10562400050623280500232A0500232C050021460E
:1056340081451305C505EFB06F9097170000938758
:1056440007865CD097170000938707881CD49717A8
:1056540000009387C78B5CD4971700009387078E4D
:10566400B24000D01CD8224441018280970500003A
:10567400938525F149A2411126C29307800693849C
:10568400F5FFB384F4024AC02E8922C406C693856A
:105694004407652E2A8401CD2320050023222501F9
:1056A400310508C4138684068145EFB02F89B240C2
:1056B400228522449244024941018280138541910A
:1056C40045A21385419171AA1385819151AA13852D
:1056D400819141AA411122C406C62A84EFF0DFFE5B
:1056E4001C4C91C72244B24041016FF05FFE970702
:1056F40000009387E7F71CD423240404232604041E
:105704002328040483A741876394870085471CCC1E
:105714002285152848C022853D2008C422852520DD
:1057240048C4484001469145EFF0FFED0844054662
:10573400A545EFF05FED48440946C945EFF0BFECDD
:1057440085471CCC45B7411126C24AC006C622C4AF
:105754002A89EFF0BFF683A441879C4C81E7268514
:10576400EFF05FF7938484048044DC40FD1763D634
:1057740007009C40A5C78440C5BF0317C40021EFA0
:10578400C17785075CC41305840523220406C12858
:10579400EFF03FF3214623200400232404002322B6
:1057A400040023280400232A0400232C0400814538
:1057B4001305C405EFA09FF8232A0402232C040236
:1057C4002324040423260404B24022852244924460
:1057D4000249410182801304840649BF91454A85E8
:1057E400EFF07FE988C02A8459F5EFF09FEDB147C7
:1057F4002320F900D1BF797122D44AD04ECE52CCA5
:105804005AC85EC606D626D256CA2A892E8A1304D8
:1058140085048149054BFD5B0444832A4400FD1A39
:1058240063D00A0200406DF8B250225492540259D7
:10583400624AD24A424BB24B4E85F249456182805C
:10584400DE24637BFB008397E40063877701A685EE
:105854004A85029AB3E9A90093848406C9B7828071
:10586400828082805971A2D42E848395E500A6D2C9
:10587400CAD086D6B284368963D205025E2493F7F1
:10588400070895EB13070040B65026542320F9006F
:1058940098C0065996540145656182803000EF0036
:1058A400206FE34D05FC3247BD67F98F7977BA97CE
:1058B40093B71700C1BF814713070004F1B7DE2572
:1058C400797122D406D626D24AD04ECE898B2E8424
:1058D40091CF930774041CC01CC885475CC8B250A0
:1058E400225492540259F249456182807400300076
:1058F400AA84EFF03FF7A2492A892685CE85B122F2
:1059040019E98317C40013F7072071FBF19B93E790
:1059140027005EA47DBF97070000938767D59CD4BA
:105924005E2408C008C893E707085EA4B247232A88
:10593400340181CF8315E4002685EF00E06711C5AB
:105944005E24F19B93E717005EA45E2433E52701F0
:105954004AA471B7C5C183A7C5FF011122CC06CEE5
:105964001384C5FF63D307003E942AC6EF00406B3F
:10597400138701921C43324589EB2322040000C3A0
:105984006244F24005616F00206A637DF4001040B8
:10599400B306C4006396D7009443DC43B29614C0A4
:1059A4005CC0F1BF3E87DC4399C3E37DF4FE14433E
:1059B4003306D700631F86001040B29614C3330623
:1059C400D700E39FC7FA9043DC43B29614C35CC389
:1059D40045BF6375C400B1471CC15DB71040B30631
:1059E400C4006396D7009443DC43B29614C05CC0F1
:1059F40040C379B7828041114AC01389C19183277A
:105A0400090022C426C206C6AA842E8489E78145D9
:105A14008D212320A900A2852685A1297D59631AF9
:105A240025017D54B2402285224492440249410119
:105A34008280130435007198E30685FEB305A44003
:105A440026850529E31025FFE9BF011126CA9384A1
:105A54003500F1984AC8A104B14706CE22CC4EC6FF
:105A64002A89B3F4F40A63C4040063FDB400B147A3
:105A74002320F9000145F2406244D2444249B2492C
:105A840005618280712B9389019283A709003E846A
:105A940021E8A6854A85EFF01FF6FD572A8463178F
:105AA400F50A03A40900A287C9EB832904008145F0
:105AB4004A85A2997D2E6395A9081C408D044A85C8
:105AC4009D8CF198B147A104B3F4F40AA685EFF0D4
:105AD4009FF2FD576306F5061C40A6971CC015A04F
